:020000040100F9
:108600003DB8F3960000000000020000E8470000BB
:10861000000000000000000000000000000000005A
:10862000FFFFFFFFFFFFFFFFFFFFFFFFFFFFFFFF5A
:10863000FFFFFFFFFFFFFFFFFFFFFFFFFFFFFFFF4A
:10864000FFFFFFFFFFFFFFFFFFFFFFFFFFFFFFFF3A
:10865000FFFFFFFFFFFFFFFFFFFFFFFFFFFFFFFF2A
:10866000FFFFFFFFFFFFFFFFFFFFFFFFFFFFFFFF1A
:10867000FFFFFFFFFFFFFFFFFFFFFFFFFFFFFFFF0A
:10868000FFFFFFFFFFFFFFFFFFFFFFFFFFFFFFFFFA
:10869000FFFFFFFFFFFFFFFFFFFFFFFFFFFFFFFFEA
:1086A000FFFFFFFFFFFFFFFFFFFFFFFFFFFFFFFFDA
:1086B000FFFFFFFFFFFFFFFFFFFFFFFFFFFFFFFFCA
:1086C000FFFFFFFFFFFFFFFFFFFFFFFFFFFFFFFFBA
:1086D000FFFFFFFFFFFFFFFFFFFFFFFFFFFFFFFFAA
:1086E000FFFFFFFFFFFFFFFFFFFFFFFFFFFFFFFF9A
:1086F000FFFFFFFFFFFFFFFFFFFFFFFFFFFFFFFF8A
:10870000FFFFFFFFFFFFFFFFFFFFFFFFFFFFFFFF79
:10871000FFFFFFFFFFFFFFFFFFFFFFFFFFFFFFFF69
:10872000FFFFFFFFFFFFFFFFFFFFFFFFFFFFFFFF59
:10873000FFFFFFFFFFFFFFFFFFFFFFFFFFFFFFFF49
:10874000FFFFFFFFFFFFFFFFFFFFFFFFFFFFFFFF39
:10875000FFFFFFFFFFFFFFFFFFFFFFFFFFFFFFFF29
:10876000FFFFFFFFFFFFFFFFFFFFFFFFFFFFFFFF19
:10877000FFFFFFFFFFFFFFFFFFFFFFFFFFFFFFFF09
:10878000FFFFFFFFFFFFFFFFFFFFFFFFFFFFFFFFF9
:10879000FFFFFFFFFFFFFFFFFFFFFFFFFFFFFFFFE9
:1087A000FFFFFFFFFFFFFFFFFFFFFFFFFFFFFFFFD9
:1087B000FFFFFFFFFFFFFFFFFFFFFFFFFFFFFFFFC9
:1087C000FFFFFFFFFFFFFFFFFFFFFFFFFFFFFFFFB9
:1087D000FFFFFFFFFFFFFFFFFFFFFFFFFFFFFFFFA9
:1087E000FFFFFFFFFFFFFFFFFFFFFFFFFFFFFFFF99
:1087F000FFFFFFFFFFFFFFFFFFFFFFFFFFFFFFFF89
:10880000E80F0021BD8F000101C40001A98F000104
:10881000A98F0001A98F0001A98F000100000000AD
:108820000000000000000000000000007591000141
:10883000A98F0001000000000D910001A98F000127
:1088400039930001399300013993000139930001F4
:1088500039930001399300013993000139930001E4
:1088600039930001399300013993000139930001D4
:1088700039930001399300013993000139930001C4
:1088800039930001399300013993000139930001B4
:1088900039930001399300013993000139930001A4
:1088A0003993000139930001399300013993000194
:1088B000399300013993000100000000000000001E
:1088C00000000000000000000000000000000000A8
:1088D0000000000000000000000000000000000098
:1088E0000000000000000000000000000000000088
:1088F0000000000000000000000000000000000078
:108900000000000000000000000000000000000067
:108910000000000000000000000000000000000057
:108920000000000000000000000000000000000047
:108930000000000000000000000000000000000037
:108940000000000000000000000000000000000027
:108950000000000000000000000000000000000017
:108960000000000000000000000000000000000007
:1089700000000000000000000000000000000000F7
:1089800000000000000000000000000000000000E7
:1089900000000000000000000000000000000000D7
:1089A00000000000000000000000000000000000C7
:1089B00000000000000000000000000000000000B7
:1089C00000000000000000000000000000000000A7
:1089D0000000000000000000000000000000000097
:1089E0000000000000000000000000000000000087
:1089F0000000000000000000000000000000000077
:108A0000DEE61E284CBBCE8F023500003C00000085
:108A100036470000010000000088000100880001C6
:108A2000FFFF0291000000000000000000000000B5
:108A3000000000000000000000000000014B1B6867
:108A4000184700BF0000002130B585B004460D4630
:108A500010220021684603F0E6FF02238DF8023061
:108A6000044B2A4621466846019303F09DF805B061
:108A700030BD00BF3D8A000180B505460E46174651
:108A8000984602F02BFF034604F048F80446DFF84E
:108A90001890424649F8003039463046A84754F805
:108AA000090000F005FB00BF080000002DE9F047B9
:108AB000058B04462807904611D4022905F00705C6
:108AC00040F0CD80204603F0BBFB78B10138218B0C
:108AD000042811D8DFE800F0C3106D859500012946
:108AE0000CBF45F0100545F02005258388F311885B
:108AF000BFF36F8FBDE8F08701F0070AAA4500F0C9
:108B0000A6800027B9463E46A368002B00F0BD8032
:108B100041F00801218388F31188BFF36F8FA168AA
:108B2000002900F0BB800D68002900F0B7803346B3
:108B300052462046D1F80480C047002D76D02B68DD
:108B400029461D46F0E701F007035A1F012A1BD8EA
:108B5000002221F00701062B276889B2C4E9002210
:108B600009D13B4603E0628B013262831B68002B14
:108B7000F9D141F002012046218303F061FB002876
:108B80007BD041F0200177E0042B0AD121F00701CE
:108B900089B22046218303F053FB10B141F020013C
:108BA0002183218B01F0070AAA4550D00027B9463E
:108BB000AAE7236921F0070141F00601062DD3F849
:108BC000009021832DD1B9F1000F40D041F0080170
:108BD000218388F31188BFF36F8F20463949C84736
:108BE00029E021F00701236941F0040189B2042D35
:108BF000D3F804902183E6D000274FF0040A3E46C4
:108C000082E721F00701236941F0050189B2052DB2
:108C1000D3F808902183D6D000274FF0050A3E46AE
:108C200072E700274FF0060A3E466DE72B4687E7BE
:108C3000B9F1000FD1D14FF02003EFF3118883F386
:108C40001288BFF36F8F238B23F008032383258BB8
:108C5000EA062ED525F01003238305F00705666983
:108C6000218B002EBFF66FAF00232768C4E90033C5
:108C700021F0070141F001012183218B4FF0000910
:108C800001F0070AAA457FF43FAF002F9BD041F0C7
:108C90000801218388F31188BFF36F8F002FC7D09D
:108CA0003D68394633465246204603F0F5FA2F46D2
:108CB000F4E7AB067FF51AAF25F02003238305F018
:108CC0000705FFE6C5C20001014B036000207047A5
:108CD000C8CC000130BFFFF7FDBF00BF114B124AE7
:108CE0002DE9F041D518013DB5FBF3F5DFF83C80E7
:108CF0005D430F4B074608EB0304013CB4FBF3F460
:108D000003FB04540E1B30460A4903F07FFE701922
:108D100042460021083E03F086FE3E6704F108004B
:108D2000BDE8F08101000000000000000400000028
:108D30000400000094CC0001044B996858698842F3
:108D400003D003494FF080520A607047B0020021FF
:108D500004ED00E0154B9A6A12F0007F9A6A14BF86
:108D60001E201D2012F0807F9A6A18BF1F2012F467
:108D7000801F9A6A18BF022012F4002F9A6A18BF47
:108D8000212012F4802F9A6A18BF222012F4003F8B
:108D90009A6A18BF232012F4803F9A6A18BF2420D1
:108DA0006FEA02426FEA12429A62704700ED00E0F9
:108DB00010B5164B9A6A9C6A12F4805F14BF172292
:108DC000162214F4006F9C6A18BF1822A40509D556
:108DD0009A6B9A6A120404D518B19A6A22F4004276
:108DE0009A621922094B986A10F4806F986A18BF2A
:108DF0001A2210F4807F986A40F47F4098624FF006
:108E000000030CBF10461B200B7010BD00ED00E0EE
:108E100010B5154B0246986A9C6A10F0100F14BFEB
:108E20001120102014F0080F9C6A18BF1220A4070C
:108E300009D5586B986A000604D51AB19A6A22F0CF
:108E400080029A621320084B9A6A12F0010F9A6A04
:108E500018BF1420D20658BF9A6A9A6A42F0FF02DD
:108E60009A6200230B7010BD00ED00E0F0B5474B97
:108E700004465B6800258BB0C3F3080385F31188B3
:108E8000BFF36F8F02F07F40B0F17F4F11D102F03E
:108E90000C0008280DD010074CBF0C4601250022FD
:108EA000033B8DF80720032B05D8DFE803F024628D
:108EB000665F2C46F3E700239DF80720CAB902AE8F
:108EC00004F12007324620686168083403C2BC42BE
:108ED0001646F7D1099A002D53D0C2F3080121B9E3
:108EE0006FEA52226FEA42220992184602A903F061
:108EF00081FA0BB0F0BD254BDA6A9107DBD4DA6A50
:108F0000002AD8DBDA6A5200D5D55A69A16942F441
:108F100080725A61BFF34F8FBFF36F8F5A6931F878
:108F2000021C22F480725A61BFF34F8FBFF36F8F20
:108F30004DF60272914209D09A6AD2B242B1012032
:108F40000DF10701FFF764FF0346B5E72368B3E7B8
:108F50009A6A12F47F4F05D001200DF10701FFF747
:108F600027FFF1E79B6AB3F5803FA4D3FFF7F2FE3A
:108F7000EAE700200DF10701E4E700200DF1070109
:108F8000EDE722F4FF7222F00102ADE700ED00E010
:108F9000044B5A6942F010025A615A6942F48062E5
:108FA0005A61704700ED00E0EFF30880EFF30981AC
:108FB00001B57246FFF75AFF01BD00BF002080F3E4
:108FC0001488BFF36F8F002080F30A8880F30B882A
:108FD00000F0EEFC00200E490860BFF34F8F0D48F3
:108FE00080F3088800F03EF8202080F311880A48BA
:108FF0004FF40061401880F30988EFF314800221D8
:10900000084380F31488BFF36F8F00F0F5F8000079
:1090100094ED00E0E80F0021E8020021BFF34F8F3C
:109020000549064BCA6802F4E0621343CB60BFF304
:109030004F8F00BFFDE700BF00ED00E00400FA0520
:10904000002318460649D1F89020C2F30722934224
:1090500000DB7047C1F89830C1F8A0000133F6E793
:1090600000ED00E010B572B6002484F31388FFF71A
:10907000E7FF23464FF0FF300C4A03F12001013394
:10908000102B42F82100F8D100234FF0FF30074A9F
:1090900003F160010133102B42F82100F8D162B6D0
:1090A000BFF34F8FBFF36F8F10BD00BF00E100E033
:1090B000084B9B6883420BD1EFF3058343B1064B0A
:1090C0005A6842F080525A605A6A22F400425A6248
:1090D00003F060BCB002002100ED00E06FF00A0177
:1090E000084A93689967084958674B6843F080536A
:1090F0004B60002383F31188BFF36F8F9368986FE1
:10910000704700BFB002002100ED00E016498A68F8
:109110004FF030001044EFF3098C80E8F01F20205E
:1091200080F31288BFF36F8F104F4FF000664A69CB
:109130008A603E604FF07004141920680C4C206067
:10914000506F0023536780F3118802F1300090E8DC
:10915000F01F8CF3098802F1000004B503F05BF9FD
:10916000BDE8044070470000B002002104ED00E0BB
:10917000E00100211EF0040F0CBFEFF30880EFF3B5
:109180000980816911F8021C0229FFD001B503F0A2
:1091900033F901BD40B2002807DB01234109034A2E
:1091A00000F01F00834042F82130704700E100E0EA
:1091B000054B420953F82220012300F01F0003FA57
:1091C00000F01040704700BF00E100E040B200280E
:1091D00001F10101ACBF00F16040064B4FEA4111C3
:1091E000C9B2ABBF00F5614000F00F0080F800137A
:1091F0001954704714ED00E008B5084B084A23F0F5
:109200007F039360BFF34F8FBFF36F8F01F024FF95
:1092100002F06AFB00F084F801F068FF00880001AA
:1092200000ED00E042F8203C009B0B4942F81C3C5A
:10923000019B21F0010142F8183C029B42F8081CF6
:1092400042F8143C4FF0807342F8043C0023203A6B
:1092500002654367704700BF798A00010A4B046FBB
:1092600098600A4B1C60036E83F30B88104681F3F1
:109270000988002163B681F31188BFF36F8F002244
:109280000023FFF7F9FB00BFB0020021E00100213D
:10929000014910220A60704710ED00E001B500F0AE
:1092A000B1FABDE8014072B6404080F31188BFF3C7
:1092B0006F8F01B500F024FB00280AD0BFF34F8F59
:1092C00030BF00BF00BF00BF00BF00BF00BF00BF76
:1092D00000BFBDE8014062B6BFF36F8F704700BFAB
:1092E00001B500F08FFABDE8014072B6494081F344
:1092F000118801B500F004FB00280AD0BFF34F8F9E
:1093000020BF00BF00BF00BF00BF00BF00BF00BF45
:1093100000BFBDE8014080F3118862B6704700BF0E
:10932000002320210348C21801331E2B82F80013AA
:10933000F9D1704700E100E001B5EFF30580A0F13D
:1093400010004FEAC0000449014409C99847BDE82C
:109350000140024908470000A4CB0001398D0001FB
:109360001FB5094C094A23460121094800F0EAF8D3
:1093700000230393074B0121E41A01A801930294EF
:1093800000F0EAF804B010BD000001210000002147
:10939000C8CC0001A000002110B50C7A0B6804F0C5
:1093A0001F0223F01F031A43CB68640923F01F0335
:1093B000054943EA440343F00103C1F89800C1F8AA
:1093C0009C20C1F8A03010BD00ED00E02DE9F04F69
:1093D0000F46144606464FF000084E4D85B0B8457E
:1093E00080F29480D6F80490B9F1000F36D0B9F12C
:1093F0001F0F40F2898019F01F0F40F08580D6F8CA
:1094000000A01AF01F0F7FD1504603F008F88346E2
:1094100009EB0A00013803F002F8834574D11BF10F
:10942000160F71D05C456FDDC5F898B0D5F89C106B
:10943000C5F898B0D5F8A03021F01F0143F01F0AFD
:10944000D6E900321A44994202F1FF391ED1CA45C9
:1094500008D131465FFA8BF002F0EAFF08F101080B
:109460000C36BCE73146C5F898B0D5F89C3022F0F0
:109470001F0203F01F031343C5F89C30E0B202F053
:10948000D7FF10F1160F3FD0441CE7E7C5F898B09E
:10949000D5F8A020013B23F01F0302F01F02134365
:1094A000CA453146E0B2C5F8A030E8D002F0C0FFAE
:1094B00010F1160F28D0C5F898B0D5F89C209DF86B
:1094C00008300AF1FF3A62F304038DF80830D5F84A
:1094D000A0309DF808205B0863F347128DF8082040
:1094E000D6E900321344009323F01F03411C534478
:1094F000A3EB0903C8B223F01F030728039303D883
:109500006946FFF749FFBFE76FF01504204605B035
:10951000BDE8F08F00ED00E00522044BC3F8942075
:10952000BFF34F8FBFF36F8F704700BF00ED00E0B8
:10953000BFF35F8F0022024BC3F89420704700BF37
:1095400000ED00E010B5034C2278FFF73FFF2070DC
:1095500010BD00BFE00200212DE9F74F294D8A46DA
:1095600006464FF00008AB46274FD0451BDAD6F829
:109570000490B9F1000F3FD031680846019102F024
:109580004EFF0199044609EB0100013802F047FF44
:1095900084424FF014021D4B08D002FB08F36FF019
:1095A00015024BF8032003B0BDE8F08F14F1160F3D
:1095B0002C60F8D01978A142F5DD02FB08B0C7F89D
:1095C0009840C7F89840D7F89C4000F10801007B0C
:1095D00064F304000871D7F8A0000C79400860F328
:1095E00047140C71D7F89C1021F01F016960D7F85F
:1095F000A01021F01F01296108F1010814350C3673
:10960000B3E700BFE401002100ED00E0E00200212B
:10961000F0B5384D87B02C68082C67D80020FFF7CC
:1096200087FF354B354AC3F8C02084420DD1344DF5
:1096300001A82C70FFF748FB00240646314FA642D4
:109640000AD1FFF769FF00204EE0696801EB0011C5
:10965000FFF7A2FE0130E8E70199200101EB0413B6
:10966000DA683A40B2F5001F22D0B2F5800F2CD054
:10967000B2F5801F36D15A689B680958013B22F029
:109680001F0003440120844623F01F0340EA4C10CE
:109690008DF810002878CDE902210728059321D8FC
:1096A00002A9FFF779FE2B78013401332B70C6E74E
:1096B0005A689B680958013B22F01F0003444FF091
:1096C000020C012023F01F03E0E75A689B68095849
:1096D000013B22F01F0003444FF0000C062023F052
:1096E0001F03D3E76FF0150007B0F0BD4FF0FF3058
:1096F000FAE700BFD4CC000100ED00E0AAFF44006F
:10970000E00200210000F0FF08B50649064821F0FC
:109710000701C1F1045202F5803202F039FD002048
:1097200008BD00BFEF0F0021F8010021064AD2F862
:10973000AC3123F00043C2F8AC310022034BC3F834
:109740004C21D3F84C3170470020014100600141A9
:109750000122024B0020C3F8402570470000084159
:109760005023142213B51F4C0DF10700C4F80C351B
:109770001D4BC3F820214FF400621C4BC3F8BC25DD
:109780004FF48062C3F8382502F0AAFF184B9842C4
:1097900025D118499DF8070002F098FF16499DF859
:1097A000070002F098FF15499DF8070002F08EFFB0
:1097B00021469DF8070002F08EFF01209DF807303A
:1097C000984000F0F1FE4FF4002200200C4BC3F84B
:1097D0004423C3F84C01D3F84C3102B010BD6FF0F4
:1097E0000B00FAE700B000410030204100200141A9
:1097F0000000AD0B4C610141282001412C210141A9
:109800000060014173B5354BD3E84F3F0023344925
:10981000CDE90033334BD3F80445BFF35F8FD1F864
:109820000465BFF35F8FD3F804259442F3D16B46F0
:10983000224601212B4802F018FE324605460F2130
:10984000274801AB02F011FEE0B1019B0DB9009376
:1098500002E0009A9342FAD3009B22481C44013C48
:10986000D0F84C3524F07F449C421F4932D0FFF79A
:109870005DFFC0F84C451D4B009A9A4218D9012350
:109880000B7001E0002DE7D1194AD2F8AC3143F05A
:109890000043C2F8AC31134BD3F84C2132B901214B
:1098A000144A5160D3F84C3103B1116001230DE02B
:1098B000BFF35F8FD0F80435E41A24F07F440E4BD9
:1098C000033C9C42DBD900230B7000230B4A13702E
:1098D00002B070BD0B78002BF7D0D5E7E502002170
:1098E0000010014100600141E3020021FEFF7F0002
:1098F0000020014100B00041FBFF7F00E402002195
:10990000F8B51E490023C1E8423F52BB1C4B1D78ED
:109910003DB305231B4E1C4F34780134B4FBF3F3E5
:1099200003EB8303E41A02F0BBFE184A137823B159
:1099300057F82430C01A072813D9154BD3F814113F
:1099400041B10021C3F81411D3F8143134700CB9AB
:1099500001231370347802F0A3FE47F82400284650
:10996000F8BD0C4A0025D2F8AC3123F00043C2F810
:10997000AC310122084B5A60F1E700BFE50200213B
:10998000E4020021E202002104020021E1020021A0
:10999000005000410020014100B0004120B1034BC4
:1099A000800143F001031847704700BFC0CC00019D
:1099B00000F056BD084B70B5C31A0D4607499B1001
:1099C000044659434022064802F09CFD2B460146BE
:1099D0002046BDE8704018472C020021B76DDBB669
:1099E00068CB0001402373B50B4C0093041B0B465E
:1099F0000D460A49A41061430646094A094802F087
:109A0000AEFD011E05DA30462B4602B0BDE87040BF
:109A1000184702B070BD00BF2C020021B76DDBB645
:109A2000CBC5000168CB000170B5002201210446BE
:109A30000520FFF7CBFB0F4800F014FE0E4B9842B9
:109A400015D100F01FFE26690C49304602F048FC93
:109A500000280BDB012535642469084904F11C004A
:109A600002F03EFC002801DB0020E56470BD6FF0D1
:109A70000400FBE7B59A00010000AD0BFCCC00012F
:109A800001460C2300224B4370B50848C4184033EC
:109A90001844D4E90E56A26302F021FD2DB13246DE
:109AA0002B46BDE870400248184770BD2C020021CB
:109AB00068CB000110B1012804D07047034B1B6C28
:109AC0005B0701D1FFF7DCBF704700BF2C0200210C
:109AD00008B54FF02003EFF3118183F31288BFF331
:109AE0006F8F114A136843F002001060DA0708D440
:109AF00081F31188BFF36F8FBDE80840012000F0AB
:109B0000D7BD0A4BD3F80C24D3F80C34DB07EFD5C0
:109B1000074802F0E4FC81F31188BFF36F8FBDE8C2
:109B200008400020FFF7ACBF7C020021005000413C
:109B30006C0200211FB500220123CDE902236B46F0
:109B4000084ACDF800D0CDF804D002F037FD002847
:109B500005DB4FF480420023684601F0E3FB05B0CB
:109B60005DF804FBE9C5000110B54FF02003EFF3E9
:109B7000118483F31288BFF36F8F074A136823F0B1
:109B80000201DB07116002D4012002F0ABFD84F377
:109B90001188BFF36F8F10BD7C0200212DE9F041C9
:109BA000012207463549D1E8EF3FC1E8E02F002800
:109BB000F9D133B9324933484B60CB608A6002F047
:109BC000A2FB7B1E012B28D8012F06D12E4BD3F8E8
:109BD0001C3403F00303022B1FD002F00CFE0546D9
:109BE000E8B92A4B1B78D3B102220646264BC3F8AC
:109BF0000823254CDFF89880D4F81824D4F81834BA
:109C0000D20316D503F00303022B01D0012F10D18C
:109C100075B386F31188BFF36F8FBDE8F0814FF005
:109C20002003EFF3118683F31288BFF36F8F0125B2
:109C3000DFE7C5B13046FFF753FBD4F81835DBB288
:109C4000012BD9D1D4F80421002AD5D00022C4F8A0
:109C50000421D4F804210222C4F818252022C8F8CF
:109C60008021A360C8E70021212001F01DFEE4E768
:109C70000222054BC3F80423CFE700BF28020021CE
:109C8000180200214802002100500041E602002194
:109C900000E100E0F0B5406801F01F04057B87B0EB
:109CA00044EA45140569002D63D0B2F5001F00F1A8
:109CB000100506D12146284602F093FD002007B08A
:109CC000F0BD0027B2F5800F01AE0197776039D162
:109CD000B3F1007F14BF052304238DF80430002363
:109CE000CDE904630393836823FA01F111F00101C4
:109CF0001AD1B2F1A07F17D104F01F03620903F15A
:109D000080032AD0012A3AD11E4A52F82330DB07B9
:109D10000AD40DF1030632462146284600F0BAFF68
:109D2000194B98421BD002962146284603AA00F000
:109D30006DFE164B98421FD101222146284601F0A4
:109D40000FF8BBE7B3F1C06F05D0B3F1007F14BFCC
:109D500001230223C1E70323BFE70D4AD5E73146BC
:109D6000284600F0F7FF094B9842DCD06FF00B005B
:109D7000A5E76FF08500A2E76FF015009FE751F8A7
:109D80002330FFDE00088C410400AD0B0000AD0B5A
:109D900000058C4138B545682B69B3B110352846AC
:109DA00000F0C8FF044680B90146284600F08CFF49
:109DB000084B98420BD122462846074900F064FF21
:109DC000224605210A20FFF701FA002038BD6FF076
:109DD0000400FBE70000AD0BDD9D000142090346D6
:109DE00070B502D0012A17D070BD0D4E326951688E
:109DF0000029F9D0012503F01F030C689D400029BC
:109E0000F2D08A682A4002D030464B6898472CB17D
:109E1000236821461C46F2E7024EE7E72346F8E7AF
:109E200090CB00017CCB00012DE9F04340F20635D8
:109E30004668D00648BF0320337B02EA050558BFB9
:109E4000C2F3401087B001F01F07B5F5837F1446B9
:109E500047EA43178DF8030043D00FD8062D18D0DA
:109E600007D8B5B1022D3ED06FF0150007B0BDE8A0
:109E7000F083B5F5807FF7D101250AE040F2022298
:109E8000954232D0B5F5407F31D0B5F5007FEBD1AA
:109E9000022522032DD5012372688B40936032691D
:109EA00082BB07F01F037F092AD0012F77D13E4ADA
:109EB00002EB830284F48033D2F80012C3F3004330
:109EC000C4F3404444EA430421F4706144EA80044A
:109ED00021F00F0144EA05230B43C2F800320020B1
:109EE000C4E70725D5E70425D3E70525D1E70325F2
:109EF000CFE7630341BF012372688B40D360CEE795
:109F00002A4AD5E71036394630460DF1020200F0F4
:109F1000C1FE14F4403F80460CD13946304602F071
:109F20005EFC234B9845DAD130469DF8021000F0D4
:109F30000BFFD4E74FF0000901AB3946304603AAC6
:109F4000CDE90439CDE90199CDF80C9000F05EFD22
:109F5000174B984288D114F4003315D09DF8033084
:109F600084F48034C4F300448DF80E3039464B46F7
:109F7000304603AA8DF80C508DF80D4000F002FE1B
:109F80000B4B9842CDD06FE7CDE9043339460DF144
:109F90000303304603AA039300F038FDF0E7803353
:109FA00052F82330FFDE00BF00088C4100058C41D1
:109FB0000000AD0B0123834070B5DC430B4AD2E8AF
:109FC000EF1F01EA0405C2E8E65F002EF7D14FF467
:109FD000803282400648C0F80823BFF35F8FBFF38A
:109FE0006F8F0B4214BF0120002070BD9C02002126
:109FF0000060014170B40E4922F07F46D1E900347F
:10A00000D01AC31844F10004C1E90034A6F50013C6
:10A01000B3F5400F09D2074B1B681A0A1B069C199F
:10A02000054B42F10005C3E9004570BC01F032BDAB
:10A03000B0000021A0020021B8000021D9B1012305
:10A040000D4A8340D2E8EFCF4CEA030CC2E8E1CFDF
:10A050000029F7D14FF48033084A8340C2F8043313
:10A06000074BD3E8AF3FC340DB0742BF4FF480024A
:10A07000044BC3F8002170479C020021006001419D
:10A080009802002100E100E00D4B1868010A00066B
:10A09000BFF35F8F0B4BD3F80435181841F1000163
:10A0A000B3F5801F0AD2084BD3E90023904271EB2D
:10A0B000030303D210F1807041F10001704700BF2B
:10A0C000A002002100600141B80000212DE9F04FFD
:10A0D00085B016461F4604469DF840A0FFF76AFF6C
:10A0E0000190FFF7D1FFB04271EB070352D23B4B17
:10A0F000301A67EB0101984271F100014DD2384BE3
:10A1000003EB0413D3E902239F4208BF964258D0C1
:10A110004FF48038334908FA04F8204626F07F4B84
:10A12000C1F8488302F0B0FA4FF00309584604F131
:10A130005005AD00ADB205F1824504F5A87305F5F3
:10A14000B0350293029A20F07F4341F82230C1F8E3
:10A150004483D1F80435244AC01A033820F07F40E4
:10A1600090422ED9286868B1D1F80435A3EB0B00D2
:10A1700020F07F40B0F5000F039322D9204602F073
:10A1800083FA039BBAF1000F07D109EB030009F131
:10A190000109D7E7BAF1000F09D06FF01505204685
:10A1A0000199FFF74BFF284605B0BDE8F08F01236A
:10A1B0000E4AA340D2E8EF0F1843C2E8E10F00298E
:10A1C000F8D107490E982301C8500F9B01EB0412E8
:10A1D0000025C2E902675360E1E700BF010080008B
:10A1E000A000002100600141FDFF7F0098020021D6
:10A1F0007FB500254FF0FF304FF0FF31194C1A4B5F
:10A200000226C4F80833C4F84833184BC4F808557C
:10A21000C3E902014FF480334FF48002C4F80433E1
:10A22000134B0121C4F804631620C3F880212A4689
:10A23000FEF7CCFF1620FEF7ADFF01230D4AA36009
:10A24000236013600C4B0D4A009328460023CDE990
:10A250000155FFF73BFF3046FFF7A0FC284604B04E
:10A2600070BD00BF0060014103000F00A00000218D
:10A2700000E100E09C020021F59F0001FFFF7F004C
:10A280002DE9F74302F020F92E4BD3F80423900771
:10A290000BD5D3F8042142B10022C3F804212A4A85
:10A2A000D3F80431136801331360264AD2F804331B
:10A2B000D90327D5254BD3E8EF1F21F00100C3E8D0
:10A2C000E40F002CF7D1CB0702D4D2F84031CBB148
:10A2D00000251C4CC4F84051D4F84031FFF7D4FE9F
:10A2E0004FF02003EFF3118283F31288BFF36F8FD7
:10A2F000174BD3E90267B042B94106D282F3118805
:10A30000BFF36F8F03B0BDE8F0834FF0FF38D3E9A0
:10A3100000104FF0FF391D60C3E902894FF480330C
:10A32000C4F84833C4F84051D4F8403182F311885E
:10A33000BFF36F8F0029E5D0009032463B46284698
:10A340008847DFE700600141A00200219802002158
:10A35000A000002130B5431C124C85B005D08442CA
:10A36000A8BF0446012CB8BF0124FFF78DFE0E4B99
:10A370000C4DD3E90013401AB0F5000F0FD222188C
:10A38000AA4228BF2A46002052180849CDE90100F8
:10A39000009143F10003FFF799FE05B030BD2A4656
:10A3A000F1E700BFFFFF7F00B0000021F59F000133
:10A3B00008B5FFF769FE024B1B68C01A08BD00BF55
:10A3C000B00000212DE9F043214885B002F070F97A
:10A3D000002604461E4B1F4FD3F83880DFF87890D4
:10A3E000B04503D8002005B0BDE8F083636A97E864
:10A3F00007001D6801AB83E807000C2219462846B8
:10A4000002F019FB78B975B122692B699A420AD119
:10A41000AB69A2699A4206D8E2699A4203D9636994
:10A420006A6993430AD0256A65B10C4801F01BFEA6
:10A43000404080F311884FF0040002DFE3680136EA
:10A440001C44CDE7484601F00EFE636A1D60F5E747
:10A45000008A0001A0CC000103CE0001DACD00018A
:10A460000022D30003F1FF7303F58033D3F8001308
:10A47000013107D0D3F800130132D3F80433202A76
:10A480000B60EED1224BD3E94C32072B26D1023A96
:10A49000032A204B28D9D3F80024D10732D41C4BEF
:10A4A000D3F83021072A19D1D3F83431023B032BDA
:10A4B00002D8194AD35C8BB17F23184A1849C2F8D5
:10A4C00018310023C1F8043EC1F8083EC2F8243117
:10A4D000C2F82C3102F57F22C2F81031114B1A68F4
:10A4E000114BC3F84425704710498A5C002AD2D02A
:10A4F000D3F80024D207CED50022C3F81421C3F824
:10A500001821C8E76FF00102C3F80024C7E700BFB5
:10A510000000FF010050004136CE00010020004144
:10A52000000008410080FF01006000413ACE0001B8
:10A5300030B50468ACB1B4FA84F30122C3F11F034F
:10A54000DBB29A4024EA0202D0E8EF5FA54204D1D0
:10A55000C0E8EC2FBCF1000FF6D1EAD102480B7035
:10A5600030BD0248FCE700BF0000AD0B0200AD0BA0
:10A5700010B50368CB40DB0710D401238B40026881
:10A5800043EA0201D0E8EF4F944204D1C0E8EC1F47
:10A59000BCF1000FF6D1F2D1014810BD0148FCE733
:10A5A0000000AD0B0400AD0B014BC3F80405704770
:10A5B00000F00041F7B5044618B1012822D003B0DD
:10A5C000F0BD0222264B0646C3F808230122DA60BA
:10A5D000C3F80401D3F80431012342F21075204F6F
:10A5E0008DF80730D4B1012CE9D1D7F80C3403F43D
:10A5F000803386BB002BE2D0012002F065F8013DDC
:10A60000F3D1DCE70022164B0DF10706C3F808036F
:10A610005860C3F80021D3F80031DDE7D7F81834CB
:10A6200003F480333EB9002BC9D0012002F04CF86E
:10A63000013DF3D1C3E7D7F8182402F003023270CA
:10A64000002BBCD09DF807000128B8D102F03CF8DF
:10A65000013DC7D1B3E7D7F80C2402F00102EEE7C1
:10A6600000500041044B1A7922B9012218601A7176
:10A670000248704702487047A40200210000AD0B59
:10A680000C00AD0B08B5084B1B6833B10520FEF775
:10A690008FFD10B90520FEF77DFD0122034BC3F8A5
:10A6A0001825C3F8142508BDA4020021005000415C
:10A6B00010B510B1012848D010BD294BD3F818149B
:10A6C000D3F81824C90324D502F00303022B05D0C4
:10A6D000012B02D00020FFF76DFF0123204A02204A
:10A6E000C2F8183508224FF48273002103F1824327
:10A6F00003F5A04319601C68012402F1824202F5AF
:10A70000A0421460174A12681AB3154BC3F8040329
:10A71000D2E7D3F81424D207DFD5D3F81C2402F0F3
:10A720000302013A012AD5D80E4A12681AB1022250
:10A73000C3F80423C0E7D3F80421002AFBD0002289
:10A74000C3F80421D3F80431B6E700224FF4807334
:10A75000CBE71A68002AFCD019601B68ACE700BF81
:10A7600000500041A402002110B5164BD3F800217F
:10A7700052B10020C3F80001D3F800210122C3F830
:10A780000823114B1B6898470E4BD3F8042182B164
:10A790000022C3F80421D3F80421D3F81824D3F8F5
:10A7A0001824022102F00302012A03D1C3F818156C
:10A7B0009A6010BDC3F80813034B0120BDE8104098
:10A7C0001B68184700500041A402002101460148BF
:10A7D000FFF7AEBE04000021036803F01F025B090F
:10A7E000026004D0012B034818BF002070470248C4
:10A7F000704700BF00088C4100058C41034A4309A3
:10A80000D35C00F01F001844C0B270473ECE000178
:10A8100070B50546FFF7F2FF0C4C083034F81030E5
:10A820000E46DA0508D5C3F3432304EBC3022846DA
:10A8300054F8333052689847A3682BB13146284604
:10A84000E268BDE87040184770BD00BF08000021F5
:10A8500008B5FFF7D3FF034B083033F81000400B67
:10A8600008BD00BF0800002108B5FFF7C7FF034B74
:10A87000083033F81000C0F3400008BD0800002184
:10A8800008B5FFF7BBFF034B083033F81000C0F3E7
:10A89000401008BD08000021034611F0010010B56A
:10A8A000CCB20BD1A207C4F340000DD5074A106A01
:10A8B00058601062003818BF012005E004490A6A98
:10A8C0001A600A62002AEDD010BD00BF00088C415A
:10A8D00000058C4110B5FFF791FF124A083032F89D
:10A8E0001030D9051CD5C3F3432123F4F85322F8C3
:10A8F0001030002002F10E0434F8023F13F4807F80
:10A9000003D0C3F3432399420AD001303028F3D156
:10A91000002342F831300448BDE81040FFF728BE5C
:10A9200010BD00BF0800002180000021F0B50546E1
:10A9300000200126044607468C420BD1114BD3F868
:10A940007C2132B10022C3F87C21D3F87C3140F065
:10A950000040F0BDE3B29B0003F580729B0806FA4D
:10A9600003F31D420BD002F1824202F52042D2F8DD
:10A9700000C0BCF1000F02D0176012681843013408
:10A98000DAE700BF00A00041F7B506460846FFF72A
:10A9900035FF1A4F00F1080537F815300C46DB0774
:10A9A00029D5304601F0F8FE2046FFF769FF50B187
:10A9B0002046FFF74DFF0023316801EB8000C0F80F
:10A9C0001035C0F810352046FFF784FF002301A89A
:10A9D00027F815300194FFF7FFFE019B00EB830081
:10A9E000D0F80022064B134043F00203C0F80032B7
:10A9F000044803B0F0BD0448FBE700BF0800002195
:10AA0000F0F0FCFF0000AD0B0400AD0B2DE9F043AE
:10AA10001646804685B00846FFF7F0FE0D463168C1
:10AA2000044609B32846FFF71FFF18B12846FFF771
:10AA300027FF10BB00230DF10F02CDE900338DF885
:10AA40000E308DF80F3028460B460DF10E0101F047
:10AA50004BFE484A04F1080132F8113023F002039A
:10AA600043F0010322F8113073687BB328461F7846
:10AA70005968FFF7F9FE10B1E9B13F4829E03D4AB6
:10AA800004F1080032F8103023F02003DB04DB0C63
:10AA900022F8103079B1032FEFD87168496891F826
:10AAA00000C0D8F800104FEA8C094944A7B9C1F892
:10AAB0001075C1F810752F4A04F1080132F81130F1
:10AAC00023F01C0343EA870322F81130B3683BBB31
:10AAD0002A4805B0BDE8F083D1F810E543EA4C33CD
:10AAE0002EF0030EC1F810E5D8F8001043F0200353
:10AAF00001EB090EDEF8101522F8103021F44F3169
:10AB000021F44071CEF810152902DEF8108501F409
:10AB10007C5141EA074141EA0801CEF81015CAE725
:10AB20002846D3E90067FFF7D5FE002ED0D0114D9F
:10AB3000D5E90023964203D19F4201D1002209E0CA
:10AB40000F480DF10F01FFF7F3FC0C4B9842C0D1F9
:10AB50009DF80F2005EBC20308345F6035F8143010
:10AB600045F8326043EA422343F4807325F81430F9
:10AB7000AEE700BF080000210400AD0B0000AD0BE4
:10AB8000800000212DE9F0430C46804685B0204628
:10AB900011461E46FFF732FE054629B32046FFF751
:10ABA00063FE18B92046FFF76BFE18BB334F05F163
:10ABB000080937F8193013F01C0F02D04B78012B1D
:10ABC00018D001238DF80F3000234A1CCDE9001363
:10ABD00020468B1C0DF10F0101F086FD37F819306E
:10ABE00043F0030327F81930002E44D02046FFF726
:10ABF0003BFE18B9224805B0BDE8F083002296F864
:10AC000000C0D8F800301D4F03EB8C03C3F81025AB
:10AC1000C3F8102505F1080237F812104FEA8C0E20
:10AC200021F02001C904C90C27F81210757815B35A
:10AC3000D8F80000B6787044D0F810352D0423F40D
:10AC4000991323F4F853C0F81035230203F47C530E
:10AC500005F440353605D0F810E52B4306F4801690
:10AC6000334341EA4C3143EA0E0341F02001C0F87E
:10AC7000103527F812100348BDE700BF0800002177
:10AC80000400AD0B0000AD0B014BC3E9021270478D
:10AC90000800002110B508461446FFF7F1FD50B139
:10ACA0000846FFF7ABFD054B083033F81030044879
:10ACB0005B0B237010BD0348FCE700BF08000021B8
:10ACC0000000AD0B0400AD0B70B5174E054696F8AD
:10ACD00080403CBB2146602206F1100001F0A3FE3B
:10ACE00021462D68306F884212D1002345F307308A
:10ACF000C5F87C31D5F87C31FEF74CFA4FF00043B3
:10AD0000C5F804330123094886F88030B36770BD65
:10AD1000CBB29B0003F580727C2B04BFAC50AB58C8
:10AD20000131E0E70248F2E7080000210000AD0B26
:10AD30000C00AD0B034B93F88000003818BF0120C6
:10AD4000704700BF080000210148FFF711BC00BF99
:10AD50007C0000210148FFF7EBBB00BF7C00002115
:10AD600073B5054608460C461646FFF789FDE8B15F
:10AD70000846FFF779FD0146C0B92046FFF768FD98
:10AD80002C68820002F58073E150E3582B6813446D
:10AD9000D3F8102542F00102C3F8102526B1012393
:10ADA0002A688340C2F8043302B070BD2046FFF722
:10ADB00025FD0F4B083033F81030C3F38203042B0A
:10ADC00011D0052B11D001A80194FFF705FD019AC0
:10ADD0000369D34003F00103991C204602B0BDE88B
:10ADE000704001F0CABC0321F7E70221F5E700BF7C
:10ADF000080000212DE9F04F684BDFF8A481D3F85B
:10AE00000403D8F87010C0B289B040F00040FFF7DA
:10AE10008DFD051E2FDAC24600235AF87C1F06A8B6
:10AE2000CDE90633FFF738FD4FF0000B5D4B0DF118
:10AE300018090193019A12F8013B0192DA081AF8F5
:10AE4000022003F0070322FA03F3DA071CD409F106
:10AE50000409BBF1000F14D0D8F870104FF0004077
:10AE6000FFF764FDD8F87C1006A8FFF715FD002851
:10AE7000DAD125F000450124002D76D109B0BDE8D6
:10AE8000F08F4FF0010BD5E7474B5B440293D9F8A5
:10AE900000100029DBD091FAA1F1B1FA81F1029BF7
:10AEA0001C7841EA44142046FFF7A8FC083038F823
:10AEB0001070C808BB080393012319F8002001F0A3
:10AEC000070103FA01F122EA010209F8002005A8AE
:10AED0000594FFF781FC059A039B803250F82220ED
:10AEE000C7F382065B073746C2F3014222D52046EC
:10AEF0003946D6B2FFF78CFC05A80594FFF76CFC29
:10AF0000059B803350F82330C3F301439E4207D1A1
:10AF10000021204601F031FC3146204601F02DFC95
:10AF200005A80594FFF758FC0122059B02FA03F3DC
:10AF30000362ACE7022A0CD10321204601F01DFC7C
:10AF400006F00503012BEBD139462046FFF760FCE4
:10AF5000E6E702212046039201F00FFC032EF3D016
:10AF6000039A032ADCD1022EEDE795FAA5F3B3FA92
:10AF700083F304FA03F29B0003F1824303F52043B9
:10AF8000D3F81005D3F81015C0F30520C1F3014123
:10AF900025EA0205FFF73CFC6EE700BF00A0004178
:10AFA000080000214ECE00014ECE000138B54FF012
:10AFB0002003EFF3118583F31288BFF36F8F064BE5
:10AFC0009C6801F071FB85F31188BFF36F8F2046F9
:10AFD000BDE83840FEF76CB8B0020021104B70B5E8
:10AFE00053F82040013053F82060A64200D870BDCD
:10AFF000D4E9003595B153B12846984738B10028B7
:10B00000B8BF4042FF28A8BFFF20EB681870EA686D
:10B01000537843F0010353700834E6E79847FBE7A1
:10B0200088CD0001012208B5094B03201A70FFF7F3
:10B03000D5FF00F0B3FD0420FFF7D0FF00F002F9C8
:10B0400001F00DF8034A137B23F00103137308BDCD
:10B05000E60200214001002108B50348034A00210F
:10B06000121A01F0C4FB08BDA0000021E802002173
:10B070000023012270B586B0CDE904230F2201938D
:10B08000CDE9023214230446124D134E03FB005542
:10B09000124906EBC016124B01EB00214FF48072EF
:10B0A0003046009500F090F8737B2C7423F0040375
:10B0B00073730C4B013403EBC4236B600A4BEE60DB
:10B0C000D3E8EF1F0131C3E8E21F002AF8D106B030
:10B0D00070BD00BFB0020021C0000021E80A0021BD
:10B0E00003C80001E8020021AC02002180B5002065
:10B0F000A6B0FFF773FF2D4B03F5006282F30888BB
:10B1000083F30A880024E023294D2A4E85F8223053
:10B11000EC772C766C76AC7685F820406B6A264FFF
:10B1200043F4E0236B6285F82340FDF731FFFEF71F
:10B13000AFF84FF0FF33AB62EB62FEF769FAFEF750
:10B140000FF940F20113ADF8243006ABB360CDE93E
:10B150001E44219401F059FC0120FFF73FFF02201B
:10B16000164DFFF73BFF00F015FB154B756105937E
:10B17000012314494FF48062CDE9034328463B463E
:10B18000CDE90144009400F01FF806466A7B28468A
:10B1900022F004026A7301F07AFB2046FFF768FF91
:10B1A0003A4631462846FEF759F800BFE80200212A
:10B1B00000ED00E0B002002125B0000140010021B7
:10B1C00050CE0001E80B00212DE9F043984685B0F0
:10B1D00000F15803C0E91633109B002603730423C3
:10B1E000073222F0070543730F9B01EB05090F4659
:10B1F00083734946C0E906668660C6730446FDF758
:10B200006DFD0E9B073020F00700A066C4E918759D
:10B2100002930D9BA9EB000901930C9B4A460093F6
:10B22000394643462046FDF7FDFF054B66659B68A2
:10B2300003B1DB6E4846E36605B0BDE8F08300BFAE
:10B24000B002002170B5224C224D86B02646AE4297
:10B2500004F130040AD300F06DFA1D4C1E4EAC42CE
:10B2600020D306B0BDE8704000F078BA54F80C3C2A
:10B27000059354F8103C049354F8143C039354F889
:10B28000183C029354F81C3C019354F8203C009362
:10B2900054E90A2354E90C01FFF796FF54F8303CB7
:10B2A0005E65D3E7D4E90A23B3F1FF3F08BFB2F1EB
:10B2B000FF3F05D052EA0301206803D100F01CFAD9
:10B2C0003034CCE73146183000F06EFBF8E700BFB1
:10B2D00094CC000194CC000129C9000138B5044682
:10B2E0004FF02003EFF3118583F31288BFF36F8FC4
:10B2F00001F01EFB48B10022826701F0C8FA29461E
:10B30000BDE83840064800F0E5B9D4E902329A4277
:10B3100018BF0133A36085F31188BFF36F8F38BD69
:10B32000E702002113B54FF02004EFF3118184F3FD
:10B330001288BFF36F8F846844B1013C846081F34D
:10B340001188BFF36F8F002002B010BD52EA0304D2
:10B3500006D181F31188BFF36F8F6FF00F00F3E711
:10B36000CDE900230246024800F096F9ECE700BF61
:10B37000E7020021C3897F2B12D80A4B1B6863B1F7
:10B38000094B90F90E201B689A4209DB437BDB06D0
:10B3900006D1064BC31A18BF012303F00100704702
:10B3A0000023FAE7D8020021D4020021C0000021C6
:10B3B0000122044BC01A044BC0105843034B1A54CB
:10B3C000704700BFC0010021ABAAAAAAE702002172
:10B3D00070B50E4B0E4C1E7C182303FB064405462D
:10B3E000204601F0F8FA00220A4B28469A55FFF74A
:10B3F000C1FF48B1084B2046BDE870401A680749B4
:10B40000013AD31700F0D0BA70BD00BFB0020021DE
:10B41000C0010021E7020021D8020021B1B30001E0
:10B4200038B50D4D2B4653F8184F9C4200D004B947
:10B43000EC68AB6838B95A7BD20604D1A26912B95C
:10B44000DA897F2A05D89C4202D02046FFF7C0FF48
:10B4500023466B6138BD00BFB002002170B590F982
:10B460000D200146002A437B04DA03F07F03437377
:10B4700001F0D3F9154A4B7B104663F07F034B7301
:10B4800050F8183FD469834208BF002323B9C1E9AB
:10B4900000042160D1610CE091F90E5093F90E6027
:10B4A000B5420ED0AE420CDD5868C1E900300160F3
:10B4B00059609068BDE87040431A58425841FFF700
:10B4C000AFBF9C42E3D01B68E0E700BFB0020021A1
:10B4D00070B490F90D30427B002B29DBD30627D1C5
:10B4E00083692BBB134962F07F0242730A4652F80C
:10B4F000184F944218BF2346CC6923B9C0E90024F1
:10B500002060C8610CE090F90E5093F90E60B542CE
:10B510000AD0AE4208DD5A68C0E9003210605860B7
:10B52000002070BCFFF77CBFA342E7D01B68E4E7B4
:10B5300070BC7047B002002108B590F90D2001469B
:10B54000002A437B04DA03F07F03437301F065F9BB
:10B55000044B9868431A58425841BDE80840FFF729
:10B560005FBF00BFB002002170B515461C460646FD
:10B5700001F065F9B4F1FF3F08BFB5F1FF3F08D016
:10B580002A46234606F118000249BDE8704000F043
:10B590000BBA70BD29C90001002A2DE9F0410E4601
:10B5A0000CBF10210821437B044619420AD10B43EA
:10B5B000DD0903F09F0211D14273082914D0012044
:10B5C000FFF72EFF1B4B9B68A3422CD1EFF30583A3
:10B5D0004BBB3046BDE8F041FDF780BD03F01F03D3
:10B5E000437301F01AF9E8E7A36813B1204601F0AC
:10B5F0001CF904F1180001F0EEF94FF0000804F115
:10B600005807A56DBD42DAD0002DD8D0284601F0EC
:10B610000CF905F1180001F0DEF92846C5F878802C
:10B62000FFF756FFEDE786F31188BFF36F8FBDE894
:10B63000F08100BFB002002138B54FF02003EFF3D6
:10B64000118583F31288BFF36F8F104B104A9C68EB
:10B650001068A04206D1FFF7BBFE85F31188BFF347
:10B660006F8F38BD00211B7C11600A4AD35C002B10
:10B67000F3D02046FFF77EFE0028EED0637BDB068A
:10B6800002D12046FFF7EAFE2046E4E7B00200219F
:10B69000D0020021E702002170B50C480C4D8668ED
:10B6A0000C462E601146DDE904234FF02006EFF32F
:10B6B000118586F31288BFF36F8F8068FFF754FF00
:10B6C0002046BDE87040FDF709BD00BFB002002173
:10B6D000D002002149B9EFF3058030B9054B5A6912
:10B6E0009B689A4201D0FDF7F9BC81F31188BFF342
:10B6F0006F8F7047B002002110B54FF02002EFF3BA
:10B70000118482F31288BFF36F8F427B510704D4F8
:10B7100084F31188BFF36F8F10BD22F004024273CF
:10B72000FFF7D6FE2146BDE810400148FFF7D2BF23
:10B73000E80200214FF02003EFF3118183F3128818
:10B74000BFF36F8F044B9A68D37B013BD37381F3B4
:10B750001188BFF36F8F7047B002002110B54FF012
:10B760002003EFF3118483F31288BFF36F8F084B2C
:10B7700000209A68D37B0133D373FFF751FE84F323
:10B780001188BFF36F8FBDE8104001F0F9B800BF1A
:10B79000B0020021024B03F11802C3E906227047F0
:10B7A000B0020021F8B54FF02003EFF3118583F3C9
:10B7B0001288BFF36F8F19498868437B03F07F03BA
:10B7C000437301F02AF808468B685A7B62F07F02C7
:10B7D0005A7350F8182FCC69824208BF002222B950
:10B7E000C3E900042360CB610CE093F90E6092F989
:10B7F0000E70BE420ED0B7420CDD5168C3E9002185
:10B800000B6053600120FFF70BFE2846BDE8F840AF
:10B81000FDF764BCA242E3D01268E0E7B002002169
:10B8200050EA01032DE9F04105460E4603D1FFF72A
:10B83000B9FF00202CE0831C71F1FF332ADB01F0FB
:10B84000E0F82C184FF02003EFF3118883F31288EF
:10B85000BFF36F8F114F124BB8681860FFF76CFE83
:10B86000B86810492A463346183000F09DF8BA6887
:10B870004046537B43F010035373FDF72FFC01F058
:10B88000C0F8201A63EB0303012873F10003D0DB37
:10B89000BDE8F0816FF00104241AD3E7B002002163
:10B8A000D002002129C90001B1F1FF3F08BFB0F16A
:10B8B000FF3F08B506D1084B986800F0F8FF4FF03D
:10B8C000FF3008BDFFF7ACFF4FF47A7380FB030332
:10B8D000C00B40EA4340F4E7B0020021014B9868F6
:10B8E000704700BFB002002108B50648064A074964
:10B8F000121A00F07EFFBDE80840054A05490648D7
:10B9000000F077BF000000219A00002198CE0001CE
:10B910000000000098CE000100000021034B1B68CE
:10B920000BB9FEF745BD0020704700BFDC020021C7
:10B9300010B50E4B1C689C4204D1FFF7EFFF6FF06F
:10B94000004010BDFFF7EAFF002CF8D0D4E9043224
:10B950001B1A62EBE072B3F1004F72F10001EEDAF4
:10B96000002AACBF18460020EBE700BF8C00002186
:10B9700030B570B10B4B5B6898420AD0036843B195
:10B98000D3E90421D0E90445121941EB0501C3E9CB
:10B990000421D0E9003213605A600023C0E900336B
:10B9A00030BD00BF8C000021B3F1FF3F08BFB2F1F2
:10B9B000FF3FF8B504461D4616465CD081604FF047
:10B9C0002003EFF3118783F31288BFF36F8F0132E7
:10B9D00075F1FF3324DA6FF001032C49D1E900201F
:10B9E0009B1A4FF0FF3262EB00009E1B60EB0500DC
:10B9F000012E70F1000301DA01260020C4E9046081
:10BA0000234ED6F800C07568B44508BF4FF0000C4F
:10BA1000BCF1000F0DD1C4E900652C6074601CE01E
:10BA2000FFF77CFF013645F10005361845EBE07065
:10BA3000E4E7DCE90420D4E90431934271EB000E21
:10BA40001ADAD21ADCF8043060EB0100CCE90420E9
:10BA5000C4E900C31C60CCF804403368B34206D08C
:10BA60009C4204D1FFF764FF0021FEF773FC87F3CB
:10BA70001188BFF36F8FF8BD9B1A61EB0001AC45D5
:10BA8000C4E90431C7D0DCF800C0C1E7D801002107
:10BA90008C0000212DE9F84F4FF02003EFF3118CBB
:10BAA00083F31288BFF36F8FDFF8B0A0DFF8B09098
:10BAB0000024C9F80000DAF800000025504508BF4E
:10BAC0000020284FE046D7E90021D9F8003080B3A4
:10BAD000D0E9046C4FEAE37EB3427EEB0C0B05DA4F
:10BAE000F61A6CEB0E04C0E9046422E0B21841EBD4
:10BAF000E671C0E90445C7E90021FFF739FF88F383
:10BB00001188BFF36F8F836898474FF02003EFF3DE
:10BB1000118883F31288BFF36F8FD9F80030DAF8F9
:10BB200000009B1B5045C446C9F80030CAD1D7E974
:10BB3000002100249A1841EBE373C7E90023C9F8F8
:10BB40000040FFF7F5FE2146FEF704FC88F311885C
:10BB5000BFF36F8FBDE8F84FFFF76EBD8C0000217B
:10BB6000DC020021D801002110B54FF02003EFF3D3
:10BB7000118483F31288BFF36F8FFFF7CFFE034664
:10BB8000054AD2E90001181841EBE37184F31188EA
:10BB9000BFF36F8F10BD00BFD8010021014800F036
:10BBA00062BA00BF55CE00012DE9F04F43688DB059
:10BBB00015468046029383789A0740F10D81002450
:10BBC0000E78002E00F00A81252E0BD04B1C03931B
:10BBD000013441463046029B98470028C0F2F68067
:10BBE0000399EDE74E788B1C252E0393F0D00027A8
:10BBF000B946BB46BBF11F0F38D8A6F12003102B66
:10BC00000AD8DFE803F02A090930090909210909DE
:10BC10000928092D09091F00A6F13003092B33D982
:10BC20002A2E37D11BF0400F55F8043B40F082809C
:10BC3000002BA7BF4BF0200B9946C3F100094BF036
:10BC4000280B01E04BF0010B039B13F8016B0393EE
:10BC5000002ECFD130E04BF0020B4BF0040BF3E79A
:10BC60004BF0080BF0E74BF0100BEDE7BBF17F0F4B
:10BC700019D8A6F13003092BD2D81BF0400F03D0FE
:10BC80000A2101FB0737DFE70A214BF0200B01FBFC
:10BC90000939D9E72E2E06D11BF0400F40F09E80C7
:10BCA0004BF0400BD0E76C2E31D02BD8682E36D01D
:10BCB0006A2E3CD04C2E3AD0002F46F02003B8BF5D
:10BCC0002BF04002A3F16501BCBF00271FFA82FBE5
:10BCD000022901D9612B2FD107350727DFF8ACA244
:10BCE00025F0070508351BF0080F66D00AEB070B97
:10BCF00056465E4563D1A4EB0A0AA9EB070906EB99
:10BD00000A026FE1742E9FD07A2E9DD0D4E71BF0EB
:10BD1000800F18BF4BF4007B4BF0800B94E71BF4B3
:10BD2000807F18BF4BF4007B4BF4807B8CE74BF497
:10BD3000207B89E71F4687E7A6F16301122900F2FD
:10BD4000F080DFE811F013004F00EE00EE00EE008F
:10BD5000EE004F00EE00EE00EE00EE00EE00FE0002
:10BD6000E900EE00EE001B00EE00AF0055F8043BCA
:10BD700001270DF1180A8DF81830B4E755F804AB17
:10BD8000834BBAF1000F08BF9A461BF0400F504694
:10BD900014BF39464FF0FF3100F05DFE0746A2E7C1
:10BDA00041462020029B984700280FDB013EB74206
:10BDB000F6D34C44B146A41B98E74E46F7E74146FC
:10BDC00016F8010B029B9847002892DA98F8023087
:10BDD00043F0040388F802304FF0FF3420460DB0E2
:10BDE000BDE8F08F1BF0800F34D01BF4007F2CD007
:10BDF000073525F00705AA4669685AF8080B2BF0A5
:10BE000010050029ADB237DA404245F4806561EB98
:10BE100041010DF1180B0A235A4600F028FEA0EB51
:10BE20000B0301936B0662D5019B25F001019F4234
:10BE300089B240F3A180002E00F0998015F0100225
:10BE400040F09C80BB460D4623E0AA465AF8040BFE
:10BE5000C117D4E7AA461BF4807F5AF8041B01D10E
:10BE60000846F5E71BF4007F19BF48B241F3C01143
:10BE700008B241F3C031C2E750EA0103C9D11BF057
:10BE8000400FC6D0002FC4D12BF01102BB46019742
:10BE900095B240F2064115EA01021CBF0BF1010BFD
:10BEA00000222CE02BF010020A231FFA82FB1BF069
:10BEB000800C49D01BF4007115BF0735AA4625F048
:10BEC00007055AF8040B1EBFAA4669685AF8080B02
:10BED00050EA010545D12BF016051BF0400FADB21D
:10BEE00042D0002F40D12BF01702019795B215F0E8
:10BEF000100248D0019B002E42D103F1010B29070B
:10BF00005AD4EB0706D5D9456FDDA9EB0B03019990
:10BF1000CB465F185B4649E04BF0100B10237826A8
:10BF2000C5E7782B04D1C6F1780343F01003BEE7D0
:10BF300041462520029B98470028FFF647AF023470
:10BF400047E608230026B2E7AA461BF480715AF898
:10BF5000040BBDD01BF400711ABFC0B2614680B2A1
:10BF6000B6E72BF0060295B20DF1180B54E725F059
:10BF70001105BB46ADB28CE70D46B8E73B460D4612
:10BF800003F1020BBBE7DDF804B082E78ACE0001C3
:10BF900083CE0001CDE9043241462020029B984720
:10BFA0000028FFF613AF049B059A01339945F1DC95
:10BFB000A4EB0B019B46CC180AB341463020029BF0
:10BFC00098470028FFF602AF8EB901342744391B89
:10BFD000019B994224DC1D4655BB019AA9EB0B0934
:10BFE000554622441446914433E0019F92E70234BF
:10BFF00041463046029B98470028E7DAE6E640F2E1
:10C0000006410D42E2D015F0020F04F10104414651
:10C0100014BF2B20202015F4806F18BF2D20E9E7D6
:10C0200041463020029B013498470028CFDACDE604
:10C0300006AB013D4146585D029B98470028CBDA8C
:10C04000C4E641462020029B013498470028FFF6B1
:10C05000BDAEA9EB0403002BF3DCC1E57047002063
:10C060007047002070470FB407B504A951F8040BBE
:10C070000191FCF7E9FC03B05DF804EB04B07047F4
:10C08000836800EBC101B3F5004F2CBF51F82200CB
:10C0900031F81200704700EBC1018068B0F5004F25
:10C0A0002CBF41F8223021F812307047012208B528
:10C0B000FFF7E6FFD04008BD836800EBC101B3F590
:10C0C000004F08D34B681AB143F001034B6070472F
:10C0D00023F00103FAE74B881AB143F001034B80C8
:10C0E000704723F00103FAE753000122FFF7D3BFA3
:10C0F000B0F5004F34BF04230823481C0833A0EBDD
:10C10000D300B0FA80F0C0F11F0070472DE9F04174
:10C110000D4686680446FFF7C9FFB6F5004F014695
:10C1200001D3012832D03046FFF7E2FF04EB800153
:10C130000E6996B90122E36882401343E36002224C
:10C140000D612B4629462046FFF7A5FF032229460D
:10C150002046BDE8F041FFF79EBF0222314620464F
:10C16000FFF78EFF0746034629462046FFF793FF59
:10C170000322334629462046FFF78DFF39462B46DA
:10C180002046FFF788FF02223146E1E7BDE8F08153
:10C19000B2F5802F2CBF082304232DE9F04100269F
:10C1A000D21A8C18CD1D25F0070524F00704641B56
:10C1B000E408056021462046AC60EE60FFF798FF7A
:10C1C000421D9200013002F107074FEAD7073146BE
:10C1D000A2F1100205F11000B8BF324600F023FCB6
:10C1E0003A4631462846FFF77FFF3346324631460E
:10C1F0002846FFF750FFA4EB0708284631460122E6
:10C20000FFF75AFF42463946FFF76EFF3B4632467C
:10C2100039462846FFF73FFF21462846FFF764FFCF
:10C220004346324621462846FFF735FF2146284639
:10C230000122FFF741FF3946BDE8F041FFF766BF35
:10C24000038B13F0070305D10368002B0CBF0020FC
:10C2500003207047022B05D1408BB0FA80F04009D3
:10C2600080007047012B05D10368002B0CBF002014
:10C27000052070470020704710B50C4600B111B979
:10C280006FF0150010BD081D00F095F80028F9D1D9
:10C29000A368032BF6D9F3E72DE9F0410D460746D5
:10C2A0001946281D90461E4600F096F8044638B1FF
:10C2B0003346424629463846A446BDE8F041604729
:10C2C000BDE8F08110B44FF02004EFF3118284F345
:10C2D0001288BFF36F8F416110BC0121FCF7E6BBF0
:10C2E00038B50C46054658B151B10B6843B14B689F
:10C2F00033B11C22002100F096FB00202C6138BDD8
:10C300006FF01500FBE770B505460E46FFF7B4FF6A
:10C31000041E15DB4FF02003EFF3118283F3128824
:10C32000BFF36F8F4FF6FF716B8B2C8B8B4204F03A
:10C33000070407D182F31188BFF36F8F6FF00A04EF
:10C34000204670BD022C0CD101336B8382F311881F
:10C35000BFF36F8F0023224631462846FFF79CFF2C
:10C36000EEE7062C14D8DFE804F004131313041AC4
:10C370000400002333606B683BB9C5E90066ACB9C3
:10C3800002212846FCF792FBDAE71E606E60F6E7B2
:10C3900082F31188BFF36F8F6FF00404D0E782F34C
:10C3A0001188BFF36F8F6FF08504C9E782F311889E
:10C3B000BFF36F8FC4E7034658B1426802F003022F
:10C3C000012A03D0032A04D1026812B10020986028
:10C3D00070476FF0150070474268034602F0030291
:10C3E000032A4FF00002816014BF104600685A60B3
:10C3F00070477047FEF7DABD01460068FEF7D6BD0C
:10C4000008B5FCF767FCBDE80840FCF795BC0021C7
:10C410000120FFF7EFBF036E83F30B88704740E8FE
:10C4200000F313F4803FD8B208BF6FF015007047D7
:10C430007FB50A894E890B684D6802F01F0242EAF7
:10C44000461200938DF8082023F01F036A1E134440
:10C4500023F01F030728039304D86946FCF79CFFC9
:10C4600004B070BD6FF01500FAE7F0B5D0F80473B2
:10C47000064617F002001CBFC2F1807018604FF032
:10C48000000518BF01204FF0010C4FF4803E0CFA5C
:10C4900005F40C4214D00EFA05F43C4210D005F518
:10C4A000A87456F82440A41A34F07F4408BF4FF013
:10C4B000807408B91C6002E01868A042FAD8012014
:10C4C0000135042DE3D1F0BDFDF730B90C2203692D
:10C4D000C9B201FB0233186C00F0070070474FF03F
:10C4E0002003EFF3118283F31288BFF36F8F036889
:10C4F00003F0C00343F00203036082F31188BFF32B
:10C500006F8F704770B5C9B203694FF02004EFF325
:10C51000118584F31288BFF36F8F0C2606FB01345C
:10C52000246C14F0C00408D0A24206D085F3118810
:10C53000BFF36F8F4FF0FF3070BD012206FB013358
:10C540001A6485F31188BFF36F8F436803EBC1034F
:10C550005B6898470020EFE78022FFF7D3BFF8B56C
:10C56000069F0469C9B24FF02005EFF3118685F3E9
:10C570001288BFF36F8F0C2505FB0144256C05F075
:10C58000070CBCF1010F0CD1276486F31188BFF3AF
:10C590006F8FC4E90E23436853F831309847002069
:10C5A000F8BD05F0C005AF4286F31188BFF36F8F69
:10C5B0000CBF6FF077004FF0FF30F1E713B5802428
:10C5C0000094FFF7CCFF02B010BD10B41C2400692A
:10C5D000CBB203FB0400002110BC10470020FEF783
:10C5E00067B8002000F07EB81046FEF777BE4368BB
:10C5F00000205B681B690B607047436802EA01001A
:10C600005B6821EA020198600020D96070474368A6
:10C6100000205B6899607047436800205B68D960C0
:10C62000704743685A68536821EA03000B409060E2
:10C630000020D360704710B503695868F8B188428C
:10C6400019D19C680868A142586000D19860002008
:10C6500008602AB15A680A609A68596002B99960FC
:10C66000002010E0814206D108682060986881426D
:10C67000EDD19C60EBE7044600680028F2D1002A67
:10C68000E8D16FF0150010BD002200F150039B00AF
:10C690009BB203F1824303F5B0331A601B68704705
:10C6A00008B5FDF7F1FC08BD002008B5FCF7B6FCA5
:10C6B00003465A6B00233C309A4200D17047C16850
:10C6C00001330844F8E7004700F08DB840F000401F
:10C6D000C1F88000704740F00040C1F8800070470A
:10C6E000FEF774B8FDF766BFF7B51646DDE90847F3
:10C6F000019001A81D46FEF76FF8019BB6F1000CF2
:10C7000018BF4FF0010C00EB83000B1E18BF012374
:10C71000002D43EA4C0314BF4FF00C0C4FF0000CFB
:10C72000002C43EA0C0314BF4FF4706C4FF0000C64
:10C73000002F43EA0C0314BF4FF4403C4FF0000CB1
:10C74000D0F8002243EA0C0322EA030301B109787E
:10C750000EB13678760019430DB12D78AD00314316
:10C760000CB12478240229430FB13F783F040C43D5
:10C770003C43C0F8004203B0F0BD1FB50DF10F03FC
:10C78000019300238DF80F101A4619460093FFF706
:10C79000ABFF05B05DF804FB38B5054608460C460E
:10C7A000FEF76EF8A8B10846FEF75EF888B90846AD
:10C7B000FEF74EF801232A688340C2F808332B683D
:10C7C00003EB8000D0F8103523F00303C0F81035D8
:10C7D00038BD2046BDE838400021FFF7CEBFFEF748
:10C7E000D3B8FFF7D9BF08B1FDF7D8B8704700F04C
:10C7F0001AB900F00BB9EFF30580003818BF01201B
:10C80000704708B54FF02002EFF3118382F31288CE
:10C81000BFF36F8FFCF742FDF4E7D0E900321360FD
:10C820005A600023C0E90033704708B5FFF7F5FFF1
:10C83000437B23F0020343730023836008BD38B5B4
:10C8400004460D46FEF778FE637B43F002036373F4
:10C85000E5B1A5602B689D4209D16B68C4E900531E
:10C860001C606C6012E06A689342F6D01B68002B73
:10C87000F3D094F90E2093F90E108A42F3D091422E
:10C88000F1DD5A68C4E9003214605C6038BD10B54F
:10C890004FF02003EFF3118483F31288BFF36F8FFF
:10C8A000FEF716FE84F31188BFF36F8F10BD10B52D
:10C8B0000446183000F08FF84FF02003EFF3118199
:10C8C00083F31288BFF36F8F627B12F0100204D0E3
:10C8D00081F31188BFF36F8F10BD2046BDE8104073
:10C8E000FEF75ABE38B504464FF02003EFF311852A
:10C8F00083F31288BFF36F8F437B13F0280F0BD1A4
:10C9000083680BB1FFF791FF637B51B903F0FB0321
:10C9100020466373FEF7DCFD85F31188BFF36F8F4C
:10C9200038BD03F0EB03F3E701211838FFF7DABF56
:10C9300038B54FF02003EFF3118583F31288BFF36E
:10C940006F8F0468A0420DD034B12046FFF76DFF11
:10C9500004F1180000F03FF885F31188BFF36F8FE2
:10C96000204638BD0024F7E7034620B9EFF30582DF
:10C970000AB9FCF7B3BB83F31188BFF36F8F70471D
:10C980004FF02003EFF3118083F31288BFF36F8F12
:10C99000FFF7EABF4FF02002EFF3118182F3128814
:10C9A000BFF36F8F027BD2070AD581F31188BFF3E3
:10C9B0006F8F404080F311884FF0040002DF704712
:10C9C000437B1B0704D581F31188BFF36F8F70473A
:10C9D0000122FEF7E1BD10B54FF02002EFF3118404
:10C9E00082F31288BFF36F8F03683BB1FEF7C0FF7D
:10C9F000002084F31188BFF36F8F10BD6FF0150016
:10CA0000F7E708B5FFF7B0F808BD70470A44431EC2
:10CA1000914200D1704710B511F8014B914203F8D3
:10CA2000014FF9D110BD02440346934200D1704733
:10CA300003F8011BF9E70139024410B5904201D116
:10CA4000002005E0037811F8014FA34201D0181B24
:10CA500010BD0130F2E70246014410B58A42134688
:10CA600003D01C780132002CF8D1181A10BDF0B593
:10CA7000C3F13707044603F01F031046FFB2082B2B
:10CA8000E6B232D0102B3DD06508A40845EAC17546
:10CA900044EA81748A082D1942EB5102290941EABE
:10CAA00002716D1842EB1212290A41EA02616D18F7
:10CAB00042EB1222290C41EA02416D1842EB12426C
:10CAC000AD1842F10002EC0844EA4274D10804EBCC
:10CAD0008402A6EB4205EDB2092D0CD90134A5F173
:10CAE0000A0541F10001EDB212E0E40806F0070585
:10CAF00044EA4174C908303554EA010200F8015B88
:10CB0000BDD1F0BD240906F00F0544EA01740909FE
:10CB1000092D84BFED19EDB2EDE700000148006872
:10CB200070470000E0010021519700010000000063
:10CB3000299A000168CB0001959D000190CB00016E
:10CB4000959D00017CCB0001F1A1000100000000D7
:10CB5000619700010000000009970001000000003B
:10CB6000C5A3000100000000AFCD000108CD000109
:10CB700018CD0001940000212C020021BECD00013F
:10CB800034CD000164CD0001960000218002002117
:10CB9000CCCD00014CCD000164CD000198000021F6
:10CBA0008C020021000000000FC400010000000002
:10CBB0000FC40001000000000FC4000100000000CD
:10CBC0000FC40001000000000FC4000169A70001AC
:10CBD000C7C60001000000000FC4000100000000F3
:10CBE0000FC40001000000000FC40001000000009D
:10CBF0000FC40001F5AD0001C7C600010000000030
:10CC00000FC40001000000000FC40001000000007C
:10CC10000FC40001000000000FC40001000000006C
:10CC20000FC40001000000000FC40001000000005C
:10CC30000FC40001000000000FC40001000000004C
:10CC40000FC40001000000000FC40001000000003C
:10CC50000FC400010000000081A2000100000000DC
:10CC60000FC40001000000000FC40001000000001C
:10CC70000FC40001000000000FC40001000000000C
:10CC80000FC40001000000000FC4000100000000FC
:10CC90000FC40001FFFFFFFFFFFFFFFFFFFFFFFFCC
:10CCA000DEE61E28EAAC45B802350000DEE61E28A6
:10CCB0004CBBCE8F023500000000000000000000D9
:10CCC0000338FDD87047000000000021000000007C
:10CCD0000600010002000000DCCC000100000001A1
:10CCE000A0CD000106000000E0FF030100000021CC
:10CCF000A8CD000121000000E0FF0021E59900011E
:10CD0000B599000100000000D19A0001699B000163
:10CD1000DDC50001E3C50001359B000159C50001D7
:10CD2000BDC5000100000000CDC4000100000000EE
:10CD300000000000FFFF000000088C410000000020
:10CD40000100000000A0004100000000FFFFFFFF05
:10CD500000058C41000000000000000000A0004120
:10CD600000000000299E0001EFC50001FBC5000185
:10CD70000FC6000119C6000123C60001959C0001E1
:10CD800037C600010000000028CB000128CB0001BD
:10CD900048CB000150CB000168CB000168CB0001FB
:10CDA000464C4153485F30005352414D5F30006361
:10CDB0006C6F636B40343130303530303000677029
:10CDC000696F403431386330383030006770696FD4
:10CDD000403431386330353030004552524F523A8A
:10CDE0002043616E6E6F742066756C66696C6C2092
:10CDF0004558545F41504920726571756573742EB2
:10CE00000D0A005741524E494E473A204F707469FF
:10CE10006F6E616C204558545F41504920726571B6
:10CE200075657374206E6F742066756C66696C6CC2
:10CE300065642E0D0A0000000001010000000020C2
:10CE40003030303030303030303030303030000141
:10CE50006D61696E002A2A2A20426F6F74696E67BD
:10CE6000206E524620436F6E6E6563742053444BB0
:10CE700020333735386263626661356364202A2A5D
:10CE80002A0A00286E756C6C29002A666C6F617422
:10CE90002A0000000088000163C00001FFFFFFFFBF
:10CEA0000000000000000000000000000000000082
:10CEB0000000000000000000000000000000000072
:10CEC0000000000000000000000000000000000062
:10CED0000000000000000000000000000000000052
:10CEE0000000000000000000000000000000000042
:10CEF0000000000000000000000000000000000032
:10CF00000000000000000000000000000000000021
:10CF100008000000FF000000000000000300000007
:10CF2000000000008C0000218C00002100000000A7
:10CF3000000015E015E0FFFFDEE61E288384518621
:10CF400002350100008800014E221A11AC41A09B5D
:10CF5000D6D0CBF513628E184CD41AC227F5E2ACAA
:10CF6000203D55DF154EB572E39EC17089663AA922
:10CF7000253A6C29E26241ED2C4928339AB0D10A56
:10CF8000CC7E597E2B08CF6EA9CA700A9307F04752
:10CF9000E85B66239DD6E2EF90700D69563903CEAB
:10CFA0009322A141017849451D29E39109ABB5E4DC
:10CFB000858B1693C232CD8062B8FE617883B7D775
:10CFC00031D8395E6F4AF7A4AA82637371A57FFCDA
:10CFD0002BB2C5B87AC9A57B12ACD45BE3E19A5EEB
:10CFE000E486D7BAD214808307695001100020006C
:10CFF0005B447603CDD624A6F54BFA1193B2A6A3D3
:10D00000C423A7CA20CD60078CD549980DD7E21E4E
:10D0100001002000FC5701DC6135E1323847BDC416
:10D020000F04D2E5BEE5833B23C29F93593D000127
:10D030008CFA999420000001C0DA0351385F7973AB
:10D0400034839596292832CD3F612051D0B34DE4E9
:10D05000DF6414DB8D9E09D3E6DA65DCD00008833B
:10D06000840B6046B26ED3223157C230B69B365F16
:10D07000CB3044671A2E20C009EC7013521C396162
:10D080009203EFF0F1A7DEF7B177C3D2F3991D4D0C
:10D090006326A6B2B5B89CF36DEB82B782A3CE77B8
:10D0A000FCD371117CB9B75ACDB7BA708E1C5A44F3
:10D0B000677AC8B974BC5CBE115DDA47D6CBF52679
:10D0C0009B59F7F660E30502CF2059F93EBC6A5040
:10D0D000047453EA9098D61454DFA2CB76FBE1E5B2
:10D0E000A2BE6C3CAEB59DBEF51FA94D1DE76DD629
:10D0F0006F122AAA729390AC30B89357344C83C8FD
:10D100006B8E1AB56222C244FBBC7320360A91AF03
:10D110000AEAB7526A9134BAAC9632B796CDEE426B
:10D120000DCBA73904F496D7170EEE148C8CF703A9
:08D1300072C929054E32346F6B
:020000040104F5
:1085F00077C295F360D2EF7F3552500F2CB6798059
:00000001FF
