:020000040001F9
:10C00000A0CD00207DDD0100815D020069DD010021
:10C0100069DD010069DD010069DD010069DD010004
:10C020000000000000000000000000003DDF0100F3
:10C0300069DD010000000000CDDE010069DD0100C6
:10C0400021E1010021E1010021E1010021E10100E4
:10C0500021E1010021E1010021E1010021E10100D4
:10C0600021E1010021E1010021E1010021E10100C4
:10C0700021E1010021E1010021E1010021E10100B4
:10C0800021E1010021E1010021E1010021E10100A4
:10C0900021E1010021E1010021E1010021E1010094
:10C0A00021E1010021E1010021E1010021E1010084
:10C0B00021E1010021E1010021E1010021E1010074
:10C0C00021E1010021E1010021E1010021E1010064
:10C0D00021E1010021E1010021E1010021E1010054
:10C0E00021E1010021E1010021E1010021E1010044
:10C0F00021E1010021E1010021E1010021E1010034
:10C1000021E1010021E1010021E1010021E1010023
:10C1100021E1010021E1010021E1010021E1010013
:10C1200021E1010021E1010021E1010021E1010003
:10C1300021E1010021E1010021E1010021E10100F3
:10C1400021E1010021E1010021E1010021E10100E3
:10C1500021E101007BB972B90029BEBF00204FF078
:10C16000004106E008BF00281CBF6FF000414FF0FF
:10C17000FF3000F057B8ADF1080C6DE904CE00298E
:10C1800009DB002B1ADB00F04FF8DDF804E0DDE9F5
:10C19000022304B07047404261EB4101002B1BDBDE
:10C1A00000F042F8DDF804E0DDE9022304B040428B
:10C1B00061EB4101524263EB43037047524263EB30
:10C1C000430300F031F8DDF804E0DDE9022304B0B8
:10C1D000404261EB41017047524263EB430300F080
:10C1E00023F8DDF804E0DDE9022304B0524263EBFA
:10C1F0004303704753B94AB9002908BF00281CBF40
:10C200004FF0FF314FF0FF3000F00CB8ADF1080CEB
:10C210006DE904CE00F008F8DDF804E0DDE9022362
:10C2200004B07047704700BF2DE9F04786468C4642
:10C230000846089E154674461946002B40F0C180FA
:10C240008542B2FA82F245D94AB1C2F1200300FA1E
:10C2500002FC954094402EFA03F343EA0C0C4FEA9B
:10C26000154EA8B2230CBCFBFEF80EFB18CC08FB45
:10C2700000F943EA0C43994528D9EB1808F1FF3738
:10C2800004D2994502D9A8F102072B44A3EB090374
:10C29000A4B2B3FBFEFC0EFB1C330CFB00F044EA23
:10C2A0000344A04214D92C190CF1FF3304D2A0424C
:10C2B00002D9ACF102032C44241A43EA07401EB110
:10C2C000D440002334607360BDE8F0874746DDE763
:10C2D0006346F1E792BB431B01214FEA154EAFB213
:10C2E000200CB3FBFEFC0EFB1C330CFB07F840EAF2
:10C2F0000343984561D9EB180CF1FF3004D29845FF
:10C3000002D9ACF102002B44A3EB0803A4B2B3FBA7
:10C31000FEFC0EFB1C330CFB07F744EA0344A74268
:10C320004DD92C190CF1FF3304D2A74202D9ACF13C
:10C3300002032C44E41B43EA0040C0E7C2F120039F
:10C340009540944020FA03F12EFA03F34FEA154E7C
:10C350009040AFB20343B1FBFEFC0EFB1C10190C66
:10C360000CFB07F841EA0041884522D969180CF115
:10C37000FF3004D2884502D9ACF102002944A1EB78
:10C3800008019BB2B1FBFEFC0EFB1C110CFB07F776
:10C3900043EA01439F420ED9EB180CF1FF3104D25E
:10C3A0009F4202D9ACF102012B44DB1B41EA004160
:10C3B00093E76046E3E76146F7E76046A4E7634634
:10C3C000B8E7834206D916B9002108467CE7C6E9DA
:10C3D00000E0F9E7B3FA83F78FB9834201D37245DE
:10C3E00008D8BEEB020460EB030301209C461EB993
:10C3F000002169E73846FAE7C6E9004CF8E7C7F1DB
:10C40000200CBB400EFA07F522FA0CF42EFA0CF1C0
:10C41000BA401C4320FA0CF3B8404FEA14490143D8
:10C420001FFA84FEB3FBF9F809FB18300B0C08FB6C
:10C430000EFA43EA00439A4540D9E31808F1FF3069
:10C4400004D29A4502D9A8F102002344A3EB0A03BF
:10C4500089B2B3FBF9F809FB183308FB0EFE41EA79
:10C4600003418E452CD9611808F1FF3304D28E4563
:10C4700002D9A8F10203214443EA0040A1EB0E01D6
:10C48000A0FB02984145CE46434602D306D14D4516
:10C4900004D20138B9EB020E68EB0403002EA7D0DA
:10C4A000B5EB0E0261EB030101FA0CFC22FA07F373
:10C4B000F9404CEA0303C6E9003199E74046C5E775
:10C4C0004346D9E7034613F8012B002AFBD1181A7B
:10C4D0000138704738B51D4C20460AF0AAFD10B946
:10C4E0006FF0120038BD4FF4B011194808F0C3FEC8
:10C4F0000028F7D1174D28460AF09BFD0028EFD001
:10C50000AB6828461B68144998470028EAD10422E2
:10C51000124B5A6040F20C421A8223691B68DB03FB
:10C52000A3684FF4803154BFDB681B6920469847ED
:10C5300004460B480AF07DFD0028D1D04FF480312D
:10C54000084808F098FE2044CCE700BF9C79020020
:10C55000D47C0200D8790200BE7C020048A10020F1
:10C5600088790200CC7C020037B50F480F498568F6
:10C570006B689847A8B90E4B0820B3F900402B8987
:10C5800001A96343019303F0D7FB08B9019C24136D
:10C590000848002384FB0001074AFFF7DBFD03B0D6
:10C5A00030BD0020FBE700BFD879020048A1002081
:10C5B000ECB7002080A2190020BF020013B5084884
:10C5C0000469836801A95B68984720B923680198CA
:10C5D000584000F00100003818BF012002B010BD23
:10C5E000887902002DE9F041104808F0C9FB0024C9
:10C5F000FFF770FFDFF838800E4F0F4E00214FF429
:10C60000203008F007F9FFF7AFFF0546FFF7D6FF28
:10C61000294600280CBF42463A46304608F09EFBA9
:10C620002146064808F09AFB0134E7E745810200FD
:10C63000388102003C8102005F8102007D8102009E
:10C64000014B1B68184700BF5CA10020014B18601C
:10C65000704700BF5CA1002030B585B004460D4690
:10C660001022002168460BF091F802238DF8023069
:10C67000044B2A4621466846019308F0A1FB05B009
:10C6800030BD00BF41C6010080B505460E461746C5
:10C69000984608F0F3F803460BF0F6F80446DFF886
:10C6A0001890424649F8003039463046A84754F8B9
:10C6B000090001F0DDFB00BF080000002DE9F04794
:10C6C000058B04462807904611D4022905F007057A
:10C6D00040F0CD80204609F0C4F878B10138218BB4
:10C6E000042811D8DFE800F0C3106D8595000129FA
:10C6F0000CBF45F0100545F02005258388F311880F
:10C70000BFF36F8FBDE8F08701F0070AAA4500F07C
:10C71000A6800027B9463E46A368002B00F0BD80E6
:10C7200041F00801218388F31188BFF36F8FA1685E
:10C73000002900F0BB800D68002900F0B780334667
:10C7400052462046D1F80480C047002D76D02B6891
:10C7500029461D46F0E701F007035A1F012A1BD89E
:10C76000002221F00701062B276889B2C4E90022C4
:10C7700009D13B4603E0628B013262831B68002BC8
:10C78000F9D141F002012046218309F06AF800281E
:10C790007BD041F0200177E0042B0AD121F0070182
:10C7A00089B22046218309F05CF810B141F02001E4
:10C7B0002183218B01F0070AAA4550D00027B946F2
:10C7C000AAE7236921F0070141F00601062DD3F8FD
:10C7D000009021832DD1B9F1000F40D041F0080124
:10C7E000218388F31188BFF36F8F20463949C847EA
:10C7F00029E021F00701236941F0040189B2042DE9
:10C80000D3F804902183E6D000274FF0040A3E4677
:10C8100082E721F00701236941F0050189B2052D66
:10C82000D3F808902183D6D000274FF0050A3E4662
:10C8300072E700274FF0060A3E466DE72B4687E772
:10C84000B9F1000FD1D14FF02003EFF3118883F33A
:10C850001288BFF36F8F238B23F008032383258B6C
:10C86000EA062ED525F01003238305F00705666937
:10C87000218B002EBFF66FAF00232768C4E9003379
:10C8800021F0070141F001012183218B4FF00009C4
:10C8900001F0070AAA457FF43FAF002F9BD041F07B
:10C8A0000801218388F31188BFF36F8F002FC7D051
:10C8B0003D68394633465246204608F0FEFF2F4673
:10C8C000F4E7AB067FF51AAF25F02003238305F0CC
:10C8D0000705FFE6E7580200014B036000207047A0
:10C8E000DC7C0200F0B40C4B0C4E5F6A0C4BB34284
:10C8F00003D36FF08500F0BC70475D68BD4209D37B
:10C900001C693CB195F802C00579AC4502D12346BB
:10C91000F0BC18472433EAE7C8A80020A8A50020E7
:10C9200084A500202DE9F04705460E461746124C17
:10C93000DFF84880DFF84890444503D36FF0850066
:10C94000BDE8F0876268D9F824309A4212D3A3690F
:10C9500083B190782979884205D13A4631462846F4
:10C96000BDE8F04718475279012A03D13A463146CB
:10C97000284698472434DFE784A50020A8A5002096
:10C98000C8A800202DE9F04105460E4617460A4C7E
:10C99000DFF82880444502D36FF0850009E0636921
:10C9A0000BB92434F6E73A46314628469847002822
:10C9B000F7D1BDE8F08100BF84A50020A8A5002024
:10C9C00010B5044609F087FA10F1780F00D050B97D
:10C9D000204609F003F9044AD2F8C43023EA0003E0
:10C9E0000020C2F8C43010BDC8A800200022024BAD
:10C9F0001A605A60704700BF83A9002070B50B4BC6
:10CA00000B4CA34201D3002070BD0022196A1E7F87
:10CA10000439D5B2AE4201D82433F2E7013211F81D
:10CA200032508542F5D10120EEE700BF84A50020F9
:10CA3000A8A5002008B509480378C3F341130A33B9
:10CA400050F823303BB100F1080200F11001984783
:10CA5000C043C00F08BD1846FCE700BFC8A80020AF
:10CA600004282DE9F14F04460F46DFF8949016D0C4
:10CA700001282DD1DFF88C8098F8B93043B300F04D
:10CA8000DDFD214D4D4520D24FF0000AD5F820B0F4
:10CA90002B7F5FFA8AF6B34204D82435F2E7FFF71A
:10CAA000A5FFE7E70BEBC606307909F014FA02465A
:10CAB000307909F093F8D8F8C430002A23EA00034B
:10CAC000C8F8C4300AF1010AE2DA002388F8B93064
:10CAD0000D4D4D4508D30B4B1B6A6BB139462046B3
:10CAE00001B0BDE8F04F1847EB681BB13A4621464C
:10CAF000284698472435ECE701B0BDE8F08F00BF29
:10CB0000A8A50020C8A8002084A5002073B5C4B241
:10CB100063060D468DF8074007D02046FFF76EFFED
:10CB200078B10D4B93F8BA0058B120460A4E55B172
:10CB300002F0A6F9F3691BB108200DF1070198472F
:10CB4000012002B070BD02F0C3F9F369002BF7D0E9
:10CB500009200DF10701F2E7C8A8002073B5867817
:10CB60001E4C8DF800600379427943EA0223ADF848
:10CB70000230C378304603F003038DF8043009F027
:10CB80002DF8D4F8C430054618420BD0304600F0DA
:10CB900037FD3046FFF714FF0AF096FA10B99620D9
:10CBA00007F052FE684602F047F910F1780F03D003
:10CBB00010B1002002B070BD9DF8000002F0C4F971
:10CBC00010F1780F01D00028F3D10120D4F8C4303F
:10CBD00084F8B9002B43C4F8C430EBE7C8A80020A0
:10CBE0002DE9F047924D0446AB690E461746C3B98E
:10CBF000207800F01F00012876D0022800F0DC80A9
:10CC000000BB94F900103A68002963782EDA062BED
:10CC10000CD0082B25D0ABB953700123137002231D
:10CC200003E198470028E3D100200DE06388190A4A
:10CC30000A1F012A8C4605D9072903D8DAB26B6A84
:10CC40001C781CB96FF01500BDE8F0875D7865456C
:10CC500003D1824200F0E48001302344F0E71B78E6
:10CC6000E3E095F8BA3013700123DEE0052B11D014
:10CC7000092BE7D163886E6A002B32D1FFF7B6FE2D
:10CC8000638885F8BA30EB69002BCDD00320694961
:10CC90009847C9E7A07802F0BDF80028C4D0D1E7D2
:10CCA0007378042B10D0052B11D0022B04D1777987
:10CCB0006388BB4208BF012033781E443378002BC1
:10CCC000EED10028BED0D9E796F80380F4E7638858
:10CCD000BB42F1D1B8F1000FEED13046FFF73EFF75
:10CCE000EAE7FF27B846E9E795F8BA30D7F800C079
:10CCF000002BA7D06F6AA2883B4694F804E018780E
:10CD000000289FD05978022904D193F80480F04577
:10CD100000F292800344F2E78CF800308CF8013086
:10CD2000316081E71F4493E00B2B8BD100264FF03D
:10CD3000FF08B246C14606E07B78042B0FD0052BD6
:10CD400021D03B781F443B78002BF5D1EB6913B120
:10CD5000514607209847002E7FF466AF72E797F898
:10CD60000280A38897F803909845EAD16388994593
:10CD7000E7D1B8F1070F1CD805EB0803BA46012626
:10CD800083F8BB90DDE7A3884345DAD1A3784B4510
:10CD90000AD0BE78304600F033FC3046FFF710FE74
:10CDA000B0FA80F67609CCE73846FFF7D7FE06469C
:10CDB000C7E7BA460026C4E794F900206378002A42
:10CDC00018DA002B7FF43EAF24793F6863060AD05F
:10CDD0002046FFF713FE00283FF434AF95F8BA3031
:10CDE000002B3FF42FAF3946204602F091F8002384
:10CDF0007B7014E7012B08D0032B7FF423AF6388EB
:10CE0000002B7FF41FAF012103E0618800297FF42C
:10CE100019AFA088FFF77AFE00287FF405AF11E76D
:10CE200002293B607FF41BAF5B883360FCE600BFE8
:10CE3000C8A8002082A9002094F900006378002887
:10CE4000BFF672AF002B3FF467AF0A2B7FF4FAAE48
:10CE50003B78002B3FF4F6AE797804297FF462AF7B
:10CE6000B9788A427FF45EAF072A8EBF0023521939
:10CE700092F8BB308CF80030F6E600BF13B5164CC4
:10CE8000237DF3B9E26801AB8020A168019208F02C
:10CE9000B4FE019AA3681344A360E3689B1AE3609D
:10CEA0006BB962B12369E2889A4208DD94F8C82020
:10CEB00093FBF2F102FB11330BB90123237502B08E
:10CEC00010BD002380201A461946237502B0BDE824
:10CED000104002F063B800BFC8A80020002330B59E
:10CEE00085B002460D460193002858D1002935D15E
:10CEF00008220B460DEB020109F006F8002804DABF
:10CF0000802001F0BDFF05B030BD2A4C029AC4E973
:10CF100003552260039ABDF80E30626004F13802B6
:10CF2000A2609DF908202575002A0ADB802B04D910
:10CF3000802001F0A5FF0020E3E713B1C4E903332B
:10CF4000E1E7FFF777FD0028DAD0E28823699A420B
:10CF5000D4BFE260E360FFF791FFD4E7154C01AB6B
:10CF6000D4E90215002D04DC08F0CEFF0028CADA4F
:10CF7000C6E72A4608F0C8FF0028D9DB019AA36853
:10CF80001344A360E3689B1AE360002BBBD104F158
:10CF90003803A360FFF74EFD0028DCD1B0E78028FE
:10CFA000B1D1044BDA68002AD5D11B7D002BD2D138
:10CFB000A9E700BFC8A80020054B064A58629A623C
:10CFC000054A0020DA62054A1A63054A9A617047E9
:10CFD000C8A80020E1CB0100E5C8010085C9010017
:10CFE00025C901002DE9F341414D04466F6A4FF018
:10CFF000FF324FF0FF333F4806F0BCFE95F8B860B3
:10D00000002E6ED13C482C62E86102F0E1F801F09C
:10D01000CFFE041E49DB00F035FB041E45DB7B78A8
:10D02000012B61D1FB79002B5ED0684685F8C830B2
:10D03000ADF802308DF804608DF8006001F0FCFE60
:10D04000041E32DB802768468DF8007001F0F4FE84
:10D05000041E2ADB3046294902F0A6F8041E24DB10
:10D060003846264902F0A0F8041E1EDB244CDFF8E7
:10D070009480444520D3002001F066FF041E14DB99
:10D08000D5F8C430802043F00103C5F8C43001F066
:10D090005BFF041E09DBD5F8C430002443F4803361
:10D0A000C5F8C430012385F8B830124806F026FED2
:10D0B000204602B0BDE8F0810026276A227FF3B245
:10D0C0009A4201D82434D4E707EBC30257F833104F
:10D0D000107902F069F801360028EFD04FF0FF34E4
:10D0E000E3E76FF07704E0E76FF01504DDE700BFDA
:10D0F000C8A8002090A4002061CA0100DDCE010074
:10D1000084A50020A8A5002010B50A4B93F8B840CC
:10D110004CB900F055F848B1FFF74EFF2046BDE886
:10D120001040FFF75FBF6FF0770010BD4FF0FF308A
:10D13000FBE700BFC8A8002030B51F4B8BB005AA85
:10D1400003F11005144618685968083303C4AB424C
:10D150002246F7D11B7810222370002101A80AF083
:10D1600015FB1222002115480AF010FB102101A81E
:10D1700003F0F2FA00281BDD0828B8BF082001AB35
:10D1800009381A1800200D4912F8013F0AAC04EBC7
:10D19000131403F00F0328336B4414F8144C13F8E2
:10D1A000143C013008280C704B7001F10201EBD1E6
:10D1B00002480BB030BD00BF93810200EEB70020E3
:10D1C0002DE9F04F4FF0000B6E4C87B000264FF06A
:10D1D000011AB0463546B14623782BB96A4B023462
:10D1E0009C42F3D1674833E06378052B1BD8DFE816
:10D1F00003F08E03C68E1D3B402304A88DF810B0AB
:10D20000ADF812308DF814B008F050FE40B108238C
:10D2100004A8ADF8123008F049FE08B1ADF812B01C
:10D22000BDF81230E37123781C44D5E7E378002B76
:10D23000F9D1A3787BB108F101085FFA88F8F2E729
:10D240006B689C4209D02435504B9D42F8D3002096
:10D2500007B0BDE8F08F4E4DF6E7AB68002BEAD083
:10D26000414620469847E6E7002DF0D000222B7F6C
:10D270009A42ECD2296AA07801EBC2010B7998425C
:10D2800001D00132F3E70127E078FBB200F00300A0
:10D290008DF81400207994F805C040EA0C20ADF810
:10D2A000120094F90200002826DA4FF0010C07F171
:10D2B00010000CFA00F010EA0A0F24D143F08000AD
:10D2C0008DF8100004A8CDE90213019208F0EEFDDC
:10D2D000DDE90121039BB0B99DF8102012F0800F09
:10D2E000A2700A714FF001021DBF1033DBB29A40E9
:10D2F000BA404AEA020A96E70120B84010EA0A0F4B
:10D3000001D11846DCE70137102FBDD1B9E7032E54
:10D310001DD1FFF711FF074668B1FFF7D3F81028BA
:10D3200009D13846A31C07F1100250F8041B9042A3
:10D3300043F8041BF9D16FF002012378091BE218AE
:10D3400004EB5303D14213D50136F6B26BE7002E3E
:10D35000F1D1B9F1000F3FF47AAFA4EB090389F8DA
:10D360000230C3F3072389F8033089F80480EBE720
:10D3700002F801BC13F8010902F8020DE2E7A14628
:10D3800051E700BFC4A4002083A50020A8A5002069
:10D3900084A50020094B00211A4610B51C78844250
:10D3A00004D15C6814B102EB811010BD0131042975
:10D3B00003F14003F2D10020F7E700BF94A9002059
:10D3C0002DE9F34150F8283C0446103310F82C6C3A
:10D3D0000AD1036950F8202C980736D5D2B95907DD
:10D3E00015D5002344F8283C54F8283C10330BD0C2
:10D3F00054E9077554F8148C09F066FE00284FD0E4
:10D4000021462E4809F059FF02B0BDE8F08143F0F3
:10D4100004032361304654F8241C01AB08F0EDFBF3
:10D4200010B16FF01503DDE7019A54F8243C134462
:10D4300044F8243C54F8203C9B1A44F8203C54F80F
:10D440001C3C134444F81C3CCEE7304654F8241CE2
:10D4500001AB01F01FFE0028E3D1019D54F8243CEC
:10D460002B4444F8243C54F8203C5B1B44F8203CFB
:10D4700054F81C3C2B4444F81C3C002DB1D03046E1
:10D4800001F0ACFEB5FBF0F303FB1055002DA8D165
:10D4900054F8203C002BA4D0304601F043FEA3E713
:10D4A00044F8180CA4F1100006F012FD002DABD0CA
:10D4B000424639463046A847A6E700BFA8A5002047
:10D4C0004B1E012B73B506460D460FD8FFF762FFC2
:10D4D000044668B9012D09D101AB012230460DF196
:10D4E000030101F0D7FD019B002BF5D102B070BD07
:10D4F00009F0EAFD04F12C0108B1012D05D108461F
:10D5000002B0BDE87040FFF75BBF034802B0BDE862
:10D51000704009F0D2BE00BFA8A500202DE9F74F4A
:10D52000064615469846019108F0ADFB04460028D2
:10D530005CD14FF02003EFF3118A83F31288BFF31D
:10D540006F8FDFF8B0B000220023584606F0E4FCED
:10D5500070B9DFF8A490A70109EB8414636813F194
:10D56000100F14D10193584606F0B2FC019B06E05F
:10D570000134042C0BF1400BE5D16FF00B038AF35F
:10D580001188BFF36F8F184603B0BDE8F08F019B81
:10D590002061C4E902350C9B304663610D9B09F89C
:10D5A0000760A3616FF00F03C4F83C80636001F073
:10D5B00015FE58B1304601F011FEB5FBF0F303FB48
:10D5C00010551DB1E36B43F00403E36318F0020F41
:10D5D00007D007F12C010948494409F06EFE0023E9
:10D5E000CDE7304601F09EFD0346C8E76FF00F031C
:10D5F000C9E700BFB0A9002094A90020A8A5002079
:10D6000010B54FF02003EFF3118483F31288BFF3BA
:10D610006F8FFFF7BFFE50B14368103307D16FF033
:10D620008B0300F12C014360034809F046FE84F3AC
:10D630001188BFF36F8F10BDA8A5002070B5042519
:10D640000E4C4FF02003EFF3118683F31288BFF3E3
:10D650006F8F6368103307D16FF08B0308486360E6
:10D6600004F12C0109F029FE86F31188BFF36F8FB6
:10D67000013D04F14004E4D170BD00BF94A9002035
:10D68000A8A5002070B50025094C0A4E3146204659
:10D6900009F0F6FD0122A4F110001146013509F050
:10D6A000B2FD042D04F14004F0D1002070BD00BF94
:10D6B000C0A90020C1D30100014608B5034808F005
:10D6C000CCFA10B1012300F8073C08BD94AA002051
:10D6D0000123016981F84B300B6833B191F849306F
:10D6E0001BB10248083109F0E8BD7047A8A5002029
:10D6F0000123016981F84A300B6833B191F8483051
:10D700001BB10248083109F0D8BD7047A8A5002018
:10D71000012370B582F8483013680D4614463BB1BA
:10D7200092F84A3023B10E4802F1080109F0C5FD14
:10D73000D4F890309A681B699A4205D17DB904F1FA
:10D74000180140F6CD4204E004F11801002DF8D094
:10D750000022BDE870400023014806F051BD70BDB5
:10D76000A8A5002038B5056995F89E0088B195F800
:10D770009F307BB985F84830D5F8900008F0BDF9A6
:10D78000044600220023044805F1180106F038FD84
:10D79000204638BD0020FCE7A8A50020F0B5D0F851
:10D7A0008C3004465B6885B01B6A1F7D384608F0E4
:10D7B0006AFA0646F8B994F88630E3B14FF480620D
:10D7C000A06F03A908F0B8F90546A0B18306A4F13B
:10D7D000180384F830600193084B08BF00F1FF354F
:10D7E000039900932A4602233846FFF797FE2946FD
:10D7F000A06F08F0BDF905B0F0BD00BF11D7010062
:10D8000070B504460E4601791548154608F018FA19
:10D8100010B394F900206378002A16DB202B04D083
:10D82000222B0ED06FF085000AE02B681A6840F8B2
:10D83000102C9A8820F80C2C9B7900F80A3C0020C8
:10D8400070BD638800F8093CF9E7212BEAD1072372
:10D85000103828603360F2E76FF01200F0E700BF85
:10D8600094AA0020002103460C4AA0F84810106832
:10D8700083F89C10C3F8940090889279A3F89800DC
:10D8800083F89A2083F89B104022A3F89E1083F817
:10D89000A01003F14C0009F079BF00BFA07C02008A
:10D8A000002310B50469C4F8A8300C4BC4F8A400D8
:10D8B000596804F1A80269B9C3E9002204F108001B
:10D8C000074909F0DDFC04F11800064909F006FDDE
:10D8D000002010BD0A605A60F0E700BF94AA002043
:10D8E000B15C02009DD70100002313B504698DF8D7
:10D8F000071084F848300122D4F890000DF1070198
:10D9000008F0FBF810B909F0DFFB40B12122002339
:10D9100004F11801064806F073FC02B010BD94F83B
:10D92000A130002BF2D00021212006F073FFE2E7A6
:10D93000A8A5002037B514460A1E054620DDD4F8F8
:10D940008C0004F14C0108F0D8F8012384F8493028
:10D9500023683BB194F84B3023B1114804F108011E
:10D9600009F0ABFCD4F88C104B684A699A1ACB6961
:10D970009B1A3F2B04D8012384F8A03003B030BD9C
:10D9800094F89E30002BF9D0064B40220093284695
:10D990000123019404F14C01FFF7C0FDEEE700BF45
:10D9A000A8A5002035D90100F7B50D4601461D4850
:10D9B00008F03BF9044610B3064656F8A439691E30
:10D9C0005F6805291BD8DFE801F01C1A031C22261A
:10D9D00010F8061C99B9012300F8063C3B6A324650
:10D9E000187BFFF7A7FF14F85C2C42B93B6A11467D
:10D9F000187D0D4B019600930223FFF78FFD03B0B6
:10DA0000F0BD304603B0BDE8F040FFF72BBF012367
:10DA100004F8053CF3E710F8053C002BEFD0002399
:10DA2000F6E700BF94AA002011D7010037B5002403
:10DA3000084D4FF0FF334FF48062284606490094AA
:10DA400006F0A6FB0549284609F044FB204603B032
:10DA500030BD00BFA8A5002060B80020B181020041
:10DA600030BFFFF7FDBF00BF114B124A2DE9F04157
:10DA7000D518013DB5FBF3F5DFF83C805D430F4B56
:10DA8000074608EB0304013CB4FBF3F403FB045426
:10DA90000E1B30460A4909F06CFE701942460021FF
:10DAA000083E09F073FE3E6704F10800BDE8F0810E
:10DAB000010000000000000004000000040000005D
:10DAC000A07C0200044B99685869884203D003493E
:10DAD0004FF080520A607047B4B7002004ED00E0B8
:10DAE000154B9A6A12F0007F9A6A14BF1E201D20FF
:10DAF00012F0807F9A6A18BF1F2012F4801F9A6A62
:10DB000018BF022012F4002F9A6A18BF212012F4C5
:10DB1000802F9A6A18BF222012F4003F9A6A18BF19
:10DB2000232012F4803F9A6A18BF24206FEA024231
:10DB30006FEA12429A62704700ED00E010B5194B8F
:10DB40000246986A9C6A10F4805F14BF1720162062
:10DB500014F4006F9C6A18BF1820A40509D5986BAF
:10DB6000986A000404D51AB19A6A22F400429A62B3
:10DB700019200C4B9A6A12F4806F9A6A18BF1A2007
:10DB8000D2050CD49B6A13F4005F18BF1C20054A11
:10DB9000936A43F47F43936200230B7010BD1B20F4
:10DBA000F5E700BF00ED00E010B51C4B0246986A97
:10DBB0009C6A10F0100F14BF1120102014F0080FF1
:10DBC0009C6A18BF1220A40709D5586B986A0006F2
:10DBD00004D51AB19A6A22F080029A6213200F4B80
:10DBE0009A6A12F0010F9A6A18BF142012F0200FDF
:10DBF0009A6A18BF1520D40658BF9B6A074B9A6AC9
:10DC0000920642BF5A6A22F400525A629A6A42F05D
:10DC1000FF029A6200230B7010BD00BF00ED00E010
:10DC2000F0B54A4B04465B6800258BB0C3F308038C
:10DC300085F31188BFF36F8F02F07F40B0F17F4F03
:10DC400016D1D60714D4550603D4100704D40125E1
:10DC500004E012F0040200D00C4600250022033B31
:10DC60008DF80720032B05D8DFE803F02462665FF8
:10DC70002C46F3E700239DF80720CAB902AE04F151
:10DC80002007324620686168083403C2BC42164649
:10DC9000F7D1099A002D53D0C2F3080121B96FEAD8
:10DCA00052226FEA42220992184602A908F062F84D
:10DCB0000BB0F0BD254BDA6A9107DBD4DA6A002A93
:10DCC000D8DBDA6A5200D5D55A69A16942F480726C
:10DCD0005A61BFF34F8FBFF36F8F5A6931F8021C3F
:10DCE00022F480725A61BFF34F8FBFF36F8F4DF6EE
:10DCF0000272914201D12368BDE79A6AD2B232B171
:10DD000001200DF10701FFF74FFF0346B3E79A6AC1
:10DD100012F47F4F05D001200DF10701FFF70EFF30
:10DD2000F3E79B6AB3F5803FA4D3FFF7D9FEECE796
:10DD300000200DF10701E6E700200DF10701EDE7F6
:10DD400022F4FF7222F00102ADE700BF00ED00E017
:10DD5000044B5A6942F010025A615A6942F48062D7
:10DD60005A61704700ED00E0EFF30880EFF309819E
:10DD700001B57246FFF754FF01BD00BF002080F3DC
:10DD80001488BFF36F8F002080F30A8880F30B881C
:10DD900000F056FC00200E490860BFF34F8F0D487D
:10DDA00080F3088800F03EF8202080F311880A48AC
:10DDB0004FF40061401880F30988EFF314800221CA
:10DDC000084380F31488BFF36F8F00F00DF9000053
:10DDD00094ED00E0A0CD002060C00020BFF34F8F85
:10DDE0000549064BCA6802F4E0621343CB60BFF3F7
:10DDF0004F8F00BFFDE700BF00ED00E00400FA0513
:10DE0000002318460649D1F89020C2F30722934216
:10DE100000DB7047C1F89830C1F8A0000133F6E785
:10DE200000ED00E010B572B6002484F31388FFF70C
:10DE3000E7FF23464FF0FF300C4A03F12001013386
:10DE4000102B42F82100F8D100234FF0FF30074A91
:10DE500003F160010133102B42F82100F8D162B6C2
:10DE6000BFF34F8FBFF36F8F10BD00BF00E100E025
:10DE7000084B9B6883420BD1EFF3058343B1064BFC
:10DE80005A6842F080525A605A6A22F400425A623A
:10DE900009F03EBBB4B7002000ED00E06FF00A01CE
:10DEA000084A93689967084958674B6843F080535C
:10DEB0004B60002383F31188BFF36F8F9368986FD3
:10DEC000704700BFB4B7002000ED00E018498A6831
:10DED00082F87DE04FF030001044EFF3098C80E8C9
:10DEE000F01F202080F31288BFF36F8F114F4FF087
:10DEF00000664A698A603E604FF070041419206819
:10DF00000D4C206092F97DE0506F0023536780F341
:10DF1000118802F1300090E8F01F8CF3098802F1BB
:10DF2000000004B507F039FFBDE804407047000069
:10DF3000B4B7002004ED00E09CAA00201EF0040FFE
:10DF40000CBFEFF30880EFF30980816911F8021C20
:10DF50000229FFD001B507F00FFF01BD40B2002834
:10DF600007DB01234109034A00F01F00834042F808
:10DF70002130704700E100E040B200280CDB0122B4
:10DF80000649430900F01F008240203341F8232056
:10DF9000BFF34F8FBFF36F8F704700BF00E100E00A
:10DFA000054B420953F82220012300F01F0003FA19
:10DFB00000F01040704700BF00E100E040B20028D0
:10DFC00001F10101ACBF00F16040064B4FEA411185
:10DFD000C9B2ABBF00F5614000F00F0080F800133C
:10DFE0001954704714ED00E00B4A08B50B4B22F0B2
:10DFF0007F029A60BFF34F8FBFF36F8FD3F88820F3
:10E0000022F47002C3F8882005F0CAFC06F04EFC2A
:10E0100000F07AF805F00EFD00C0010000ED00E010
:10E0200042F8203C009B0C4942F81C3C019B21F02B
:10E03000010142F8183C029B42F8081C42F8143CCB
:10E040004FF0807342F8043C002343674FF43C4395
:10E05000203A0265C367704789C601000A4B046F06
:10E0600098600A4B1C60036E83F30B88104681F3A3
:10E070000988002163B681F31188BFF36F8F0022F6
:10E080000023FEF701FB00BFB4B700209CAA0020CC
:10E09000014910220A60704710ED00E072B640405E
:10E0A00080F31188BFF36F8F01B500F083FA002869
:10E0B0000AD0BFF34F8F30BF00BF00BF00BF00BF0B
:10E0C00000BF00BF00BF00BFBDE8014062B6BFF3A4
:10E0D0006F8F704772B6494081F3118801B500F027
:10E0E00069FA00280AD0BFF34F8F20BF00BF00BFDE
:10E0F00000BF00BF00BF00BF00BF00BFBDE80140C0
:10E1000080F3118862B67047002320210348C218AB
:10E110000133452B82F80013F9D1704700E100E08C
:10E1200001B5EFF30580A0F110004FEAC0000449EB
:10E13000014409C99847BDE8014002490847000069
:10E14000787A0200C5DA01001FB5094C094A234656
:10E150000121094800F0EAF800230393074B01214D
:10E16000E41A01A80193029400F0EAF804B010BD8B
:10E170000000072000A00020207D0200A8A50020AC
:10E1800010B50C7A0B6804F01F0223F01F031A432A
:10E19000CB68640923F01F03054943EA440343F0B5
:10E1A0000103C1F89800C1F89C20C1F8A03010BD4F
:10E1B00000ED00E02DE9F04F0F46144606464FF003
:10E1C00000084E4D85B0B84580F29480D6F8049092
:10E1D000B9F1000F36D0B9F11F0F40F2898019F064
:10E1E0001F0F40F08580D6F800A01AF01F0F7FD1D6
:10E1F000504607F0D6FD834609EB0A00013807F0C8
:10E20000D0FD834574D11BF1160F71D05C456FDDD5
:10E21000C5F898B0D5F89C10C5F898B0D5F8A030DE
:10E2200021F01F0143F01F0AD6E900321A44994237
:10E2300002F1FF391ED1CA4508D131465FFA8BF091
:10E2400007F0B8FD08F101080C36BCE73146C5F807
:10E2500098B0D5F89C3022F01F0203F01F0313433F
:10E26000C5F89C30E0B207F0A5FD10F1160F3FD0C5
:10E27000441CE7E7C5F898B0D5F8A020013B23F08F
:10E280001F0302F01F021343CA453146E0B2C5F82E
:10E29000A030E8D007F08EFD10F1160F28D0C5F899
:10E2A00098B0D5F89C209DF808300AF1FF3A62F347
:10E2B00004038DF80830D5F8A0309DF808205B08DD
:10E2C00063F347128DF80820D6E900321344009317
:10E2D00023F01F03411C5344A3EB0903C8B223F0EE
:10E2E0001F030728039303D86946FFF749FFBFE7D9
:10E2F0006FF01504204605B0BDE8F08F00ED00E09A
:10E300000522044BC3F89420BFF34F8FBFF36F8FE8
:10E31000704700BF00ED00E0BFF35F8F0022024BAB
:10E32000C3F89420704700BF00ED00E010B5034C27
:10E330002278FFF73FFF207010BD00BF00B800201B
:10E340002DE9F74F294D8A4606464FF00008AB46A7
:10E35000274FD0451BDAD6F80490B9F1000F3FD013
:10E3600031680846019107F01CFD0199044609EB4C
:10E370000100013807F015FD84424FF014021D4BD7
:10E3800008D002FB08F36FF015024BF8032003B02E
:10E39000BDE8F08F14F1160F2C60F8D01978A14267
:10E3A000F5DD02FB08B0C7F89840C7F89840D7F8E9
:10E3B0009C4000F10801007B64F304000871D7F869
:10E3C000A0000C79400860F347140C71D7F89C103A
:10E3D00021F01F016960D7F8A01021F01F01296109
:10E3E00008F1010814350C36B3E700BFA0AA0020DD
:10E3F00000ED00E000B80020F0B5384D87B02C6883
:10E40000082C67D80020FFF787FF354B354AC3F843
:10E41000C02084420DD1344D01A82C70FEF75CFA67
:10E4200000240646314FA6420AD1FFF769FF0020BB
:10E430004EE0696801EB0011FFF7A2FE0130E8E74A
:10E440000199200101EB0413DA683A40B2F5001F8C
:10E4500022D0B2F5800F2CD0B2F5801F36D15A6889
:10E460009B680958013B22F01F00034401208446A9
:10E4700023F01F0340EA4C108DF810002878CDE9F6
:10E4800002210728059321D802A9FFF779FE2B78EE
:10E49000013401332B70C6E75A689B680958013B69
:10E4A00022F01F0003444FF0020C012023F01F0351
:10E4B000E0E75A689B680958013B22F01F000344BB
:10E4C0004FF0000C062023F01F03D3E76FF0150078
:10E4D00007B0F0BD4FF0FF30FAE700BF2C7D02001F
:10E4E00000ED00E0AAFF440000B800200000F0FFAB
:10E4F00008B5024B1B689847002008BDB4AA00204D
:10E50000034B044A1860937843F0020393707047FA
:10E51000B4AA0020B8A1002008B5044806F0CCFE3B
:10E52000404080F311884FF0020002DFC9810200F1
:10E5300008B50649064821F00701C1F1005202F56D
:10E54000E02207F01BF9002008BD00BF27DC0020F7
:10E55000B8AA002007B50DF1070008F026FB114B03
:10E5600098421CD14FF480620F4B1049C3F8B82574
:10E570004FF40062C3F83C259DF8070008F009FB42
:10E580000B499DF8070008F0FFFA01209DF80730BD
:10E59000984003F0C5FA002003B05DF804FB6FF06B
:10E5A0000B00F9E70000AD0B00A002402CA00240D8
:10E5B00028A10240052370B5144D154E2C78013466
:10E5C000B4FBF3F303EB8303E41A08F077FA114A80
:10E5D000137823B156F82430C01A072813D90E4BEC
:10E5E000D3F8141141B10021C3F81411D3F8143138
:10E5F0002C700CB9012313702C7808F05FFA46F8E0
:10E600002400012070BD0020FCE700BF02B80020FC
:10E61000C4AA002001B800200050004048B1054BBA
:10E62000054A1B68B3FBF2F35843044B43F0010364
:10E6300018477047F4A2002040420F00B07C02004F
:10E6400008F09EBAF8B5144BD3F83021D3F8343122
:10E65000072A1CD1023B032B02D8104AD35CB3B16A
:10E66000012600244FF050270D4D0520C7F81866ED
:10E67000C5F8144608F086FA3046C5F8146608F066
:10E6800081FAC5F81446C7F818460020F8BD0022E4
:10E69000034BC3F81426F8E700F00720E7810200D7
:10E6A000005000400146014808F0A2BDB4A400207B
:10E6B0000149024808F001BE00AB002048A6002036
:10E6C000020600F07F0312D5082B05D1010700F0E8
:10E6D0000F0306D50E48704710F0780F12D100F0E6
:10E6E0000F034C2000EB43100A4B18447047082BD3
:10E6F00005D1020700F00F0306D50748704710F058
:10E70000780FF6D000207047044800EB43107047A4
:10E7100024AC0020D8AA002044AD002044AC002046
:10E7200000220023014805F09FBB00BFB4A40020D5
:10E7300013B5002201213720FFF740FC3720FFF7F7
:10E740000DFC124800F0F8FD114B98421AD100243C
:10E75000104804F001F8104805F010F84FF0FF33AE
:10E760004FF480620D490E48009405F011FD0D49EB
:10E770000B4808F0AFFC0C480C4908F081FD20461E
:10E7800002B010BD6FF00400FAE700BFBDE9010060
:10E790000000AD0BF6810200587D020060BC002035
:10E7A00048A60020EB81020000AB0020D9EA01005E
:10E7B000002310B50B49D1E8EF2F012A03D1C1E89E
:10E7C000E03F0028F7D10CD151F8044C1439204611
:10E7D00007F027F9783004D12046BDE8104007F053
:10E7E000FBB810BDF8AA002038B5002464F07F0003
:10E7F000C0B2FFF765FF013407F03EFB082CF5D1EE
:10E8000000240E4DE0B2FFF75BFF036903B9056119
:10E81000013407F031FB082C05F14005F2D108481E
:10E8200007F02AFB074BD3F87C2212B9064AC3F83B
:10E830007C22064807F020FB002038BD68B100208C
:10E8400024AC0020D8AA002068AD002044AD0020F0
:10E8500010B5054CFFF764FF20B14168204608F071
:10E860000DFCF7E710BD00BF60A4002007B5002332
:10E8700000220E4801A905F05DF990B1FFF7E8FF0D
:10E8800000220023094801A905F054F938B90423EE
:10E89000019840600374FFF705FFFFF709FF0020B0
:10E8A00001E00198406003B05DF804FB60A4002023
:10E8B00010B50446FFF7DAFF60B10022047202745B
:10E8C000FFF7F0FE044B93F824301BB1BDE8104075
:10E8D000FFF7EEBE10BD00BFD8AA0020012807B583
:10E8E0000FD002280ED048B9002200230848CDE9F5
:10E8F000002345F69A12002306F0A4F903B05DF850
:10E9000004FB002003B05DF804EBFFF7D1BF00BFAC
:10E9100028A40020F8B5877806463846FFF7D0FED1
:10E920003B060446F57812D5002D43D1FFF79EFF34
:10E93000034600283ED00122A57702740322027309
:10E940009C60FFF7AFFEBDE8F840FFF7B1BE4DB1E8
:10E95000012D2FD1FFF78AFF034658B36577057461
:10E960000573EDE7FFF782FF20B3B278124B12F088
:10E97000800F02F0080111D041B1D3F8A836E3604E
:10E9800001230374022384600373DAE7142102F085
:10E990000F0201FB0233D3F80836F0E711B1D3F8C8
:10E9A000A837ECE7142102F00F0201FB0233D3F881
:10E9B0000837E4E7F8BD00BF00600340F0B5064645
:10E9C00089B01422002103A808F0E0FE3378013B4F
:10E9D000052B21D8DFE803F07A0314146A16032309
:10E9E00000248DF81430FFF741FF0346A0B100F179
:10E9F00008020474DDE9050182E8030018461DE001
:10EA00000423EDE7B7783846FFF75AFE837A0446C9
:10EA100023B1013B022B43D909B0F0BD3B06F57889
:10EA200013D5002DF8D1FFF721FF03460028F3D0BE
:10EA30000122A5770274032202739C60FFF732FE65
:10EA400009B0BDE8F040FFF733BE55B1012DE3D169
:10EA5000FFF70CFF03460028DED0657705740573C9
:10EA6000EBE7FFF703FF07460028D5D00123037427
:10EA700002238460037304F10C01B07807F060FA9C
:10EA8000134AE168B2F88C328B4206D95B1AA2F8BD
:10EA90008C3200F09BFF3846D0E7A2F88C52FAE7A0
:10EAA000304609B0BDE8F040FFF734BF01A800F0E0
:10EAB0006BFF9DF80530052B04D19DF8043013F051
:10EAC000600FA9D0034B012405938CE702248AE749
:10EAD000D8AA002044AC00202DE9F0438046AC4C7D
:10EAE000DFF8B09285B0FFF71BFE074610B905B0FE
:10EAF000BDE8F08394F825303A7C3BB9002A00F059
:10EB000086807968A34808F0B9FAECE7042A42D86D
:10EB1000DFE812F07D000500FC0012012D013B7BB7
:10EB2000BD68032B37D8DFE803F0023D5A5F0022AF
:10EB30006E69994B32607260D3F880143170D3F8EB
:10EB400084147170D3F88814D3F88C0441EA00213E
:10EB50007180D3F89014D3F8940441EA0021B18075
:10EB6000D3F89814D3F89C3441EA0323F3800823A4
:10EB7000EB6030687168894B03C311462B68687A73
:10EB8000984796F90030002B08DBF38833B1A4F8DE
:10EB90008C3200F01BFF48467968B4E70023A4F8E4
:10EBA0008C32F8E76B7F002BF5D02B7F002BF2D057
:10EBB00000264FF0FF326E774FF0FF3378482E7704
:10EBC00007F06DF96B6901A901936B68CDE9023615
:10EBD000687A00F007FC724807F063F9DBE701216F
:10EBE0002B68687A9847D6E7AB7A6BB9EB7F5BB94D
:10EBF0006B484FF0FF324FF0FF3307F050F900F051
:10EC0000EBFE674807F04DF902212B68E9E73A7AF5
:10EC1000042AC0D8DFE802F055031F636F0000F03C
:10EC200057FB05460028B6D100F004FB01235D49DF
:10EC3000D1E8EF2F002A03D1C1E8E03F0028F7D147
:10EC4000A9D141F8085C41F8105CE06914396361AE
:10EC500006F06AFE9FE7002565F07F00C0B2FFF76F
:10EC60002FFD037A13B1407A01F01CF80135082D0D
:10EC7000F2D194F854311BB194F8550101F012F817
:10EC80000025E8B2FFF71CFD037A13B1407A01F0CA
:10EC900009F80135082DF4D194F874321BB194F8B9
:10ECA000750200F0FFFF002000F0F6FA012384F85F
:10ECB00025302368002B3FF46EAF002102209847D7
:10ECC00069E7002584F8255000F054FFFFF770FD38
:10ECD0002368002B3FF45FAF29460420EFE7002BA9
:10ECE0003FF459AF00F0FEFA2368002B3FF453AF16
:10ECF00000210520E3E72268002A3FF44CAF002BF7
:10ED00003FF449AF00210620904744E708F1100581
:10ED10004FF0FF334FF0FF32284607F0C0F8FFF7FF
:10ED200063FD284607F0BDF858F8283C002B3FF457
:10ED300032AF00210120C2E794F874327BB1012583
:10ED400084F8895284F88852FFF790FD38B1164A4A
:10ED5000057405738260FFF7A5FCFFF7A9FC58F85E
:10ED6000283C002B3FF417AF00210A20A7E704F04E
:10ED7000EDFC00F0FFFE00F053FAFFF769FDFFF72E
:10ED800033FD04F0DBFC094800F0D6FA03E700BFCE
:10ED9000D8AA002060A4002000600340DCAA002064
:10EDA00010AB0020F8AA002044AD0020BDE901000E
:10EDB00038B5154D95F8244024BB05F1380008F00E
:10EDC000A2F9022001F08CFA22460121E8613620E6
:10EDD000FFF7F4F804F0B2FCFFF706FD044610B9A3
:10EDE000012385F82430094B1B680BB1FFF760FC49
:10EDF000074BD3F80034DB0702D50020FFF76EFD88
:10EE0000204638BD0024FBE7D8AA0020B4A4002087
:10EE100000700340074B93F824203AB193F8253053
:10EE2000002B14BF00206FF0120070476FF012002B
:10EE3000704700BFD8AA002038B5104B044693F89D
:10EE40002430C3B105782846FFF73AFC10B96FF0BB
:10EE5000150038BD4572237983726388436020783A
:10EE6000618810F0080F02D14B1E0B42EFD107F062
:10EE700062F80020EDE76FF01200EAE7D8AA002060
:10EE800038B5124B054693F82420CAB193F82530C3
:10EE9000B3B1FFF715FC0446A8B1837A012B12D059
:10EEA00007D9023B012B07D900206369E060A36109
:10EEB00038BD00F097FDF7E7284600F039FDF3E78D
:10EEC0006FF01200F4E76FF01500F1E7D8AA002008
:10EED00038B50E4B054693F8242082B193F82530BF
:10EEE0006BB1FFF7EDFB68B115F008040AD12846B5
:10EEF00000F040FD284600F00FFF204638BD6FF0BF
:10EF00001200FBE76FF01500F8E700BFD8AA002059
:10EF100038B50C4B054693F824200C4662B193F8A3
:10EF200025304BB1FFF7CCFB48B144B1284600F087
:10EF300007FD2070002038BD6FF01200FBE76FF076
:10EF40001500F8E7D8AA002070B5134E044696F8CD
:10EF50002430C3B1FFF7B4FB0546B8B1230705D48D
:10EF6000204600F007FD204600F0D6FE2B7A83B93C
:10EF700001232B7296F825300BB9002070BD204676
:10EF800000F090FEF9E76FF01200F7E76FF0150060
:10EF9000F4E76FF07700F1E7D8AA00202DE9F043FD
:10EFA000DFF8E4801E4698F8243007468946154667
:10EFB00085B0002B61D098F82530002B5DD003067A
:10EFC0005ED5FFF77DFB0446002859D0037A002B5D
:10EFD00056D04FF0FF334FF0FF3208F1380006F003
:10EFE0005EFFA37F4BB108F1380006F05AFF6FF0C7
:10EFF0000A04204605B0BDE8F083A37AC5B13BB34F
:10F0000001234FF00008A377384601A9CDE9019507
:10F01000CDF80C8000F0E6F91C4B984229D084F81A
:10F020001E801EBB6FF00404194806F03AFFE0E7AB
:10F03000E27F02B1E577002BE2D100F0D9FCB842C3
:10F04000DED000F0C9FC124806F02BFF0024D0E708
:10F05000B8F80A30AB42F0D96268B5FBF2F302FBB4
:10F060001353002BE9D10123E377E6E7C6F80080CC
:10F07000D8E706B135600024D6E76FF01204B8E790
:10F080006FF01504B5E700BFD8AA00200000AD0B53
:10F0900010AB00202DE9F0411D46204B174693F898
:10F0A00024200E46002A33D093F8253083B303067C
:10F0B00031D401B97FBBFFF703FB044658B3037A91
:10F0C0004BB34FF0FF334FF0FF32154806F0E7FE29
:10F0D000E368B8469F4228BF984646B93FB905B194
:10F0E0002B600F4806F0DDFE0020BDE8F0814246AF
:10F0F0003046A16908F03DFBA3694344A361E3687E
:10F10000A3EB0803E360002DEBD0C5F80080E8E72F
:10F110006FF01200E9E76FF01500E6E7D8AA0020CB
:10F1200010AB002070B51E4D034695F8242082B325
:10F1300095F825206AB31B062ED4FFF7C1FA0446C2
:10F1400050B3037A43B34FF0FF334FF0FF3205F172
:10F15000380006F0A4FEE368B3B901266369267798
:10F16000A361637F83B1FFF781FB30B905F13800FC
:10F1700006F097FE6FF00B0070BD06748460067396
:10F18000FFF790FAFFF794FA064806F08AFE00208F
:10F19000F2E76FF01200EFE76FF01500ECE700BF49
:10F1A000D8AA002010AB002010B5084B0C4693F8ED
:10F1B00024302BB1FFF784FA28B10460002010BD81
:10F1C0006FF01200FBE76FF01500F8E7D8AA0020F7
:10F1D000014B1860704700BFD8AA002008B5074B44
:10F1E00093F8243023B1FFF76BFA20B1406808BDD3
:10F1F0006FF01200FBE76FF01500F8E7D8AA0020C7
:10F20000064B10F0800FA3F1D80208BF1346182256
:10F2100000F00F0002FB0030704700BF80B40020F8
:10F220000023024A1360024A1370704760B5002041
:10F2300007B800204FF40062114BC3F800240122EC
:10F24000C3F80025D3F800241205FBD54FF4006263
:10F25000C3F800248022C3F81C250122C3F83025FE
:10F2600040F2FF12074B1A600023074A1360074A57
:10F270001370074A13700222064B1A70704700BFC2
:10F28000006003405CB5002058B5002003B80020A2
:10F2900005B8002007B800200022094B10B51A70ED
:10F2A000084A094B094C002808BF13463620C4F809
:10F2B0000033FEF753FE0123C4F8043510BD00BF30
:10F2C00006B80020FDFFDF01FDFFFF0100600340E5
:10F2D000034B1878012894BF00200120704700BF1D
:10F2E00007B8002010B54FF02003EFF3118183F32E
:10F2F0001288BFF36F8F0E4B1B7803F0FF0083B1B2
:10F300000C4BD3F8002412F400720AD10124C3F884
:10F310002C45D3F82C45D3F80044A40502D5C3F8F6
:10F320002C25002081F31188BFF36F8F10BD00BF23
:10F3300006B8002000600340F8B51C4B1C7894BB55
:10F340001B4A40F2FF171060012226461A7064F033
:10F350007F0514F0080FEDB214BF3946402128464E
:10F3600006F0E9FD2846FFF74BFF0134092C8675AE
:10F3700006730661EBD1002440F2FF17254614F016
:10F38000080FE6B214BF39464021304606F0D3FDDF
:10F390003046FFF735FF0134092C8575057305618B
:10F3A000EDD10448F8BD0448FCE700BF07B80020D1
:10F3B00060B500200000AD0B0500AD0B084B10F050
:10F3C000800F14BFD3F81025D3F81425012300F0C3
:10F3D0000F018B40134214BF01200020704700BF73
:10F3E0000060034002462DE9F8434FF02003EFF39D
:10F3F000118783F31288BFF36F8F030703D1194B73
:10F400001B7883422AD1184B10461C684FF0010923
:10F41000E44306F088FD154EA4B2356809FA00F8F9
:10F420002C4314EA08041BD11046FFF7E9FE0346FB
:10F4300080F80C9007C983E807004FF480021C6134
:10F440009C750B4B45EA08050A483560C3F8042152
:10F4500087F31188BFF36F8FBDE8F8830648F7E79D
:10F460000648F5E705B800205CB5002058B5002037
:10F4700000E100E00000AD0B0A00AD0B0B00AD0B8E
:10F4800010F0080F074B06D0D3F8C00410F4803FEB
:10F4900018BF0020704700F00F0000F5947053F87B
:10F4A00020007047006003402DE9F04FA84B85B065
:10F4B000D3F8604134B10022C3F86021D3F86C4422
:10F4C000C3F86C44D3F828214AB10022C3F828219C
:10F4D000A04B187806F027FD012383401C439E4F64
:10F4E0009E4E3D7897F9008015F0080141D1B8F1A2
:10F4F000000F05F00F032CDA994A52F8230010B3DD
:10F5000042F823101422534303F1804303F5583388
:10F51000D3F80836934A03F0010311784B40137077
:10F52000914804F0D5FC2846FFF76AFE837D032B43
:10F5300037D1284606F0F7FC012303FA00F03368C0
:10F5400023EA000333600125DFF82092DFF82082F0
:10F550005FE0884A52F823000028F4D042F82310D4
:10F560001422534303F1804303F55833D3F808378B
:10F57000D0E7B8F1000F764B09DBD3F85021002A11
:10F58000E1D00022C3F85021D3F8A837C2E7D3F85E
:10F590002C21002AD7D00022C3F82C21D3F8A8367A
:10F5A000B8E7037BDBB9284606F0BDFC012303FA6C
:10F5B00000F03368B8F1000F23EA0003336001DA8A
:10F5C000882DC0D106238DF80C3000238DF80F3024
:10F5D000674B8DF80E501B6803A89847B3E7002DC2
:10F5E000B1D101225A4BDA64ADE794FAA4F0B0FA33
:10F5F00080F0D9F8002005FA00F31A430F28C9F863
:10F60000002024EA0304326840F3B880134200F07B
:10F61000C680002CE9D14E4BD3F800215AB1C3F873
:10F620000041554B03A81C704A4B1C7001230393E7
:10F630004F4B1B689847464BD3F85421EAB1002240
:10F64000C3F85421D3F80413890216D58DF80C2081
:10F65000D3F8202503A8ADF80E20D3F8C034002B32
:10F6600014BF4FF001224FF48072D9F800301343D9
:10F67000C9F800303E4B1B689847354BD3F85821EA
:10F68000002A2ED00022C3F85821D3F80044E50503
:10F69000C3F8004408D50122374B03A81A7002238F
:10F6A0000393334B1B689847A00508D50022324BC3
:10F6B00003A81A70032303932D4B1B689847610519
:10F6C0000FD52D4B1A7862B100221A700122204BFF
:10F6D00003A8C3F808259A6504230393244B1B68E9
:10F6E00098471B4BD3F85C310BB31F4B9B6813B986
:10F6F0003B785A061BD00022154B03A8C3F85C21A7
:10F70000D3F88034134A23F07F031370336823F057
:10F7100001133360D9F8003023F4803343F0010340
:10F72000C9F8003005230393114B1B6898473268D2
:10F73000D9F800301A4207D0002200230A4804F00A
:10F74000EBFB002800F0A68005B0BDE8F08F00BFFD
:10F750000060034005B8002004B8002058B5002020
:10F760000861034003B80020A4A400205CB5002079
:10F7700060B500203061034006B8002013407FF4DC
:10F7800048AF062260F07F018DF80C208DF80E1036
:10F790008DF80F30D8F8003003A8984739E70623D2
:10F7A000A0F110018DF80C308DF80E108DF80F506F
:10F7B000F0E718F0012214BF92FAA2F898FAA8F81C
:10F7C000B8FA88F8B8F10F0F01931AD9A8F110050B
:10F7D000EDB22846FFF714FD04462846FFF750FE19
:10F7E0006268B4F814E09042D4F800C0019B31D8AC
:10F7F00000EB0C0B121AC4F800B06146834662603D
:10F800002BE048F080052846FFF7FAFC4368B0F883
:10F8100014B001689B4528BF9B4601F06043B3F1DB
:10F82000005F044605D040235A463D4807F0B6FF26
:10F830003B49236862685B442360A368A2EB0B0228
:10F84000DB0768B2626034D5BBF1000F33D100230F
:10F85000237330E061464FF0000B704526D1003A2B
:10F8600018BF0122BCF1000F22D0584520D9012237
:10F8700002FA08F223EA02033360062302218DF81C
:10F880000C30284BA1751B688DF80E508DF80F10A9
:10F8900003A898473368D9F800A013EA0A0888D16A
:10F8A000214805B0BDE8F04F04F012BB0022D9E7B3
:10F8B00068B2002ACBD0012202FA08F82AEA08032B
:10F8C000C9F80030236915F0080F5B4423613D70CF
:10F8D000164B17D100284FF0140005F00F0500FB60
:10F8E0000530B5BF03EB85030A35C0F80016C0F834
:10F8F0000017B5BFC0F804B6C0F804B75A6043F8A3
:10F90000252021E70028B5BFC3F8A016C3F8A0172B
:10F91000C3F8A4B6C3F8A4B7B4BF5A629A6413E795
:10F9200068B3002060B50020A4A40020006003405C
:10F93000024B40F48070C3F8180570470060034024
:10F94000030713D400F00F0310F0800F084A0BBF19
:10F9500003F5887303F5847302EB830252F82300E6
:10F9600008BF5068003818BF01207047002070475A
:10F9700000600340034BC3F80C0540F48070C3F8EB
:10F980000C057047006003400023036043600E4B8A
:10F99000D3F880240270D3F884244270D3F88824EA
:10F9A000D3F88C1442EA01224280D3F89024D3F891
:10F9B000941442EA01228280D3F89824D3F89C342C
:10F9C00042EA0323C3807047006003400122014BD9
:10F9D000DA647047006003400122014B1A657047EA
:10F9E000006003400122014B5A65704700600340EC
:10F9F000014B1878704700BF05B80020024610B5CB
:10FA00004FF02003EFF3118483F31288BFF36F8F5D
:10FA100006F089FA01230B4903FA00F00B6823EA88
:10FA200000030B6012F0080101BF02F00F02064B49
:10FA300002F5947243F8221084F31188BFF36F8F9C
:10FA400010BD00BF5CB5002000600340F7B5014663
:10FA50004FF02003EFF3118583F31288BFF36F8F0C
:10FA6000FFF7CEFB0646084606F05DFA012211F0CC
:10FA7000800F02FA00F22E4818D1036832EA03041C
:10FA80000AD00846FFF7BAFF0323B37585F3118840
:10FA9000BFF36F8F03B0F0BD264923EA0203036072
:10FAA0000B68347323EA02030B60EDE70B0715D4F0
:10FAB0008029214B2FD001F00F0404F2DA346400C6
:10FAC000C3F80048D3F80448D3F80478E4B244F00B
:10FAD00002043C43C3F80448D3F80438154F0468C3
:10FAE0003B6864EA030C1CEA020FCFD013433B606F
:10FAF00000233373032324EA02040622B3758DF82E
:10FB000007300E4B04601B688DF804208DF806103A
:10FB100001A89847BAE740F2B474C3F80048D3F894
:10FB20000448D3F80478E4B244F00404D1E700BFF9
:10FB300058B500205CB500200060034060B500208F
:10FB400038B50446094D4FF0FF324FF0FF332846D9
:10FB500004F0E2F92046FFF779FF284604F0B8F9EF
:10FB60004FF48002024BC3F8042138BDA4A4002046
:10FB700000E100E0F8B54FF0FF324FF0FF332A48C4
:10FB800004F0CAF94FF48002284B3620C3F88421D0
:10FB9000FEF706FA98B10127254E264B34681B68FC
:10FBA000240C24041C4354BB40F2FF13224D336049
:10FBB0003620C5F80445FEF7DFF9C5F800431F4AB3
:10FBC00013788BB100211C4BC3F808110121C3F835
:10FBD0000026C3F804165960D3F808110029FBD099
:10FBE0000021C3F8081111700022134BC3F800253F
:10FBF0000D4804F06DF90122114B1A70F8BD94FA0A
:10FC0000A4F5B5FA85F528460F2DC6BFA5F110005D
:10FC1000C0B240F08000030701D4FFF717FF07FAD6
:10FC200005F524EA0504BEE7A4A4002000E100E0F5
:10FC30005CB5002058B500200060034003B80020E8
:10FC400007B8002010B504464FF0FF324FF0FF33E5
:10FC5000114804F061F92046FFF7F8FE012304F093
:10FC60000F029340DB430D4A14F0800F15BFD2F80A
:10FC70001015D2F814150B400B4014BFC2F8103504
:10FC8000C2F81435044804F023F94FF48002044B01
:10FC9000C3F8042110BD00BFA4A4002000600340ED
:10FCA00000E100E070B50446FFF788FB68B9012564
:10FCB00004F00F0214F0800F154B05FA02F205D084
:10FCC000D3F810150A43C3F8102570BDD3F81415E6
:10FCD0000A43C3F81425631E062BF6D84FF0200301
:10FCE000EFF3118683F31288BFF36F8F2046FFF77F
:10FCF00085FE204606F017F9064A8540136823EA78
:10FD00000503136086F31188BFF36F8FDDE700BF33
:10FD10000060034058B50020030610B5044605D422
:10FD2000FFF70EFE10B12046FFF768FE014BC3F847
:10FD3000184510BD0060034013280ED8084A12F879
:10FD4000103053B102EB4002527832B1086843439D
:10FD500093FBF2F300200B6070476FF015007047C3
:10FD6000F78102000122054BC3F8002590F87610B8
:10FD700009B1DA6070471A605A60704700E00040CD
:10FD8000087970B500F01F04072C20D80B780B2BD6
:10FD90001DD8DFE803F0070707071C061C1C1F21FE
:10FDA0001C2304234A78032A1AD0042A0FD10025E1
:10FDB00044F20A064A88B24246D013D844F20306F7
:10FDC000B2423DD044F20506B2423BD0E2B36FF0FE
:10FDD000150034E00523E5E70623E3E70723E1E721
:10FDE0000125E5E744F21406B2422FD044F228067A
:10FDF000B2422DD044F20F06B242E8D10322C0F342
:10FE000040101B0243EA0053002043EA053343EA53
:10FE10000243220102F1804202F56042C2F8183525
:10FE200023018A7903F1804303F56043C3F8142565
:10FE3000C3F81005074B4A79234483F8902070BD1E
:10FE40000022DCE70122DAE70222D8E70422D6E723
:10FE50000522D4E7B0A00020F7B50D464FF0FF33E0
:10FE60004FF0FF32534804F057F86E68731EFE2BB4
:10FE70003CD800231A465048504F26FA03F111F09F
:10FE8000010126D017F803C0BCF1000F2ED06C7C06
:10FE900000EB031E003C18BF0124DEF818150132E8
:10FEA00021F0807141EA0461CEF8181503F1510187
:10FEB000090140F801C0D2B20133082BDDD12B7CFF
:10FEC000083B062B12D8DFE803F009111D111911A8
:10FED0001B0003F1510424010151EDE700233649D1
:10FEE000012AC1F8F0356B7C0ED97BB16FF0150497
:10FEF000304803F0EDFF204603B0F0BD0223EEE7EB
:10FF00000323ECE70123EAE7082BEFD8C1F8F43527
:10FF10002968530011B1898901FB0333E9689942CB
:10FF200045D32F46A968244B254CC3F82C1604F161
:10FF30006406C3F830260FCF0FC63B6827463360F0
:10FF4000002626662B6873B30FCB04F1780585E88D
:10FF50000F006566A4F8886028B3D7E8EF3FC7E8CC
:10FF6000E26F002AF9D117494FF400400F4631469D
:10FF7000A56F0023E5FB0071134A3846FCF73AF9F8
:10FF80000022CDE90001002304F1080004F05AFE2C
:10FF90004FF0FF324FF0FF330C4803F0BDFF00B1CC
:10FFA0002066246EA4E70648FFF7DCFEF0E76FF05A
:10FFB0000B049DE7F0A0002000E0004040A10020DD
:10FFC000B0A000203F420F0040420F0000A10020DF
:10FFD00010B500240D4B0E20C3F80441D3F80421C2
:10FFE000C3F81041D3F810211222C3F80423FDF7FF
:10FFF000B5FF224601210E20FDF7E0FF0448836C87
:020000040002F8
:1000000013B9403003F064FF002010BD00E0004051
:10001000B0A0002038B52C4BD3F80421002A45D0DD
:100020000022C3F80421D3F804110121274C996060
:10003000C3F80025636E25469BB3E36FB4F88820B0
:1000400033B104F164019847012814D0022823D069
:10005000B4F88830B4F884209A421DD90133A4F84A
:100060008830194BD3F82C26D3F8341689B202EB1A
:100070004102C3F82C26A36F23B9BDE838401348CA
:10008000FFF770BED5E8EF3F5A1EC5E8E12F002903
:10009000F8D1012BF1DC38BDA36F13B10C4807F088
:1000A000DCFABDE838400B4803F012BFD3F810115A
:1000B0000029F0D0C3F81021D3F8102101229A6052
:1000C0001A605A60E7E700BF00E00040B0A00020DF
:1000D000B8A0002000A10020084B70B5C31A0D463F
:1000E00007499B10044659434022064805F06EFF1D
:1000F0002B4601462046BDE87040184778B50020E1
:10010000B76DDBB674790200402373B50B4C0093D6
:10011000041B0B460D460A49A41061430646094AD2
:10012000094805F080FF011E05DA30462B4602B073
:10013000BDE87040184702B070BD00BF78B5002020
:10014000B76DDBB693600200747902002DE9F843C5
:100150000022012106460520FDF730FF114801F07D
:1001600091FD114B984219D101F09CFD00244FF0F4
:100170001C090C27DFF834803569414609FB04501F
:1001800005F0BFFB002807DB012307FB04551C44D7
:10019000042CAB67F0D10020BDE8F8836FF00400B9
:1001A000FAE700BFE50102000000AD0B6C7D020024
:1001B00001460C2300224B4370B50848C41878331D
:1001C0001844D4E91C56226705F0EDFE2DB13246E5
:1001D0002B46BDE870400248184770BD78B5002036
:1001E00074790200062812D8DFE800F0040F11111C
:1001F000110D0B00064B986F10F0070007D1FFF7A9
:10020000D7BF0220FBE70320F9E70120F7E770479B
:1002100078B5002008B54FF02003EFF3118183F388
:100220001288BFF36F8F114A136843F00200106009
:10023000DA0708D481F31188BFF36F8FBDE8084057
:10024000012001F04BBD0A4BD3F80C24D3F80C3439
:10025000DB07EFD5074805F0A6FE81F31188BFF351
:100260006F8FBDE808400020FFF7A2BF18B600203E
:1002700000500040F0B500201FB500220123CDE959
:1002800002236B46084ACDF800D0CDF804D005F023
:10029000F9FE002805DB4FF480420023684603F096
:1002A0003BFE05B05DF804FBC960020010B54FF0DD
:1002B0002003EFF3118483F31288BFF36F8F074A93
:1002C000136823F00201DB07116002D4012006F05D
:1002D0006EFC84F31188BFF36F8F10BD18B6002039
:1002E000C3B21C20014A03FB0020704778B50020F0
:1002F0002DE9F041012207463549D1E8EF3FC1E839
:10030000E02F0028F9D133B9324933484B60CB6034
:100310008A6005F009FB7B1E012B28D8012F06D12E
:100320002E4BD3F81C3403F00303022B1FD006F02E
:10033000CBFE0546E8B92A4B1B78D3B1022206460C
:10034000264BC3F80823254CDFF89880D4F81824EE
:10035000D4F81834D20316D503F00303022B01D0CE
:10036000012F10D175B386F31188BFF36F8FBDE8ED
:10037000F0814FF02003EFF3118683F31288BFF36F
:100380006F8F0125DFE7C5B13046FDF7A3FED4F836
:100390001835DBB2012BD9D1D4F80421002AD5D0ED
:1003A0000022C4F80421D4F804210222C4F818253C
:1003B0002022C8F88021A360C8E70021212004F092
:1003C00029FAE4E70222054BC3F80423CFE700BF74
:1003D00074B5002064B5002094B5002000500040A2
:1003E0005CB8002000E100E008B5074806F021FEF7
:1003F00038B10648FEF784F80448FCF727F90020D6
:1004000008BD6FF01200FBE7B07902001104020092
:100410000A2838B50446074D04D1AB680D2128469B
:100420005B689847AB6803485B68E1B29847204631
:1004300038BD00BFB0790200F0B5406801F01F047C
:10044000057B87B044EA45140569002D63D0B2F5F9
:10045000001F00F1100506D12146284606F059FC80
:10046000002007B0F0BD0027B2F5800F01AE019764
:10047000776039D1B3F1007F14BF052304238DF8D1
:1004800004300023CDE904630393836823FA01F168
:1004900011F001011AD1B2F1A07F17D104F01F03AE
:1004A000620903F180032AD0012A3AD11E4A52F888
:1004B0002330DB070AD40DF10306324621462846D5
:1004C00002F06EF8194B98421BD00296214628463E
:1004D00003AA01F0C5FE164B98421FD10122214606
:1004E000284602F0E1F8BBE7B3F1C06F05D0B3F1E5
:1004F000007F14BF01230223C1E70323BFE70D4A96
:10050000D5E73146284602F0C3F8094B9842DCD0C3
:100510006FF00B00A5E76FF08500A2E76FF0150004
:100520009FE751F82330FFDE002884400400AD0B24
:100530000000AD0B0025844038B545682B69B3B188
:100540001035284602F08AF8044680B9014628464C
:1005500002F044F8084B98420BD12246284607493E
:1005600002F010F8224605212F20FDF727FD00207C
:1005700038BD6FF00400FBE70000AD0B8105020001
:100580004209034670B502D0012A17D070BD0D4E46
:10059000326951680029F9D0012503F01F030C6866
:1005A0009D400029F2D08A682A4002D030464B682C
:1005B00098472CB1236821461C46F2E7024EE7E734
:1005C0002346F8E79C790200887902002DE9F04380
:1005D00040F206354668D00648BF0320337B02EA66
:1005E000050558BFC2F3401087B001F01F07B5F5ED
:1005F000837F144647EA43178DF8030043D00FD892
:10060000062D18D007D8B5B1022D3ED06FF01500D9
:1006100007B0BDE8F083B5F5807FF7D101250AE08A
:1006200040F20222954232D0B5F5407F31D0B5F587
:10063000007FEBD1022522032DD5012372688B4068
:100640009360326982BB07F01F037F092AD0012F14
:1006500077D13E4A02EB830284F48033D2F8001251
:10066000C3F30043C4F3404444EA430421F47061FB
:1006700044EA800421F00F0144EA05230B43C2F849
:1006800000320020C4E70725D5E70425D3E7052578
:10069000D1E70325CFE7630341BF012372688B4095
:1006A000D360CEE72A4AD5E71036394630460DF1F9
:1006B000020201F075FF14F4403F80460CD1394628
:1006C000304606F024FB234B9845DAD130469DF89E
:1006D000021001F0D1FFD4E74FF0000901AB394619
:1006E000304603AACDE90439CDE90199CDF80C9043
:1006F00001F0B6FD174B984288D114F4003315D0A1
:100700009DF8033084F48034C4F300448DF80E3037
:1007100039464B46304603AA8DF80C508DF80D40F3
:1007200001F094FE0B4B9842CDD06FE7CDE9043336
:1007300039460DF10303304603AA039301F090FDFF
:10074000F0E7803352F82330FFDE00BF00288440FA
:10075000002584400000AD0B082230B50C4685B062
:1007600005460B490DEB020005F06CFB082C28BF79
:100770000824039B22461BBA0093029B69461BBABE
:100780002846019306F0F5FF204605B030BD00BFB6
:100790000402FF0038B544680569E3699847206A98
:1007A00005F004FD00280DDB2B462046074A04F126
:1007B000080102F0CDFC064B984204D1204602F01D
:1007C00023FD002038BD6FF00400FBE71108020094
:1007D0000000AD0B70B5446823682046D3F8085577
:1007E000D3F80C6502F020FD3146284603F018F8D6
:1007F0000546206A05F0DAFC204602F005FD034BB1
:100800009D4214BF6FF00F00002070BD0000AD0BC3
:100810000378012B08D0022B08D04BB9054B0B6293
:1008200001F1100003F054BB034BF8E7034BF6E76C
:10083000034BF4E70000AD0B0100AE0B0200AE0B62
:100840000100AD0B2DE9F04F934614221D46D0F860
:1008500004A08BB00669BAF8183080460C460DEB40
:1008600002000021D6F82490029306F08FFF8DF845
:1008700015504FF0FF324FF0FF33304603F04CFB82
:1008800006F11003019300270022002306F1100057
:1008900003F042FB3D465F4501D3002460E0207A2F
:1008A000020700F1818001375F4521680AD2830782
:1008B00008D4237D80EA030202F0010203F004035E
:1008C0001A4307D025B901F06043B3F1005F17D098
:1008D000002300E001236268DDF808E005EB020C6C
:1008E000F44564D8C00705D409EB0500039306F06E
:1008F00040FF039B62682A4495B2002B3FD1FDB9AB
:100900000025236808936368227A069302F00101A8
:100910008DF81410BAF8241099424BD382F00202D9
:10092000C2F340025046520105A902F09BFC234B42
:10093000984209D00B33984210D16FF00F040FE0AA
:100940002B46CDF82090DFE74FF48042002301983A
:1009500003F0E2FA58B14046FFF73CFF6FF00404A1
:10096000304603F0B5FA20460BB0BDE8F08F336A8D
:10097000124A9342F2D1237ADB0702D400250C34C9
:1009800089E7089B9945F9D1234608E0A91AD86858
:100990008DB219FA81F1039306F0EBFE039B5A68BE
:1009A0000C3B9542F2D2E9E76FF08504D8E76FF08F
:1009B0001B04D5E76FF01B04D5E700BF0000AD0BAB
:1009C000036803F01F025B09026004D0012B034897
:1009D00018BF002070470248704700BF00288440BD
:1009E000002584402DE9F04F15468246DFF88C81C2
:1009F000DFF88C9185B000EB8101514503D10020D7
:100A000005B0BDE8F08FDAF80030C3F34322082ABE
:100A100003F07F0400F2AC807F2C4FEA134308BF41
:100A20004FF0FF3418F80270222B00F2A480DFE8A8
:100A300003F012191F22252B22A2A2A2A23B67A219
:100A4000A2A2A2A2A2A2A2A26A7F8285A2A2A28838
:100A5000909396999C00C5F80C45601C5DD10AF1F5
:100A6000040ACAE7C5F81445621CF8D000265DE008
:100A7000C5F80845F1E7C5F81045F5E7631CC5F86A
:100A80000845ECD0002604E0661CC5F80C45E6D00D
:100A900001264FF0010B03A80394FFF791FF039B7E
:100AA0000BFA03F3C36008E0C5F80845002FDBD15B
:100AB000631CD4D000260627B346DAF8003003A81A
:100AC00003F40052002A1CBF01264FF0000B0193D3
:100AD0000394FFF775FF039A019B00EB8200D0F8A7
:100AE0000022C3F3C1143B0243EA840343EA0B032D
:100AF00002EA0902134343EA4603C0F80032AEE7B4
:100B0000C5F80C45D2E7C5F86045601CDAF800303E
:100B1000A5D0C3F38033002BBAD0012603A80394D9
:100B2000FFF74EFF039B06FA03F38360B346C4E767
:100B3000C5F86445E9E7C5F86845E6E7C5F86C45DA
:100B4000E3E7C5F82445621C89D001264FF0000B6D
:100B5000B3E7C5F8284580E7C5F83045F3E7C5F8A1
:100B60003445F0E7C5F83845EDE7C5F83C4574E78E
:100B70006FF0150044E76FF0850041E754820200F2
:100B8000F0F0FCFF036803F01F025B09026004D071
:100B9000012B034818BF002070470248704700BF70
:100BA000002884400025844000210248C2E9000159
:100BB000002070470024F400F7B544680569A66B6F
:100BC0000021304601AA05F001FB00283EDB019B15
:100BD000326819791868FFF705FF002836DB002115
:100BE00001270E46236801F5AC7253F82230002B22
:100BF0000DDB01A80193FFF7C5FF019A4368D340BD
:100C000013F0010318BF07FA01F33343DEB20131D9
:100C10000429E7D100230121023501FA03F232420F
:100C20000CBF012200220133D203042B25F8022F2E
:100C3000F3D1002320461A4604F1080101F086FE94
:100C4000034B984214BF6FF00F00002003B0F0BDBB
:100C50000000AD0B38B570B14FF400450021064CD3
:100C60000023E0FB0541054A2046FBF7C3FABDE837
:100C7000384003F0CFBD38BD3F420F0040420F0067
:100C80002DE9F74306464FF0000800220121082015
:100C9000FDF794F90820FDF761F9776835693C683C
:100CA0004146C4F800852E60D7F80C9001AA48464A
:100CB00005F08CFA00283FDB019BD9F80020197958
:100CC0001868FFF78FFE002836DB6B7AD6F810C065
:100CD000012B03D0032B2DD14FF01008AB7A032B3F
:100CE00028D195F80BE0BEF1000F02D0BEF1010F44
:100CF00020D12A7A012A22D0022A24D0D2B9104641
:100D00006B687168B3F5164F096800F0BA803AD87D
:100D1000B3F5165F00F0B88020D8B3F5966F00F0F9
:100D2000B58012D8B3F5967F00F0B380B3F5167F87
:100D300000F0B2806FF0850003B0BDE8F0834FF49F
:100D400080700E22DCE70020FBE7B3F5166F00F0A1
:100D5000A680B3F5965FEDD15D4B43E0B3F5E14F6F
:100D600000F0A08008D8B3F5615F00F09D80B3F576
:100D7000964FDFD1574B35E047F612294B45D9D175
:100D80004FF400032EE0B3F5613F00F08F8015D8DB
:100D9000B3F5963F00F08D800AD84DF6C0294B453B
:100DA00000F08980B3F5614FC4D14FF46B0319E0B3
:100DB000B3F5E13FBED14FF0EB7313E0B3F5612F14
:100DC0007CD009D8DFF810914B457AD0B3F5E12FEC
:100DD000B0D14FF0E86305E0DFF800914B45A9D1B1
:100DE0004FF08053C1F82435736840EA0E001B6849
:100DF00042EA08021043C3F86C050CF10403D5E97C
:100E0000010183E803007B68990712D505F11C00F6
:100E100001F026F8324B984256D1287F04F10C029B
:100E200004F5907105F0BAFE01202B7F984000F088
:100E300077FE0823C4F800353B7A53B9C4F8103163
:100E4000D4F81031AB69C4F834350123C4F838350F
:100E500023607B6800209A075CBF4FF48073C4F85E
:100E600004337B68DB0644BF4FF48003C4F80433CB
:100E70006B69C4F844350123C4F84805A360E360F6
:100E80005AE74FF41D03ADE7164BABE74FF49E2333
:100E9000A8E74FF4A033A5E74FF41C33A2E74FF4C3
:100EA0001D239FE7104B9DE7104B9BE74FF06C73A2
:100EB00098E70F4B96E74FF4650393E74FF07063A5
:100EC00090E74FF080638DE76FF0040034E700BFD8
:100ED00000B0130000A04E0090D0030040420F006D
:100EE0000000AD0B0050270000C0750000F03A0074
:100EF00000903A01F8B504460D46076906F0E4F89B
:100F0000B0B9214B1B789BB16426606805F0DFFB0C
:100F100000BB012005F036FE013EF6D10021212064
:100F200003F078FCF0E781F31188BFF36F8FF5E7EA
:100F30004FF02003EFF3118183F31288BFF36F8F1B
:100F400060680E4605F0C3FB90B981F31188BFF3CA
:100F50006F8FEDE74FF02003EFF3118183F31288D9
:100F6000BFF36F8F60680E4605F0B1FB0028DAD042
:100F70007B6901221D702046796905F0E8FA86F345
:100F80001188BFF36F8FF8BD5CB800202DE9FF41D9
:100F900005690746D0F80480A86C2B6D00283AD16B
:100FA0006BB3B8F838406A6C9C4228BF1C46EE6CA4
:100FB000EB6C53B1296D41B106F06041B1F1005FB6
:100FC00003D0082C28BF08246E6E00926A6CAC65B2
:100FD0001AB1AA6C002A18BF2246CDE901261BB11E
:100FE0002B6D002B18BF2346002269464046039311
:100FF00001F0AAFF184B98420AD06FF004033C6935
:10100000236304F1200002F063FF002384F85C30C6
:1010100004B0BDE8F081696CEE6C0A46B8F838405F
:10102000ABB1834228BF03469C4228BF1C4600291F
:10103000BED001F06043B3F1005FB9D0082C28BFE7
:101040000824286E224606F094FB2A6EB0E78442FC
:1010500028BF0446EBE700BF0000AD0B2DE9F04FC1
:101060008FB0019343680F4602938B8880469904A2
:101070009246046900F13F814FF0FF324FF0FF3399
:1010800004F1100002F048FF6760D8F81090D8F81B
:1010900004B099F85D30DBF808C023B1D9F800300E
:1010A0009F4200F09180B7F804E01EF4006F40F01A
:1010B00057811EF0090F40F05081CEF34513082BE5
:1010C00040F04B813B680393039AB34B9A4240F242
:1010D0004481B24B9C4506D9B14AD2F8582512F04A
:1010E000030F18BF9C4604AD0BF10C060FCE0FC5C5
:1010F0000FCE0FC5039B96E80300634528BF6346E8
:101100009C46A84B85E803009C451BD2A34B9C45FD
:1011100018D2A54B9C4515D2A44B9C4500F2F480F7
:10112000A34B9C4500F2F280A24B9C4500F2F0805C
:10113000A14B9C4500F2EE80A049A14BA14A8C45F1
:1011400088BF13461EF0020F09930EF0040300F04F
:10115000E380002B14BF032302238DF82830CEF345
:1011600000138DF82930DBF800301EF0020FD3F8A1
:101170000835CEF340014FEA531203F01F0340F04D
:10118000D180002A00F0CC80012A40F034818E49C1
:10119000012202FA03F3CB6099F85D302BB1584677
:1011A00001F08AFE002389F85D304B465846874A95
:1011B00004A901F04DFE864B984240F0BE80012309
:1011C000C9F8007089F85D30012384F85C30029B17
:1011D000196C4A1C03D003F1440005F03BFCBAF142
:1011E000000F40F0C080C4F834A00023A36304F1D2
:1011F000480204F1380104F1340005F01AFB019BA8
:101200006064002B40F0B880E3630023236404F1A2
:10121000500204F1400104F13C0005F00AFB0023F8
:10122000E0642068236348B183683BB10121083042
:1012300005F012FB2368186905F0F6FE4046FFF73B
:10124000A5FE00221346A06B834240F09E8000233F
:101250001946256CA94240F0C780934238BF134617
:1012600026464FF4FA52002702FB03F556F8203BBE
:101270004FF4004C1B683946B5FBF3F540F2E730FC
:10128000C8354FF47A720023E5FB0C01FAF7B2FF80
:1012900002460B46304602F03FFE18B9256B15F1A9
:1012A000740F15D10298A76501F006FE84F85D70F1
:1012B000D8F810506FF07308C5F8308005F12000A1
:1012C00002F006FE85F85C70304602F04DFE4546A1
:1012D0002368002B33D09A68002A30D0998811F403
:1012E00080562CD1186905F09FFE206831460830E1
:1012F00005F0B2FA23E0A369002B7FF4BDAE63686A
:101300009F427FF4B9AEC0E6324B1BE7324B19E780
:10131000324B17E7324B15E7003B18BF01231CE7A0
:10132000304935E73AB1012A67D12749012202FA4B
:1013300003F38B6030E72B49F8E76FF0040523686F
:101340009B8813F4005304D1636004F1100002F091
:10135000BFFD28460FB0BDE8F08F6FF01505EEE732
:101360006FF08505EBE7DAF800306363002B3FF49C
:101370003CAFDAF8043039E7019B1B68E363002BCC
:101380003FF443AF019B5B6840E7616B01EBC30136
:10139000496801330A4457E747E801000024F40094
:1013A000005000400048E80100127A00FF083D00AC
:1013B0007F841E003F420F001FA107008FD0030053
:1013C00048E8010090D00300002884409B69020097
:1013D0000000AD0B00093D0080841E0040420F005C
:1013E00020A1070000258440E06B00EBC1004068AD
:1013F000013103442EE7C960FFDE00239B60FBE759
:1014000000F01F0240090DD001280DD1094B03EB5C
:101410008203D3F80002084A024042EA8102C3F87C
:1014200000227047054BF2E70023803253F8223048
:10143000FFDE00BF00288440F0F0FCFF0025844060
:101440000123F0B587B08DF80230022300248DF817
:1014500004306B4403930F4601AB0DF10301049379
:1014600005460291059401F013F90C4B064698428B
:101470000FD13946284603AA00F0F2FEB0420BD045
:1014800028469DF8031001F0F7F86FF0040007B04C
:10149000F0BD6FF01200FAE72046F8E70000AD0B50
:1014A0000123834070B5DC430B4AD2E8EF1F01EA09
:1014B0000405C2E8E65F002EF7D14FF48032824087
:1014C0000648C0F80823BFF35F8FBFF36F8F0B424E
:1014D00014BF0120002070BD88B6002000500140DC
:1014E00070B40E4922F07F46D1E90034D01AC318F7
:1014F00044F10004C1E90034A6F50013B3F5400F30
:1015000009D2074B1B681A0A1B069C19054B42F1AE
:101510000005C3E9004570BC03F09EBAF8A60020A0
:101520008CB6002000A70020D9B101230D4A8340CA
:10153000D2E8EFCF4CEA030CC2E8E1CF0029F7D1A3
:101540004FF48033084A8340C2F80433074BD3E892
:10155000AF3FC340DB0742BF4FF40012044BC3F858
:101560000021704788B600200050014084B600205A
:1015700000E100E00D4B1868010A0006BFF35F8F21
:101580000B4BD3F80435181841F10001B3F5801F57
:101590000AD2084BD3E90023904271EB030303D234
:1015A00010F1807041F10001704700BF8CB600203F
:1015B0000050014000A700202DE9F04F85B01646ED
:1015C0001F4604469DF840A0FFF76AFF0190FFF711
:1015D000D1FFB04271EB070352D23B4B301A67EB9D
:1015E0000101984271F100014DD2384B03EB041315
:1015F000D3E902239F4208BF964258D04FF4803867
:10160000334908FA04F8204626F07F4BC1F8488396
:1016100005F048FA4FF00309584604F15005AD00B3
:10162000ADB205F1804504F5A87305F5A835029320
:10163000029A20F07F4341F82230C1F84483D1F868
:101640000435244AC01A033820F07F4090422ED936
:10165000286868B1D1F80435A3EB0B0020F07F4077
:10166000B0F5000F039322D9204605F01BFA039B27
:10167000BAF1000F07D109EB030009F10109D7E71F
:10168000BAF1000F09D06FF0150520460199FFF758
:101690004BFF284605B0BDE8F08F01230E4AA3405A
:1016A000D2E8EF0F1843C2E8E10F0029F8D107494B
:1016B0000E982301C8500F9B01EB04120025C2E9CC
:1016C00002675360E1E700BF01008000E8A6002048
:1016D00000500140FDFF7F0084B600207FB500254B
:1016E0004FF0FF304FF0FF31194C1A4B0226C4F86F
:1016F0000833C4F84833184BC4F80855C3E902014D
:101700004FF480334FF40012C4F80433134B01211B
:10171000C4F804631520C3F880212A46FCF74EFC68
:101720001520FCF71BFC01230D4AA3602360136006
:101730000C4B0D4A009328460023CDE90155FFF7D5
:101740003BFF3046FEF7D4FD284604B070BD00BF15
:101750000050014003000F00E8A6002000E100E077
:1017600088B60020E1140200FFFF7F002DE9F74357
:101770002E4BD3F8042390070BD5D3F8042142B1A4
:101780000022C3F804212A4AD3F804311368013334
:101790001360264AD2F80433D90327D5254BD3E862
:1017A000EF1F21F00100C3E8E40F002CF7D1CB07B5
:1017B00002D4D2F84031CBB100251C4CC4F84051C2
:1017C000D4F84031FFF7D6FE4FF02003EFF311823B
:1017D00083F31288BFF36F8F174BD3E90267B042D0
:1017E000B94106D282F31188BFF36F8F03B0BDE811
:1017F000F0834FF0FF38D3E900104FF0FF391D6040
:10180000C3E902894FF48033C4F84833C4F8405127
:10181000D4F8403182F31188BFF36F8F0029E5D0EF
:10182000009032463B4628468847DFE7005001409B
:101830008CB6002084B60020E8A6002030B5431CFA
:10184000124C85B005D08442A8BF0446012CB8BF15
:101850000124FFF78FFE0E4B0C4DD3E90013401A05
:10186000B0F5000F0FD22218AA4228BF2A46002046
:1018700052180849CDE90100009143F10003FFF738
:101880009BFE05B030BD2A46F1E700BFFFFF7F0099
:10189000F8A60020E114020008B5FFF76BFE024B2A
:1018A0001B68C01A08BD00BFF8A600200149024805
:1018B00005F00CB97919020090B600202C4A00F00E
:1018C0000800136F072B2BD0132B1CD0052B3AD1FC
:1018D000526D12F4805F14BF1723162312F4006FA9
:1018E00018BF182312F4007F1EBF224B9B6B1923D5
:1018F00012F4806F18BF1A2312F4807F25D112F4DE
:10190000005F18BF1C23CA6968BBC2F3080020B976
:101910006FEA52226FEA4222CA61184604F02ABADC
:10192000D36DDA0713D49A0713D45A0713D41A07BE
:1019300013D4DA0613D49A0613D413F0800F14BF0D
:101940002C232523DFE70023DDE71B23DBE726230A
:10195000D9E72723D7E72823D5E72923D3E72A2365
:10196000D1E72B23CFE722F4FF7222F00102D3E765
:1019700090B6002000ED00E000B5104B89B05A6A27
:10198000D86C00929A6A20F005000192DA6A6946E2
:1019900002921A6B03925A6B04929A6B0592DA6B5D
:1019A00006921A6C1B6D07929B0748BF40F004001B
:1019B000FFF784FF09B05DF804FB00BF90B600207C
:1019C0002DE9F0411F46164B044693F800800D4662
:1019D0001646A2B0B8F1000F15D1684604F0D7F949
:1019E0003A4631462846289BA0470446684604F0FC
:1019F000CFF9B8F1000F02D00A4802F07FF9204673
:101A000022B0BDE8F0814FF0FF324FF0FF330548C0
:101A100002F0B0F90028E0D06FF08304EFE700BFD8
:101A20005CB800207CA40020002300B589B0CDE97B
:101A3000063303AB0493042303900593A9B10B6809
:101A400006934B6807930223111E18BF0121084813
:101A5000CDE9002140F2F53104AA00F00BF800288E
:101A6000B8BF012009B05DF804FB0123ECE700BF1B
:101A70000501004010B4B1F5004F029C0ED2042BBA
:101A80000CD8042C0AD8240444EA0364134644EA1C
:101A90000102014610BC0348FFF792BF6FF08000BF
:101AA00010BC7047217C010030B50468ACB1B4FAB9
:101AB00084F30122C3F11F03DBB29A4024EA02023D
:101AC000D0E8EF5FA54204D1C0E8EC2FBCF1000FD5
