:020000040100F9
:10000000980D0021B5120001773D0001A1120001F9
:10001000A1120001A1120001A112000100000000C4
:100020000000000000000000000000007D1300013F
:10003000A112000100000000A1120001A1120001A4
:10004000ED140001ED140001ED140001ED140001A8
:10005000ED140001ED140001ED140001ED14000198
:10006000ED140001ED140001ED140001ED14000188
:10007000ED140001ED140001ED140001ED14000178
:10008000ED140001ED140001ED140001ED14000168
:10009000ED140001ED140001ED140001ED14000158
:1000A000ED140001ED140001ED140001ED14000148
:1000B000ED140001ED14000100000000000000003C
:1000C0000000000000000000000000000000000030
:1000D0000000000000000000000000000000000020
:1000E0000000000000000000000000000000000010
:1000F0000000000000000000000000000000000000
:1001000000000000000000000000000000000000EF
:1001100000000000000000000000000000000000DF
:1001200000000000000000000000000000000000CF
:1001300000000000000000000000000000000000BF
:1001400000000000000000000000000000000000AF
:10015000000000000000000000000000000000009F
:10016000000000000000000000000000000000008F
:10017000000000000000000000000000000000007F
:10018000000000000000000000000000000000006F
:10019000000000000000000000000000000000005F
:1001A000000000000000000000000000000000004F
:1001B000000000000000000000000000000000003F
:1001C000000000000000000000000000000000002F
:1001D000000000000000000000000000000000001F
:1001E000000000000000000000000000000000000F
:1001F00000000000000000000000000000000000FF
:10020000DEE61E284CBBCE8F023500003C0000000D
:10021000F454000001000000000000010000000193
:10022000FFFF02910000000000000000000000003D
:1002300000000000000000000000000030B44FF09B
:10024000000310F8014B11F8015B013A84EA050440
:1002500043EA0403F5D1A3F101034FEAD37030BCA4
:10026000704700BF4FF0000310F8012B013943EA3B
:100270000203F9D1A3F101034FEAD370704700BF25
:1002800030B411F8014B12F8015B6C4000F8014BDF
:10029000013BF6D130BC70472DE9F04F90E8F00FEC
:1002A00000F140004FF0040E59E0F0B4826BC36BD4
:1002B00004680525242687593C444FEA724787EA9B
:1002C000F24787EA92273C4442684FEAF21787EAEE
:1002D000B24787EAD2073C4440F8044B032D08BFDD
:1002E0006FF01B0687593A444FEA734787EAF34792
:1002F00087EA93273A4443684FEAF31787EAB347FC
:1003000087EAD3073A4440F8042B87593B444FEA25
:10031000744787EAF44787EA94273B4444684FEAE6
:10032000F41787EAB44787EAD4073B4440F8043B14
:10033000013DC0D1A0F13C00076A3C444FEA72473E
:1003400087EAF24787EA92273C4402684FEAF217AD
:1003500087EAB24787EAD2073C44C463F0BC4FF057
:10036000020288EA781C8CEAF84C0BEBBC1C8AEA87
:10037000090303EA080383EA0A039C4450F8043B98
:100380009C4451F8043B9C44674444EA050B0BEA47
:10039000060B04EA05034BEA030BE34484EAF42367
:1003A00083EA34530BEBB30B87EA771C8CEAF74CE8
:1003B0000AEBBC1C89EA080303EA070383EA090382
:1003C0009C4450F8043B9C4451F8043B9C446644D4
:1003D0004BEA040A0AEA050A0BEA04034AEA030A9A
:1003E000E2448BEAFB2383EA3B530AEBB30A86EA37
:1003F000761C8CEAF64C09EBBC1C88EA070303EA7E
:10040000060383EA08039C4450F8043B9C4451F8DB
:10041000043B9C4465444AEA0B0909EA04090AEAD8
:100420000B0349EA0309E1448AEAFA2383EA3A53CF
:1004300009EBB30985EA751C8CEAF54C08EBBC1C8A
:1004400087EA060303EA050383EA07039C4450F89E
:10045000043B9C4451F8043B9C44644449EA0A0828
:1004600008EA0B0809EA0A0348EA0308E04489EAB3
:10047000F92383EA395308EBB30884EA741C8CEA45
:10048000F44C07EBBC1C86EA050303EA040383EA89
:1004900006039C4450F8043B9C4451F8043B9C44A4
:1004A000E34448EA090707EA0A0708EA090347EAB2
:1004B0000307674488EAF82383EA385307EBB30756
:1004C0008BEA7B1C8CEAFB4C06EBBC1C85EA040324
:1004D00003EA0B0383EA05039C4450F8043B9C4465
:1004E00051F8043B9C44E24447EA080606EA090640
:1004F00007EA080346EA0306664487EAF72383EA25
:10050000375306EBB3068AEA7A1C8CEAFA4C05EB01
:10051000BC1C84EA0B0303EA0A0383EA04039C4439
:1005200050F8043B9C4451F8043B9C44E14446EAA7
:10053000070505EA080506EA070345EA03056544D9
:1005400086EAF62383EA365305EBB30589EA791C7C
:100550008CEAF94C04EBBC1C8BEA0A0303EA09039E
:1005600083EA0B039C4450F8043B9C4451F8043B41
:100570009C44E04445EA060404EA070405EA06034D
:1005800044EA0304644485EAF52383EA355304EB23
:10059000B304013A7FF4E5AEA0F14000BEF1010ED4
:1005A0007FF483AEA0F1400C9CE80F0000194919BC
:1005B0009219DB19ACE80F009CE80F004044494455
:1005C00052445B44ACE80F00BDE8F08F2DE9F043E6
:1005D00085B0304803F08DFD30B92F4803F04BFA59
:1005E000002005B0BDE8F0834FF408414FF0807063
:1005F00003F0D3FC28B1294803F03DFA01F08EFF47
:10060000EEE701F085FF054601F090FFE8B903F041
:100610003CFD04460146284603F0FBFC10B9214688
:100620001F4805E01B4801F09DFF014618B11D4819
:1006300003F021FAE2E72946284603F0EAFC10B16C
:1006400001F0CCFFFEE72946EAE74FF45E31164899
:1006500003F0A3FC014608B11448E9E70446DFF8BB
:100660005090DFF8508001AF59F8046B98E807000C
:100670002E4487E807000C223946304603F063FD1C
:1006800000B91EB90134052CEED10026304601F028
:100690007FFDA5E778420001CC450001E44500015B
:1006A000124600013C460001008800015B46000143
:1006B00008440001C0430001014B1B68184700BFFC
:1006C0000000002130B585B004460D4610220021FF
:1006D000684603F030FD02238DF80230044B2A46B1
:1006E00021466846019302F069FF05B030BD00BFA6
:1006F000B9060001B2F5802F2DE9F0410CD2042A91
:1007000020D83D494FF4F9723C4803F0CBFA4FF43E
:10071000F971394803F0BFFA0823D21ACC1D1144ED
:1007200024F0070421F00701091B17294FEAD1061D
:100730000AD8314940F2FB12304803F0B3FA40F2D4
:10074000FB11E6E70423E8E7002704603146304662
:10075000A660E76003F0DDF90121421D80463046C6
:1007600003F0CEF99200D51DED082844B0423AD8E6
:10077000B8F1FF3F3946A2F1100204F11000B8BFF2
:100780003A4603F0D8FC2A463946204603F0B4F92D
:100790003B463A463946204603F085F9A6EB050864
:1007A00020463946012203F08FF94246294603F0DC
:1007B000A3F92B463A462946204603F074F9314600
:1007C000204603F099F943463A463146204603F065
:1007D0006AF931462046012203F076F92946BDE840
:1007E000F04103F0A2B904494FF40372034803F047
:1007F00059FA4FF403718CE78E460001AF460001B1
:100800002DE9F0471646028B0446100712D4022940
:1008100002F007025BD1204603F0C9F988B1013824
:10082000042800F21081DFE810F052000E0174007D
:10083000B300E00001290CBF42F0100242F0200298
:10084000228386F31188BFF36F8FBDE8F08703F032
:100850000701481F01281ED8002006292768C4E97F
:10086000000014D1394603E0608B013060830968D1
:100870000029F9D123F0070343F002012046218328
:1008800003F095F990B341F0200121832EE023F08D
:10089000070399B2F2E7042930D123F0070399B294
:1008A0002046218303F083F910B141F02001218318
:1008B000238B03F00709914540F0CE80228BD106AF
:1008C00040F1F68022F01003238302F00702D4F8EF
:1008D0001480238BB8F1000FB9DA0021276823F0C8
:1008E0000703C4E9001143F001032383238B03F0C2
:1008F0000709914500F0E580002536E07C4940F28B
:100900001B127C4803F0CEF940F21B11784803F02B
:10091000C2F942B176494FF4AB72764803F0C2F99E
:100920004FF4AB71F2E7236843B9714940F25712B3
:10093000704803F0B7F940F25711E7E723691D68E3
:1009400045B96B494FF4AD726A4803F0ABF94FF407
:10095000AD71DBE7174690464FF00609238B23F075
:10096000070343F006039BB22383A268002A76D1D3
:10097000002F40F0AA80002DA0D043F0080323836D
:1009800086F31188BFF36F8F20465B49A84782E04A
:10099000022A08D0564940F25D12564803F082F907
:1009A00040F25D11B2E7678B47B151494FF4AF7226
:1009B000504803F077F94FF4AF71A7E723695D68FA
:1009C00045B94B4940F261124A4803F06BF940F2D5
:1009D00061119BE7238BB84623F0070343F0040320
:1009E0009BB24FF004092383BFE7012A08D0404996
:1009F0004FF4B2723F4803F055F94FF4B27185E7F6
:100A0000236843B93A4940F265123A4803F04AF97B
:100A100040F265117AE723699D6845B934494FF47E
:100A2000B472344803F03EF94FF4B4716EE7002716
:100A3000238BB84623F0070343F005039BB24FF026
:100A40000509238391E72A4940F26B12294803F0F4
:100A500029F940F26B1159E700273D4685E743F03D
:100A60000803238386F31188BFF36F8FA1680029E1
:100A700032D00E6881B343464A462046D1F804A0DE
:100A8000D0471EB1336831461E46F3E73346FAE7D6
:100A9000002D7FF479AF4FF02003EFF3118683F33D
:100AA0001288BFF36F8F238B23F00803238305E79E
:100AB00093067FF5C6AE22F02003238302F00702DF
:100AC000A9E6002F3FF4FAAE002543F00803238384
:100AD00086F31188BFF36F8F002FD9D03E68394657
:100AE00043464A46204603F08EF83746F4E700BFF7
:100AF000C7460001AF460001333C000170B5054612
:100B00000E4603F070F8041E15DB4FF02003EFF3E0
:100B1000118283F31288BFF36F8F4FF6FF716B8BD7
:100B20002C8B8B4204F0070407D182F31188BFF3AA
:100B30006F8F6FF00A04204670BD022C0CD1013378
:100B40006B8382F31188BFF36F8F002322463146F7
:100B5000284603F058F8EEE7062C11D8DFE804F039
:100B6000041E101004250400002333606B6893B941
:100B7000C5E9006604BB02212846FFF741FEDAE71B
:100B8000104911484FF4E47203F08CF84FF4E4710B
:100B90000C4803F080F81E606E60EBE782F311886A
:100BA000BFF36F8F6FF00404C5E782F31188BFF3C2
:100BB0006F8F6FF08504BEE782F31188BFF36F8FEC
:100BC000B9E700BFC7460001AF46000108B542685B
:100BD000034602F00302032A816002D02AB10020FA
:100BE00000E0006800225A6008BD0449044845221C
:100BF00003F058F84521014803F04DF8E94600019B
:100C0000AF46000110B543680A680C469A4207D9FE
:100C10000548452103F054F800231846636010BDD1
:100C20004A6801201344F9E70C4700017FB50546E7
:100C3000C06801AA03F07AF9044638B1024645219A
:100C40000D4803F03DF8204604B070BD01992B6AB1
:100C50008B42F8D0E868029A83689B6898470646FA
:100C600030B102464521054803F02AF83446EAE748
:100C7000019B2B62E7E700BF3147000157470001A6
:100C8000F8B58168054600293CD0D0E90436013921
:100C90001E443144FFF7CAFF041E07DA33462246DA
:100CA00045212A4803F00CF82046F8BDE86803F017
:100CB00014F8AC68B4FBF0F300FB13445CB1041B04
:100CC000E8688368DB6898472F68AB68017922463B
:100CD000F81803F030FAAB68E8682A6823448168A2
:100CE0004C683146A047044620B1024633464521B0
:100CF0001748D7E7EB695BB92B69AA6813442B61E6
:100D00000023AB600024CFE7135DDB4313550134B0
:100D1000AB682A689C42F7D3E86881680C68314662
:100D2000A047044628B1452102460A4802F0C8FF00
:100D3000BAE73246EB69A968286898470446002854
:100D4000DAD0024645210448F0E700BF78470001A9
:100D5000AB470001D4470001EF4700012DE9F743FD
:100D60000D46DDE90A8691461F46044680B179B1F9
:100D700072B1009300230846019302F0AEFFB7FB67
:100D8000F0F303FB107040B14521194802F098FFC1
:100D90006FF00D0003B0BDE8F0836A4628461549A0
:100DA00003F0C8F8019B002BF2D008EB0602934237
:100DB00002D245211048E9E7284602F08EFFB8FB31
:100DC000F0F303FB10800028F3D1C4E90097E5603D
:100DD0002061A060C4F8148016B9019EA6EB080635
:100DE0000C9B0020E3614FF0FF33A6612362D1E743
:100DF00008480001050C00014448000137B50546CC
:100E00000C46C9B18B6810480093D1E900234521F5
:100E100002F056FF636945210093D4E903230B4890
:100E200002F04EFF4521E269094802F049FF4521E1
:100E3000A269084802F044FF2146284603B0BDE8F5
:100E4000304001F051BF00BF6A4800019E480001D8
:100E5000D2480001E648000130BFFFF7FDBF00BFE8
:100E6000704700BF10B5244C4521244802F028FFEC
:100E7000A36A99013ED52248452102F021FF1E2098
:100E8000A36ADA0104D51F48452102F019FF1F208B
:100E9000194CA36ADB0204D51B48452102F010FF60
:100EA0000220A36A1C0304D51848452102F008FF5C
:100EB0002120114CA36A590304D51548452102F09D
:100EC000FFFE2220A36A9A0304D51248452102F0AE
:100ED000F7FE2320084CA36ADB0304D50E48452106
:100EE00002F0EEFE2420A36A6FEA03436FEA134385
:100EF000A36210BD1D20C3E700ED00E01949000109
:100F0000364900014E4900016D4900019C4900012C
:100F1000BF490001E9490001084A000170B5244CAD
:100F200006460D462348452102F0CAFEA36AD904AD
:100F30003BD52148452102F0C3FE1720A36A1A05BC
:100F400004D51E48452102F0BBFE1820184CA36AA8
:100F50009B0511D545211A4802F0B2FEA26BA36A87
:100F6000190408D54521174802F0AAFE1EB1A36A4C
:100F700023F40043A36219200D4CA36A5A0504D53B
:100F80001148452102F09CFE1A20A36ADB0504D516
:100F90000E48452102F094FE1B20054A936A43F453
:100FA0007F43936200232B7070BD1620C6E700BFFD
:100FB00000ED00E0384A0001534A0001694A00018F
:100FC000814A00019F4A0001B94A0001D94A000143
:100FD00070B52A4C06460D462948452102F070FEA0
:100FE000A36AD80640D52748452102F069FE1120A2
:100FF000A36A190704D52448452102F061FE122096
:101000001E4CA36A9A0711D54521204802F058FECC
:10101000626BA36A1B0608D545211D4802F050FEED
:101020001EB1A36A23F08003A3621320134CA36AAA
:10103000DE0704D51748452102F042FE1420A36ABA
:10104000D90602D4A36A9A0710D50C4B9B6ADB061B
:101050000CD51149114840F2631202F023FE40F210
:1010600063110D4802F017FE1020C1E7034A936A8E
:1010700043F0FF03936200232B7070BD00ED00E08E
:10108000F64A0001114B0001694A0001494B000179
:10109000664B0001814B0001A54B0001AF460001EA
:1010A000F0B56C4B0446586800258BB0C0F30803BC
:1010B00085F31188BFF36F8F02F07F46B6F17F4F43
:1010C00007D102F00C06082E0ED14521624802F02D
:1010D000F7FD62494FF48B62614802F0E3FD4FF483
:1010E0008B615E4802F0D7FD16074CBF0C46012508
:1010F000002CEED00026DA1E8DF80760092A00F2D7
:101100009880DFE802F0058B8F76969696969693F8
:101110004521544802F0D4FD8DF807604D4EF36A26
:101120009A0705D54521504802F0CAFD002329E061
:10113000F36A002B02DA45214C48F5E7F36A5B00BD
:1011400063D545214A4802F0BBFD7369A26943F4A7
:1011500080737361BFF34F8FBFF36F8F736932F882
:10116000022C23F480737361BFF34F8FBFF36F8F33
:101170004DF602739A4224D1452122683D4802F07F
:101180009FFD23689DF80720CAB902AE04F120072D
:10119000324620686168083403C2BC421646F7D163
:1011A000099A002D51D0C2F3080121B96FEA5222E9
:1011B0006FEA42220992184602A9FFF71FFE0BB000
:1011C000F0BDB36ADBB233B101200DF10701FFF7C7
:1011D000FFFE0346D6E7B36A13F47F4F05D0012024
:1011E0000DF10701FFF79AFEF3E7B36AB3F5803F0D
:1011F00002D3FFF737FEECE7184940F22A321848CD
:1012000002F050FD40F22A316BE7144940F22E32D1
:10121000134802F047FD40F22E3162E700200DF145
:101220000701D4E700200DF10701DBE74521124853
:101230007AE7124910F4F87F114A124808BF0A46AB
:10124000103B452102F03CFD70E722F4FF7222F0D2
:101250000102AFE700ED00E0054C0001A54B0001E5
:10126000AF460001354C0001514C0001774C0001A4
:101270008A4C0001AE4C0001CF4C0001D74B00015D
:10128000EC4B0001F84C0001044B5A6942F010028B
:101290005A615A6942F480625A61704700ED00E079
:1012A000EFF30880EFF3098101B57246FFF7F8FE0E
:1012B00001BD00BF002080F31488BFF36F8F0020B2
:1012C00080F30A8880F30B8800F078FA00200E493A
:1012D0000860BFF34F8F0D4880F3088800F02CF8AA
:1012E000202080F311880A484FF40061401880F3F1
:1012F0000988EFF314800221084380F31488BFF3B8
:101300006F8F00F08DF8000094ED00E0980D002143
:1013100098010021BFF34F8F0549064BCA6802F4BC
:10132000E0621343CB60BFF34F8F00BFFDE700BF08
:1013300000ED00E00400FA0572B6002383F3138881
:101340004FF0FF300C4A03F120010133102B42F81B
:101350002100F8D100234FF0FF30074A03F160016C
:101360000133102B42F82100F8D162B6BFF34F8F42
:10137000BFF36F8F704700BF00E100E01EF0040F65
:101380000CBFEFF30880EFF30980816911F8021CAC
:101390000229FFD001B502F0EAFC01BD40B20028ED
:1013A00007DB01234109034A00F01F00834042F894
:1013B0002130704700E100E0054B420953F822203C
:1013C000012300F01F0003FA00F01040704700BF37
:1013D00000E100E00131072908B508D90D490E48A0
:1013E000582202F05FFC58210A4802F054FC40B237
:1013F0000028ACBF00F16040084B4FEA4111C9B270
:10140000ABBF00F5614000F00F0080F800131954E5
:1014100008BD00BF104D0001AF46000114ED00E013
:1014200008B5084B084A23F07F039360BFF34F8F42
:10143000BFF36F8F01F0E4FC01F026FD00F04AF8E5
:1014400001F0EAFC0000000100ED00E0044608465F
:1014500011461A46002383F30B880A4B2025A3F577
:10146000806686F30B8883F3098863B64FF0000328
:1014700083F31188BFF36F8FA04785F31188BFF303
:101480006F8FFEE7980D0021014910220A60704716
:1014900010ED00E001B500F0BBF8BDE8014072B608
:1014A000494081F3118801B500F030F900280AD0D5
:1014B000BFF34F8F20BF00BF00BF00BF00BF00BF02
:1014C00000BF00BF00BFBDE8014080F3118862B6D5
:1014D000704700BF002320210348C21801331E2B90
:1014E00082F80013F9D1704700E100E001B5EFF395
:1014F0000580A0F110004FEAC0000449014409C969
:101500009847BDE801400249084700008C420001AD
:10151000610E000108B50649064821F00701C1F136
:10152000045202F58032FFF7E5F8002008BD00BF45
:101530009F0D0021C0000021064AD2F8AC3123F0F3
:101540000043C2F8AC310022034BC3F84C21D3F85E
:101550004C31704700200141006001410122024BE3
:101560000020C3F840257047000008415023142292
:1015700013B51F4C0DF10700C4F80C351D4BC3F813
:1015800020214FF400621C4BC3F8BC254FF480624D
:10159000C3F8382502F08BFD184B984225D1184925
:1015A0009DF8070001F06EF916499DF8070001F05B
:1015B0007DF915499DF8070001F064F921469DF871
:1015C000070001F073F901209DF80730984001F001
:1015D00053F94FF4002200200C4BC3F84423C3F806
:1015E0004C01D3F84C3102B010BD6FF00B00FAE79C
:1015F00000B0004100302041002001410000AD0B4F
:101600004C610141282001412C2101410060014130
:1016100073B5354BD3E84F3F00233449CDE9003350
:10162000334BD3F80445BFF35F8FD1F80465BFF3A4
:101630005F8FD3F804259442F3D16B4622460121F3
:101640002B4802F0A3FB324605460F21274801AB89
:1016500002F09CFBE0B1019B0DB9009302E0009AFF
:101660009342FAD3009B22481C44013CD0F84C35ED
:1016700024F07F449C421F4932D0FFF75DFFC0F841
:101680004C451D4B009A9A4218D901230B7001E07A
:10169000002DE7D1194AD2F8AC3143F00043C2F82B
:1016A000AC31134BD3F84C2132B90121144A5160AB
:1016B000D3F84C3103B1116001230DE0BFF35F8F0C
:1016C000D0F80435E41A24F07F440E4B033C9C42CE
:1016D000DBD900230B7000230B4A137002B070BDDE
:1016E0000B78002BF7D0D5E79001002100100141C5
:1016F000006001418E010021FEFF7F0000200141BA
:1017000000B00041FBFF7F008F010021F8B51E49AA
:101710000023C1E8423F52BB1C4B1D783DB305235B
:101720001B4E1C4F34780134B4FBF3F303EB8303FB
:10173000E41A02F02EFC184A137823B157F824302B
:10174000C01A072813D9154BD3F8141141B1002141
:10175000C3F81411D3F8143134700CB90123137089
:10176000347802F016FC47F824002846F8BD0C4AED
:101770000025D2F8AC3123F00043C2F8AC3101228D
:10178000084B5A60F1E700BF900100218F01002152
:101790008D010021CC0000218C010021005000416E
:1017A0000020014100B0004120B1034B800143F013
:1017B00001031847704700BF0044000100F0D4BF88
:1017C000402373B50B4C0093041B0B460D460A498E
:1017D000A41061430646094A094802F01BFB011E9A
:1017E00005DA30462B4602B0BDE87040184702B01B
:1017F00070BD00BFF4000021B76DDBB6853E00016F
:1018000064420001C9B2012908B508D9084909484C
:101810007A2202F047FA7A21054802F03CFA0C22BB
:10182000036901FB0233186C00F0070008BD00BF1C
:101830004B4D0001AF46000170B5C9B201290369E3
:101840000AD91849184840F25D1202F02BFA40F20A
:101850005D11144802F01FFA4FF02004EFF31185D8
:1018600084F31288BFF36F8F0C2606FB0134246CBF
:1018700014F0C00408D0A24206D085F31188BFF34B
:101880006F8F4FF0FF3070BD012271430B441A641B
:1018900085F31188BFF36F8F43680B445B689847EB
:1018A0000020F0E74B4D0001AF460001084B70B53A
:1018B000C31A0D4607499B10044659434022064867
:1018C000FFF7BAFF2B4601462046BDE87040184797
:1018D000F4000021B76DDBB66442000170B5002250
:1018E000012104460520FFF775FD0F4801F060F85F
:1018F0000E4B984215D101F06BF826690C49304621
:1019000002F0A5F900280BDB01253564246908499C
:1019100004F11C0002F09BF9002801DB0020E564C3
:1019200070BD6FF00400FBE7691900010000AD0B0A
:101930001C44000101460C2300224B4370B50848AB
:10194000C41840331844D4E90E56A26302F04FFA8B
:101950002DB132462B46BDE870400248184770BD95
:10196000F400002164420001012808B506D00428D3
:1019700008D090B90E4B1B6C5B0717D1BDE808402F
:10198000FFF7D8BF0B4940F26E220B4802F08AF9EC
:1019900040F26E21074802F07EF9064940F27222B9
:1019A000054802F07FF940F27221F3E708BD00BF5D
:1019B000F40000214B4D0001AF46000108B54FF087
:1019C0002003EFF3118183F31288BFF36F8F114A65
:1019D000136843F002001060DA0708D481F311881D
:1019E000BFF36F8FBDE80840012001F019B80A4B22
:1019F000D3F80C24D3F80C34DB07EFD5074802F0FA
:101A0000F6F981F31188BFF36F8FBDE8084000201D
:101A1000FFF790BF44010021005000413401002134
:101A200010B54FF02003EFF3118483F31288BFF356
:101A30006F8F074A136823F00201DB07116002D49D
:101A4000012001F061F884F31188BFF36F8F10BD9E
:101A5000440100212DE9F843012206463E49D1E820
:101A6000EF3FC1E8E02F0028F9D19BB93B493C4842
:101A70004B60CB608A60FFF741F800280ADA3949E9
:101A80004FF40C72384802F00DF94FF40C713548E0
:101A900002F001F96EB3731E012B53D8012E06D14B
:101AA000324BD3F81C3403F00303022B21D002F095
:101AB0002FFB0546F8B92E4B1B78E3B102220746EF
:101AC0002A4BC3F808234FF00008284CDFF8A490F5
:101AD000D4F81824D4F81834D20316D503F003032D
:101AE000022B01D0012E10D13DB387F31188BFF333
:101AF0006F8FBDE8F8834FF02003EFF3118783F376
:101B00001288BFF36F8F0125DDE73846FFF7C2FC6F
:101B1000D4F81835DBB2012BDAD1D4F80421002A2D
:101B2000D6D0C4F80481D4F804210222C4F81825C0
:101B30002022C9F88021A360CAE702220B4BC3F818
:101B40000423D6E7074940F24222074802F0AAF8E8
:101B500040F242219BE700BFF0000021E00000219D
:101B6000100100214B4D0001AF4600010050004123
:101B70009101002100E100E0024B0B6001231360A2
:101B8000704700BF480100210048704770440001C1
:101B900010B502F0A8FA034C206002F0A1FA6060D0
:101BA000002010BD4801002170B50C46154602F01A
:101BB00097FA29460646204602F076F910B3B4FBA0
:101BC000F6F306FB134323B9B5FBF6F306FB1353F9
:101BD00043B12B46224645210D4802F071F86FF0C3
:101BE000150002E0AE4201D9002070BD02F078FA83
:101BF000064604F18074204600F0E4FFAD1B344437
:101C0000F9D1F1E72B46224645210248E5E700BF1E
:101C1000B14D0001D54D0001F8B50C4619462046DE
:101C200016461D4602F040F950B104F180772C436E
:101C300014F003040DD02B463A4645210E4803E02C
:101C40002B46224645210D4802F03AF86FF0150068
:101C5000F8BD4DB12B19032BA7EB040006D8084A99
:101C6000D2F80034DB07FBD50020F1E7331B1968FD
:101C700000F0D8FF043CEDE7F74D0001D54D000121
:101C80000000084170B50D461946284616461C4608
:101C900002F00AF940B12CB12246304605F18071BC
:101CA00002F03CFA002007E0044823462A4645217A
:101CB00002F006F86FF0150070BD00BFD54D0001B1
:101CC0000D4B1868010A0006BFF35F8F0B4BD3F86A
:101CD0000435181841F10001B3F5801F0AD2084BF2
:101CE000D3E90023904271EB030303D210F180701B
:101CF00041F10001704700BF58010021006001411F
:101D0000300000212DE9F74302F06FF82E4BD3F895
:101D1000042390070BD5D3F8042142B10022C3F865
:101D200004212A4AD3F80431136801331360264A88
:101D3000D2F80433D90327D5254BD3E8EF1F21F080
:101D40000100C3E8E40F002CF7D1CB0702D4D2F88E
:101D50004031CBB100251C4CC4F84051D4F840317F
:101D6000FFF7AEFF4FF02003EFF3118283F31288E9
:101D7000BFF36F8F174BD3E90267B042B94106D268
:101D800082F31188BFF36F8F03B0BDE8F0834FF08B
:101D9000FF38D3E900104FF0FF391D60C3E9028915
:101DA0004FF48033C4F84833C4F84051D4F840317C
:101DB00082F31188BFF36F8F0029E5D0009032467F
:101DC0003B4628468847DFE7006001415801002173
:101DD00050010021180000212DE9F74F4FF00108B4
:101DE00008FA00F8144606461D466FEA0802DFF8B6
:101DF00030A1DAE8EF3F03EA0201CAE8E01F002859
:101E0000F7D14FF48037DFF81C91B740C9F8087359
:101E1000BFF35F8FBFF36F8F08EA03030093FFF7F1
:101E20004FFFA04271EB05034BD23F4B201A65EBED
:101E30000101984271F1000156D23C4B03EB0613AD
:101E4000D3E902239D4208BF944243D04FF0000BD8
:101E500024F07F4EF446032006F150039B009BB212
:101E600003F1824303F5B033C9F84873C3F800B0F7
:101E70001A6806F5A872019201992CF07F4249F880
:101E800021206FF00202C9F84473D9F80415521AE0
:101E90006244DFF89CC022F07F4262451AD91A687A
:101EA0005AB1D9F80415A1EB0E0222F07F42B2F527
:101EB000000F0FD9C3F800B01A6800EB010C013015
:101EC000DAE71C4BD3E8EF1F41EA0801C3E8E21F41
:101ED000002AF7D1154918483301C850002301EBF7
:101EE0000612C2E902455360009BABB1DAE8EF3F4E
:101EF00043EA0803CAE8E23F002AF7D1094BC3F8D6
:101F000004730C4BD3E8AF3FF340DB0742BF4FF401
:101F100080020A4BC3F8002103B0BDE8F08F00BF78
:101F200054010021006001410100800018000021DF
:101F3000FDFF7F0050010021C11F000100E100E012
:101F400070B54FF0FF3000254FF0FF31174C184BA4
:101F50000226C4F80833C4F84833164BC4F80855B1
:101F6000C3E902014FF480334FF48002C4F8043314
:101F7000114B0121C4F804631620C3F880212A46BE
:101F8000FFF728FA1620FFF709FA01230B4AA3608E
:101F90002846236013604FF480720023FFF71CFF74
:101FA0003046FFF757FD284670BD00BF0060014175
:101FB00003000F001800002100E100E0540100219F
:101FC000F8B5144922F07F45D1E90063921B140A49
:101FD00022F0FF02921943F10003C1E90023A5F5A5
:101FE0000011B1F5400F0AD20B4909684FEA112CD4
:101FF00009064E1909494CF10007C1E9006712F5BD
:10200000807243F10003FFF7E7FE2046BDE8F84089
:1020100000F09ABF28000021580100213000002163
:1020200030B5024600240B490B4D0B6805EB03103D
:10203000D0F80808C0B218B904B10B60002007E05E
:102040000133072B4FF00104F0D96FF01B000B6038
:10205000136030BD5C01002100000841F7B5434D1D
:102060000646D5F820320C46B3F5006F174608D067
:102070003F494048212201F015FE21213C4801F052
:102080000AFE01A8FFF7CCFF002867D1D5F820226F
:10209000B6FBF2F302FB1363002B61D1D5F82022CB
:1020A000B4FBF2F302FB1343002B59D1D5F82022E5
:1020B000D5F824325343A34252D3002C50D0019B75
:1020C000072B07D92C4977222A4801F0EBFD77210D
:1020D0002948D4E7D5F82012B6FBF1F201FB1262D1
:1020E00032B125497822234801F0DCFD7821EFE761
:1020F000D5F82022D5F824124A43944206D91E4925
:1021000079221C4801F0CEFD7921E1E7D5F82012B3
:10211000B4FBF1F201FB124232B117497B221548A0
:1021200001F0C0FD7B21D3E71B0103F1824101F5E2
:102130000021C1F80068C1F80448C1F80878D1F856
:10214000002896420FD1D1F8042894420BD1D1F83F
:102150000838DBB29F4218BF6FF00D0003B0F0BD2E
:102160006FF01500FAE76FF00D00F7E70000FF01D0
:102170003E4E0001AF4600016A4E00010348452172
:1021800008B501F09DFD0020FFF7C4F89C4E00014A
:1021900038B504468169294801F06DFC4FF0FF32E3
:1021A000274BC3F80823BFF36F8F72B6002325496E
:1021B00003F120000133102B41F82020F8D1002337
:1021C0004FF0FF301F4A03F160010133102B42F83A
:1021D0002100F8D14FF0E02300221A61D3F8042D3A
:1021E00003F5506342F000725A605A6A22F4E0220A
:1021F0005A62EFF31482920707D5EFF3148222F0AC
:10220000020282F31488BFF36F8FBFF34F8FBFF3C7
:102210006F8FA26901219A602046A56900F034FA07
:1022200058B1002383F30B8883F30A882A6882F36A
:10223000088883F309886B68984738BDBE4E000153
:102240000050004100E100E01FB50446074A01AB21
:1022500007CA83E807000C221946204601F073FFE5
:1022600000280CBF2046002004B010BDCC43000164
:1022700070B505460024054E56F8040B2844FFF7B8
:10228000E3FF10B90134052CF6D170BD784400018C
:102290002DE9F04F814687B010460E4614461D4684
:1022A000D768D2F81080FFF7CFFF38B915B96E485C
:1022B00001F0E1FB002007B0BDE8F08FA0694845C0
:1022C00003D0002DF6D16948F2E71DB9B0420BD01A
:1022D0006748EDE73046FFF7CBFF8442EAD1226A38
:1022E000644B9A42E6D109E0FFF7C2FF844201D075
:1022F0006148DDE7216A5F4B994232D1E3192CBF77
:10230000012700270DF10A0018EB060A2CBF4FF039
:10231000010B4FF0000B019301F069FE014600280C
:1023200036D015BB554801F0A6FB554801F0A3FB7C
:10233000ADF80A50002F41D1BBF1000F3ED1B4429D
:102340003CD354453AD2019B5F1EBE4233D8BA45B6
:1023500031D918EB0908E36932D3002DAAD14948D5
:10236000A6E7494801F087FBA4E70022ADF80A2060
:10237000002F9FD1BBF1000F9CD1B4429AD354459A
:1023800098D2019B5F1EBE4294D8BA45E1D891E72E
:102390006169BDF80A20914205D2002D8AD13B48DF
:1023A00001F069FB86E737B9BBF1000F03D1B442F6
:1023B00001D35445C7D3002D7FF47CAF344877E771
:1023C0004B45CAD34345C8D2321DA2EB0902D358AC
:1023D000994504D9002D7FF46DAF2E4868E79845E4
:1023E000F8D9D4F81090DFF8B0A009EB060707F190
:1023F000050B0DF10C089AE8070088E807000C228D
:102400004146384601F09FFE00B9FFB90137BB4590
:10241000F1D1002D7FF44EAF204849E7002D7FF425
:1024200049AF1F4844E74946304607F1100201F022
:10243000C2FD014620B1002D7FF43CAF194891E761
:1024400015B9194801F017FB012034E7FA68A369B0
:102450009A42E3D101F0A8FD01460028E3D0002D07
:102460007FF428AF11487DE7D04E0001F04E000107
:10247000234F0001FFFF0291504F0001A04F0001C8
:10248000C74F000177500001794F00010A50000149
:102490004A500001A3500001D8430001D050000170
:1024A00001510001545100018051000134510001DB
:1024B00014222DE9F041144B144DD3F8B0350746E2
:1024C00002FB0355284600F0DBFB012803D0002463
:1024D0002046BDE8F0814FF000082C1DAE1C3046B0
:1024E00000F0CEFB4045F2D9A01C00F0C9FB054628
:1024F000204600F0C5FBB842EAD0023504EB4504A3
:1025000008F10108EBE700BF00800001B48500017D
:10251000014BD3F8A8057047008000014FF000532D
:10252000014A1A60704700BF15FCBA254FF00053EE
:1025300018680A4B98420DD003F11C53A3F58B1376
:10254000A3F6CC53984207D0054B98420CBF01200C
:10255000022070470020704703207047B6B3B4B51F
:102560005DCE03F130B54FF00055184B2A68014697
:102570009A42ADF50F7D26D10023CDE90133EB68FA
:102580000EAA009305A84FF40073FEF7E7FB04467C
:1025900040B1452102460E4801F092FB20460DF560
:1025A0000F7D30BD0123D5E9011205A801F09BFB89
:1025B000044618B1024645210648EDE74921064880
:1025C00001F07EFBEAE76FF00D04E7E7B6B3B4B5C0
:1025D0009A510001BC510001E65100014FF0005337
:1025E000014A1A60704700BF5DCE03F12DE9F04348
:1025F000214885B001F04DFD002604461E4B1F4FBB
:10260000D3F83880DFF87890B04503D8002005B0C3
:10261000BDE8F083636A97E807001D6801AB83E8B3
:1026200007000C221946284601F08DFD78B975B1D6
:1026300022692B699A420AD1AB69A2699A4206D8EB
:10264000E2699A4203D963696A6993430AD0256AA9
:1026500065B10C4801F00FFA404080F311884FF04B
:10266000040002DFE36801361C44CDE7484601F070
:1026700002FA636A1D60F5E700020001E44300010D
:1026800026520001FD5100012DE9F04F87B00646AA
:10269000009198B301F0FDFC00270446B36BBB42E8
:1026A0004ED94FF00008DFF8ACA04FF000095AF8FF
:1026B000043BDFF8A4B05BF8045B01931D44274B97
:1026C00093E8070003AB83E8070019460C2228466D
:1026D00001F039FD019B00B9A5B909F10109B9F172
:1026E000050FE8D11E4B08F101089845DDD3009B8A
:1026F00013B10022636A1A60236A3BB3002007B05B
:10270000BDE8F08F2B6A174A9342EBD1AE42E9D075
:10271000696B05F13C038842E4D025691A6995424A
:102720000AD19A69A569954206D8E569954203D907
:1027300062695D69AA4305D0DA6801301344EAE7AB
:102740000120DCE7009A0AB1626A1360E36801378E
:102750001C44A3E7D85400018C440001F04300015D
:1027600001000000FFFF02910022D30003F1FF737C
:1027700003F58033D3F80013013107D0D3F80013E9
:102780000132D3F80433202A0B60EED1224BD3E977
:102790004C32072B26D1023A032A204B28D9D3F8F2
:1027A0000024D10732D41C4BD3F83021072A19D189
:1027B000D3F83431023B032B02D8194AD35C8BB1D6
:1027C0007F23184A1849C2F818310023C1F8043E83
:1027D000C1F8083EC2F82431C2F82C3102F57F223C
:1027E000C2F81031114B1A68114BC3F844257047D9
:1027F00010498A5C002AD2D0D3F80024D207CED563
:102800000022C3F81421C3F81821C8E76FF00102B1
:10281000C3F80024C7E700BF0000FF0100500041DB
:102820005952000100200041000008410080FF01D2
:10283000006000415D52000130B50468ACB1B4FAEB
:1028400084F30122C3F11F03DBB29A4024EA02029F
:10285000D0E8EF5FA54204D1C0E8EC2FBCF1000F37
:10286000F6D1EAD102480B7030BD0248FCE700BF48
:102870000000AD0B0200AD0B014BC3F8040570471F
:1028800000F0004108B541B906490748442201F06B
:1028900009FA4421034801F0FEF940F00040C1F874
:1028A000800008BD94520001AF46000108B541B94F
:1028B000064907484A2201F0F5F94A21034801F088
:1028C000EAF940F00040C1F8800008BD94520001D0
:1028D000AF460001F7B5324B044650B1012825D070
:1028E00030493148DC2201F0DDF9DC212D4801F0CE
:1028F000D2F90222C3F8082301220646DA60C3F89F
:102900000401D3F80431012342F21075244F8DF8ED
:1029100007306CB3012C1AD0244923484FF4747249
:1029200001F0C0F94FF474712048E0E70022C3F8C9
:1029300008035860C3F80021D3F800310DF10706F1
:10294000E1E70BB3012001F0B0FB013D1CD0D7F84B
:102950000C3403F48033002EF3D0D7F80C2402F0AB
:1029600001020FE083B1012001F09FFB013D0BD07C
:10297000D7F8183403F48033002EF3D0D7F8182496
:1029800002F0030232700BB903B0F0BD9DF80700EE
:102990000128F9D101F089FB013DBAD1F4E700BF6C
:1029A00000500041D1520001AF4600010E5300011A
:1029B000044B1A7922B9012218601A710248704733
:1029C00002487047600100210000AD0B0C00AD0B08
:1029D00008B50F4B1A7952B90E490F484FF4987247
:1029E00001F060F94FF498710A4801F054F91B683E
:1029F00033B10520FEF7E0FC10B90520FEF7CEFC50
:102A00000122064BC3F81825C3F8142508BD00BFE2
:102A100060010021D1520001AF4600010050004189
:102A200038B5354C237953B934494FF4BD72344825
:102A300001F038F94FF4BD71304801F02CF950B174
:102A400001284ED02D494FF4DF722D4801F02AF9AC
:102A50004FF4DF71F0E72B4BD3F81814D3F8182498
:102A6000C90323D502F00303022B05D0012B02D0AA
:102A70000020FFF72FFF0123224A0220C2F8183559
:102A800008224FF48273002103F1824303F5A0432F
:102A900019601D68012502F1824202F5A04215600D
:102AA000226812B3174BC3F804030FE0D3F81424C1
:102AB000D207E0D5D3F81C2402F00302013A012A20
:102AC000D6D822681AB10222C3F8042338BDD3F83D
:102AD0000421002AFBD00022C3F80421D3F80431DA
:102AE000F4E700224FF48073CDE71A68002AFCD087
:102AF00019601B68EAE700BF60010021D1520001A4
:102B0000AF4600010050004108B5094B1B7953B98D
:102B1000084909484FF4EC7201F0C4F84FF4EC7125
:102B2000044801F0B8F8BDE80840FFF7D3BE00BF85
:102B300060010021D1520001AF46000110B5164BD3
:102B4000D3F8002152B10020C3F80001D3F80021CE
:102B50000122C3F80823114B1B6898470E4BD3F88A
:102B6000042182B10022C3F80421D3F80421D3F850
:102B70001824D3F81824022102F00302012A03D1F9
:102B8000C3F818159A6010BDC3F80813034B012051
:102B9000BDE810401B68184700500041600100214B
:102BA00001460148FFF748BE04000021044AD2F85C
:102BB0000034DB07FBD50160BFF35F8F704700BFB8
:102BC0000000084108B500F17F43B3F5802F04D21F
:102BD000C0F30A0363B10E4819E00E490E4840F2F3
:102BE000071201F05FF840F207110A4801F053F8AC
:102BF00002220A4BC3F804254FF0FF320260D3F8DB
:102C00000024D207FBD500220548C3F8042508BDDF
:102C10000A00AD0B42530001AF460001000008411D
:102C20000000AD0BF8B50D460121044601F041FA54
:102C300050B9104940F295120F4801F033F840F2B4
:102C400095110C4801F027F814F0030708D0094942
:102C50004FF4CB72084801F025F84FF4CB71F0E740
:102C6000064E2046C6F804152946FFF79FFFC6F812
:102C70000475F8BD42530001AF4600010000084151
:102C8000C10708B50AD5094909484FF4F67201F0A1
:102C900009F84FF4F671054800F0FDFF20F003033A
:102CA0001B6882070CBF98B2180C08BD4253000184
:102CB000AF46000108B5084A084B93420AD90849B3
:102CC0000848172200F0EEFF1721054800F0E3FF47
:102CD0001433F2E7FCD308BD8C42000164420001CA
:102CE0007E530001AF46000173B504460D464FF018
:102CF0002003EFF3118683F31288BFF36F8F194A15
:102D0000042898BF184B127C94BF53F82030174BFF
:102D1000009245210246164800F0D2FF3DB1EB6912
:102D2000C3F308031BB14521124800F0C9FF00227C
:102D30004521114B114800F0C3FF29462046FFF7FB
:102D40001DFA042C08D10E490E488A2200F0AAFF71
:102D50008A210B4800F09FFF86F31188BFF36F8F25
:102D600002B070BD68010021A0440001A153000120
:102D7000AF530001DC530001025400010A5400016A
:102D800027540001AF460001104B70B553F82040A6
:102D9000013053F82060A64200D870BDD4E9003558
:102DA00095B153B12846984738B10028B8BF404282
:102DB000FF28A8BFFF20EB681870EA68537843F03B
:102DC000010353700834E6E79847FBE7B444000179
:102DD000012208B5084B03201A70FFF7D5FF00F059
:102DE0001BF90420FFF7D0FFFDF7F0FB034A137B2C
:102DF00023F00103137308BD910100213800002165
:102E000008B50348034A0021121A01F07DF908BDF4
:102E1000180000219401002108B50020FFF7B4FF3D
:102E2000164B03F5006282F3088883F30A880025B5
:102E3000E023134C84F82230E57725766576A57675
:102E400084F82050636A43F4E023636284F82350DB
:102E5000FEF71AFAFEF718FB4FF0FF33A362E362A6
:102E6000FFF728FF0120FFF78FFF0220FFF78CFFFD
:102E70002B462A4629460348FEF7E8FA9801002126
:102E800000ED00E0D12D000108B50648064A0749CB
:102E9000121A01F03BF9BDE80840054A0549064809
:102EA00001F034B90000002114000021DC540001BD
:102EB00000000000DC54000100000021034B1B68EF
:102EC0000BB901F064B80020704700BF88010021F1
:102ED00010B50E4B1C689C4204D1FFF7EFFF6FF05A
:102EE000004010BDFFF7EAFF002CF8D0D4E904320F
:102EF0001B1A62EBE072B3F1004F72F10001EEDADF
:102F0000002AACBF18460020EBE700BF08000021F4
:102F100030B570B10B4B5B6898420AD0036843B17F
:102F2000D3E90421D0E90445121941EB0501C3E9B5
:102F30000421D0E9003213605A600023C0E9003355
:102F400030BD00BF080000212DE9F84F4FF02003ED
:102F5000EFF3118C83F31288BFF36F8FDFF8ACA00F
:102F6000DFF8AC900024C9F80000DAF80000002572
:102F7000504508BF0020274FE046D7E90021D9F887
:102F8000003080B3D0E9046C4FEAE37EB3427EEBBD
:102F90000C0B05DAF61A6CEB0E04C0E9046422E0AF
:102FA000B21841EBE671C0E90445C7E90021FFF71B
:102FB000AFFF88F31188BFF36F8F836898474FF096
:102FC0002003EFF3118883F31288BFF36F8FD9F8D2
:102FD0000030DAF800009B1B5045C446C9F80030A9
:102FE000CAD1D7E9002100249A1841EBE373C7E95D
:102FF0000023C9F80040FFF76BFF214600F0C6FF31
:1030000088F31188BFF36F8FBDE8F88F08000021A7
:1030100088010021B8000021014800F02CBD00BF4C
:10302000965400013F2A2DE9F041904652D90546B9
:103030000C46A2F1400626F03F064036274F0E44CC
:10304000236840341BBA2B6454F83C3C39461BBA05
:103050006B6454F8383C28461BBAAB6454F8343CD3
:103060001BBAEB6454F8303C1BBA2B6554F82C3C6B
:103070001BBA6B6554F8283C1BBAAB6554F8243C6A
:103080001BBAEB6554F8203C1BBA2B6654F81C3C69
:103090001BBA6B6654F8183C1BBAAB6654F8143C68
:1030A0001BBAEB6654F8103C1BBA2B6754F80C3C67
:1030B0001BBA6B6754F8083C1BBAAB6754F8043C66
:1030C0001BBAEB67FDF7E8F8B442B9D108F03F004E
:1030D000BDE8F0811046BDE8F08100BFCC4400019E
:1030E0000A4610B514681A4924BA0464546824BA0C
:1030F0004464946824BA8464D46824BAC4641469A7
:1031000024BA0465546924BA4465946924BA846570
:10311000D46924BAC465146A24BA0466546A24BA09
:103120004466946A24BA8466D46A24BAC466146B6A
:1031300024BA0467546B24BA4467946B24BA846736
:10314000D26B12BAC267FDF7A7F8002010BD00BF0E
:10315000CC4400012DE9F0410027B54CB54BB2B08D
:10316000CDE90043B44BB54E0293B54B1446CDE9BF
:103170000363B44B05460593B34B3097069303F1B5
:103180007453A3F52303A3F6924331920793002AC5
:1031900040F0848080224FF03A0C01236E460DEB04
:1031A00002078DF8802000204FEA9C0203F1800E78
:1031B000012A06EB0E0146F80E0024D0022A4860D0
:1031C00021D0032A88601ED0042AC8601BD0052A9B
:1031D000086118D0062A486115D0072A886112D0E4
:1031E000082AC8610FD0092A08620CD00A2A48624E
:1031F00009D00B2A886206D00C2AC86203D00E2A96
:10320000086308BF48631CF0030F16D02CF0030CB2
:103210006344002103F1C8026A443A2B02F8481CB7
:103220000BD003F1C9026A44392B02F8481C04D0C0
:10323000CA330DEB030202F8481C0023620F62F34D
:103240000703620D62F30F23620B62F317436209F7
:10325000394662F31F633046E400CDF8BB308DF889
:10326000BF40FFF73DFFDDE90001DDE9022306BABB
:1032700014BA18BA09BADDE9042312BA69602A61DE
:1032800019BADDE9062312BA1BBA2E60AC60E860F9
:103290006961AA61EB6132B0BDE8F0816E463046EB
:1032A0008846FFF7BFFE241A08EB0403002800F04D
:1032B000F580421E022A53D958F804202092820831
:1032C000012A00F0E6805968022A219100F0BE80B0
:1032D0009968032A229100F0E780D968042A239193
:1032E00000F0E7801969052A249100F0E780596908
:1032F000062A259100F0E7809969072A269100F0B7
:10330000E780D969082A279100F0E780196A092A1D
:10331000289100F0ED80596A0A2A299100F0B180C5
:10332000996A0B2A2A9100F0F480D96A0C2A2B9111
:1033300000F00381196B0D2A2C9100F00981596B63
:103340000E2A2D9106D00F2A996B18BFDA6B2E9199
:1033500018BF2F9220F0030782073B4400F0DE8065
:10336000197807F1C8026A4402F8481C7A1C904296
:103370000FD9591C0978C83202376A44B84202F89A
:10338000481C06D99B7807F1C8020DEB020707F825
:10339000483C8021431C00F1C8026A44382B30901D
:1033A00002F8481C6AD93F2B2CD80022C8336B4442
:1033B0003E2803F8482C25D000F1CA030DEB030189
:1033C0003D2801F8482C1DD000F1CB036B443C286C
:1033D00003F8482C16D000F1CC036B443B2803F8CB
:1033E000482C0FD000F1CD036B443A2803F8482C49
:1033F00008D000F1CE036B44382803F8482C01D1E3
:103400008DF8BF2020AF39463046FFF769FE3A28D5
:1034100003463CD8319CC3F13A02022A7FF6F9AE4A
:103420005A1C3B2AC3F13B0C88BF4FF0010CBAE693
:1034300067E6096A85AE67BB72F36E3C3AF54FA545
:103440007F520E518C68059BABD9831F082854D03E
:1034500008273B4419467A1C11F801CB07F1C80430
:103460006C44904204F848CC84D8802100F1C80311
:103470000DEB03023090431C02F8481C319C20AF36
:10348000C9E7282800F0888028273B44E2E7319CE0
:10349000D3E6042826D004273B44DBE7802201231F
:1034A00030908DF88020E9E70C282CD00C273B4485
:1034B000D0E710283BD010273B44CBE7142841D05D
:1034C00014273B44C6E7182847D018273B44C1E7D8
:1034D0001C2849D01C273B44BCE7202850D020277B
:1034E0003B44B7E78022052330908DF88420C5E760
:1034F00024283FD024273B44ACE780220923309086
:103500008DF88820BAE780220D2330908DF88C202A
:10351000B4E72C283AD02C273B449BE7802100F1CC
:10352000C8026A443090431C02F8481C3BE78022E2
:10353000112330908DF89020A0E7302832D030272A
:103540003B4487E78022152330908DF8942095E73F
:1035500034282DD034273B447CE7182180221923BE
:1035600030918DF8982089E780221D2330908DF8C6
:103570009C2083E78022252330908DF8A4207DE7CE
:103580008022212330908DF8A02077E780222D2300
:1035900030908DF8AC2071E78022292330908DF88F
:1035A000A8206BE78022312330908DF8B02065E7AA
:1035B0008022352330908DF8B4205FE72DE9F04F5D
:1035C00043688DB015468046029383789A0740F190
:1035D0000D8100240E78002E00F00A81252E0BD0DC
:1035E0004B1C0393013441463046029B9847002808
:1035F000C0F2F6800399EDE74E788B1C252E0393DD
:10360000F0D00027B946BB46BBF11F0F38D8A6F152
:103610002003102B0AD8DFE803F02A090930090932
:10362000092109090928092D09091F00A6F13003FC
:10363000092B33D92A2E37D11BF0400F55F8043B04
:1036400040F08280002BA7BF4BF0200B9946C3F1BE
:1036500000094BF0280B01E04BF0010B039B13F822
:10366000016B0393002ECFD130E04BF0020B4BF0F7
:10367000040BF3E74BF0080BF0E74BF0100BEDE712
:10368000BBF17F0F19D8A6F13003092BD2D81BF05C
:10369000400F03D00A2101FB0737DFE70A214BF077
:1036A000200B01FB0939D9E72E2E06D11BF0400F64
:1036B00040F09E804BF0400BD0E76C2E31D02BD8E1
:1036C000682E36D06A2E3CD04C2E3AD0002F46F0D1
:1036D0002003B8BF2BF04002A3F16501BCBF002757
:1036E0001FFA82FB022901D9612B2FD10735072749
:1036F000DFF8ACA225F0070508351BF0080F66D0EF
:103700000AEB070B56465E4563D1A4EB0A0AA9EB08
:10371000070906EB0A026FE1742E9FD07A2E9DD026
:10372000D4E71BF0800F18BF4BF4007B4BF0800BED
:1037300094E71BF4807F18BF4BF4007B4BF4807B35
:103740008CE74BF4207B89E71F4687E7A6F16301EE
:10375000122900F2F080DFE811F013004F00EE00B4
:10376000EE00EE00EE004F00EE00EE00EE00EE0088
:10377000EE00FE00E900EE00EE001B00EE00AF00E0
:1037800055F8043B01270DF1180A8DF81830B4E7FD
:1037900055F804AB834BBAF1000F08BF9A461BF0F3
:1037A000400F504614BF39464FF0FF3100F0DBFCAC
:1037B0000746A2E741462020029B984700280FDBDE
:1037C000013EB742F6D34C44B146A41B98E74E469F
:1037D000F7E7414616F8010B029B9847002892DA5A
:1037E00098F8023043F0040388F802304FF0FF34B9
:1037F00020460DB0BDE8F08F1BF0800F34D01BF4D5
:10380000007F2CD0073525F00705AA4669685AF8CD
:10381000080B2BF010050029ADB237DA404245F411
:10382000806561EB41010DF1180B0A235A4600F047
:10383000A6FCA0EB0B0301936B0662D5019B25F060
:1038400001019F4289B240F3A180002E00F09980CF
:1038500015F0100240F09C80BB460D4623E0AA46BE
:103860005AF8040BC117D4E7AA461BF4807F5AF814
:10387000041B01D10846F5E71BF4007F19BF48B2CD
:1038800041F3C01108B241F3C031C2E750EA01036D
:10389000C9D11BF0400FC6D0002FC4D12BF01102AC
:1038A000BB46019795B240F2064115EA01021CBFE2
:1038B0000BF1010B00222CE02BF010020A231FFA5F
:1038C00082FB1BF0800C49D01BF4007115BF07353B
:1038D000AA4625F007055AF8040B1EBFAA466968D8
:1038E0005AF8080B50EA010545D12BF016051BF0DC
:1038F000400FADB242D0002F40D12BF017020197FC
:1039000095B215F0100248D0019B002E42D103F170
:10391000010B29075AD4EB0706D5D9456FDDA9EB72
:103920000B030199CB465F185B4649E04BF0100B47
:1039300010237826C5E7782B04D1C6F1780343F02D
:103940001003BEE741462520029B98470028FFF65A
:1039500047AF023447E608230026B2E7AA461BF425
:1039600080715AF8040BBDD01BF400711ABFC0B2AD
:10397000614680B2B6E72BF0060295B20DF1180B46
:1039800054E725F01105BB46ADB28CE70D46B8E70C
:103990003B460D4603F1020BBBE7DDF804B082E7BE
:1039A000CD540001C6540001CDE904324146202027
:1039B000029B98470028FFF613AF049B059A01333A
:1039C0009945F1DCA4EB0B019B46CC180AB34146A8
:1039D0003020029B98470028FFF602AF8EB90134D1
:1039E0002744391B019B994224DC1D4655BB019A93
:1039F000A9EB0B09554622441446914433E0019F3C
:103A000092E7023441463046029B98470028E7DAA5
:103A1000E6E640F206410D42E2D015F0020F04F155
:103A20000104414614BF2B20202015F4806F18BFDD
:103A30002D20E9E741463020029B013498470028B9
:103A4000CFDACDE606AB013D4146585D029B984773
:103A50000028CBDAC4E641462020029B0134984777
:103A60000028FFF6BDAEA9EB0403002BF3DCC1E593
:103A70007047002070470FB407B504A951F8040B34
:103A80000191FCF71FFE03B05DF804EB04B0704732
:103A9000836800EBC101B3F5004F2CBF51F8220041
:103AA00031F81200704700EBC1018068B0F5004F9B
:103AB0002CBF41F8223021F812307047012208B59E
:103AC000FFF7E6FFD04008BD836800EBC101B3F506
:103AD000004F08D34B681AB143F001034B607047A5
:103AE00023F00103FAE74B881AB143F001034B803E
:103AF000704723F00103FAE753000122FFF7D3BF19
:103B0000B0F5004F34BF042308230731C818C0089C
:103B100070470A4608B50121FFF7F2FF0132121A79
:103B2000B2FA82F0C0F11F0008BD2DE9F0410D4648
:103B300086680446FFF7C2FFB6F5004F014601D381
:103B4000012832D03046FFF7E4FF04EB80010E6914
:103B500096B90122E36882401343E36002220D61BB
:103B60002B4629462046FFF79EFF03222946204682
:103B7000BDE8F041FFF797BF022231462046FFF72C
:103B800087FF0746034629462046FFF78CFF03229E
:103B9000334629462046FFF786FF39462B46204606
:103BA000FFF781FF02223146E1E7BDE8F081038B98
:103BB00013F0070305D10368002B0CBF002003207E
:103BC0007047022B05D1408BB0FA80F0400980008D
:103BD0007047012B05D10368002B0CBF0020052086
:103BE00070470020704710B50C4600B111B96FF056
:103BF000150010BD081D00F03DF80028F9D1A3689C
:103C0000032BF6D9F3E72DE9F0410D460746194697
:103C1000281D90461E46FCF7D9FF044638B13346AE
:103C2000424629463846A446BDE8F0416047BDE813
:103C3000F08110B44FF02004EFF3118284F3128866
:103C4000BFF36F8F416110BC0121FCF7D9BD38B5BE
:103C50000C46054658B151B10B6843B14B6833B1BE
:103C60001C22002100F067FA00202C6138BD6FF0A3
:103C70001500FBE7034658B1426802F00302012A2F
:103C800003D0032A04D1026812B100209860704763
:103C90006FF015007047404080F311884FF004002A
:103CA00002DF70470FB407B504A951F8040B019166
:103CB000FCF708FD03B05DF804EB04B070477047F3
:103CC0000FB407B504A951F8040B0191FCF7FAFCF5
:103CD00003B05DF804EB04B0704708B58368DB6897
:103CE0009847006808BD2DE9F04789461646984672
:103CF000044698B38268036913448269334493424B
:103D000030D80025D4E90170A6EB050A3F1ABA4560
:103D100015D2B54209D223685246184409EB050171
:103D200000F0FCF9A3685344A360B8F1000F1CD065
:103D3000A068A8B12046BDE8F047FCF7A1BF236802
:103D40003A46184409EB050100F0E8F9636820469B
:103D5000A360FCF795FF18B93D44D3E76FF00D0061
:103D6000BDE8F0876FF00B00FAE74046F8E7014640
:103D70000068FDF743B808B5FDF76EF8BDE80840E8
:103D8000FDF76EB800210120FDF738B8F0B5D0F886
:103D90000473064617F002001CBFC2F18070186061
:103DA0004FF0000518BF01204FF0010C4FF4803E8A
:103DB0000CFA05F40C4214D00EFA05F43C4210D073
:103DC00005F5A87456F82440A41A34F07F4408BFBF
:103DD0004FF0807408B91C6002E01868A042FAD85D
:103DE00001200135042DE3D1F0BDFDF7A5BB4FF057
:103DF0002003EFF3118283F31288BFF36F8F036800
:103E000003F0C00343F00203036082F31188BFF3A1
:103E10006F8F7047F8B5069F0469C9B24FF020054F
:103E2000EFF3118685F31288BFF36F8F0C2569437A
:103E30000C44256C05F0070CBCF1010F0BD1276475
:103E400086F31188BFF36F8FC4E90E2343685B5874
:103E500098470020F8BD05F0C005AF4286F31188F1
:103E6000BFF36F8F0CBF6FF077004FF0FF30F1E7BB
:103E700013B580240094FFF7CDFF02B010BD6FF0A2
:103E80008500704710B41C240069CBB203FB04000A
:103E9000002110BC10470020FEF7C2BD0020FEF735
:103EA00033BE8022FDF7C8BC38B505460C4600F08D
:103EB00014F9002D07DBA84205D9401B84428CBFB2
:103EC0000020012038BD0020FCE7F7B51C46002388
:103ED000164682682360A3600D461369694601AAED
:103EE0009847019B5A1E01921BB96FF0150003B051
:103EF000F0BD0098A26847682168676085B9B31A69
:103F0000D0F800C0634528BF634603FB07111A447D
:103F10002160A26002689A4206D808300090E0E76B
:103F20006B1AB3FBF7F3EBE70020E0E71346002240
:103F3000FFF7CBBF2DE9F0470024836886B08846A1
:103F400091461B6902AA01A99847A2462546029BF1
:103F5000AB4202D806B0BDE8F0870026019F07EB10
:103F6000C5077B6804933A680AEB0603B24202D89D
:103F70009A460135EBE749460394059303A8C047E9
:103F80000028E7D0049B01361C44ECE77047002072
:103F9000704708B5FDF794FE08BD0222FEF75EB833
:103FA000002070470020704708B5FFF7F9FF08B9F7
:103FB000FFF7F8FF08BD30B589B0154601230A4662
:103FC0000146684600F00EF8044640B920226946D2
:103FD0002846FCF733F9002808BF6FF06404204638
:103FE00009B030BD08B5FFF7B5F8002008BD13B51E
:103FF000044658B101200DF1060100F043F818B94C
:10400000BDF806305B08238002B010BD6FF01500CC
:10401000FAE770B5054608460C46FEF729F9214631
:10402000024601232846BDE87040FEF731B92DE96C
:10403000F8430D461646FEF73BFA0446F8B1F5B1D3
:104040000230FEF71DFE00278146B8460434B9450C
:1040500007D8002406B134600020A5F80080BDE830
:10406000F8832046FEF70CFEC3439BB2A21C002B34
:10407000F0D0984538BF984614460137E7E76FF00F
:104080001500ECE70022FFF7D2BF4FF0005358684D
:10409000704703465A6B00233C309A4200D1704768
:1040A000C16801330844F8E7004700F01EB8FEF786
:1040B00077BD034603F17F42B2F5802F08460AD34D
:1040C00051B103F17E4000F50040B0F5607F2CBF98
:1040D000002001207047012070474FF48020704776
:1040E0004FF4006070478020704708B1FDF75CBB5B
:1040F000704740B1C368587810F001001EBF1878AF
:10410000B0FA80F04009704700F015B800F006B82A
:10411000EFF30580003818BF012070470A44431EA2
:10412000914200D1704710B511F8014B914203F84C
:10413000014FF9D110BD02440346934200D17047AC
:1041400003F8011BF9E70139024410B5904201D18F
:10415000002005E0037811F8014FA34201D0181B9D
:1041600010BD0130F2E70246014410B58A42134601
:1041700003D01C780132002CF8D1181A10BDF0B50C
:10418000C3F13707044603F01F031046FFB2082BA4
:10419000E6B232D0102B3DD06508A40845EAC175BF
:1041A00044EA81748A082D1942EB5102290941EA37
:1041B00002716D1842EB1212290A41EA02616D1870
:1041C00042EB1222290C41EA02416D1842EB1242E5
:1041D000AD1842F10002EC0844EA4274D10804EB45
:1041E0008402A6EB4205EDB2092D0CD90134A5F1EC
:1041F0000A0541F10001EDB212E0E40806F00705FE
:1042000044EA4174C908303554EA010200F8015B00
:10421000BDD1F0BD240906F00F0544EA0174090977
:10422000092D84BFED19EDB2EDE700005D15000129
:1042300000000000DD18000164420001411F000180
:10424000000000006D1500010000000015150001C0
:1042500000000000911B000178420001ED250001E3
:1042600000000000884D0001284400014044000186
:1042700010000021F40000211A4E0001000000008F
:104280005C4400011200002100000000000000005A
:10429000853D000100000000853D00010000000098
:1042A000853D000100000000853D00010000000088
:1042B000853D00013D2B0001A940000100000000E8
:1042C000853D000100000000853D00010000000068
:1042D000853D000100000000853D00010000000058
:1042E000853D000100000000853D00010000000048
:1042F000853D000100000000853D00010000000038
:10430000853D000100000000853D00010000000027
:10431000853D000100000000853D00010000000017
:10432000853D000100000000853D00010000000007
:10433000853D000100000000853D000100000000F7
:10434000051D000100000000853D00010000000087
:10435000853D000100000000853D000100000000D7
:10436000853D000100000000853D000100000000C7
:10437000853D000100000000853D00015D48000111
:10438000030000007D46000103000000A34D000172
:1043900003000000B24E000103000000344E000193
:1043A000030000009354000103000000F9510001D4
:1043B00003000000474D000103000000FFFFFFFF66
:1043C000DEE61E284CBBCE8F02350000DEE61E283E
:1043D0004CBBCE8F02350000DEE61E28838451865A
:1043E00002350100DEE61E28EAAC45B802350000C1
:1043F000DEE61E284CBBCE8F023500000000000018
:104400000338FDD8704700000000000000020000E3
:10441000000400000008000000100000C1170001A7
:10442000AD18000100000000BD190001211A0001B3
:10443000974D0001973E00019D3E00019D4D0001FA
:104440007F3E0001A33E0001713E0001000000001C
:10445000051800010000000000000000851C00019C
:10446000191C0001A91B0001891B0001791B000117
:1044700004000000FF000000000000000002000037
:104480000004000000080000001000000000000010
:1044900000020000000400000008000000100000FE
:1044A00049540001575400016B5400017A54000133
:1044B000865400012C4200012C4200013C420001C4
:1044C000444200016442000164420001982F8A4284
:1044D00091443771CFFBC0B5A5DBB5E95BC2563956
:1044E000F111F159A4823F92D55E1CAB98AA07D86E
:1044F000015B8312BE853124C37D0C55745DBE7291
:10450000FEB1DE80A706DC9B74F19BC1C1699BE410
:104510008647BEEFC69DC10FCCA10C246F2CE92DA0
:10452000AA84744ADCA9B05CDA88F97652513E98C4
:104530006DC631A8C82703B0C77F59BFF30BE0C6CB
:104540004791A7D55163CA0667292914850AB72759
:1045500038211B2EFC6D2C4D130D385354730A65F6
:10456000BB0A6A762EC9C281852C7292A1E8BFA2CD
:104570004B661AA8708B4BC2A3516CC719E892D135
:10458000240699D685350EF470A06A1016C1A419B8
:10459000086C371E4C774827B5BCB034B30C1C39B7
:1045A0004AAAD84E4FCA9C5BF36F2E68EE828F7476
:1045B0006F63A5781478C8840802C78CFAFFBE9090
:1045C000EB6C50A4F7A3F9BEF27871C6466C617328
:1045D0006820646576696365206E6F74207265611A
:1045E00064790A004661696C656420746F2070729A
:1045F0006F746563742062306E20666C6173682C22
:104600002063616E63656C20737461727475700AE7
:104610000D00556E61626C6520746F2066696E6472
:104620002076616C6964206669726D7761726520BD
:10463000696E736964652025700A0D004661696CB6
:10464000656420746F207472616E73666572206990
:104650006D6167653A2025640A0D004661696C65E5
:104660006420746F2070726F746563742061707061
:1046700020666C6173683A2025640A0D00636270DD
:1046800072696E74665F7061636B61676500574540
:1046900053545F544F504449522F7A657068797271
:1046A0002F6C69622F6F732F686561702E630041F4
:1046B0005353455254494F4E204641494C204020C7
:1046C00025733A25640A00574553545F544F5044AC
:1046D00049522F7A65706879722F6C69622F6F73F7
:1046E0002F6F6E6F66662E6300574553545F544FAD
:1046F000504449522F7A65706879722F6C69622F25
:104700006F732F6E6F746966792E630025633A208C
:104710004275666665722073697A652069732062E6
:104720006967676572207468616E20706167650AE9
:104730000025633A204572726F72202564207768E5
:10474000696C652067657474696E67207061676560
:1047500020696E666F0A0025633A204572726F7297
:10476000202564207768696C652065726173696EC5
:104770006720706167650A0025633A20737472656B
:10478000616D5F666C6173685F65726173655F70B0
:1047900061676520657272202564206F66667365A7
:1047A000743D30782530387A780A0025633A2066DF
:1047B0006C6173685F7772697465206572726F727D
:1047C000202564206F66667365743D307825303827
:1047D0007A780A0025633A20666C617368207265F6
:1047E0006164206661696C65643A2025640A00256D
:1047F000633A2063616C6C6261636B206661696C13
:1048000065643A2025640A0025633A20427566668D
:1048100065722073697A65206973206E6F742061F8
:104820006C69676E656420746F206D696E696D6177
:104830006C2077726974652D626C6F636B2D736980
:104840007A650A0025633A20496E636F7272656368
:104850007420706172616D657465720A0053545200
:1048600045414D5F464C4153480025633A20723024
:104870002F61313A2020307825303878202072316D
:104880002F61323A2020307825303878202072325B
:104890002F61333A20203078253038780A0025639C
:1048A0003A2072332F61343A20203078253038781E
:1048B000207231322F69703A2020307825303878D4
:1048C000207231342F6C723A2020307825303878BD
:1048D0000A0025633A2020787073723A20203078DD
:1048E000253038780A0025633A204661756C746972
:1048F0006E6720696E737472756374696F6E206180
:1049000064647265737320287231352F7063293A9D
:10491000203078253038780A0025633A202A2A2A60
:104920002A2A205553414745204641554C54202AB8
:104930002A2A2A2A0A0025633A2020204469766917
:1049400073696F6E206279207A65726F0A00256341
:104950003A202020556E616C69676E6564206D6534
:104960006D6F7279206163636573730A0025633A22
:10497000202020537461636B206F766572666C6FC4
:10498000772028636F6E746578742061726561208A
:104990006E6F742076616C6964290A0025633A2081
:1049A00020204E6F20636F70726F636573736F7238
:1049B00020696E737472756374696F6E730A002573
:1049C000633A202020496C6C6567616C206C6F61D4
:1049D00064206F66204558435F52455455524E201F
:1049E000696E746F2050430A0025633A20202049E5
:1049F0006C6C6567616C20757365206F66207468E8
:104A00006520455053520A0025633A202020417406
:104A100074656D707420746F206578656375746556
:104A200020756E646566696E656420696E73747264
:104A3000756374696F6E0A0025633A202A2A2A2A50
:104A40002A20425553204641554C54202A2A2A2ACE
:104A50002A0A0025633A202020537461636B696E33
:104A600067206572726F720A0025633A2020205514
:104A70006E737461636B696E67206572726F720A20
:104A80000025633A202020507265636973652064B5
:104A900061746120627573206572726F720A0025FD
:104AA000633A20202042464152204164647265737B
:104AB000733A20307825780A0025633A202020496F
:104AC0006D707265636973652064617461206275DD
:104AD00073206572726F720A0025633A20202049A4
:104AE0006E737472756374696F6E2062757320657E
:104AF00072726F720A0025633A202A2A2A2A2A2013
:104B00004D5055204641554C54202A2A2A2A2A0A1B
:104B10000025633A202020537461636B696E67201F
:104B20006572726F722028636F6E7465787420618D
:104B3000726561206D69676874206265206E6F74AC
:104B40002076616C6964290A0025633A202020449C
:104B5000617461204163636573732056696F6C6192
:104B600074696F6E0A0025633A2020204D4D46413E
:104B70005220416464726573733A20307825780A54
:104B80000025633A202020496E737472756374693E
:104B90006F6E204163636573732056696F6C617437
:104BA000696F6E0A00574553545F544F5044495241
:104BB0002F7A65706879722F617263682F61726DE8
:104BC0002F636F72652F636F727465785F6D2F66E8
:104BD00061756C742E63005265736572766564202E
:104BE000457863657074696F6E2028005370757224
:104BF000696F757320696E746572727570742028A0
:104C0000495251200025633A20535053454C2069A6
:104C10006E20746872656164206D6F646520646FD6
:104C20006573206E6F7420696E64696361746520BA
:104C30005053500A0025633A202A2A2A2A2A20485B
:104C4000415244204641554C54202A2A2A2A2A0AF5
:104C50000025633A202020427573206661756C74CC
:104C6000206F6E20766563746F72207461626C656C
:104C700020726561640A0025633A20202044656241
:104C80007567206576656E740A0025633A202020DA
:104C90004661756C7420657363616C6174696F6ED5
:104CA00020287365652062656C6F77290A0025638B
:104CB0003A20415243485F45584345505420776954
:104CC000746820726561736F6E2025780A0A00256A
:104CD000633A202A2A2A2A2A204465627567206DB1
:104CE0006F6E69746F7220657863657074696F6E3A
:104CF000202A2A2A2A2A0A0025633A202A2A2A2A2E
:104D00002A20257320256429202A2A2A2A2A0A00F3
:104D1000574553545F544F504449522F7A65706839
:104D200079722F617263682F61726D2F636F726584
:104D30002F636F727465785F6D2F6972715F6D613B
:104D40006E6167652E6300736F6300574553545F50
:104D5000544F504449522F7A65706879722F6472AB
:104D600069766572732F636C6F636B5F636F6E74CC
:104D7000726F6C2F636C6F636B5F636F6E74726FB7
:104D80006C5F6E72662E6300636C6F636B403431D0
:104D9000303035303030006866636C6B006C6663B1
:104DA0006C6B00636C6F636B5F636F6E74726F6CC0
:104DB0000025633A20756E616C69676E65642061D9
:104DC0006464726573733A2030782530386C783AB1
:104DD000257A750A0025633A20696E76616C6964EC
:104DE00020616464726573733A2030782530386CC2
:104DF000783A257A750A0025633A206E6F74207719
:104E00006F72642D616C69676E65643A2030782535
:104E100030386C783A257A750A00666C6173682DB3
:104E2000636F6E74726F6C6C657240343130383001
:104E300030303000666C6173685F6E726600574593
:104E400053545F544F504449522F6E72662F6C6911
:104E5000622F6670726F746563742F6670726F7400
:104E60006563745F61636C2E6300574553545F54F0
:104E70004F504449522F6D6F64756C65732F686194
:104E80006C2F6E6F726469632F6E7266782F686123
:104E90006C2F6E72665F61636C2E680025633A202A
:104EA000526573657474696E672073797374656D88
:104EB0000A00666174616C5F6572726F7200426FA6
:104EC0006F74696E67202830782578292E0D0A00C6
:104ED000496E76616C6964206669726D776172658E
:104EE00020696E666F20666F726D61742E0A0D0008
:104EF000546865206669726D7761726520646F65BC
:104F0000736E27742062656C6F6E67206174206415
:104F1000657374696E6174696F6E20616464722E6A
:104F20000A0D0073726320616E6420647374206DD7
:104F300075737420626520657175616C20666F728F
:104F4000206C6F63616C2063616C6C732E0A0D00C2
:104F50004669726D7761726520696E666F20646F55
:104F600065736E277420706F696E7420746F20698A
:104F70007473656C662E0A0D00466972776D6172F6
:104F80006520686173206265656E20696E76616C6C
:104F90006964617465643A20307825782E0A0D00C2
:104FA00043616E6E6F742072656164207468652061
:104FB0006669726D776172652076657273696F6E6E
:104FC0002E2025640A0D00576520617373756D6589
:104FD00020746869732069732064756520746F207C
:104FE000746865206669726D776172652076657296
:104FF00073696F6E206E6F74206265696E672065DD
:105000006E61626C65642E0A0D004669726D77618F
:1050100072652076657273696F6E20282575292068
:10502000697320736D616C6C6572207468616E20A9
:105030006D6F6E6F746F6E696320636F756E7465EC
:105040007220282575292E0A0D004669726D776138
:10505000726520696E666F206973206E6F742077A9
:10506000697468696E207369676E6564207265672C
:10507000696F6E2E0A0D00426F6F74206164647256
:10508000657373206973206E6F7420776974686923
:105090006E207369676E656420726567696F6E2E36
:1050A0000A0D0052657365742068616E646C6572E8
:1050B000206973206E6F742077697468696E20733D
:1050C00069676E656420726567696F6E2E0A0D00F0
:1050D000436F756C64206E6F742066696E64207611
:1050E000616C6964206669726D77617265207661B2
:1050F0006C69646174696F6E20696E666F2E0A0D4B
:105100000056616C69646174696F6E20696E666FC8
:1051100020646F65736E27742062656C6F6E672004
:10512000746F2074686973206669726D7761726547
:105130002E0A0D00626C5F63727970746F5F696E26
:10514000697428292072657475726E6564202564FF
:105150002E0A0D004669726D776172652076616C6A
:1051600069646174696F6E206661696C656420773B
:10517000697468206572726F722025642E0A0D00B2
:105180004669726D77617265206861736820766523
:105190007269666965642E0A0D0025633A2073748E
:1051A0007265616D5F666C6173685F696E697420BA
:1051B0006661696C65643A2025640A0025633A20BB
:1051C00073747265616D5F666C6173685F6275664A
:1051D00066657265645F7772697465206661696C83
:1051E0003A2025640A0025633A205472616E736682
:1051F000657220646F6E650A0070636400455252E8
:105200004F523A2043616E6E6F742066756C66690A
:105210006C6C204558545F4150492072657175652A
:1052200073742E0D0A005741524E494E473A204F93
:105230007074696F6E616C204558545F415049200D
:1052400072657175657374206E6F742066756C6617
:10525000696C6C65642E0D0A0000000001010000FD
:1052600000574553545F544F504449522F6D6F645B
:10527000756C65732F68616C2F6E6F726469632F34
:105280006E7266782F68616C2F6E72665F647070E4
:10529000692E6800574553545F544F504449522F6C
:1052A0006D6F64756C65732F68616C2F6E6F7264BF
:1052B00069632F6E7266782F68656C706572732FE4
:1052C0006E7266785F677070695F647070692E6374
:1052D00000574553545F544F504449522F6D6F64EB
:1052E000756C65732F68616C2F6E6F726469632FC4
:1052F0006E7266782F647269766572732F7372634B
:105300002F6E7266785F636C6F636B2E6300574518
:1053100053545F544F504449522F6D6F64756C6500
:10532000732F68616C2F6E6F726469632F6E726683
:10533000782F68616C2F6E72665F636C6F636B2E83
:105340006800574553545F544F504449522F6D6F76
:1053500064756C65732F68616C2F6E6F726469631E
:105360002F6E7266782F647269766572732F73720E
:10537000632F6E7266785F6E766D632E630057459D
:1053800053545F544F504449522F7A657068797274
:105390002F6B65726E656C2F6465766963652E632D
:1053A00000556E6B6E6F776E206572726F7200259E
:1053B000633A203E3E3E205A4550485952204641CD
:1053C00054414C204552524F522025643A202573B7
:1053D000206F6E204350552025640A0025633A2033
:1053E0004661756C7420647572696E6720696E74AD
:1053F0006572727570742068616E646C696E670A9C
:105400000A00756E6B6E6F776E0025633A204375E8
:105410007272656E74207468726561643A202570DA
:1054200020282573290A00574553545F544F504490
:1054300049522F7A65706879722F6B65726E656C50
:105440002F666174616C2E6300435055206578634C
:10545000657074696F6E00556E68616E646C65642A
:1054600020696E7465727275707400537461636B39
:10547000206F766572666C6F77004B65726E656C37
:10548000206F6F7073004B65726E656C2070616E7B
:105490006963006F73002A2A2A20426F6F74696E55
:1054A00067206E524620436F6E6E656374205344CE
:1054B0004B2076332E352E39392D6E6373312D31D5
:1054C000202A2A2A0A00286E756C6C29002A666C2C
:1054D0006F61742A0000000000000001733A0001AF
:1054E000FFFFFFFF0800002108000021000000006E
:0454F00015E015E0CE
:1085A800008800010088000101000000FFFFFFFFB4
:1085B800DCF49D814E601D0E41E08B6822831540DE
:1085C800010001000100F000FFFFFFFFFFFFFFFFB8
:1085D800FFFFFFFFFFFFFFFFFFFFFFFFFFFFFFFFA3
:1085E800FFFFFFFFFFFFFFFFFFFFFFFFFFFFFFFF93
:1085F800FFFFFFFFFFFFFFFFFFFFFFFFFFFFFFFF83
:10860800FFFFFFFFFFFFFFFFFFFFFFFFFFFFFFFF72
:10861800FFFFFFFFFFFFFFFFFFFFFFFFFFFFFFFF62
:10862800FFFFFFFFFFFFFFFFFFFFFFFFFFFFFFFF52
:10863800FFFFFFFFFFFFFFFFFFFFFFFFFFFFFFFF42
:10864800FFFFFFFFFFFFFFFFFFFFFFFFFFFFFFFF32
:10865800FFFFFFFFFFFFFFFFFFFFFFFFFFFFFFFF22
:10866800FFFFFFFFFFFFFFFFFFFFFFFFFFFFFFFF12
:10867800FFFFFFFFFFFFFFFFFFFFFFFFFFFFFFFF02
:10868800FFFFFFFFFFFFFFFFFFFFFFFFFFFFFFFFF2
:10869800FFFFFFFFFFFFFFFFFFFFFFFFFFFFFFFFE2
:1086A800FFFFFFFFFFFFFFFFFFFFFFFFFFFFFFFFD2
:1086B800FFFFFFFFFFFFFFFFFFFFFFFFFFFFFFFFC2
:1086C800FFFFFFFFFFFFFFFFFFFFFFFFFFFFFFFFB2
:1086D800FFFFFFFFFFFFFFFFFFFFFFFFFFFFFFFFA2
:1086E800FFFFFFFFFFFFFFFFFFFFFFFFFFFFFFFF92
:1086F800FFFFFFFFFFFFFFFFFFFFFFFFFFFFFFFF82
:10870800FFFFFFFFFFFFFFFFFFFFFFFFFFFFFFFF71
:10871800FFFFFFFFFFFFFFFFFFFFFFFFFFFFFFFF61
:10872800FFFFFFFFFFFFFFFFFFFFFFFFFFFFFFFF51
:10873800FFFFFFFFFFFFFFFFFFFFFFFFFFFFFFFF41
:10874800FFFFFFFFFFFFFFFFFFFFFFFFFFFFFFFF31
:10875800FFFFFFFFFFFFFFFFFFFFFFFFFFFFFFFF21
:10876800FFFFFFFFFFFFFFFFFFFFFFFFFFFFFFFF11
:10877800FFFFFFFFFFFFFFFFFFFFFFFFFFFFFFFF01
:10878800FFFFFFFFFFFFFFFFFFFFFFFFFFFFFFFFF1
:10879800FFFFFFFFFFFFFFFFFFFFFFFFFFFFFFFFE1
:0887A800FFFFFFFFFFFFFFFFD1
:10880000E80F0021BD8F000101C40001A98F000104
:10881000A98F0001A98F0001A98F000100000000AD
:108820000000000000000000000000007591000141
:10883000A98F0001000000000D910001A98F000127
:1088400039930001399300013993000139930001F4
:1088500039930001399300013993000139930001E4
:1088600039930001399300013993000139930001D4
:1088700039930001399300013993000139930001C4
:1088800039930001399300013993000139930001B4
:1088900039930001399300013993000139930001A4
:1088A0003993000139930001399300013993000194
:1088B000399300013993000100000000000000001E
:1088C00000000000000000000000000000000000A8
:1088D0000000000000000000000000000000000098
:1088E0000000000000000000000000000000000088
:1088F0000000000000000000000000000000000078
:108900000000000000000000000000000000000067
:108910000000000000000000000000000000000057
:108920000000000000000000000000000000000047
:108930000000000000000000000000000000000037
:108940000000000000000000000000000000000027
:108950000000000000000000000000000000000017
:108960000000000000000000000000000000000007
:1089700000000000000000000000000000000000F7
:1089800000000000000000000000000000000000E7
:1089900000000000000000000000000000000000D7
:1089A00000000000000000000000000000000000C7
:1089B00000000000000000000000000000000000B7
:1089C00000000000000000000000000000000000A7
:1089D0000000000000000000000000000000000097
:1089E0000000000000000000000000000000000087
:1089F0000000000000000000000000000000000077
:108A0000DEE61E284CBBCE8F023500003C00000085
:108A100036470000010000000088000100880001C6
:108A2000FFFF0291000000000000000000000000B5
:108A3000000000000000000000000000014B1B6867
:108A4000184700BF0000002130B585B004460D4630
:108A500010220021684603F0E6FF02238DF8023061
:108A6000044B2A4621466846019303F09DF805B061
:108A700030BD00BF3D8A000180B505460E46174651
:108A8000984602F02BFF034604F048F80446DFF84E
:108A90001890424649F8003039463046A84754F805
:108AA000090000F005FB00BF080000002DE9F047B9
:108AB000058B04462807904611D4022905F00705C6
:108AC00040F0CD80204603F0BBFB78B10138218B0C
:108AD000042811D8DFE800F0C3106D859500012946
:108AE0000CBF45F0100545F02005258388F311885B
:108AF000BFF36F8FBDE8F08701F0070AAA4500F0C9
:108B0000A6800027B9463E46A368002B00F0BD8032
:108B100041F00801218388F31188BFF36F8FA168AA
:108B2000002900F0BB800D68002900F0B7803346B3
:108B300052462046D1F80480C047002D76D02B68DD
:108B400029461D46F0E701F007035A1F012A1BD8EA
:108B5000002221F00701062B276889B2C4E9002210
:108B600009D13B4603E0628B013262831B68002B14
:108B7000F9D141F002012046218303F061FB002876
:108B80007BD041F0200177E0042B0AD121F00701CE
:108B900089B22046218303F053FB10B141F020013C
:108BA0002183218B01F0070AAA4550D00027B9463E
:108BB000AAE7236921F0070141F00601062DD3F849
:108BC000009021832DD1B9F1000F40D041F0080170
:108BD000218388F31188BFF36F8F20463949C84736
