:020000021000EC
:10C0000078EC0020FD2E020009110300E92E020049
:10C01000E92E0200E92E0200E92E0200E92E0200BC
:10C02000000000000000000000000000AD30020031
:10C03000E92E0200000000004D300200E92E02004F
:10C04000853202008532020085320200853202000C
:10C0500085320200853202008532020085320200FC
:10C0600085320200853202008532020085320200EC
:10C0700085320200853202008532020085320200DC
:10C0800085320200853202008532020085320200CC
:10C0900085320200853202008532020085320200BC
:10C0A00085320200853202008532020085320200AC
:10C0B000853202008532020085320200853202009C
:10C0C000853202008532020085320200853202008C
:10C0D000853202008532020085320200853202007C
:10C0E000853202008532020085320200853202006C
:10C0F000853202008532020085320200853202005C
:10C10000853202008532020085320200853202004B
:10C11000853202008532020085320200853202003B
:10C12000853202008532020085320200853202002B
:10C13000853202008532020085320200853202001B
:10C14000853202008532020085320200853202000B
:04C150008532020032
:04C15400FFFFFFFFEB
:10C1580081F0004102E000BF83F0004330B54FEAB0
:10C1680041044FEA430594EA050F08BF90EA020F1D
:10C178001FBF54EA000C55EA020C7FEA645C7FEAB0
:10C18800655C00F0E2804FEA5454D4EB5555B8BFD3
:10C198006D420CDD2C4480EA020281EA030382EA44
:10C1A800000083EA010180EA020281EA0303362DD6
:10C1B80088BF30BD11F0004F4FEA01314FF4801CA9
:10C1C8004CEA113102D0404261EB410113F0004FBB
:10C1D8004FEA03334CEA133302D0524263EB430372
:10C1E80094EA050F00F0A780A4F10104D5F1200E10
:10C1F8000DDB02FA0EFC22FA05F2801841F100016B
:10C2080003FA0EF2801843FA05F359410EE0A5F13E
:10C2180020050EF1200E012A03FA0EFC28BF4CF06F
:10C22800020C43FA05F3C01851EBE37101F0004525
:10C2380007D54FF0000EDCF1000C7EEB00006EEB32
:10C248000101B1F5801F1BD3B1F5001F0CD34908BC
:10C258005FEA30004FEA3C0C04F101044FEA445213
:10C2680012F5800F80F09A80BCF1004F08BF5FEA9A
:10C27800500C50F1000041EB045141EA050130BD7A
:10C288005FEA4C0C404141EB0101013C28BFB1F58C
:10C29800801FE9D291F0000F04BF01460020B1FAD7
:10C2A80081F308BF2033A3F10B03B3F120020CDAAA
:10C2B8000C3208DD02F1140CC2F10C0201FA0CF088
:10C2C80021FA02F10CE002F11402D8BFC2F1200CED
:10C2D80001FA02F120FA0CFCDCBF41EA0C019040A3
:10C2E800E41AA2BF01EB0451294330BD6FEA0404EC
:10C2F8001F3C1CDA0C340EDC04F11404C4F12002D7
:10C3080020FA04F001FA02F340EA030021FA04F3E8
:10C3180045EA030130BDC4F10C04C4F1200220FA3F
:10C3280002F001FA04F340EA0300294630BD21FA7D
:10C3380004F0294630BD94F0000F83F4801306BF43
:10C3480081F480110134013D4EE77FEA645C18BF37
:10C358007FEA655C29D094EA050F08BF90EA020FCE
:10C3680005D054EA000C04BF1946104630BD91EAC6
:10C37800030F1EBF0021002030BD5FEA545C05D1C9
:10C388004000494128BF41F0004130BD14F5800408
:10C398003CBF01F5801130BD01F0004545F0FE417C
:10C3A80041F470014FF0000030BD7FEA645C1ABFB1
:10C3B800194610467FEA655C1CBF0B46024650EAE8
:10C3C800013406BF52EA033591EA030F41F4002114
:10C3D80030BD00BF90F0000F04BF0021704730B59A
:10C3E8004FF4806404F132044FF000054FF000016F
:10C3F80050E700BF90F0000F04BF0021704730B530
:10C408004FF4806404F1320410F0004548BF404204
:10C418004FF000013EE700BF42004FEAE2014FEA59
:10C4280031014FEA02701FBF12F07F4393F07F4F34
:10C4380081F06051704732F07F4208BF704793F037
:10C448007F4F04BF41F40021704730B54FF460744A
:10C4580001F0004521F000411CE700BF50EA01024D
:10C4680008BF704730B54FF000050AE050EA0102F6
:10C4780008BF704730B511F0004502D5404261EB66
:10C4880041014FF4806404F132045FEA915C3FF4A7
:10C49800D8AE4FF003025FEADC0C18BF03325FEA44
:10C4A800DC0C18BF033202EBDC02C2F1200300FAF5
:10C4B80003FC20FA02F001FA03FE40EA0E0021FA1A
:10C4C80002F11444BDE600BF70B54FF0FF0C4CF408
:10C4D800E06C1CEA11541DBF1CEA135594EA0C0FBA
:10C4E80095EA0C0F00F0DEF82C4481EA030621EAF5
:10C4F8004C5123EA4C5350EA013518BF52EA033530
:10C5080041F4801143F4801338D0A0FB02CE4FF0E1
:10C518000005E1FB02E506F00042E0FB03E54FF011
:10C528000006E1FB03569CF0000F18BF4EF0010E09
:10C53800A4F1FF04B6F5007F64F5407404D25FEA05
:10C548004E0E6D4146EB060642EAC62141EA5551B8
:10C558004FEAC52040EA5E504FEACE2EB4F1FD0CFA
:10C5680088BFBCF5E06F1ED8BEF1004F08BF5FEA78
:10C57800500E50F1000041EB045170BD06F000462A
:10C5880046EA010140EA020081EA0301B4EB5C04D7
:10C59800C2BFD4EB0C0541EA045170BD41F48011CF
:10C5A8004FF0000E013C00F3AB8014F1360FDEBFF4
:10C5B800002001F0004170BDC4F10004203C35DAD0
:10C5C8000C341BDC04F11404C4F1200500FA05F353
:10C5D80020FA04F001FA05F240EA020001F00042F4
:10C5E80021F0004110EBD37021FA04F642EB06016A
:10C5F8005EEA430E08BF20EAD37070BDC4F10C0494
:10C60800C4F1200500FA04F320FA05F001FA04F257
:10C6180040EA020001F0004110EBD37041F1000143
:10C628005EEA430E08BF20EAD37070BDC4F120054E
:10C6380000FA05F24EEA020E20FA04F301FA05F2B6
:10C6480043EA020321FA04F001F0004121FA04F25E
:10C6580020EA020000EBD3705EEA430E08BF20EA2E
:10C66800D37070BD94F0000F0FD101F00046400068
:10C6780041EB010111F4801F08BF013CF7D041EAEA
:10C68800060195F0000F18BF704703F000465200EE
:10C6980043EB030313F4801F08BF013DF7D043EABF
:10C6A8000603704794EA0C0F0CEA135518BF95EA75
:10C6B8000C0F0CD050EA410618BF52EA4306D1D1FC
:10C6C80081EA030101F000414FF0000070BD50EA1B
:10C6D800410606BF1046194652EA430619D094EAA5
:10C6E8000C0F02D150EA013613D195EA0C0F05D18F
:10C6F80052EA03361CBF104619460AD181EA0301E3
:10C7080001F0004141F0FE4141F470014FF000009A
:10C7180070BD41F0FE4141F4780170BD70B54FF035
:10C72800FF0C4CF4E06C1CEA11541DBF1CEA1355B5
:10C7380094EA0C0F95EA0C0F00F0A7F8A4EB050497
:10C7480081EA030E52EA03354FEA013100F088808E
:10C758004FEA03334FF0805545EA131343EA126357
:10C768004FEA022245EA111545EA10654FEA00260C
:10C778000EF000419D4208BF964244F1FD0404F5C5
:10C78800407402D25B084FEA3202B61A65EB030521
:10C798005B084FEA32024FF480104FF4002CB6EBDE
:10C7A800020E75EB030E22BFB61A754640EA0C005E
:10C7B8005B084FEA3202B6EB020E75EB030E22BF9E
:10C7C800B61A754640EA5C005B084FEA3202B6EBDF
:10C7D800020E75EB030E22BFB61A754640EA9C009E
:10C7E8005B084FEA3202B6EB020E75EB030E22BF6E
:10C7F800B61A754640EADC0055EA060E18D04FEA2C
:10C80800051545EA16754FEA06164FEAC30343EACB
:10C8180052734FEAC2025FEA1C1CC0D111F4801F98
:10C828000BD141EA00014FF000004FF0004CB6E791
:10C8380011F4801F04BF01430020B4F1FD0C88BF30
:10C84800BCF5E06F3FF6AFAEB5EB030C04BFB6EB3B
:10C85800020C5FEA500C50F1000041EB045170BD2E
:10C868000EF0004E4EEA113114EB5C04C2BFD4EB5B
:10C878000C0541EA045170BD41F480114FF0000EDF
:10C88800013C90E645EA060E8DE60CEA135594EA5B
:10C898000C0F08BF95EA0C0F3FF43BAF94EA0C0F5E
:10C8A8000AD150EA01347FF434AF95EA0C0F7FF4D3
:10C8B80025AF104619462CE795EA0C0F06D152EA27
:10C8C80003353FF4FDAE1046194622E750EA41060B
:10C8D80018BF52EA43067FF4C5AE50EA41047FF41C
:10C8E8000DAF52EA43057FF4EBAE12E780F000404B
:10C8F80002E000BF81F0004142001FBF5FEA410330
:10C9080092EA030F7FEA226C7FEA236C6AD04FEA2F
:10C918001262D2EB1363C1BFD21841404840414074
:10C92800B8BF5B42192B88BF704710F0004F40F426
:10C93800000020F07F4018BF404211F0004F41F442
:10C94800000121F07F4118BF494292EA030F3FD00E
:10C95800A2F1010241FA03FC10EB0C00C3F1200321
:10C9680001FA03F100F0004302D5494260EB4000B0
:10C97800B0F5000F13D3B0F1807F06D340084FEA1B
:10C98800310102F10102FE2A51D2B1F1004F40EB10
:10C99800C25008BF20F0010040EA03007047490078
:10C9A80040EB0000013A28BFB0F5000FEDD2B0FA15
:10C9B80080FCACF1080CB2EB0C0200FA0CF0AABF38
:10C9C80000EBC25052421843BCBFD04018437047D6
:10C9D80092F0000F81F4000106BF80F400000132DC
:10C9E800013BB5E74FEA41037FEA226C18BF7FEAB3
:10C9F800236C21D092EA030F04D092F0000F08BFF5
:10CA08000846704790EA010F1CBF0020704712F0DB
:10CA18007F4F04D1400028BF40F00040704712F11A
:10CA280000723CBF00F50000704700F0004343F07F
:10CA3800FE4040F4000070477FEA226216BF0846B5
:10CA48007FEA23630146420206BF5FEA412390EA78
:10CA5800010F40F4800070474FF0000304E000BF6E
:10CA680010F0004348BF40425FEA000C08BF70471F
:10CA780043F0964301464FF000001CE050EA0102E3
:10CA880008BF70474FF000030AE000BF50EA0102F8
:10CA980008BF704711F0004302D5404261EB4101E5
:10CAA8005FEA010C02BF84460146002043F0B6430A
:10CAB80008BFA3F18053A3F50003BCFA8CF2083A2F
:10CAC800A3EBC25310DB01FA02FC634400FA02FC38
:10CAD800C2F12002BCF1004F20FA02F243EB02003F
:10CAE80008BF20F00100704702F1200201FA02FCA1
:10CAF800C2F1200250EA4C0021FA02F243EB020094
:10CB080008BF20EADC7070474FF0FF0C1CEAD052D7
:10CB18001EBF1CEAD15392EA0C0F93EA0C0F6FD098
:10CB28001A4480EA010C400218BF5FEA41211ED076
:10CB38004FF0006343EA501043EA5111A0FB013162
:10CB48000CF00040B1F5000F3EBF490041EAD37137
:10CB58005B0040EA010062F17F02FD2A1DD8B3F1B3
:10CB6800004F40EBC25008BF20F00100704790F022
:10CB7800000F0CF0004C08BF49024CEA502040EA74
:10CB880051207F3AC2BFD2F1FF0340EAC25070473A
:10CB980040F400004FF00003013A5DDC12F1190F78
:10CBA800DCBF00F000407047C2F10002410021FAEA
:10CBB80002F1C2F1200200FA02FC5FEA310040F102
:10CBC800000053EA4C0308BF20EADC70704792F07B
:10CBD800000F00F0004C02BF400010F4000F013AB3
:10CBE800F9D040EA0C0093F0000F01F0004C02BFAE
:10CBF800490011F4000F013BF9D041EA0C018FE71D
:10CC08000CEAD15392EA0C0F18BF93EA0C0F0AD022
:10CC180030F0004C18BF31F0004CD8D180EA010048
:10CC280000F00040704790F0000F17BF90F0004FE1
:10CC3800084691F0000F91F0004F14D092EA0C0FC3
:10CC480001D142020FD193EA0C0F03D14B0218BF56
:10CC5800084608D180EA010000F0004040F0FE409C
:10CC680040F40000704740F0FE4040F44000704738
:10CC78004FF0FF0C1CEAD0521EBF1CEAD15392EAB7
:10CC88000C0F93EA0C0F69D0A2EB030280EA010CA7
:10CC980049024FEA402037D04FF0805343EA111140
:10CCA80043EA10130CF000408B4238BF5B0042F19E
:10CCB8007D024FF4000C8B4224BF5B1A40EA0C0043
:10CCC800B3EB510F24BFA3EB510340EA5C00B3EB75
:10CCD800910F24BFA3EB910340EA9C00B3EBD10F63
:10CCE80024BFA3EBD10340EADC001B0118BF5FEAB5
:10CCF8001C1CE0D1FD2A3FF650AF8B4240EBC250DE
:10CD080008BF20F0010070470CF0004C4CEA50209E
:10CD18007F32C2BFD2F1FF0340EAC250704740F4ED
:10CD280000004FF00003013A37E792F0000F00F0DF
:10CD3800004C02BF400010F4000F013AF9D040EA5D
:10CD48000C0093F0000F01F0004C02BF490011F4F1
:10CD5800000F013BF9D041EA0C0195E70CEAD153E9
:10CD680092EA0C0F08D142027FF47DAF93EA0C0FD0
:10CD78007FF470AF084676E793EA0C0F04D14B02B4
:10CD88003FF44CAF08466EE730F0004C18BF31F066
:10CD9800004CCAD130F000427FF45CAF31F0004360
:10CDA8007FF43CAF5FE700BF4FF0FF3C06E000BFF9
:10CDB8004FF0010C02E000BF4FF0010C4DF804CD1C
:10CDC8004FEA40024FEA41037FEA226C18BF7FEA2C
:10CDD800236C11D001B052EA530C18BF90EA010F2E
:10CDE80058BFB2EB030088BFC81738BF6FEAE170BD
:10CDF80018BF40F0010070477FEA226C02D15FEA59
:10CE0800402C05D17FEA236CE4D15FEA412CE1D0C4
:10CE18005DF8040B704700BF844608466146FFE78B
:10CE28000FB5FFF7C9FF002848BF10F1000F0FBD6D
:10CE38004DF808EDFFF7F4FF0CBF012000205DF866
:10CE480008FB00BF4DF808EDFFF7EAFF34BF0120EB
:10CE580000205DF808FB00BF4DF808EDFFF7E0FF84
:10CE680094BF012000205DF808FB00BF4DF808EDD5
:10CE7800FFF7D2FF94BF012000205DF808FB00BF38
:10CE88004DF808EDFFF7C8FF34BF012000205DF81A
:10CE980008FB00BF4FEA4002B2F1FE4F0FD34FF03C
:10CEA8009E03B3EB12620DD94FEA002343F000430F
:10CEB80010F0004F23FA02F018BF404270474FF0BD
:10CEC8000000704712F1610F01D1420205D110F044
:10CED800004008BF6FF0004070474FF000007047F7
:10CEE80042000ED2B2F1FE4F0BD34FF09E03B3EBCC
:10CEF800126209D44FEA002343F0004323FA02F0F8
:10CF080070474FF00000704712F1610F01D14202E3
:10CF180002D14FF0FF3070474FF00000704700BF5C
:10CF28007BB972B90029BEBF00204FF0004106E06E
:10CF380008BF00281CBF6FF000414FF0FF3000F021
:10CF480057B8ADF1080C6DE904CE002909DB002BB8
:10CF58001ADB00F08BF9DDF804E0DDE9022304B008
:10CF68007047404261EB4101002B1BDB00F07EF96A
:10CF7800DDF804E0DDE9022304B0404261EB410141
:10CF8800524263EB43037047524263EB430300F0A2
:10CF98006DF9DDF804E0DDE9022304B0404261EBFD
:10CFA80041017047524263EB430300F05FF9DDF83B
:10CFB80004E0DDE9022304B0524263EB4303704707
:10CFC80053B94AB9002908BF00281CBF4FF0FF31E8
:10CFD8004FF0FF3000F00CB8ADF1080C6DE904CE4D
:10CFE80000F044F9DDF804E0DDE9022304B07047FD
:10CFF800704700BF4FF0FF3C06E000BF4FF0010C48
:10D0080002E000BF4FF0010C4DF804CD4FEA410C8F
:10D018007FEA6C5C4FEA430C18BF7FEA6C5C1BD05C
:10D0280001B050EA410C0CBF52EA430C91EA030FDD
:10D0380002BF90EA020F0020704710F1000F91EA3A
:10D04800030F58BF994208BF90422CBFD8176FEA08
:10D05800E37040F0010070474FEA410C7FEA6C5CD6
:10D0680002D150EA013C07D14FEA430C7FEA6C5CDD
:10D07800D6D152EA033CD3D05DF8040B704700BF09
:10D088008446104662468C461946634600E000BF57
:10D0980001B5FFF7B7FF002848BF10F1000F01BD29
:10D0A8004DF808EDFFF7F4FF0CBF012000205DF8F4
:10D0B80008FB00BF4DF808EDFFF7EAFF34BF012079
:10D0C80000205DF808FB00BF4DF808EDFFF7E0FF12
:10D0D80094BF012000205DF808FB00BF4DF808ED63
:10D0E800FFF7CEFF94BF012000205DF808FB00BFCA
:10D0F8004DF808EDFFF7C4FF34BF012000205DF8AC
:10D1080008FB00BF844641EA000313F0030349D13A
:10D11800403A23D30B6803604B6843608B68836095
:10D12800CB68C3600B6903614B6943618B69836199
:10D13800CB69C3610B6A03624B6A43628B6A836281
:10D14800CB6AC3620B6B03634B6B43638B6B836369
:10D15800CB6BC36340304031403ADBD230320BD323
:10D168000B6803604B6843608B688360CB68C3605F
:10D1780010301031103AF3D20C3205D351F8043B79
:10D1880040F8043B043AF9D2043208D0D2071CBF55
:10D1980011F8013B00F8013B01D30B88038060467E
:10D1A800704700BF082A13D38B07B1D010F00303D0
:10D1B800AED0C3F10403D21ADB071CBF11F8013B40
:10D1C80000F8013BA4D331F8023B20F8023B9FE76B
:10D1D800043AD9D3013A11F8013B00F8013BF9D2DE
:10D1E8000B7803704B7843708B7883706046704778
:10D1F8004FEA410C7FEA6C5C02D150EA013C0AD14B
:10D208004FEA430C7FEA6C5C02D152EA033C02D13C
:10D218004FF0000070474FF0010070474FEA41029D
:10D2280012F5001215D211D56FF47873B3EB625270
:10D2380012D94FEAC12343F0004343EA505311F097
:10D24800004F23FA02F018BF404270474FF0000029
:10D25800704750EA013005D111F0004008BF6FF067
:10D26800004070474FF00000704700BF2DE9F047BD
:10D2780086468C460846089E154674461946002B75
:10D2880040F0C1808542B2FA82F245D94AB1C2F172
:10D29800200300FA02FC954094402EFA03F343EA77
:10D2A8000C0C4FEA154EA8B2230CBCFBFEF80EFB83
:10D2B80018CC08FB00F943EA0C43994528D9EB1828
:10D2C80008F1FF3704D2994502D9A8F102072B4487
:10D2D800A3EB0903A4B2B3FBFEFC0EFB1C330CFB4F
:10D2E80000F044EA0344A04214D92C190CF1FF338E
:10D2F80004D2A04202D9ACF102032C44241A43EA16
:10D3080007401EB1D440002334607360BDE8F08745
:10D318004746DDE76346F1E792BB431B01214FEA2D
:10D32800154EAFB2200CB3FBFEFC0EFB1C330CFBFE
:10D3380007F840EA0343984561D9EB180CF1FF3030
:10D3480004D2984502D9ACF102002B44A3EB0803A0
:10D35800A4B2B3FBFEFC0EFB1C330CFB07F744EA3C
:10D368000344A7424DD92C190CF1FF3304D2A7422C
:10D3780002D9ACF102032C44E41B43EA0040C0E7A5
:10D38800C2F120039540944020FA03F12EFA03F3EA
:10D398004FEA154E9040AFB20343B1FBFEFC0EFBC3
:10D3A8001C10190C0CFB07F841EA0041884522D9EA
:10D3B80069180CF1FF3004D2884502D9ACF102009B
:10D3C8002944A1EB08019BB2B1FBFEFC0EFB1C112A
:10D3D8000CFB07F743EA01439F420ED9EB180CF107
:10D3E800FF3104D29F4202D9ACF102012B44DB1B6E
:10D3F80041EA004193E76046E3E76146F7E76046A4
:10D40800A4E76346B8E7834206D916B9002108465F
:10D418007CE7C6E900E0F9E7B3FA83F78FB98342FE
:10D4280001D3724508D8BEEB020460EB0303012068
:10D438009C461EB9002169E73846FAE7C6E9004C60
:10D44800F8E7C7F1200CBB400EFA07F522FA0CF4F6
:10D458002EFA0CF1BA401C4320FA0CF3B8404FEAFC
:10D46800144901431FFA84FEB3FBF9F809FB18308D
:10D478000B0C08FB0EFA43EA00439A4540D9E3181F
:10D4880008F1FF3004D29A4502D9A8F102002344DA
:10D49800A3EB0A0389B2B3FBF9F809FB183308FBBD
:10D4A8000EFE41EA03418E452CD9611808F1FF337D
:10D4B80004D28E4502D9A8F10203214443EA004070
:10D4C800A1EB0E01A0FB02984145CE46434602D38C
:10D4D80006D14D4504D20138B9EB020E68EB0403BE
:10D4E800002EA7D0B5EB0E0261EB030101FA0CFC8C
:10D4F80022FA07F3F9404CEA0303C6E9003199E739
:10D508004046C5E74346D9E7022A70B504460D46AA
:10D51800184611D8DAB1022D19886DD8B1F5006F07
:10D528006AD2022A4FF0020314BF23222022606825
:10D53800BDE8704014F062B9052A04D003291CD94B
:10D548006FF085005AE0022325220188EFE70329BE
:10D55800F6D84FF47A711D885B6893FBF1F39BB2A0
:10D5680055EA0301ECD02849088885423AD220467A
:10D57800BDE87040D1B214F06CB9072AE0D15B68FD
:10D5880005682248D917C5FB0031012B71F100024B
:10D598001CDB00F56E1000F65D70181841F10001F3
:10D5A80017A3D3E90023FFF7BBFC80B2022815D9E3
:10D5B800042815D90828C3D80222154B2046BDE8EF
:10D5C800704003EB8203997814F024B911481818B5
:10D5D80061F100010AA3D3E90023E4E70022ECE7A4
:10D5E8000122EAE702D148889842C0D20132062ACD
:10D5F80001F10401B8D1A3E76FF0150070BD00BFB9
:10D608003AA39500000000000C38030040420F00C8
:10D6180000380300632EB5FF2DE9F04F016C9BB075
:10D6280016461F46279D0490CDE9026749B1426C12
:10D638000123044693404A608B6010F0A3FB00234B
:10D648002364B7F10009C0F2B68000232B607E4B3B
:10D6580033EA090300F0BA800022DDE902341846F3
:10D6680021460023CDE90801FFF71AFD804668B17D
:10D678000123269A1360289B13B1744B289A1360D0
:10D68800DFF8CC8140461BB0BDE8F08F18AB04989A
:10D69800019319AB0093DDE9082310F0A1FE83463E
:10D6A8005FEA195540F0A980DDE91885454405F27F
:10D6B8003243202B40F34D82C3F1400309FA03F9AA
:10D6C80005F2124326FA03F349EA0300FEF782FE45
:10D6D800013D0123A1F1F871109300225D4BFEF783
:10D6E8003BFD53A3D3E90023FEF7EEFE52A3D3E993
:10D6F8000023FEF733FD06460F462846FEF77AFE5E
:10D708004FA3D3E90023FEF7DFFE02460B4630465F
:10D718003946FEF723FD06460F46FFF77FFD002238
:10D728008246002330463946FFF7C4FC002840F003
:10D738000382A8EB0508BAF1160F08F1FF33069328
:10D7480000F2A781444E06EBCA06DDE90801D6E9D6
:10D758000023FFF7AFFC002800F0848000230AF1C3
:10D76800FF3A0F9308F1FF33002BC0F29981002391
:10D778000A93BAF1000F7BDA0A9BCDF82CA0A3EB31
:10D788000A030A93CAF100034FF0000A0E93249B80
:10D79800092B77D8052B40F3E181043B002724931C
:10D7A800249B023B032B00F25986DFE813F0540454
:10D7B800510447042C04012329F000492B60224B13
:10D7C800CDF80C9033EA09037FF446AFC9F3130987
:10D7D80042F20F73269A59EA060913601DD0289B56
:10D7E800DFF87880002B3FF44DAF08F10303289A47
:10D7F800404613601BB0BDE8F08FDDE90812CDF894
:10D808004080A5F2FF35C2F313030846DDF86080B7
:10D8180043F07F5141F440115FE7289BDFF84080D7
:10D82800002B3FF42FAF08F10803E0E7AFF30080C7
:10D8380061436F63A787D23FB3C8608B288AC63F0E
:10D84800FB799F501344D33F0000F07F5936030003
:10D85800583603000000F83F602F030088360300A5
:10D868007C360300B8F1000F40F3B1840F900A90A2
:10D87800069BCDF82CA05344069300230E93249BBB
:10D88800092B87D900230127CDE924334FF0FF3333
:10D898000C970793049B00215964079B11930498E4
:10D8A80010F04AFA0590002800F0E185079B0E2B3E
:10D8B8008CBF002707F00107DDE904321A64002F46
:10D8C80000F01B810B9A002A40F34A81BC4E02F0FB
:10D8D8000F03D4054FEA221806EBC303D3E9006708
:10D8E80040F17083B74B08F00F080325D3E90823EC
:10D8F800DDE90801FEF712FFCDE91201B8F1000FCA
:10D9080012D0DFF8C09218F0010F08D0304639461F
:10D918000135D9E90023FEF7D7FD06460F465FEA31
:10D92800680809F10809EED132463B46DDE91201E3
:10D93800FEF7F4FE804689460F9B43B10022A24BB6
:10D9480040464946FFF7B6FB002840F04784284682
:10D95800FEF750FD42464B46FEF7B6FD9B4B0022B4
:10D96800FEF7FCFB079B0646A1F15077002B00F061
:10D97800AB80079B0B9C1293059B404612995D1C3C
:10D98800CDE914678E4E06EBC10353E90212CDE9C7
:10D9980016124946FFF742FC00F13007FEF72AFD50
:10D9A80002460B4640464946FFB2FEF7D5FB89467C
:10D9B8000C998046DDE91623002900F00F8100202C
:10D9C8008349FEF7ABFEDDE91423FEF7C5FB059E90
:10D9D80042464B46377006460F46FFF789FB00283C
:10D9E80040F02F850023CDF858A0CDF850B09A46C6
:10D9F800DDF848B012942BE00AF1010ADA4580F20A
:10DA0800BD84304639460022724BFEF75DFD002288
:10DA1800704B06460F4640464946FEF755FD894677
:10DA28008046FFF7FBFB0446FEF7E4FC02460B4684
:10DA3800303440464946FEF78FFB32463B4605F8F0
:10DA4800014B80468946FFF735FB002840F09C844F
:10DA580042464B4600205C49FEF77EFB32463B4679
:10DA6800FFF728FB0028C7D0DDF850B02F46129CDE
:10DA7800059902E08F4200F05F843A4617F8013DAD
:10DA8800392BF7D00133DBB23B70DDF814800592F7
:10DA98006BE101230F9308F1FF33002BBFF667AE4C
:10DAA800C8F101030A930023069362E62846FEF7AD
:10DAB800A1FC42464B46FEF707FD0022434BFEF70A
:10DAC8004DFB0646A1F15077404649460022424B9D
:10DAD800FEF742FB32463B4680468946FFF708FB85
:10DAE800002840F0AD8340464946324607F10043DE
:10DAF800FFF7E0FA002840F0D5810B9A199B0E2A0F
:10DB080002DC002B80F2AD810C9A002A00F0B5806F
:10DB1800249A012A40F38583079A0E9B551EAB422F
:10DB2800C0F2C782002AA3EB050580F25B840A9B3A
:10DB3800079AA3EB0208C9E25046FEF75BFC32469F
:10DB48003B46FFF7ADFA00287FF4F3AD0AF1FF3A40
:10DB5800EFE5C3F1200306FA03F0B7E501271FE656
:10DB680000F0A3820B9B164E5D4205F00F0306EBF7
:10DB7800C303DDE90801D3E90023FEF7A5FC2E1154
:10DB8800CDE9120100F052840E4C00230225804694
:10DB98008946F00709D5404649460135D4E90023AE
:10DBA800FEF792FC3B4680468946761004F108044D
:10DBB800EFD1002B7FF4C0AEDDE91289BCE600BFCF
:10DBC800602F0300382F03000000F03F00001C40C6
:10DBD8000000E03F0000244000001440DDE914018B
:10DBE800FEF772FC059B1F70129B012BCDE90C01FF
:10DBF80000F00984129F059BCDF840A01F44002225
:10DC0800AA4B40464946FEF75FFC89468046FFF727
:10DC180005FB8246FEF7EEFB02460B460AF1300A88
:10DC280040464946FEF798FA05F801ABAF428046F0
:10DC38008946E4D1DDF840A000229D4BDDE90C01C6
:10DC4800FEF78CFA42464B46FFF734FA002840F0BC
:10DC58007B8300209649DDE90C23FEF77DFA4246D6
:10DC68004B46FFF745FA002840F01982199B002B14
:10DC780003DB0B9B0E2B40F3F58000230E9DDDF894
:10DC880028801E460C93B8F1000F0DDD0699002977
:10DC98000B4609DD41450A9AA8BF4346D21AA8EBAC
:10DCA8000308CB1A0A9206930E9B53B10C9B13B12F
:10DCB800002D40F01E8259460E9A049810F0F2F991
:10DCC80083460121049810F00DF90746BAF1000FB8
:10DCD80040F06381249B012B40F37A81012306994C
:10DCE8000B4413F01F0308D0C3F12002042A00F3E9
:10DCF800B5810AD0C3F13C0300E01C230A9A98447A
:10DD08001A440A92069A1A4406920A9B002B05DDC9
:10DD180059461A46049810F01FFA8346069B002BB2
:10DD280005DD39461A46049810F016FA0746249B72
:10DD3800022B0F9BD4BF00250125002B40F0BE808D
:10DD4800079B002B24DC1DB3079B002B00F08F8161
:10DD5800259BDDF81480DC433946049810F012F84E
:10DD68001EB13146049810F00DF85946049810F089
:10DD780009F800220599631C0A70269A1360289BEB
:10DD8800002B3FF47FAC404619601BB0BDE8F08F14
:10DD98000C9B002B00F0AF80B8F1000F00F3C0819E
:10DDA800BAF1000F40F0D382B146059D079C6B1E67
:10DDB8001C44029B089403F00103049C0A9339460F
:10DDC80058460FF0B9F931468246584610F038FAED
:10DDD8004A4639468046204610F052FAC268014643
:10DDE8000AF13003002A40F0A281CDE90603584623
:10DDF80010F026FA0699069020460FF0C3FF249BE0
:10DE0800069A52EA0301079B40F0C2810A9A002A47
:10DE180000F0F282B8F1000FC0F2AD81089AA8466E
:10DE2800AA4208F8013B00F0D282594600230A2290
:10DE380020460FF0B1FF4E45834631464FF00003B0
:10DE48004FF00A02204600F09D810FF0A5FF4946D9
:10DE5800064600230A2220460FF09EFF45468146CB
:10DE6800ADE7144E0B9B06EBC306D6E90034CDE9AB
:10DE78000234259B002B80F2E881079B002B00F3DE
:10DE8800E481079B73B900220B4BDDE90201FEF721
:10DE98001BFB02460B46DDE90801FFF715F90028D0
:10DEA80000F0CE8100273E4652E700BF0000244024
:10DEB8000000E03F602F0300000014403946584638
:10DEC80010F0BEF90028BFF63BAF0B9B59460A225B
:10DED8000498013B0B9300230FF05EFF0C9B8346D5
:10DEE800002B40F09282119B002B119B079302DCC0
:10DEF800002D7FF429AFDDF814800125079CDDF89B
:10DF0800109007E0594600230A2248460FF044FFC4
:10DF180001358346394658460FF00EF9A54200F1FF
:10DF2800300308F8013BEDDB079A0025002ACCBF37
:10DF380090464FF00108059A9044594601220498EA
:10DF4800029310F009F93946834610F079F9002850
:10DF580040F3E481059A02E0904500F0D48118F876
:10DF6800013CC24608F1FF38392BF5D001330B9C30
:10DF780088F80030394604980FF004FF002E00F0AE
:10DF8800C8812DB1B54203D0294604980FF0FAFE96
:10DF9800DDF81480CDF814A0E3E601465246049853
:10DFA80010F080F8249B0746012B40F395804FF032
:10DFB800000A3B6907EB830318690FF03FFFC0F1C4
:10DFC80020038CE6DDE908340225CDE9123495E416
:10DFD800029B002B7FF482AEDDE90212C2F3130329
:10DFE800002B7FF47BAEAD4B134033B10A9B01335A
:10DFF8000A93069B013306930123BAF1000F40F000
:10E00800F9819A466AE601230C93259B0B9A1344DF
:10E0180011930133012B1D460793B8BF0125172D16
:10E0280040F31382012204235B001146013203F1FD
:10E038001400A842F8D9049B596430E401230C93D6
:10E04800259B002B40F3BE801D4611930793E6E7FE
:10E0580000230C93D9E700230C93F1E7C3F11C03C9
:10E068000A9A19441A4498440A9206914DE6394688
:10E07800052204980FF090FE07465846394610F0DE
:10E08800DFF800287FF764AEDDF81480059B0B9C51
:10E09800013301340593312388F800305CE63A46B1
:10E0A80017F8013D302BFAD0EFE40225DDE90889A5
:10E0B80042E40E9B0E95EB1A00259A44DDE90632E0
:10E0C800134406930A9B984613440A930121049823
:10E0D8000FF008FF0646D6E5029B002B7FF467AFDA
:10E0E800DDE90201C1F313030A46002B3FF47BAFBD
:10E0F8005DE7049C31462A4620460FF0D3FF0646CA
:10E108005A46204631460FF01BFF594683462046A3
:10E118000FF038FE0E9B5B1B0E933FF4D2ADCAE5A1
:10E1280031464246049810F017F8064638E6049837
:10E1380006930FF027FEB8F1000F069B08DB029A42
:10E14800249902F0010248EA010852EA08022ED195
:10E1580059460122049802930FF0FEFF3946834680
:10E1680010F06EF80028029B40F36581392B00F00F
:10E1780031810AF13103AA460B9C35464E460AF80E
:10E18800013BF7E60FF008FE45460646814616E6CF
:10E19800B8F1000FC0F25E81249948EA01080A9993
:10E1A80051EA080800F05681002A7FF737AE392B6C
:10E1B80000F01081AA46013335460B9C4E460AF8FA
:10E1C800013BD7E6012325930793FFF763BBC8F10B
:10E1D800010306900F900A93FFF74ABB079B002B99
:10E1E8003FF464AC119B002B7FF787AC0B9A404639
:10E1F80049461293541E2A4B0022FEF765F98046C1
:10E208008946681CFEF7F6F842464B46FEF75CF96D
:10E218000022244BFDF7A2FF0646A1F15077FFF735
:10E22800ABBB109A002A00F08B8003F23343069AA6
:10E238000E9D1A4406920A9A90461A440A9245E795
:10E248000027DDF814803E4620E7DDE90889DDE98E
:10E25800022340464946FEF761FA059FFEF7DEFFB6
:10E268000546FEF7C7F8DDE90223FEF72DF90B4650
:10E27800024649464046FDF76FFF05F1300307F8AF
:10E28800013B079B012B00F08980CDF818B00126CF
:10E29800DDF81C90DDE902AB22E000BF0000F07F52
:10E2A8000000244000001C4052465B462046294698
:10E2B800FEF734FA0136FEF7B1FF8046FEF79AF80A
:10E2C80052465B46FEF700F90B46024629462046B1
:10E2D800FDF742FF08F13003B14507F8013B5AD07A
:10E2E8000022704BFEF7F0F80022002304460D468A
:10E2F800FEF7D6FE0028D7D0DDF818B0DDF8148078
:10E308000B9C059731E50B9C3123059A013413705A
:10E3180030E6DDF81480CDF814A026E503D1029B81
:10E32800DB073FF517AE18F8013CC24608F1FF3885
:10E33800302BF8D00B9C1DE601343123FFF7A4BB2A
:10E34800189BC3F1360372E70599FFF796BB71680E
:10E3580004980FF0F1FC0546002800F08F8033691F
:10E3680006F10C010C3002339A00FEF7CBFE294669
:10E37800012204980FF0F0FE814616E5DDF858A05A
:10E38800DDF850B0FFF7B9BBDDF81480DDF850B008
:10E39800129C0595E9E4DDF818B0454602460B469F
:10E3A800FDF7DCFE80468946DDE90223FEF7A0FE84
:10E3B80048B940464946DDE90223FEF771FE0028C8
:10E3C8009CD0E9079AD50B9C0599FFF756BB3546B3
:10E3D8004E46B2E5A84639233546059A4E4608F812
:10E3E800013BBCE5069B134406930A9B98461344DD
:10E3F8000A936BE69A46DCE5392BEBD0B8F1000FAF
:10E408003FF7B7AEB7E62F4616E4314600230A2297
:10E4180004980FF0C1FC119B0646002B119B079333
:10E428003FF7BAAC002D7FF48FACB5E4DDE9128973
:10E438000225FFF781BA7FF49EAEDA077FF59BAE1F
:10E4480094E6DDF8148005958FE40021049B596457
:10E45800FFF725BA002A3FF77BAE8CE6049B002520
:10E46800184629465D640FF067FC059068B90E4BA5
:10E4780000224FF4D5710D4811F0BCF902460A4B41
:10E4880040F2EA21094811F0B5F9DDE90432259591
:10E498001A644FF0FF33012211930C920793FFF790
:10E4A8002CBB00BF000024408C360300A0360300BC
:10E4B80001480BF031BD00BF30B600202DE9F04314
:10E4C800634891B00DF012F800214FF4A0200CF031
:10E4D800D1F9012200215F4813F07EFF5E4D5F48AD
:10E4E800286013F08CFE38B95D4A01215D4811B0EF
:10E4F800BDE8F04312F0A7BC5B4B28680A93836819
:10E508009B689BB1594A0AA99847044688B10121DA
:10E518002346574A534812F09FFC01212346554A87
:10E52800504811B0BDE8F04312F096BC6FF05704A4
:10E53800EDE7296850480A680CF084FF4F4E5048B0
:10E54800306013F05CFE08B94E4ACEE731684A489D
:10E558000A680CF077FF306800F0CAF9012000F073
:10E5680089FA49480CF0C2FF4FF4C03000210CF082
:10E5780081F9464C374F3A21306800F02BFB306860
:10E588000AA900F041FB58B19DF82830B02B07D1FB
:10E598000C9B23600D9B63600E9BA3600F9BE36045
:10E5A8004FF0FF324FF0FF3338460BF0D9FC2868A4
:10E5B80083683A21DB689847034600282BD001215D
:10E5C800334A284812F048FC2068FDF725FFE36924
:10E5D80080460993A3698946089363690793236969
:10E5E8000693E068FDF718FFCDE90401A068FDF780
:10E5F80013FFCDE902016068FDF70EFF4246CDE941
:10E6080000014B4623480CF01DFF00214FF4203039
:10E618000CF030F9AFE7132128680AAA11F0D7F9EE
:10E628000A9B142128680AAA236111F0D0F90A9BD1
:10E63800152128680AAA636111F0C9F90A9B1221F9
:10E6480028680AAAA36111F0C2F90A9BE361BBE733
:10E658002438030030B6002028B60020602B0300C1
:10E668003F380300302E030001003A00B9E40100EE
:10E678005738030071380300913803002CB6002086
:10E68800242B0300AE380300C638030008B6002068
:10E69800E03803000039030038B52A4B14461B78CC
:10E6A800002B4DD010293BD006D80D290DD00E29AE
:10E6B80023D06FF0150038BD1D29FAD1224B5869B7
:10E6C800FEF7E8FB2060002014E01F4D1F49A868F2
:10E6D800FEF7CEFAFEF7DEFB642320605843FEF710
:10E6E800BFF90146A868FEF705F91949FEF70CFAC3
:10E6F800FEF7D0FB60600020DDE7134D1549E868A0
:10E70800FEF7B6FAFEF7C6FB4FF47A73206058435B
:10E71800FEF7A6F90146E868FEF7ECF80D49E5E7CB
:10E72800094D0C492869FEF7A3FAFEF7B3FB4FF42D
:10E738007A7320605843FEF793F901462869EBE79E
:10E748007720B8E7D6C7002058B600200000C84296
:10E7580000401C4600007A4430B5044689B05B6826
:10E768008DF807400DF10704186800259B8802946E
:10E77800CDE905120124072203948DF810508DF875
:10E788001C20826802A995680222A84718B103488C
:10E798000CF0ACFE204609B030BD00BF8039030044
:10E7A80038B500214FF40045054C0023E0FB054136
:10E7B800044A2046FEF704FCBDE838400CF05AB87D
:10E7C8003F420F0040420F00F8B5092A04460D46A3
:10E7D80016465F680DD813460A460146384611F0BA
:10E7E800F9F808B90020F8BD09480CF07FFE0120AF
:10E7F800F9E70A460A230146384611F0EBF80028E3
:10E80800F2D10A34A6F10A0305F10A02E1B2E5E7FA
:10E81800983903004B1D0A46072B23D8DFE803F07D
:10E82800190F140A0425221E4FF0FF3201460F4823
:10E838000CF008BE01466FF001020D48F8E70146EA
:10E848006FF003020B48F3E701466FF002020A4833
:10E85800EEE701466FF004020848E9E701460222A4
:10E868000748E5E701460748E2E77047B339030080
:10E87800DE390300123A03004B3A03007A3A0300E8
:10E88800A83A0300DA3A030038B50124124B1348BA
:10E898001C700023C370082303710523037002232F
:10E8A8000F4D43702946847000F0B0FC01460D48B6
:10E8B800FFF7B0FF4FF496730B492A464B80642349
:10E8C80020460C708B8000F085FFBDE8384001467B
:10E8D8000648FFF79FBF00BF85AB0020D7C70020C1
:10E8E8005CB700202E3B030048B700203E3B0300E6
:10E8F8000C4B0D4A10B51A640C4A58605A64012230
:10E908001A730B4A18469A6419229A7311F091F9EE
:10E91800044601460748FFF77DFFFFF7B5FF20468D
:10E9280010BD00BF5CB7002061E70100D1E701001E
:10E93800A9E70100543B03002DE9F0410226204BD2
:10E94800204C1E700023E37008234FF00108237148
:10E9580005231D4F20463946A37084F80080667051
:10E9680000F054FC01461948FFF754FF184D194BA5
:10E978003A46AB60184B21463046EB6085F800807C
:10E9880000F0E0FC4FF47A73B0FBF3F0134BC0F1E6
:10E998008C001B783A462946688230462B7400F072
:10E9A80019FF01460E48FFF735FF3946304611F08A
:10E9B800DBF9BDE8F04101460A48FFF72BBF00BF6D
:10E9C80085AB0020D7C700205CB700202E3B030092
:10E9D80048B7002070AB00205CAB002084AB00205F
:10E9E8003E3B03000B3B030070B50324174B18484C
:10E9F8001C700023C37008230371052301260370CC
:10EA08000223144D43702946867000F0FFFB01462F
:10EA18001148FFF7FFFE1149114B2A468B60114B35
:10EA28002046CB60104B0E701B780B7400F0D2FEA2
:10EA380001460E48FFF7EEFE2946204611F094F9EC
:10EA4800BDE8704001460A48FFF7E4BE85AB0020E8
:10EA5800D7C700205CB700202E3B030048B7002032
:10EA680070AB002048AB002084AB00203E3B030085
:10EA78000B3B030008B50F4B1870032819D8DFE8C3
:10EA880000F0020C10140C49002011F06DF9BDE8DB
:10EA9800084001460948FFF7BDBEBDE80840FFF73A
:10EAA800F3BEBDE80840FFF747BFBDE80840FFF7E1
:10EAB8009BBF08BD85AB00205CB700200B3B030063
:10EAC80038B50E4A0E49012000F03CFC00254FF4F1
:10EAD8007A720C4B0C499B888C4602FB030429462E
:10EAE8004FF40040E4FB00C100236046074AFEF7EC
:10EAF80067FA0BF0BFFE284638BD00BF5CB70020A0
:10EB0800D7C7002048B700203F420F0040420F00FF
:10EB180038B50E4A0E49022000F014FC00254FF4C7
:10EB28007A720C4B0C495B8A8C4602FB030429461B
:10EB38004FF40040E4FB00C100236046074AFEF79B
:10EB48003FFA0BF097FE284638BD00BF5CB700209F
:10EB5800D7C7002048B700203F420F0040420F00AF
:10EB680038B50E4A0E49032000F0ECFB00254FF49F
:10EB78007A720C4B0C49DB688C461B88294602FBD1
:10EB880003044FF40040E4FB00C100236046074A39
:10EB9800FEF716FA0BF06EFE284638BD5CB700206B
:10EBA800D7C7002048B700203F420F0040420F005F
:10EBB800074B1B78022B05D0032B05D0012B05D161
:10EBC800FFF77EBFFFF7A4BFFFF7CABF704700BFBC
:10EBD80085AB002010B5094B187801280BD10849DE
:10EBE80011F0C2F8044601460648FFF713FEFFF786
:10EBF800DFFF204610BD0024F9E700BF85AB0020E9
:10EC08005CB700200B3B03002DE9F0411D4C0E467C
:10EC18002078022803D0032801D0012808D11A49F6
:10EC28001A4B1B4A00F0D0FB01461A48FFF7F2FDC9
:10EC3800174B93F800C02378012B1CD1BCF1010FAE
:10EC480007D13446104D0FCD0FC495E8030084E872
:10EC580003006046BDE8F0810EFB07F43519444413
:10EC68000FCC0FC594E8030085E803000137FBB219
:10EC78006345F1D3EDE700274FF0180EDFF8088061
:10EC8800F5E700BF85AB002058B600205CB7002030
:10EC9800D6C70020603B0300F8B50C46FDF7DCFE44
:10ECA8000646E08BFDF7D8FE4FF05C51054630462E
:10ECB800FDF72AFF4FF0645107462846FDF724FF69
:10ECC80001463846FDF716FE4FF0625107463046BA
:10ECD800FDF71AFF4FF06A5106462846FDF714FF64
:10ECE80001463046FDF706FE0546B4F92000FDF75B
:10ECF800B7FE01462846FDF707FF054694F92200AE
:10ED0800FDF7AEFE4FF08341FDF7FEFE394606469D
:10ED18003846FDF7F9FE01463046FDF7F5FE014697
:10ED28002846FDF7E9FD0249A063FDF7A1FFF8BDFC
:10ED38000000A0452DE9F0410C4680464FF07C517B
:10ED4800A06BFDF7E1FE6949FDF7D4FD054694F98E
:10ED58002800FDF785FE2946FDF7D6FE2946FDF772
:10ED6800D3FE4FF06251FDF7CFFE0646B4F92600F8
:10ED7800FDF776FE2946FDF7C7FE01463046FDF74A
:10ED8800BBFD4FF05851FDF7BFFE4FF06051FDF746
:10ED9800BBFE4FF07E51FDF7AFFD0646A08CFDF798
:10EDA8005BFE3146FDF7B0FE0646FEF773F8002815
:10EDB80000F0998094F92E00FDF752FE4FF05C5157
:10EDC800FDF7A2FE294607462846FDF79DFE0146A7
:10EDD8003846FDF799FE0746B4F92C00FDF740FECA
:10EDE8002946FDF791FE0146FDF786FD3946FDF7F8
:10EDF80083FD4FF07A51FDF787FE07464046FDF741
:10EE08002BFE01464FF09340FDF774FD0546B4F91B
:10EE18002A00FDF725FE4FF08F41FDF775FE3946B4
:10EE2800FDF76AFD4FF06651FDF76EFE0146284674
:10EE3800FDF760FD2E49FDF767FE3146FDF718FF27
:10EE48004FF06E510546FDF75FFE0646B4F93200F5
:10EE5800FDF706FE2946FDF757FE2946FDF754FE45
:10EE68004FF04051FDF750FE0746B4F93000FDF76A
:10EE7800F7FD4FF06051FDF747FE2946FDF744FEC8
:10EE880001463846FDF738FD074694F83400FDF78B
:10EE9800E7FD4FF05C51FDF737FE314680463046BE
:10EEA800FDF732FE3146FDF72FFE01464046FDF7DD
:10EEB8002BFE01463846FDF71FFD064694F92F0044
:10EEC800FDF7CEFD4FF08641FDF71EFE01463046A8
:10EED800FDF712FD4FF07651FDF716FE2946FDF7B6
:10EEE8000BFDBDE8F0810020FBE700BF00007A477A
:10EEF8000050C3452DE9F0410C4607464349A06B35
:10EF0800FDF7B6FE054694F91500FDF7A9FD4FF08B
:10EF18006251FDF7F9FD2946FDF7F6FD4FF07E51E8
:10EF2800FDF7EAFC064694F91600FDF799FD4FF047
:10EF38005651FDF7E9FD2946FDF7E6FD2946FDF79F
:10EF4800E3FD01463046FDF7D7FC0646608AFDF72B
:10EF580083FD4FF05A51FDF7D7FD01463046FDF7C6
:10EF6800D3FD06463846FDF777FD074694F91400A9
:10EF7800FDF776FD4FF07C51FDF7C6FD2946FDF7FC
:10EF8800C3FD8046208AFDF767FD4FF08341FDF7FA
:10EF9800BBFD01464046FDF7AFFC01463846FDF78C
:10EFA800A9FC01463046FDF7AFFD064694F9180066
:10EFB800FDF756FD4FF05451FDF7A6FD2946FDF724
:10EFC800A3FD0546E07DFDF747FD4FF06251FDF7D3
:10EFD8009BFD01462846FDF78FFC3146FDF794FD61
:10EFE8003146FDF791FD3146FDF786FC0849044698
:10EFF800FDF746FF30B900212046FDF723FF10B189
:10F00800002400E0024C2046BDE8F0810000A04545
:10F018000000C84270B50646B1F91A000C46FDF763
:10F028001FFD4FF06051FDF76FFD3749FDF76CFD8F
:10F038003649FDF761FCB6F5C87F0546304628BF5E
:10F048004FF4C870FDF708FD01462846FDF75CFD42
:10F058004FF07E51FDF750FC054694F91900FDF775
:10F06800FFFC4FF07651FDF74FFD2949FDF744FCB1
:10F0780001462846FDF748FD054694F91C00FDF7B2
:10F08800EFFC4FF06A51FDF73FFD064694F90E007C
:10F09800FDF7E6FC01463046FDF736FD01462846F9
:10F0A800FDF72AFC054694F83C00FDF7D5FC4FF027
:10F0B8008141FDF721FC01464FF08140FDF7D8FD65
:10F0C80001462846FDF720FD054694F93D00FDF769
:10F0D800C7FC1049FDF718FD4FF07E51FDF70CFCF9
:10F0E80001464FF07E50FDF7C3FD01462846FDF767
:10F0F8000BFD0949FDF7FEFB0849FDF705FDFDF786
:10F10800EFFEC0B270BD00BF6F12033A75021A3B22
:10F11800000044426F12033B0000C8419A995940CD
:10F128002DE9F041344CA0B06D46264684460F4682
:10F1380090460FCE0FC50FCE0FC50FCE0FC596E860
:10F148000F00403485E80F000FCC10AD0FC50FCC71
:10F158000FC50FCC0FC594E80F0085E80F00604677
:10F16800FDF77AFC4FF08841FDF7C4FB04464046A2
:10F17800FDF776FC2149FDF7C7FC2149FDF7BCFBEB
:10F1880020AB03EB870605461E4956F8800CFDF7B1
:10F198006FFD4FF07E51FDF7AFFB01462846FDF7A6
:10F1A800B3FC01462046FDF763FD4FF07E51FDF7A5
:10F1B800A3FB1449044656F8400CFDF759FD4FF0DF
:10F1C8007E51FDF799FB1049FDF79EFC054601208D
:10F1D800B840FDF741FC01462846FDF795FC01467D
:10F1E8002046FDF791FC01464FF07E50FDF740FDAB
:10F1F80020B0BDE8F08100BF902E03000000A040C1
:10F208000080A7440000C842BD370634F0B54C4B17
:10F21800064618681B7987B08DF80C3000230290D9
:10F228000DF107000D4604938DF8143010F0D9FD48
:10F23800044628B10EB94FF0FF34204607B0F0BDA0
:10F24800294610F091FD07460446002EF3D0002809
:10F25800F3D12B460522712004A910F092FC85F801
:10F268004D7004460028E8D12A460721F01C10F00A
:10F27800DAFB04460028E0D10521701C10F0D3FB0E
:10F2880004460028D9D1B01C10F0CDFB0446002854
:10F29800D3D1304610F0C7FB04460028CDD1082151
:10F2A800301D10F0C0FB04460028C6D1F3789DF845
:10F2B80014209B0003F01C0322F01C021A439DF843
:10F2C8001330717803F01F0343EA4113B17823F038
:10F2D8001C03890001F01C010B438DF813303178B1
:10F2E8009DF8113001F0070123F007030B43317932
:10F2F8008DF8113008290ABF00210020012002F0F2
:10F308001F0343EA41138DF814309DF8103005228D
:10F3180003F07F0343EAC0138DF8103004A92B468D
:10F3280002A810F0E4FB04469DF80700002884D0EA
:10F33800002C82D1294610F017FD04467DE700BF56
:10F348007A3B030037B51F4B0546D3F88000B3F866
:10F3580084300C460090ADF8043011B9002003B099
:10F3680030BD0521601C10F05EFB0028F6D1A01C02
:10F3780010F059FB0028F1D1204610F054FB00286A
:10F38800ECD16378022D03F108036B4413F8082CC1
:10F39800A37803F108036B4413F8083C134422785C
:10F3A80002F108026A4412F8080C184440F2AB73E0
:10F3B80003FB00F00BBF00F5865000F5A550401880
:10F3C8000D30CCE7902E03002DE9F04FB5B01C4668
:10F3D80022AB009207460D461846482200210BF042
:10F3E800D1FF28AB0A900B9320462EAB0C9310F05C
:10F3F8000CFB064628B14FF0FF36304635B0BDE865
:10F40800F08F002DF7D0012F40F0D18001461590E4
:10F418000D2216A80BF0B6FF4FF00508234611225F
:10F428001D2015A910F0ADFB9DF855209DF854C07E
:10F43800AA709DF856200CF0800301929DF8572081
:10F448000CF00F0C02929DF858202B7003929DF837
:10F45800592085F801C004929DF85A209DF862B0A1
:10F4680005929DF85C209DF8649006929DF85D20B9
:10F478009DF85BA007929DF8612008929DF8632093
:10F488000992A268012A0CBF09F030020BF0300281
:10F4980013432B701B067BD5002840F0968123462A
:10F4A8000122E91C0CF15A0010F06BFB002840F017
:10F4B8008C816878234650300122291DC0B210F093
:10F4C80060FB002840F0818168782346643001227F
:10F4D800691DC0B210F055FB002840F07681059BED
:10F4E8004FEA1A1040EA0310049B214640EA033011
:10F4F800FFF7D2FB039BA8601809029B214640EA4C
:10F508000310019B40EA0330FFF714FCDDE90623F2
:10F51800E860214643EA0220FFF7ECFC2861A36873
:10F52800012B29D1099B4FEA991040EA8300A0F5E5
:10F53800007000EB40044FF4802009F00F0920FA16
:10F5480009F0FDF789FAA249FDF7DEFA804604F5CD
:10F558008050FDF785FA01464046FDF789FB686152
:10F5680095F90030002B01DB00270226009B002BB9
:10F578003FF441AF1F7040E7089B4FEA9B1094F996
:10F588003E200BF00F0140EA8300FFF7C9FDE6E7D4
:10F59800002840F01A8142F21070A36C616808F1EB
:10F5A800FF38984718F0FF087FF438AFD8E7023FD4
:10F5B800012F00F2078101462F22159016A80BF0A3
:10F5C800E1FE1A2231460EA80D960BF0DBFE23460B
:10F5D80033221D2015A910F0D4FA0028C4D12346DF
:10F5E8001E2250200DA910F0CCFA0028BCD10DF134
:10F5F8002809CB46804615AE5BF8047B7378B27851
:10F60800BB70F378B0791B0143EA02333279000109
:10F6180043EA121301937379327A40EA0330F3799B
:10F62800317840EA1310737A96F810A043EA02235F
:10F63800F27B0293737B0492A2680393B37B012A43
:10F6480001F0800C01F00F0118BF03F0300ECDE976
:10F65800053208BF0AF0300E01F1D0034CEA0E0C57
:10F6680079700DEB030187F800C011F89CCC87F87E
:10F6780004C011F892CC11F8881C87F803C079717E
:10F688002146FFF709FB2146B8600198FFF752FBB6
:10F698002146F8600298FFF72DFC069A059B012A7F
:10F6A80038615ED1049A4FEA9A1343EA8203A3F5BC
:10F6B800007303EB430301934FF480230AF00F0018
:10F6C80023FA00F0FDF7C8F94149FDF71DFA019B3F
:10F6D800824603F58050FDF7C3F901465046FDF711
:10F6E800C7FA08F10108B8F1030F786106F11106AD
:10F6F80082D100274A463B4652F8041B013391F950
:10F708000010DBB20029BCBF0137FFB2032BF3D1D5
:10F718004A460023164603F1010C04321146E64618
:10F72800306851F8044B90F900B090F802A0BBF192
:10F73800000FA37894F9008021DAB8F1000F21DADC
:10F74800A3EB0A039BB203F102081FFA88F8B8F189
:10F75800010F02D91BB2022B14DD346041F8040CEE
:10F7680010E0980903F00F01039B94F93E2040EA4A
:10F778008300FFF7D5FCB4E74FF0020ED0E7B8F1ED
:10F78800000FEADBBEF1010FF6D0BCF1020F4FF01B
:10F798000103BFD14FF0000C4FF0180E0EFB0C54B4
:10F7A80059F8046B0CF1010C0FCE0FC496E8030056
:10F7B800BCF1030F84E80300F0D1B7FA87F67609A5
:10F7C8007600D3E607460126D0E606460027CDE6B2
:10F7D8000024744947F270132DE9F04F93B007469F
:10F7E80090460E46ADF8143029B94FF0FF34204644
:10F7F80013B0BDE8F08F1146002010F0B5FA0446AA
:10F808000028F4D16E238A4A8DF81330D2F8860086
:10F81800D2F88A1006AB03C3B2F88E20022F1A80E2
:10F8280009AB03C31A800CAB03C31A800FAB03C325
:10F838000DF1180A1A800DF1240B00F09A80032F9D
:10F8480061D0012F01D00124D1E75A2341467088A5
:10F858008DF81830FFF7DEFB64238DF83030B3885D
:10F868008DF82400B3F57C6F4BD23F2B04F10102D5
:10F8780044D803EB8413DBB200258DF83C304346B3
:10F888003A465946504610F032F904460028AED19F
:10F8980043463A460FA90CA810F029F90446002857
:10F8A800A5D14346022270200FA910F06AF9044638
:10F8B80000289CD13378012B40F0B680D8F8082076
:10F8C800012A08BF02239DF83C200FA922F0080254
:10F8D80042EAC4049DF83D2005A822F00F02154312
:10F8E80025F0300545EA0315022243468DF83C40D1
:10F8F8008DF83D5010F0FBF8044678E714469B0855
:10F90800B3E7FF23B8E7F568002D3FF46EAFD6F8EC
:10F918000890B9F1000F3FF468AF377CE3B29F421B
:10F9280001D83D46ABE703F15A02414639F81400C5
:10F9380001930AF80420FFF76DFB019B0CAA6433BE
:10F94800135535F814300BF80400B3F57C6F0ED25C
:10F9580000223F2B02F1010106D803EB8213DBB230
:10F968000FAA13550134D9E70A469B08F1E7FF238C
:10F97800F6E7F268002A3FF438AFB3680193002B2A
:10F988003FF433AF758A4FF00009002D08BF0324F8
:10F99800377C5FFA89F39F4218D840F282739D4200
:10F9A80033D84FF47A735D4340F2DD13B5FBF3F5BA
:10F9B8000023ADB23F2D03F1010223D805EB8315D7
:10F9C800EDB28DF8125014B3032410E703F15A0175
:10F9D8000293019B0AF8091033F819004146039273
:10F9E800FFF718FB029B0CAA643302F80930039A4C
:10F9F8000FA932F819300BF8090001F8093009F19C
:10FA08000109C6E71346AD08D4E7FF25D9E7434601
:10FA180001220DF112010DF1130010F068F80446EF
:10FA280000287FF4E4AE7CE7034601244BE700BFDF
:10FA3800902E030038B5044C044DAC4200D338BDB9
:10FA480054F8043B9847F8E7A82D0300A82D0300B5
:10FA580038B5054C256804EB850405B938BD54F85C
:10FA68000439013D9847F8E79C2D03002DE9F04F34
:10FA780091B0009302F004030293C2F3C20301336E
:10FA8800840705460E46DDF868900392059340F01A
:10FA9800BB81041D30B1072909D86FF01B0011B0D4
:10FAA800BDE8F08F01F00706341DC6F10806009B7B
:10FAB8004FF000084FF0040A591E4FF0FF33474635
:10FAC8000193C3465346CDF810800DB1009A2260C9
:10FAD8000598002800F3E8809848009A824203D3EA
:10FAE80097488242C0F0E080039AA4EB050E920783
:10FAF8004FEA9E0000F103810F2F00F2B180002D24
:10FB080000F0058107F140020DEB020C019A0CF898
:10FB1800200C0CF8102C049801300490E7E07A28A7
:10FB28005DD84B280ED8472859D829282DD82528FC
:10FB380052D054D820287AD02338D0F1000B4BEB80
:10FB4800000B74E04C382E2849D8DFE800F07048E4
:10FB5800484848484848484848484B48484848481A
:10FB680048484859484B4B595959704B6D4870484B
:10FB7800184B184848827F4B48484B487F00002064
:10FB88004FF0000B4FF0040A38E001222A38C0B2C7
:10FB980002FA00F010EA0E0F49D110F0625C2FD182
:10FBA80010EA020B43D06046013C5444B4FBFAF41B
:10FBB8000AFB04F4002D61D0A3EB050CA4446645B0
:10FBC800FFF46BAF002868D1042B47D159F8043BE8
:10FBD8002360042304342AE0019A013A01924FF089
:10FBE800000B24E011F8010C6C2834D1002011F826
:10FBF800023C83466C2BC5D14FF0080A5346D3E725
:10FC080009F1070929F00709073424F00704F9E87E
:10FC180002AB35B106982044B0423FF63EAFC4E986
:10FC280000AB4FF0000B08344FF0080A534611F8A8
:10FC3800010F002878D0BBF1000F7FF470AF2528A2
:10FC4800F5D14FF0010B019B013301934FF0040AEA
:10FC5800ECE7584694E700208346A5E7082B02D036
:10FC68006FF015001BE709F1070929F00709F9E802
:10FC78000223C4E9002308230834D8E768B9042B11
:10FC880002D109F10409A4E7082BE9D109F1070910
:10FC980029F0070909F10809EDE7059A013A0592E3
:10FCA80059F8042B009210E7039A900720D54FF0DB
:10FCB800010CA4EB050E4FEA9E00BEF5007FCFD2E3
:10FCC8000F2FCDD8F5B107F140020DEB020E019AC6
:10FCD800C0B20EF8200C0EF8102CBCF1000F3FF447
:10FCE8001AAF60F07F000EF8200C08F10108013708
:10FCF800C5F108024FF6DA7E0434069297E74FF012
:10FD0800000CDAE7BCF1000F01D00136EFE70298EA
:10FD180002360028EBD10098CDE906310BF000FC43
:10FD2800DDE906310644E2E7631BB3F5806F97D23D
:10FD380045B9A6F10804E018B1E600BF6C29030034
:10FD4800B8540300029A9B0828602B709DF8103065
:10FD5800C2B1EB7085F80280B8F1000F05D000221F
:10FD680008A8C5F1010C97420ED14FF0000AC5F161
:10FD780001030DF1200901930DF1300B574512D104
:10FD8800601B8CE66B70E5E710F8013B190608D597
:10FD980004EB0C0E764503F07F03FFF47EAE04F807
:10FDA800013B0132DFE7B8F1000F03D099F90020D9
:10FDB800002A17DB029BD3B11AF80B2004F8012B99
:10FDC8000022019B981820448642FFF466AE99F8F9
:10FDD8000000009904F8010B20460392FDF792F900
:10FDE800039A14440AF1010A09F10109C6E799F8CE
:10FDF800002055F822300093029B009845F82230E5
:10FE08000BF08EFB421CDCE76FF00D0047E600BFED
:10FE18002DE9F04F95B000AFBB61BB6F0446C3F34B
:10FE2800C0038A4690F802B07A623B6141B94578CE
:10FE380000780BEB80002044554517D8A0EB040A46
:10FE4800E3787B61BBF1000F02D0BB6FD80716D4F3
:10FE58007B6953BB7B6A1BB151462046BA699847F8
:10FE6800554628465437BD46BDE8F08F461C3046F7
:10FE78000BF056FB013030440AF1010ADCE7237825
:10FE880062683B629B00FB603B6AFA6104EB830992
:10FE98007B6A002B40F0FF80C8460026554609EBD8
:10FEA8000B0AD04551D1D94413E0BB6F9907D1D57E
:10FEB800237899463B629B00FB60636804EB8909E1
:10FEC800FB617B6A002B7AD15546BBF1000F4FD1FD
:10FED8005E46BB6F13F0050F0CBF4FF0020B4FF0DF
:10FEE800010B7B6909EB430ABB6F03F002037B62DA
:10FEF800D145B6D019F8021B19F8013C54F82380F3
:10FF0800AB4B984502D3AB4B984538D33B69002B94
:10FF180042D0F8690FF0B1FF00283DD0E8468AB01A
:10FF28006A46A54B5361FB69C2E906314FF4007379
:10FF38001384A24B42F8103F00234FF41251A048FB
:10FF480001F000F9023DC546D2E718F8013B54F824
:10FF580023000BF0E5FAFB6F01303BB1D7F8803096
:10FF68009E423EBFFB6F23F816000136054498E712
:10FF7800BB6F13F004061CBF7E6AD944A9E73B692E
:10FF880023B1F8690FF079FF0028C7D1BB6FDA07F2
:10FF980005D4A5EB0B05ABE77B6A002BA8D0404640
:10FFA8000BF0BEFAFB6F43B1D7F880309E423FBFDB
:10FFB800FA6F431C22F816300136054498E7BBF166
:10FFC800000F6ED0BB6F13F004066DD0D846002624
:10FFD80007F140005A464946FDF794F87B69D94431
:10FFE8005B007B607B6909EB4303BB60BB6F03F07D
:08FFF80002033B60BB684B45AE
:020000022000DC
:1000000058D1B96F6378B86F890748BF002106EBF4
:10001000030258BF4FEA5801C507D2B200F19A80D7
:1000200010F0040F14BF40460020FB616270A07006
:10003000E1702046BA69F9687B6A9847051EFFF6A9
:1000400014AF3B6A41462370FB69BA6963707B69F0
:1000500084F802B0E37007F140007B6A9847B0F182
:100060000008C0F2A480FB68AAEB0B01C91A7B68E8
:100070004846C91ABA697B6A98470028C0F2998035
:100080004FF0000BA84408EB000507F1300AB34518
:1000900062D30021BA6908467B6A9847E5E65E4666
:1000A0004FF0000807F1300098E75E46D84699E720
:1000B000B04697E719F8021B3F4B19F8015C54F85A
:1000C0002500984202D33D4B98421DD33B6923B192
:1000D000F8690FF0D6FE002890D13B68FBB908F113
:1000E000280307F1280208F1010003EB020C07F1D5
:1000F000500308F1020853FA80F00CF8101C5FFA64
:1001000088F800F8105C79E73B692BB1F8690FF0CB
:10011000B8FE00287FF472AFBB6FDB0709D506F18C
:10012000280307F12802711C9E1806F8205CCEB245
:1001300064E7BB6F58077FF561AF08F1280307F14B
:10014000280208F1010103EB020808F8105C5FFACD
:1001500081F853E7002068E71BF80A3054F8239031
:1001600087F82F30FB6FFBB133F81B800121BA6990
:100170007B6A07F12F00984700281ADB0544B8F185
:10018000000F06D148460BF0CFF900F101081FFA25
:1001900088F841464846BA697B6A9847002808DBD8
:1001A00005440BF1010B72E7D7F87C80DEE745468A
:1001B0005BE6054659E600BF6C290300B85403000E
:1001C000803B030004000001C82D0300014B1860B0
:1001D000704700BF48A7002030B5002587B0CDE9A3
:1001E00003010446009503A90548059500F07AF936
:1001F000DDE904309842B8BF255407B030BD00BFD8
:10020000D1FE02002DE9F047858B04462807904671
:1002100011D4022905F0070540F0CD80204610F0EA
:1002200056F978B10138A18B042811D8DFE800F025
:10023000C3106D85950001290CBF45F0100545F0F0
:100240002005A58388F31188BFF36F8FBDE8F08781
:1002500001F0070AAA4500F0A6800027B9463E46ED
:10026000A368002B00F0BD8041F00801A18388F352
:100270001188BFF36F8FA168002900F0BB800D6863
:10028000002900F0B780334652462046D1F804805A
:10029000C047002D76D02B6829461D46F0E701F0B7
:1002A00007035A1F012A1BD8002221F00701062B41
:1002B000276889B2C4E9002209D13B4603E0E28BFA
:1002C0000132E2831B68002BF9D141F00201204684
:1002D000A18310F0FCF800287BD041F0200177E0EA
:1002E000042B0AD121F0070189B22046A18310F026
:1002F000EEF810B141F02001A183A18B01F0070AB3
:10030000AA4550D00027B946AAE7236921F0070182
:1003100041F00601062DD3F80090A1832DD1B9F14B
:10032000000F40D041F00801A18388F31188BFF38A
:100330006F8F20463949C84729E021F0070123691A
:1003400041F0040189B2042DD3F80490A183E6D0D2
:1003500000274FF0040A3E4682E721F00701236997
:1003600041F0050189B2052DD3F80890A183D6D0BC
:1003700000274FF0050A3E4672E700274FF0060AB5
:100380003E466DE72B4687E7B9F1000FD1D14FF01C
:100390002003EFF3118883F31288BFF36F8FA38BD1
:1003A00023F00803A383A58BEA062ED525F01003BE
:1003B000A38305F00705A669A18B002EBFF66FAFDA
:1003C00000232768C4E9003321F0070141F001014F
:1003D000A183A18B4FF0000901F0070AAA457FF421
:1003E0003FAF002F9BD041F00801A18388F3118813
:1003F000BFF36F8F002FC7D03D6839463346524652
:10040000204610F090F82F46F4E7AB067FF51AAFC0
:1004100025F02003A38305F00705FFE6530503003D
:10042000F0B5024601680A270020074E0B461C78EB
:100430000131355D6D0701D41360F0BD07FB00434A
:10044000A3F13000F2E700BF113503002DE9F84FAA
:1004500015469A46D378224A6F2B12F803B080468D
:100460000F460BF0030B29D024D8582B0CBF1026B5
:100470000A26DDF828903246002340463946FCF72C
:10048000A3FD092AD4B21ED83034B045E4B277F1C6
:10049000000709F8014D01D3D14511D82B789B06EF
:1004A00005D5082E15D1AB7843F00803AB7048464C
:1004B000BDE8F88F03F0F703702BD7E70826D8E7DD
:1004C00080460F46D7E7BBF1010F0CBF37345734D6
:1004D000DBE7102EEBD1AB7843F01003E6E700BF6B
:1004E000113503002DE9F04F8A4616461C460025BB
:1004F00097B00390307808B928464AE3731C252842
:10050000049307D05146039B98470028C0F24183CB
:100510000135F0E11822002110A80AF037FF7378A6
:10052000252B00F0A380002398469E469C46184643
:10053000711C0F4611F8012B2B2A00F0C68000F227
:10054000BD80202A00F0C480232A00F0C4802BB193
:100550009DF8483043F040038DF84830B8F1000F63
:1005600005D09DF8483043F020038DF84830BEF1A7
:10057000000F05D09DF8483043F010038DF8483047
:10058000BCF1000F05D09DF8483043F008038DF80A
:10059000483028B19DF8483043F004038DF84830C6
:1005A0009DF8483003F04401442903D16FF38613CA
:1005B0008DF848309DF848302A2A43F08003099787
:1005C0008DF8483040F08C809DF8493043F00103AD
:1005D0008DF849307B1C1A782E2A0CBF012100218E
:1005E0009DF8492061F341028DF849200CD15A1C35
:1005F00009925A782A2A40F083809DF849200233D4
:1006000042F004028DF849201A786C2A00F0A48088
:1006100000F28680682A00F08C806A2A00F0A580AB
:100620004C2A00F0AA801A4612F8013B782B04925B
:100630008DF84B309DF8492000F217816D2B00F2A8
:10064000A980692B00F21181572B00F2BE80412B4B
:1006500003D0453B022B00F2088104229DF84A306A
:1006600062F302038DF84A300123CAE0B21C0492FF
:100670008DF84B309DF84930D90740F1FD8054F892
:10068000048BB8F1000F07DA9DF84820C8F1000884
:1006900042F004028DF848205A0740F1F68054F8E1
:1006A00004BBBBF1000F80F2F5809DF849306FF379
:1006B00041038DF849304FF0FF3BEBE02D2A0DD080
:1006C000302A7FF444AF012333E74FF0010C30E7C9
:1006D0004FF0010E2DE74FF001082AE7012028E72F
:1006E00009A8FFF79DFE099BBB423FF474AF9DF83C
:1006F00048201390C00F60F341028DF848206AE74C
:1007000009A8FFF78DFE9DF848301490C3F340020E
:1007100042EAD07262F341038DF84830099B73E7D7
:10072000742A26D07A2A7FF47EAF06219DF84920CC
:100730000CE05A78682A9DF8492006D1012161F31E
:10074000C6028DF8492002336DE7022161F3C6022B
:100750008DF84920013366E75A786C2A9DF84920C4
:1007600001D10421EBE70321F0E705219DF84920A1
:10077000ECE707219DF84920E8E7BDF8482022F47E
:10078000F04222F0020242F4804242F00202ADF84E
:100790004820DFE76E3BD9B201238B4040F2824113
:1007A0000B4238D113F0240F52D1DF075DD503215E
:1007B0009DF84A3061F302038DF84A3002F0780365
:1007C000A3F14000434243411BE00120A3F1580143
:1007D000C9B200FA01F111F4624F7FF43EAF40F666
:1007E000010739421DD111F4043F3ED09DF84A3033
:1007F00060F3020302F07802402A8DF84A3034D0C8
:1008000000239DF84820C2F340010B4363F34102EB
:100810008DF848202EE702219DF84A3061F302034B
:10082000E8E702209DF84A1002F0780260F3020126
:10083000402A8DF84A1002BF9DF8481041F001018E
:100840008DF84810632BDBD1131E18BF0123D8E7A6
:1008500003219DF84A3012F0780F61F302038DF8FE
:100860004A3014BF01230023CBE79DF8483043F002
:1008700001038DF84830C3E79DF94820002AACBF3A
:100880004FF0FF38DDF84C8006E79F077FF513AF88
:10089000DDF850B00023CDE913339DF84A309DF8C0
:1008A000491003F00703012BC1F3C30133D1CB1E61
:1008B000042B04D8DFE803F02146462121002368F9
:1008C00001294FEAE372CDE910321CD19DF9403085
:1008D000DA17CDE9103204349DF8483013F00307DD
:1008E00050D032465146049B03980FF00AFF00286F
:1008F000C0F24F810544049EFCE554F8043BDA172E
:10090000CDE91032E8E70229E5D11AB243F3C0334A
:10091000CDE91023DFE7022B24D1CB1E042B04D812
:10092000DFE803F018101018180001294FF000023A
:1009300054F8043B14D00229CDE91032CCD19BB23B
:100940001093C9E7073424F00704F4E80223CDE943
:100950001023C1E754F8043B109300231193BBE725
:10096000DBB2CDE7042B08D1073424F00704D4E927
:1009700000230834CDE91023AEE7032BACD154F8A3
:10098000043BDDE79DF84B007828B4D862281DD8D9
:1009900025283FF4B7AD5828ADD1DDE910010DF1A0
:1009A0003E03009312AA0AABFFF750FDBBF1000F04
:1009B000814680F29880B9F1000F9CD00DF13E067F
:1009C000A6EB0903002F50D001334EE06338152801
:1009D00091D801A252F820F0590A0200BD0A020083
:1009E000F7080200F7080200F7080200F708020003
:1009F000BD0A0200F7080200F7080200F70802002B
:100A0000F7080200470B0200E10A0200090B02008E
:100A1000F7080200F7080200310A0200F708020096
:100A2000E10A0200F7080200F7080200E10A0200EA
:100A3000BBF1000FDDF840900ADB594648460AF04A
:100A4000A1FDB9F1000F3FF456AF09EB000676E0C7
:100A500048460AF069FDF8E7109B00278DF828301A
:100A600001230DF129060DF128099DF84A1011F016
:100A70001002069200F081800233139A134405920B
:100A80004A0644BF14995B18B8F1000F40F38E80FA
:100A9000A8EB03089DF848305807C3F3800B00F11A
:100AA0008580590678D53FB151463846039B984713
:100AB00000286EDB5F46013530236EE01E075ABF0B
:100AC000C3F300135F012B27DDE91023002BBFF6D2
:100AD00064AF524263EB43032D27CDE910235CE75B
:100AE00000275AE700279DF848100DF13E03A3EBBD
:100AF00009036FF386119B458DF848107FF65BAFB5
:100B0000ABEB0303139356E7109880B30DF13E0649
:100B10000AAB0021009612AAFFF798FCBDF84A30F4
:100B2000BBF1000F03F0EF0343F4F04343F0100375
:100B30008146ADF84A30D5DA00283FF4DCAE002714
:100B4000A6EB090391E7109B07293FF6D4AEDFE837
:100B500001F00C04060C08080C0C1D70CBE61D807F
:100B6000C9E6EA17C3E90052C5E61D60C3E6314E87
:100B700007460523A6F1050977E7080748BF0133B3
:100B80007BE7184607935146039B98470028079B2D
:100B900004DA17B0BDE8F08F2023C3465946002978
:100BA0000BF1FF3BEDDC4544D8466D1A37B1514699
:100BB0003846039B98470028EBDB01359DF84A3007
:100BC000DA0601D41B0706D551463020039B98470F
:100BD0000028DEDB0135069B3BB151469DF84B00FA
:100BE000039B98470028D4DB0135059F2F4406E07E
:100BF00051463020039B98470028CADB01357B1BF8
:100C0000002BF5DC33464A46514603980FF079FD38
:100C10000028BEDB0544A844A8EB0503002B7FF7A2
:100C20006AAE51462020039B98470028B1DB01356E
:100C3000F2E700BF393C03002DE9F04704460746C0
:100C40004FF00109DFF8508014B93846BDE8F0874D
:100C500094FAA4F5B5FA85F509FA05F32E0108EB27
:100C600005156FEA030A24EA03042B7B002BEBD063
:100C700058F806301B694BB946447368042228466D
:100C8000196807EA0A0700F04DFADDE72846984799
:100C90000028D9D1F0E700BF782E030030B500223C
:100CA00089B00F490F4811F0C5FD4FF40032002301
:100CB0000024CDE906230E230B4DCDE903344FF478
:100CC00040722846CDE90144084B0949009408F0D8
:100CD000C7FF0849284611F0E7FA204609B030BDA1
:100CE000F90C020030B20020A8AD0020D10F0200A4
:100CF00038C800203A3C0300014809F011B900BF90
:100D0000A0AC00202DE9F04780461F480F4610F0A8
:100D10001CF80646002830D000252846BDE8F0879C
:100D2000237B73B12368DB680BB1204698472368A7
:100D30001B69D3B9636804222046196800F0F2F9F0
:100D4000013610344C45EBD3B8F1000FE5D0002D3F
:100D5000E2D02846FFF770FF0546002FF7D00021AC
:100D60004FF4A47009F08AFDF1E720469847002867
:100D7000E0D00AFA06F31D43E2E705464FF0010A08
:100D8000024CDFF80C90DDE7BCB70020782E0300A2
:100D9000882E0300014B53F8200070476030030099
:100DA00008B5034608462BB1044A136000F070FCF6
:100DB000002008BD6FF01500FBE700BF4CA7002026
:100DC00010B5044C237813B9034809F0A9F801239E
:100DD000237010BDDCC70020A0AC002010B5044675
:100DE00006480FF0B2FF3CB1054BD3E8EF1F0139C5
:100DF000C3E8E21F002AF8D110BD00BFB4B700203D
:100E0000B8B7002000200146034BD3E8EF0FC3E83A
:100E1000E21F002AF9D17047B4B7002070B5FFF780
:100E2000F1FF0546074C084EB44200D370BD63681D
:100E30005B792BB123685B6813B12946204698473C
:100E40001034F1E7782E0300882E030010B5044C0F
:100E5000044920460FF00AFE034B1C6010BD00BF82
:100E6000A4AB00204C300300ACB7002008B5002331
:100E7000074A4FF400411370064A07481360074AB7
:100E80001360FFF78DFFBDE80840FFF7DFBF00BF2D
:100E9000DDC70020B4B70020470D0300B8B700201D
:100EA00001460022002301480FF001BEA4AB002040
:100EB00001480FF09ABE00BFA4AB0020024B0146D0
:100EC00018680FF0E4BE00BFACB7002001480FF077
:100ED0001ABF00BFA4AB002070B5264B18780028BD
:100EE00047D0FFF7E5FF054670B1234BD3E8EF1F6E
:100EF0000139C3E8E21F002AF8D1204C204EB44249
:100F00002DD32846FFF7DAFF1E4B1F4C1B68002B22
:100F100019DD11F048FC4FF47A72A0FB020302FBCA
:100F20000131C30B43EA4143D4E900209B1A40F24C
:100F3000E9324FEAD13161EB0001934271F10001D6
:100F400001D3FFF76BFFD4E9003213F57A7342F156
:100F50000002C4E90032BDE87040FFF7B7BF636824
:100F60005B7923B12368294620461B6898471034D3
:100F7000C5E770BDDCC70020B8B70020782E03009D
:100F8000882E0300B4B7002028B2002070B50D4DA4
:100F9000297861B90120FFF7B5FE0B4C0B4EB44226
:100FA00006D3FFF799FF0028FBD101232B7070BDFA
:100FB00063685B791BB1236820469B6898471034AF
:100FC000EDE700BFDDC70020782E0300882E030068
:100FD00000212DE9F0470846FFF794FE044648B388
:100FE00040F267684FF0000909F07CFC1A4B18606A
:100FF00030B11A4B1B68092B02DD194808F090FF2D
:101000000025184FDFF858A044B12046FFF714FE22
:10101000044618B94FF0FF384FF0FF39FFF75CFF77
:10102000064628B9B5B942464B46504608F09CFFE3
:101030003546E9E74FF0FF384FF0FF39D4E72B682A
:101040009B691BB100222846114698471035BD42C6
:10105000F5D3E8E7044DFAE7B0B70020B8B70020B1
:10106000A0AC0020882E0300782E030013B518488A
:101070000FF06BFE174B1B787BB14FF02003EFF3A3
:10108000118483F31288BFF36F8FFFF725FF84F37A
:101090001188BFF36F8F02B010BD0F4B1B68002B80
:1010A000F9D050B9002200230C48CDE900234FF4B9
:1010B0000042002309F0FAFDEDE70928EBD10748CB
:1010C00011F0C4FB064802B0BDE8104008F028BF8C
:1010D000B8B70020DDC70020B0B7002030B2002034
:1010E000A0AC002010B5064B04461B68984721466B
:1010F000A06004480FF059FDBDE81040FFF7B6BFEF
:101100004CA70020A4AB0020044A054B9B1AB1EB6E
:10111000D30F34BF52F8310000207047A82D0300D0
:10112000782E0300084B10B4C31A44681B11013316
:10113000237143689A7101224368196043685A71A8
:1011400010BCFFF73DBE00BF782E03002DE9F04F25
:101150008FB0C1F34A2804AF0D469146B8607B605A
:101160000C0DB8F1000F63D000264FF0040B4FF0C8
:101170000A0A07F11403C7F80C80C7E907667E6204
:101180000193CDF808B0CDF800A007F11C0332465A
:101190004846F968FEF740FEB0F5006F03461CD3E1
:1011A0006C468AB0D9F8041004AB26481A46C3E945
:1011B000050140F2FF71D9614FF400711984224B8F
:1011C00042F8103F4FF4125133462048FFF7BEFF5C
:1011D000A5462C37BD46BDE8F08FC0F30A0804F1E0
:1011E0001700184420F0070080083B60FFF758FE06
:1011F00068F35325044690B13B6800F11001C7E93C
:10120000083607F11403F961CDE900A3CDF808B061
:1012100048460F4AF96807F11C03FEF7FDFD68F325
:1012200053252A4620467B68B9680FF0C0FDD0E7F9
:1012300004F1170020F007008008FFF731FE044694
:10124000EDE700BF4F3C030004000001F02D030058
:10125000830D03002DE9F04F87B00446DDE9105AF5
:10126000DDE912690F4693469846A6B3102133462E
:1012700052460020CDF80090CDF81490FEF7FAFB0E
:10128000014605F117000844144B04F007040BF065
:10129000070BE40020F0070003EA412344EA8B1423
:1012A00080081C430391FFF7FBFD44EA0554054603
:1012B00040B13EB1334652460399CDF8009010300C
:1012C000FEF7D8FB434622463946284607B0BDE81C
:1012D000F04F0FF06CBD3146D3E700BF00FE0F00AA
:1012E0000EB403B503AB53F8042B01460448019335
:1012F0000FF0D9FD02B05DF804EB03B0704700BFFA
:10130000CF0E0300CA0605D48B064CBF0249034921
:10131000FFF7E6BF704700BFD83A0300D73A030093
:101320002DE9F04F89B09A46DDE914739DF84CB071
:101330000593169B04460D46179E06920493BBF137
:10134000000F00F0858006F0080307930FF017FDEB
:1013500006F002090246002849D020468549FFF7D9
:10136000BFFF8046B9F1000F08D016F0440F40D1FE
:101370002A4620468049FFF7B3FF804406F0010368
:1013800053B17E4B204653F82B207D4B7D49002ADC
:1013900008BF1A46FFF7A4FF06F00803002B54D03D
:1013A000794B204653F82B207849FFF799FF0546E3
:1013B000069B2BB11A4620467549FFF791FF05445D
:1013C000BAF1000F05D0524620467249FFF788FF58
:1013D00005444544002F49D1049B002B4FD1F3070E
:1013E00000F1C18031462046FFF78CFFB5E0804612
:1013F000B8E7694B18680028BFD0684B4FF47A797A
:101400001B684FF46161B5FBF3F5B5FBF0F300FB2E
:10141000135509FB05F5B3FBF1F2B5FBF0FE4FF0F8
:101420003C0C01FB123100FB1E55B1FBFCF309FB28
:1014300005F5B5FBF0F50CFB131120460091CDE945
:1014400001E55749FFF74CFF97E706F00805AFE7BE
:10145000BAF1010F06D1002F65D1049B002B7CD07F
:1014600000250CE0002FF8D04E485DE04E483B468A
:1014700022464E490EF0D4FC049B002B69D0DFF8C5
:101480003081DFF83091049F3146102F204628BF6D
:1014900010274FF0000AFFF735FF554546DC059B46
:1014A000494620461A78FFF71BFF4FF0010A1AF051
:1014B000070F03D141462046FFF712FF57453CD99D
:1014C000059B4946204613F80A20FFF709FF0AF159
:1014D000010ABAF1100FEAD14FF0000A204636494E
:1014E000FFF7FEFE5246059B20469A5C334B995C03
:1014F00011F0970F08BF2E223149FFF7F1FE0AF1D4
:10150000010ABAF1100F1DD01AF0070F03D141469E
:101510002046FFF7E5FE57455246E4D841462046AF
:10152000FFF7DEFEEBE720485D46A0E74146204698
:10153000FFF7D6FE0AF1010AAFE720462149FFF77F
:10154000CFFEC4E7059B3B440593049BDB1B049340
:1015500099D1BBF1000F7FF442AF204609B0BDE83E
:10156000F04F0FF0A7BC2046054A0649FFF7B8FE2A
:1015700038E700BF933C0300973C03007030030042
:101580008E3C0300D647030084300300BC3C0300BC
:10159000C23C0300C63C0300C4B70020C0B7002013
:1015A000A03C0300FD0E0300CF0E0300A70E0300B6
:1015B000D33C0300CB3C0300D53C030011350300B2
:1015C000D73C0300D13C03002DE9F0410F884B6864
:1015D00005460C4690468E6886B0C7F382175BB10D
:1015E000144A9B1A43F3CF01002920DB2078C0F373
:1015F000C200FFF789FD0346214651F8102B608891
:10160000C2F34A22002A01EB020408BF0021002293
:10161000C0F30B10CDE90408CDE902142846314689
:1016200001970092FFF77CFE06B0BDE8F081002331
:10163000E2E700BFA82D030042F20F7373B58B429F
:1016400028BF0B4605680446052168460D4A0EF082
:101650005FFC0646636828460B225B680A490FF068
:1016600015FC63683246694628465B680FF00EFC3D
:1016700063681B2228465B6804490FF007FC02B030
:1016800070BD00BF8E380300F63C0300DA3C030057
:1016900000210123064A904206D8064A01B90123D7
:1016A0001360054B18607047012140085B00F2E7AA
:1016B00040420F00C0B70020C4B70020F8B50D4667
:1016C0000446064F4618B44201D12846F8BD14F826
:1016D000011BBB6801485B689847F4E7982A030040
:1016E000014B036000207047CC300300F0B40C4B7A
:1016F0000C4E5F6A0C4BB34203D36FF08500F0BC15
:1017000070475D68BD4209D31C693CB195F802C0C1
:101710000579AC4502D12346F0BC18472433EAE7EB
:10172000ECB70020A8AD002084AD00202DE9F047E3
:1017300005460E461746124CDFF84880DFF8489001
:10174000444503D36FF08500BDE8F0876268D9F89F
:1017500024309A4212D3A36983B1907829798842C0
:1017600005D13A4631462846BDE8F0471847527938
:10177000012A03D13A463146284698472434DFE708
:1017800084AD0020A8AD0020ECB700202DE9F04189
:1017900005460E4617460A4CDFF82880444502D31A
:1017A0006FF0850009E063690BB92434F6E73A4627
:1017B0003146284698470028F7D1BDE8F08100BFA0
:1017C00084AD0020A8AD00200022024B1A605A60B0
:1017D000704700BFA7B8002070B50B4B0B4CA3425D
:1017E00001D3002070BD0022196A1E7F0439D5B2D2
:1017F000AE4201D82433F2E7013211F8325085426B
:10180000F5D10120EEE700BF84AD0020A8AD002097
:1018100008B509480378C3F341130A3350F823305D
:101820003BB100F1080200F110019847C043C00F1E
:1018300008BD1846FCE700BFECB7002008B5012141
:10184000034A04480FF003FB4FF0FF3008BD00BF10
:101850003C3D0300602E030073B5C4B263060D4621
:101860008DF8074007D02046FFF7B6FF78B10D4B43
:1018700093F8BA0058B120460A4E55B102F07AFDED
:10188000F3691BB108200DF107019847012002B050
:1018900070BD02F0A1FDF369002BF7D009200DF116
:1018A0000701F2E7ECB7002008B503460121034A1F
:1018B00003480FF0D5FA002008BD00BF613D0300CA
:1018C000602E030004282DE9F74F04460F46DFF889
:1018D000989015D001282FD1DFF8908098F8B93072
:1018E00053B300F063FE224D4D4522D24FF0000A63
:1018F0002A6A2B7F5FFA8AF6B34204D82435F3E7CD
:10190000FFF762FFE8E702EBC606307901920FF0BD
:10191000C0FC834630790FF027FBD8F8C430BBF108
:10192000000F23EA0003019AC8F8C4300AF1010A43
:10193000DFDA002388F8B9300D4D4D4508D30B4B45
:101940001B6A6BB13946204603B0BDE8F04F18471B
:10195000EB681BB13A462146284698472435ECE708
:1019600003B0BDE8F08F00BFA8AD0020ECB70020A9
:1019700084AD002038B505460FF08BFC10F1780FD0
:10198000044608D038B101212B46094A09480FF016
:1019900067FA204638BD28460FF0E6FA064A0024CA
:1019A000D2F8C43023EA0003C2F8C430F1E700BF24
:1019B0007C3D0300602E0300ECB7002073B50446A5
:1019C0008078234D8DF800002379627943EA022361
:1019D000ADF80230E37803F003038DF804300FF024
:1019E000C3FAD5F8C430064618420CD0A478204675
:1019F00000F0BEFD2046FFF7BDFF10F04FFC10B910
:101A0000962008F055FF684602F086FC10F1780F2A
:101A10009DF8003008D038B10E4A0F4801210FF070
:101A20001FFA002002B070BD184602F011FD10F13F
:101A3000780F04D018B19DF80030084AEDE7012076
:101A4000D5F8C43085F8B9003343C5F8C430E9E7A8
:101A5000ECB700209E3D0300602E0300C23D030052
:101A60002DE9F047924D0446AB690E461746C3B9BF
:101A7000207800F01F00012876D0022800F0DC80DA
:101A800000BB94F900103A68002963782EDA062B1F
:101A90000CD0082B25D0ABB953700123137002234F
:101AA00003E198470028E3D100200DE06388190A7C
:101AB0000A1F012A8C4605D9072903D8DAB26B6AB6
:101AC0001C781CB96FF01500BDE8F0875D7865459E
