:020000021000EC
:10C0000098FF002069F50100911A030055F5010021
:10C0100055F5010055F5010055F5010055F50100F4
:10C0200000000000000000000000000029F70100EF
:10C0300055F5010000000000B9F6010055F50100BA
:10C0400011F9010011F9010011F9010011F90100C4
:10C0500011F9010011F9010011F9010011F90100B4
:10C0600011F9010011F9010011F9010011F90100A4
:10C0700011F9010011F9010011F9010011F9010094
:10C0800011F9010011F9010011F9010011F9010084
:10C0900011F9010011F9010011F9010011F9010074
:10C0A00011F9010011F9010011F9010011F9010064
:10C0B00011F9010011F9010011F9010011F9010054
:10C0C00011F9010011F9010011F9010011F9010044
:10C0D00011F9010011F9010011F9010011F9010034
:10C0E00011F9010011F9010011F9010011F9010024
:10C0F00011F9010011F9010011F9010011F9010014
:10C1000011F9010011F9010011F9010011F9010003
:10C1100011F9010011F9010011F9010011F90100F3
:10C1200011F9010011F9010011F9010011F90100E3
:10C1300011F9010011F9010011F9010011F90100D3
:10C1400011F9010011F9010011F9010011F90100C3
:04C1500011F90100E0
:10C154007BB972B90029BEBF00204FF0004106E050
:10C1640008BF00281CBF6FF000414FF0FF3000F003
:10C1740057B8ADF1080C6DE904CE002909DB002B9A
:10C184001ADB00F04FF8DDF804E0DDE9022304B027
:10C194007047404261EB4101002B1BDB00F042F889
:10C1A400DDF804E0DDE9022304B0404261EB410123
:10C1B400524263EB43037047524263EB430300F084
:10C1C40031F8DDF804E0DDE9022304B0404261EB1C
:10C1D40041017047524263EB430300F023F8DDF85A
:10C1E40004E0DDE9022304B0524263EB43037047E9
:10C1F40053B94AB9002908BF00281CBF4FF0FF31CA
:10C204004FF0FF3000F00CB8ADF1080C6DE904CE2E
:10C2140000F008F8DDF804E0DDE9022304B070471B
:10C22400704700BF2DE9F04786468C460846089EB5
:10C23400154674461946002B40F0C1808542B2FA77
:10C2440082F245D94AB1C2F1200300FA02FC9540BA
:10C2540094402EFA03F343EA0C0C4FEA154EA8B2AD
:10C26400230CBCFBFEF80EFB18CC08FB00F943EAD8
:10C274000C43994528D9EB1808F1FF3704D29945A6
:10C2840002D9A8F102072B44A3EB0903A4B2B3FB20
:10C29400FEFC0EFB1C330CFB00F044EA0344A042FA
:10C2A40014D92C190CF1FF3304D2A04202D9ACF1F9
:10C2B40002032C44241A43EA07401EB1D44000234D
:10C2C40034607360BDE8F0874746DDE76346F1E715
:10C2D40092BB431B01214FEA154EAFB2200CB3FBB6
:10C2E400FEFC0EFB1C330CFB07F840EA03439845A5
:10C2F40061D9EB180CF1FF3004D2984502D9ACF1A6
:10C3040002002B44A3EB0803A4B2B3FBFEFC0EFB18
:10C314001C330CFB07F744EA0344A7424DD92C19FC
:10C324000CF1FF3304D2A74202D9ACF102032C442E
:10C33400E41B43EA0040C0E7C2F120039540944067
:10C3440020FA03F12EFA03F34FEA154E9040AFB2F0
:10C354000343B1FBFEFC0EFB1C10190C0CFB07F88D
:10C3640041EA0041884522D969180CF1FF3004D212
:10C37400884502D9ACF102002944A1EB08019BB223
:10C38400B1FBFEFC0EFB1C110CFB07F743EA014357
:10C394009F420ED9EB180CF1FF3104D29F4202D90F
:10C3A400ACF102012B44DB1B41EA004193E76046F8
:10C3B400E3E76146F7E76046A4E76346B8E78342EC
:10C3C40006D916B9002108467CE7C6E900E0F9E77A
:10C3D400B3FA83F78FB9834201D3724508D8BEEB11
:10C3E400020460EB030301209C461EB9002169E7A7
:10C3F4003846FAE7C6E9004CF8E7C7F1200CBB4021
:10C404000EFA07F522FA0CF42EFA0CF1BA401C438A
:10C4140020FA0CF3B8404FEA144901431FFA84FE92
:10C42400B3FBF9F809FB18300B0C08FB0EFA43EACE
:10C4340000439A4540D9E31808F1FF3004D29A45E5
:10C4440002D9A8F102002344A3EB0A0389B2B3FB87
:10C45400F9F809FB183308FB0EFE41EA03418E4547
:10C464002CD9611808F1FF3304D28E4502D9A8F102
:10C474000203214443EA0040A1EB0E01A0FB029811
:10C484004145CE46434602D306D14D4504D2013838
:10C49400B9EB020E68EB0403002EA7D0B5EB0E0235
:10C4A40061EB030101FA0CFC22FA07F3F9404CEAB0
:10C4B4000303C6E9003199E74046C5E74346D9E797
:10C4C400034613F8012B002AFBD1181A01387047D0
:10C4D4002DE9F0410446454F454E90B0A368DB6B0F
:10C4E400002B76D1A3689B6B002B79D13A78A36893
:10C4F400002A2ED1DB6A43BB726973689B1AF26906
:10C50400D21A3F2A36D94022A3681B69002B3BD19B
:10C514000121384A384815F0EBF800252A466946C7
:10C52400304614F088FDA842804605DA01212B1A12
:10C53400324A314815F0E5F8B8F1000F09D0A36884
:10C544005B6933B12046984703E0204698470028AA
:10C55400D2D1A368DB69EBB940226946304614F0B6
:10C56400BAFD0546D8B9A3689B69002BB6D020460E
:10C574009847B3E7002AC7D1A3685B6A0BB120468A
:10C58400984701233B70A9E7694620469847051E52
:10C59400C4DABDE72046984700289FD0DCE73B7803
:10C5A40023B1204614F0ABF800233B70A368DB688A
:10C5B40063B12A4669462046984785428EDD0121AB
:10C5C4002B1A0F4A0C4815F09CF887E76FF05700B8
:10C5D400F3E720469847002884D110B0BDE8F081E5
:10C5E40020469847002881D1F7E700BF94D5002062
:10C5F40070BB0020B095030038900300C995030078
:10C60400D795030073B547481BF097FB38B9464AE2
:10C614000121464815F06CF8002002B070BD0020DE
:10C6240001F028FF044608B1414AF1E74FF4806263
:10C63400404BDA61404AC3E902001A605860C3E91A
:10C6440005001861374D03213C4A384815F050F86D
:10C65400AE680194B36C1BB10421284601AA984723
:10C66400019B2BB9002140F6CD4012F09FFDF0E76D
:10C674000321334A2D4815F03BF8AB685B6C002B63
:10C684003DD00122082127489847034620B10221C2
:10C694002C4A264815F035F8AB685B6C002B31D07A
:10C6A400012210211F489847034620B10221264A3F
:10C6B4001E4815F026F8002140F6CD4012F076FD14
:10C6C400AB689B6C0BB30121164801AA984703463B
:10C6D400F0B102211D4A154815F013F8AB682BB1CF
:10C6E4001B6C1BB100221A490E4898470D4814F0E0
:10C6F40006F805F035FB78B90221164A89E76FF090
:10C704005703C4E76FF05703D0E76FF05703E0E730
:10C71400019B0321104ADEE706F080FC03210F4A47
:10C7240077E700BF6C8D0300E595030038900300A4
:10C73400FE95030070BB002095D5002013960300DE
:10C74400209603002896030047960300669603008C
:10C75400D5C40100969603008A960300BE96030092
:10C764002DE9F04F91B0009302F004030293C2F359
:10C77400C2030133840705460E46DDF86890039230
:10C78400059340F0BB81041D30B1072909D86FF02F
:10C794001B0011B0BDE8F08F01F00706341DC6F18F
:10C7A4000806009B4FF000084FF0040A591E4FF092
:10C7B400FF3347460193C3465346CDF810800DB16D
:10C7C400009A22600598002800F3E8809848009AAF
:10C7D400824203D397488242C0F0E080039AA4EBDC
:10C7E400050E92074FEA9E0000F103810F2F00F21D
:10C7F400B180002D00F0058107F140020DEB020C21
:10C80400019A0CF8200C0CF8102C049801300490B8
:10C81400E7E07A285DD84B280ED8472859D829282C
:10C824002DD8252852D054D820287AD02338D0F1B6
:10C83400000B4BEB000B74E04C382E2849D8DFE892
:10C8440000F07048484848484848484848484B48D9
:10C854004848484848484859484B4B595959704BDF
:10C864006D487048184B184848827F4B48484B48DD
:10C874007F0000204FF0000B4FF0040A38E0012243
:10C884002A38C0B202FA00F010EA0E0F49D110F0B3
:10C89400625C2FD110EA020B43D06046013C544441
:10C8A400B4FBFAF40AFB04F4002D61D0A3EB050CED
:10C8B400A4446645FFF46BAF002868D1042B47D12C
:10C8C40059F8043B2360042304342AE0019A013A12
:10C8D40001924FF0000B24E011F8010C6C2834D1C4
:10C8E400002011F8023C83466C2BC5D14FF0080A96
:10C8F4005346D3E709F1070929F00709073424F05F
:10C904000704F9E802AB35B106982044B0423FF67B
:10C914003EAFC4E900AB4FF0000B08344FF0080AF7
:10C92400534611F8010F002878D0BBF1000F7FF4B3
:10C9340070AF2528F5D14FF0010B019B0133019312
:10C944004FF0040AECE7584694E700208346A5E735
:10C95400082B02D06FF015001BE709F1070929F035
:10C964000709F9E80223C4E9002308230834D8E7B7
:10C9740068B9042B02D109F10409A4E7082BE9D111
:10C9840009F1070929F0070909F10809EDE7059AF2
:10C99400013A059259F8042B009210E7039A900784
:10C9A40020D54FF0010CA4EB050E4FEA9E00BEF516
:10C9B400007FCFD20F2FCDD8F5B107F140020DEB98
:10C9C400020E019AC0B20EF8200C0EF8102CBCF125
:10C9D400000F3FF41AAF60F07F000EF8200C08F14E
:10C9E40001080137C5F108024FF6DA7E04340692D5
:10C9F40097E74FF0000CDAE7BCF1000F01D00136E5
:10CA0400EFE7029802360028EBD10098CDE9063111
:10CA1400FFF756FDDDE906310644E2E7631BB3F593
:10CA2400806F97D245B9A6F10804E018B1E600BFBB
:10CA3400188C0300D0AA0300029A9B0828602B706C
:10CA44009DF81030C2B1EB7085F80280B8F1000F88
:10CA540005D0002208A8C5F1010C97420ED14FF071
:10CA6400000AC5F101030DF1200901930DF1300B0A
:10CA7400574512D1601B8CE66B70E5E710F8013B5B
:10CA8400190608D504EB0C0E764503F07F03FFF47A
:10CA94007EAE04F8013B0132DFE7B8F1000F03D0AA
:10CAA40099F90020002A17DB029BD3B11AF80B2056
:10CAB40004F8012B0022019B981820448642FFF4BD
:10CAC40066AE99F80000009904F8010B2046039221
:10CAD4001BF0A5FF039A14440AF1010A09F10109A4
:10CAE400C6E799F8002055F822300093029B00987D
:10CAF40045F82230FFF7E4FC421CDCE76FF00D0040
:10CB040047E600BF2DE9F04F95B000AFBB61BB6FA6
:10CB14000446C3F3C0038A4690F802B07A623B61CC
:10CB240041B9457800780BEB80002044554517D86F
:10CB3400A0EB040AE3787B61BBF1000F02D0BB6F6A
:10CB4400D80716D47B6953BB7B6A1BB15146204678
:10CB5400BA699847554628465437BD46BDE8F08F14
:10CB6400461C3046FFF7ACFC013030440AF1010AA0
:10CB7400DCE7237862683B629B00FB603B6AFA61F6
:10CB840004EB83097B6A002B40F0FF80C846002633
:10CB9400554609EB0B0AD04551D1D94413E0BB6F7C
:10CBA4009907D1D5237899463B629B00FB60636863
:10CBB40004EB8909FB617B6A002B7AD15546BBF1F2
:10CBC400000F4FD15E46BB6F13F0050F0CBF4FF043
:10CBD400020B4FF0010B7B6909EB430ABB6F03F0B7
:10CBE40002037B62D145B6D019F8021B19F8013C47
:10CBF40054F82380AB4B984502D3AB4B984538D3BC
:10CC04003B69002B42D0F86913F0AFFD00283DD0FA
:10CC1400E8468AB06A46A54B5361FB69C2E906310E
:10CC24004FF400731384A24B42F8103F00234FF4D7
:10CC34001251A04800F072FD023DC546D2E718F833
:10CC4400013B54F82300FFF73BFCFB6F01303BB181
:10CC5400D7F880309E423EBFFB6F23F816000136A2
:10CC6400054498E7BB6F13F004061CBF7E6AD944E1
:10CC7400A9E73B6923B1F86913F077FD0028C7D110
:10CC8400BB6FDA0705D4A5EB0B05ABE77B6A002B7A
:10CC9400A8D04046FFF714FCFB6F43B1D7F88030AF
:10CCA4009E423FBFFA6F431C22F8163001360544FA
:10CCB40098E7BBF1000F6ED0BB6F13F004066DD084
:10CCC400D846002607F140005A4649461BF0A7FE05
:10CCD4007B69D9445B007B607B6909EB4303BB60E0
:10CCE400BB6F03F002033B60BB684B4558D1B96F7F
:10CCF4006378B86F890748BF002106EB030258BF69
:10CD04004FEA5801C507D2B200F19A8010F0040F1F
:10CD140014BF40460020FB616270A070E1702046A1
:10CD2400BA69F9687B6A9847051EFFF614AF3B6A37
:10CD340041462370FB69BA6963707B6984F802B069
:10CD4400E37007F140007B6A9847B0F10008C0F235
:10CD5400A480FB68AAEB0B01C91A7B684846C91A70
:10CD6400BA697B6A98470028C0F299804FF0000B9B
:10CD7400A84408EB000507F1300AB34562D300214B
:10CD8400BA6908467B6A9847E5E65E464FF00008B4
:10CD940007F1300098E75E46D84699E7B04697E732
:10CDA40019F8021B3F4B19F8015C54F8250098420E
:10CDB40002D33D4B98421DD33B6923B1F86913F06C
:10CDC400D4FC002890D13B68FBB908F1280307F193
:10CDD400280208F1010003EB020C07F1500308F1EB
:10CDE400020853FA80F00CF8101C5FFA88F800F877
:10CDF400105C79E73B692BB1F86913F0B6FC0028A5
:10CE04007FF472AFBB6FDB0709D506F1280307F186
:10CE14002802711C9E1806F8205CCEB264E7BB6F32
:10CE240058077FF561AF08F1280307F1280208F1DC
:10CE3400010103EB020808F8105C5FFA81F853E77C
:10CE4400002068E71BF80A3054F8239087F82F3045
:10CE5400FB6FFBB133F81B800121BA697B6A07F1D0
:10CE64002F00984700281ADB0544B8F1000F06D1BB
:10CE74004846FFF725FB00F101081FFA88F84146F0
:10CE84004846BA697B6A9847002808DB05440BF1D9
:10CE9400010B72E7D7F87C80DEE745465BE6054682
:10CEA40059E600BF188C0300D0AA0300E7960300DC
:10CEB4000400000130900300014B1860704700BF6C
:10CEC40060A1002080B505460E461746984612F02C
:10CED400A1F903461BF094FE0446DFF8189042467D
:10CEE40049F8003039463046A84754F8090002F0A2
:10CEF400B3FB00BF0800000070B500254FF0FF33FE
:10CF04004FF0FF32174811F0C7FB174BD3E8AF2F90
:10CF140082B10135042D03F12803F7D11BF070FE13
:10CF240017224FF0FF35114B1A500E4811F078FBC1
:10CF3400284670BD28246C43D3E8EF0F0130C3E8C2
:10CF4400E10F0029F8D10A4E331932515A6004F125
:10CF54000C0030441AF0C5FF04F1200030441BF0EB
:10CF6400CFFAE2E77CAB002098BB00200C00000065
:10CF740090BB002010B40446104628225443084BAA
:10CF84001A191951506040B1C26832B10C342344AB
:10CF940040F2051210BC13F0C9BE10BC704700BFAC
:10CFA40090BB00202823434330B50D4908330B447C
:10CFB400D3E8AF2F92B1541ED3E8EF5F954204D16A
:10CFC400C3E8EC4FBCF1000FF6D1F1D1012A05D131
:10CFD4002823584300230A180B50536030BD00BF68
:10CFE40090BB00202DE9F047058B044628079046A6
:10CFF40011D4022905F0070540F0CD80204613F036
:10D00400BFFE78B10138218B042811D8DFE800F085
:10D01400C3106D85950001290CBF45F0100545F03E
:10D024002005258388F31188BFF36F8FBDE8F0874F
:10D0340001F0070AAA4500F0A6800027B9463E463B
:10D04400A368002B00F0BD8041F00801218388F320
:10D054001188BFF36F8FA168002900F0BB800D68B1
:10D06400002900F0B780334652462046D1F80480A8
:10D07400C047002D76D02B6829461D46F0E701F005
:10D0840007035A1F012A1BD8002221F00701062B8F
:10D09400276889B2C4E9002209D13B4603E0628BC8
:10D0A400013262831B68002BF9D141F00201204652
:10D0B400218313F065FE00287BD041F0200177E046
:10D0C400042B0AD121F0070189B22046218313F0F1
:10D0D40057FE10B141F020012183218B01F0070A92
:10D0E400AA4550D00027B946AAE7236921F00701D1
:10D0F40041F00601062DD3F8009021832DD1B9F11A
:10D10400000F40D041F00801218388F31188BFF358
:10D114006F8F20463949C84729E021F00701236968
:10D1240041F0040189B2042DD3F804902183E6D0A0
:10D1340000274FF0040A3E4682E721F007012369E5
:10D1440041F0050189B2052DD3F808902183D6D08A
:10D1540000274FF0050A3E4672E700274FF0060A03
:10D164003E466DE72B4687E7B9F1000FD1D14FF06A
:10D174002003EFF3118883F31288BFF36F8F238B9F
:10D1840023F008032383258BEA062ED525F010030C
:10D19400238305F007056669218B002EBFF66FAF68
:10D1A40000232768C4E9003321F0070141F001019D
:10D1B4002183218B4FF0000901F0070AAA457FF46F
:10D1C4003FAF002F9BD041F00801218388F31188E1
:10D1D400BFF36F8F002FC7D03D68394633465246A0
:10D1E400204613F0F9FD2F46F4E7AB067FF51AAF9E
:10D1F40025F02003238305F00705FFE6090E03004D
:10D204002DE9F047044607464FF00109DFF8508046
:10D2140014B93846BDE8F08794FAA4F5B5FA85F553
:10D2240009FA05F32E0108EB05156FEA030A24EA4F
:10D2340003042B7B002BEBD058F806301B694BB949
:10D244004644736804222846196807EA0A0700F06E
:10D2540051FADDE7284698470028D9D1F0E700BF06
:10D26400F090030030B5002289B00F490F481BF03D
:10D27400BCF94FF4003200230024CDE906230E2329
:10D284000B4DCDE903344FF440722846CDE90144F7
:10D29400084B0949009411F099F8084928461AF0F6
:10D2A40005FE204609B030BDC5D2010088B3002078
:10D2B400F8AE00209DD5010058DA00209B970300AA
:10D2C400014811F097BA00BFA4AC00202DE9F04743
:10D2D40080461F480F4614F089F90646002830D0CE
:10D2E40000252846BDE8F087237B73B12368DB68FB
:10D2F4000BB12046984723681B69D3B9636804229D
:10D304002046196800F0F6F9013610344C45EBD389
:10D31400B8F1000FE5D0002DE2D02846FFF770FFEA
:10D324000546002FF7D000214FF4A47011F03EFF02
:10D33400F1E7204698470028E0D00AFA06F31D4397
:10D34400E2E705464FF0010A024CDFF80C90DDE7F6
:10D3540040BC0020F090030000910300014B53F8FF
:10D36400200070472C91030008B5034608462BB1F2
:10D37400044A136000F072FC002008BD6FF0150031
:10D38400FBE700BF64A1002010B5044C237813B957
:10D39400034811F02FFA0123237010BD95D9002002
:10D3A400A4AC002010B50446064814F01FF93CB1A3
:10D3B400054BD3E8EF1F0139C3E8E21F002AF8D177
:10D3C40010BD00BF38BC00203CBC0020002001463A
:10D3D400034BD3E8EF0FC3E8E21F002AF9D17047EB
:10D3E40038BC002070B5FFF7F1FF0546074C084E26
:10D3F400B44200D370BD63685B792BB123685B686A
:10D4040013B12946204698471034F1E7F090030001
:10D414000091030010B5044C0449204613F077FF33
:10D42400034B1C6010BD00BF78AA002018910300B4
:10D4340030BC002008B50023074A4FF400411370A4
:10D44400064A07481360074A1360FFF78DFFBDE8DB
:10D454000840FFF7DFBF00BF96D9002038BC00208A
:10D46400ED1503003CBC00200146002200230148C6
:10D4740013F06EBF78AA0020014814F007B800BF6B
:10D4840078AA0020024B0146186814F051B800BF76
:10D4940030BC0020014814F087B800BF78AA0020EF
:10D4A40070B5264B1878002847D0FFF7E5FF0546EE
:10D4B40070B1234BD3E8EF1F0139C3E8E21F002A00
:10D4C400F8D1204C204EB4422DD32846FFF7DAFF82
:10D4D4001E4B1F4C1B68002B19DD1BF03FF84FF44B
:10D4E4007A72A0FB020302FB0131C30B43EA4143FE
:10D4F400D4E900209B1A40F2E9324FEAD13161EBC2
:10D504000001934271F1000101D3FFF76BFFD4E9ED
:10D51400003213F57A7342F10002C4E90032BDE827
:10D524007040FFF7B7BF63685B7923B1236829466E
:10D5340020461B6898471034C5E770BD95D9002074
:10D544003CBC0020F09003000091030038BC002094
:10D5540080B3002070B50D4D297861B90120FFF723
:10D56400B5FE0B4C0B4EB44206D3FFF799FF0028CF
:10D57400FBD101232B7070BD63685B791BB12368F9
:10D5840020469B6898471034EDE700BF96D90020E9
:10D59400F09003000091030000212DE9F0470846B4
:10D5A400FFF794FE044658B340F267684FF0000951
:10D5B4001BF026FB1B4B1C4A1B58136033B11B4B3F
:10D5C4001B68092B02DD1A4811F014F90025194FC4
:10D5D400DFF85CA044B12046FFF712FE044618B9F8
:10D5E4004FF0FF384FF0FF39FFF75AFF064628B9CE
:10D5F400B5B942464B46504611F022F93546E9E7A3
:10D604004FF0FF384FF0FF39D2E72B689B691BB10D
:10D6140000222846114698471035BD42F5D3E8E765
:10D62400054DFAE70800000034BC00203CBC002093
:10D63400A4AC002000910300F090030013B5184837
:10D6440013F0D4FF174B1B787BB14FF02003EFF39B
:10D65400118483F31288BFF36F8FFFF721FF84F3E4
:10D664001188BFF36F8F02B010BD0F4B1B68002BE6
:10D67400F9D050B9002200230C48CDE900234FF41F
:10D684000042002312F012F8EDE70928EBD1074815
:10D694001AF0B7FF064802B0BDE8104011F0AAB86E
:10D6A4003CBC002096D9002034BC002088B3002064
:10D6B400A4AC002010B5064B04461B6898472146CD
:10D6C400A060044813F0C2FEBDE81040FFF7B6BFE7
:10D6D40064A1002078AA0020044A054B9B1AB1EBF0
:10D6E400D30F34BF52F8310000207047309003004C
:10D6F400F0900300084B10B4C31A44681B110133A3
:10D70400237143689A7101224368196043685A710E
:10D7140010BCFFF739BE00BFF09003002DE9F04FB5
:10D724008FB0C1F34A2804AF0D469146B8607B60C0
:10D734000C0DB8F1000F63D000264FF0040B4FF02E
:10D744000A0A07F11403C7F80C80C7E907667E626A
:10D754000193CDF808B0CDF800A007F11C033246C0
:10D764004846F968FFF7CEF9B0F5006F03461CD3BD
:10D774006C468AB0D9F8041004AB26481A46C3E9AB
:10D78400050140F2FF71D9614FF400711984224BF5
:10D7940042F8103F4FF4125133462048FFF7BEFFC2
:10D7A400A5462C37BD46BDE8F08FC0F30A0804F146
:10D7B4001700184420F0070080083B60FFF754FE70
:10D7C40068F35325044690B13B6800F11001C7E9A2
:10D7D400083607F11403F961CDE900A3CDF808B0C8
:10D7E40048460F4AF96807F11C03FFF78BF968F301
:10D7F40053252A4620467B68B96813F029FFD0E7F1
:10D8040004F1170020F007008008FFF72DFE0446FE
:10D81400EDE700BFB097030004000001609003002F
:10D82400291603002DE9F04F87B00446DDE9105AAC
:10D83400DDE912690F4693469846A6B31021334694
:10D8440052460020CDF80090CDF81490FEF788FFE2
:10D85400014605F117000844144B04F007040BF0CB
:10D86400070BE40020F0070003EA412344EA8B1489
:10D8740080081C430391FFF7F7FD44EA055405466D
:10D8840040B13EB1334652460399CDF80090103072
:10D89400FEF766FF434622463946284607B0BDE8F0
:10D8A400F04F13F0D5BE3146D3E700BF00FE0F00A2
:10D8B4000EB403B503AB53F8042B0146044801939B
:10D8C40002F048FA02B05DF804EB03B0704700BF01
:10D8D40067170300CA0605D48B064CBF02490349E7
:10D8E400FFF7E6BF704700BFF0970300EF97030010
:10D8F4002DE9F04F89B09B46DDE916769DF84C3052
:10D9040004460493DDE914930593049B0D460692A3
:10D91400002B00F0878006F00803079313F080FEC5
:10D9240006F0020A024600284BD020468549FFF73C
:10D93400BFFF8046BAF1000F08D016F0440F42D161
:10D944002A4620468049FFF7B3FF804406F00103CE
:10D954005BB17E4B049A204653F822207C4B7D49D0
:10D96400002A08BF1A46FFF7A3FF06F00803002B9E
:10D9740055D0794B049A204653F822207749FFF773
:10D9840097FF0546069B2BB11A4620467449FFF7BC
:10D994008FFF0544BBF1000F05D05A46204671495C
:10D9A400FFF786FF05444544B9F1000F49D1002F24
:10D9B4004FD1F30700F1C08031462046FFF78AFFBC
:10D9C400B4E08046B6E7684B18680028BDD0674BC2
:10D9D4004FF47A7E1B684FF46162B5FBF3F5B5FB37
:10D9E400F0F300FB13550EFB05F5B3FBF2FAB5FBA0
:10D9F400F0FC3C2102FB1A3200FB1C55B2FBF1F394
:10DA04000EFB05F5B5FBF0F501FB13222046009251
:10DA1400CDE901C552465649FFF74AFF95E706F09E
:10DA24000805AFE7BBF1010F06D1B9F1000F64D1CE
:10DA3400002F7BD000250CE0B9F1000FF8D04D4841
:10DA44005CE04D484B4622464C4912F05DFE002FE7
:10DA540068D0DFF82C91DFF82CA1102F3146204636
:10DA6400B8464FF0000B28BF4FF01008FFF732FF05
:10DA74005D4545DC059B514620461A78FFF718FFA3
:10DA84004FF0010B1BF0070F03D149462046FFF767
:10DA94000FFFD8453BD9059B5146204613F80B2070
:10DAA400FFF706FF0BF1010BBBF1100FEAD14FF0AA
:10DAB400000B20463449FFF7FBFE5A46059B2046DF
:10DAC4009A5CA2F120015F2928BF2E222F49FFF77B
:10DAD400EFFE0BF1010BBBF1100F1DD01BF0070F74
:10DAE40003D149462046FFF7E3FED8455A46E5D818
:10DAF40049462046FFF7DCFEEBE71F48049DA1E7FB
:10DB040049462046FFF7D4FE0BF1010BB0E720464F
:10DB14001F49FFF7CDFEC5E7059BB7EB0807434454
:10DB240005939AD1049B002B7FF443AF204609B0A0
:10DB3400BDE8F04F13F008BE2046054A0549FFF73B
:10DB4400B7FE39E7F7970300FB9703003C91030006
:10DB5400F29703007FA30300509103002098030071
:10DB6400269803002A98030048BC002044BC0020E7
:10DB740004980300951703006717030059FD01007B
:10DB8400379803002F980300399803003B9803004B
:10DB9400359803002DE9F0410F884B6805460C4683
:10DBA40090468E6886B0C7F382175BB1144A9B1AFD
:10DBB40043F3CF01002920DB2078C0F3C200FFF734
:10DBC4008BFD0346214651F8102B6088C2F34A228C
:10DBD400002A01EB020408BF00210022C0F30B104D
:10DBE400CDE90408CDE90214284631460197009294
:10DBF400FFF77EFE06B0BDE8F0810023E2E700BF38
:10DC04003090030042F20F7373B58B4228BF0B466A
:10DC140005680446052168460D4A12F00DFA0646C9
:10DC2400636828460B225B680A4913F080FD636829
:10DC34003246694628465B6813F079FD63681B2207
:10DC440028465B68044913F072FD02B070BD00BF42
:10DC540015A203005A9803003E98030000210123F3
:10DC6400064A904206D8064A01B901231360054BBF
:10DC740018607047012140085B00F2E740420F0042
:10DC840044BC002048BC0020F8B50D460446064FAD
:10DC94004618B44201D12846F8BD14F8011BBB68EC
:10DCA40001485B689847F4E76C8D0300014B0360FF
:10DCB4000020704798910300F0B40C4B0C4E5F6A3F
:10DCC4000C4BB34203D36FF08500F0BC70475D6822
:10DCD400BD4209D31C693CB195F802C00579AC4535
:10DCE40002D12346F0BC18472433EAE778BC00206D
:10DCF400F8AE0020B0AE00202DE9F04705460E46F0
:10DD04001746124CDFF84880DFF84890444503D3A7
:10DD14006FF08500BDE8F0876268D9F824309A4234
:10DD240012D3A36983B190782979884205D13A4600
:10DD340031462846BDE8F04718475279012A03D1F5
:10DD44003A463146284698472434DFE7B0AE0020EF
:10DD5400F8AE002078BC00202DE9F04105460E46BF
:10DD640017460A4CDFF82880444502D36FF085003B
:10DD740009E063690BB92434F6E73A46314628468C
:10DD840098470028F7D1BDE8F08100BFB0AE00206D
:10DD9400F8AE00200022024B1A605A60704700BFA0
:10DDA40033BD002070B50B4B0B4CA34201D30020B4
:10DDB40070BD0022196A1E7F0439D5B2AE4201D863
:10DDC4002433F2E7013211F832508542F5D10120B3
:10DDD400EEE700BFB0AE0020F8AE002008B5094859
:10DDE4000378C3F341130A3350F823303BB100F1F5
:10DDF400080200F110019847C043C00F08BD18463F
:10DE0400FCE700BF78BC002073B5C4B263060D46BE
:10DE14008DF8074007D02046FFF7C4FF78B10D4BBB
:10DE240093F8BA0058B120460A4E55B10BF080FB66
:10DE3400F3691BB108200DF107019847012002B0D6
:10DE440070BD0BF0A7FBF369002BF7D009200DF18F
:10DE54000701F2E778BC002008B50121034A044811
:10DE640013F046FC4FF0FF3008BD00BFA09803003C
:10DE7400D890030008B503460121034A034813F070
:10DE840040FC002008BD00BFC5980300D8900300E3
:10DE940004282DE9F74F04460F46DFF8989015D073
:10DEA40001282FD1DFF8908098F8B93053B300F0EF
:10DEB40061FE224D4D4522D24FF0000A2A6A2B7F83
:10DEC4005FFA8AF6B34204D82435F3E7FFF762FF1A
:10DED400E8E702EBC6063079019219F0C9F98346E6
:10DEE400307913F08BFCD8F8C430BBF1000F23EA6F
:10DEF4000003019AC8F8C4300AF1010ADFDA0023EA
:10DF040088F8B9300D4D4D4508D30B4B1B6A6BB1E6
:10DF14003946204603B0BDE8F04F1847EB681BB103
:10DF24003A462146284698472435ECE703B0BDE835
:10DF3400F08F00BFF8AE002078BC0020B0AE002007
:10DF440038B5054619F094F910F1780F044608D055
:10DF540038B101212B46094A094813F0D2FB204667
:10DF640038BD284613F04AFC064A0024D2F8C430CF
:10DF740023EA0003C2F8C430F1E700BFE0980300CD
:10DF8400D890030078BC002073B504468078234DF4
:10DF94008DF800002379627943EA0223ADF8023058
:10DFA400E37803F003038DF8043013F027FCD5F86D
:10DFB400C430064618420CD0A478204600F0BCFDBC
:10DFC4002046FFF7BDFF19F06BFF10B9962011F042
:10DFD40007F968460BF080FA10F1780F9DF80030CD
:10DFE40008D038B10E4A0F48012113F08AFB0020F3
:10DFF40002B070BD18460BF009FB10F1780F04D085
:10E0040018B19DF80030084AEDE70120D5F8C43076
:10E0140085F8B9003343C5F8C430E9E778BC00207B
:10E0240002990300D8900300269903002DE9F047D4
:10E03400924D0446AB690E461746C3B9207800F0EA
:10E044001F00012876D0022800F0DC8000BB94F980
:10E0540000103A68002963782EDA062B0CD0082BBE
:10E0640025D0ABB9537001231370022303E1984701
:10E074000028E3D100200DE06388190A0A1F012A51
:10E084008C4605D9072903D8DAB26B6A1C781CB907
:10E094006FF01500BDE8F0875D78654503D18242D5
:10E0A40000F0E48001302344F0E71B78E3E095F8C6
:10E0B400BA3013700123DEE0052B11D0092BE7D110
:10E0C40063886E6A002B32D1FFF764FE638885F89B
:10E0D400BA30EB69002BCDD0032069499847C9E7D2
:10E0E400A0780BF0C5F90028C4D0D1E77378042BCD
:10E0F40010D0052B11D0022B04D177796388BB4251
:10E1040008BF012033781E443378002BEED1002859
:10E11400BED0D9E796F80380F4E76388BB42F1D117
:10E12400B8F1000FEED13046FFF72EFFEAE7FF27E4
:10E13400B846E9E795F8BA30D7F800C0002BA7D065
:10E144006F6AA2883B4694F804E0187800289FD0B0
:10E154005978022904D193F80480F04500F29280A2
:10E164000344F2E78CF800308CF80130316081E729
:10E174001F4493E00B2B8BD100264FF0FF08B246CF
:10E18400C14606E07B78042B0FD0052B21D03B78C9
:10E194001F443B78002BF5D1EB6913B1514607209E
:10E1A4009847002E7FF466AF72E797F80280A38841
:10E1B40097F803909845EAD163889945E7D1B8F177
:10E1C400070F1CD805EB0803BA46012683F8BB9059
:10E1D400DDE7A3884345DAD1A3784B450AD0BE785E
:10E1E400304600F0A9FC3046FFF7AAFEB0FA80F6EC
:10E1F4007609CCE73846FFF7C7FE0646C7E7BA46B6
:10E204000026C4E794F900206378002A18DA002B6A
:10E214007FF43EAF24793F6863060AD02046FFF7B7
:10E22400C1FD00283FF434AF95F8BA30002B3FF419
:10E234002FAF394620460BF0CDF900237B7014E74D
:10E24400012B08D0032B7FF423AF6388002B7FF4CA
:10E254001FAF012103E0618800297FF419AFA08872
:10E26400FFF7D2FD00287FF405AF11E702293B60D8
:10E274007FF41BAF5B883360FCE600BF78BC0020F2
:10E2840032BD002094F9000063780028BFF672AF15
:10E29400002B3FF467AF0A2B7FF4FAAE3B78002BD8
:10E2A4003FF4F6AE797804297FF462AFB9788A42F4
:10E2B4007FF45EAF072A8EBF0023521992F8BB3059
:10E2C4008CF80030F6E600BF13B5164C237DF3B985
:10E2D400E26801AB8020A168019213F09EFA019AD2
:10E2E400A3681344A360E3689B1AE3606BB962B14B
:10E2F4002369E2889A4208DD94F8C82093FBF2F17E
:10E3040002FB11330BB90123237502B010BD0023A6
:10E3140080201A461946237502B0BDE810400BF060
:10E324009FB900BF78BC00207FB500230D46064688
:10E334000193002862D100293AD108220B460DEB43
:10E34400020118F0AEFF002804DA80200BF0F0F888
:10E3540004B070BD2E4C029AC4E903552260039A9E
:10E36400BDF80E30626004F13802A2609DF9082005
:10E374002575002A0FDB802B09D90121254A26485F
:10E3840013F0B6F980200BF0D3F82846DEE713B17A
:10E39400C4E90333DCE7FFF721FD0028D5D0E28888
:10E3A40023699A42D4BFE260E360FFF78DFFCFE7B1
:10E3B400174C01ABD4E90212002A05DC024618F01E
:10E3C40070FF0028C4DAC0E718F06BFF002804DAF5
:10E3D40080200BF0ADF83046B8E7019AA3681344E7
:10E3E400A360E3689B1AE360002BB1D104F1380306
:10E3F400A360FFF7F3FC0028D7D1A6E78028A7D1B4
:10E40400034BDA68002AD0D11B7D002BCDD19FE7C6
:10E4140078BC002047990300D8900300054B064AB6
:10E4240058629A62054A0020DA62054A1A63054A6C
:10E434009A61704778BC002031E00100BDDC010026
:10E444005DDD0100FDDC010010B5094B93F8B84017
:10E4540054B900F0EDF818B9BDE81040FFF7FCBC62
:10E46400FFF7DCFF204610BD6FF07700FBE700BF2D
:10E4740078BC00202DE9F341434D04466F6A4FF008
:10E48400FF324FF0FF33414810F006F995F8B860B9
:10E49400002E75D13E482C62E8610BF023FA0AF095
:10E4A400B5FF041E0FDB00F089FB041E0BDB7B7839
:10E4B400012B01D1FB796BB90121364A364813F09F
:10E4C40017F96FF01504314810F0AAF8204602B08D
:10E4D400BDE8F081684685F8C830ADF802308DF8A3
:10E4E40004608DF800600AF0F7FF041EEBDB802760
:10E4F40068468DF800700AF0EFFF041EE3DB304637
:10E5040026490BF0DBF9041EDDDB384623490BF00A
:10E51400D5F9041ED7DB224CDFF8888044451AD392
:10E5240000200BF073F8041ECDDBD5F8C430802036
:10E5340043F00103C5F8C4300BF068F8041EC2DBD5
:10E54400D5F8C430002443F48033C5F8C430012323
:10E5540085F8B830B7E70026276A227FF3B29A42DB
:10E5640001D82434DAE707EBC30257F833101079E3
:10E574000BF0A4F901360028EFD04FF0FF34A2E7E6
:10E584006FF077049FE700BF78BC002030AC002018
:10E5940095DE010060990300D89003002DE301008B
:10E5A400B0AE0020F8AE002030B51F4B8BB005AAEA
:10E5B40003F11005144618685968083303C4AB42C4
:10E5C4002246F7D11B7810222370002101A81AF0EB
:10E5D4004DFA1222002115481AF048FA102101A818
:10E5E4000CF078FA00281BDD0828B8BF082001AB1E
:10E5F40009381A1800200D4912F8013F0AAC04EB3F
:10E60400131403F00F0328336B4414F8144C13F859
:10E61400143C013008280C704B7001F10201EBD15D
:10E6240002480BB030BD00BF9A99030098D900206E
:10E634002DE9F04F4FF0000B87B0824C00AF00265D
:10E644004FF0011AB0463546B146237843B97E4BA4
:10E6540002349C42F3D17B481C37BD46BDE8F08FA1
:10E664006378052B1DD8DFE813F0AA000600EB0041
:10E67400AA001F005000402387F810B07B8287F85F
:10E6840014B007F110000AF005FF40B1082307F1A8
:10E6940010007B820AF0FEFE08B1A7F812B07B8A54
:10E6A400E37123781C44D0E7E378002BF9D1A378F5
:10E6B40013B308F101085FFA88F8F2E76B689C422B
:10E6C4001CD02435614B9D42F8D36D4688B06A4610
:10E6D4005F4BC2E90534032342F8103F00234FF493
:10E6E400C2515C48FFF71AF8AD465A4801215A4A0C
:10E6F40012F0FEFF0020AFE7584DE3E7AB68002BB4
:10E70400D7D0414620469847D3E7002D55D1544AE7
:10E714000121504812F0ECFFE7E72B6AA27803EBE3
:10E72400C103FB601B799A4205D001312B7F9942CA
:10E73400F3D34C4AECE70123E078DAB200F00300AB
:10E744003875207994F805C040EA0C20788294F951
:10E754000200002826DA4FF0010C03F110000CFA35
:10E7640000F010EA0A0F24D142F08000387407F157
:10E774001000C7E90032B9600AF08CFED7E9012124
:10E784003B68B0B9397CF86811F0800FA170017151
:10E794004FF001011DBF1032D2B2914099404AEAB4
:10E7A400010A7EE70120984010EA0A0F01D11046C1
:10E7B400DCE70133102BBFD1B7E70021B6E7032E06
:10E7C40025D1FFF7F1FEF86050B1FDF779FE38B1BD
:10E7D4001028FB6810D00121234A1E4812F088FF3C
:10E7E4006FF002012378091BE21804EB5303D142B2
:10E7F40014D50136F6B254E71846A31C00F11002F2
:10E8040050F8041B904243F8041BF9D1E8E7002EAA
:10E81400E6D1B9F1000F08D1144A79E702F801BC36
:10E8240013F8010902F8020DE1E7A4EB090389F8E2
:10E834000230C3F3072389F8033089F80480D8E74A
:10E84400A1462EE7ACAD0020ADAE0020F8AE00200E
:10E85400AB990300D0900300919A0300B0AE00205E
:10E86400CB9903000C9A0300299A0300749A0300BD
:10E87400094B00211A4610B51C78844205D15C6806
:10E884001CB1482303FB012010BD0131042903F10D
:10E894004803F1D10020F7E744BD00202DE9FF41F2
:10E8A40050F8303C0446103310F8346C0AD1036934
:10E8B40050F8282C98073DD5D2B9590715D500230F
:10E8C40044F8303C54F8303C10330BD054E909750B
:10E8D40054F81C8C19F0E4FA002857D02146324829
:10E8E40019F080FC04B0BDE8F08143F00403236117
:10E8F40003AB304654F82C1C12F08FFF034640B192
:10E9040001212A4A2A48009612F005FF6FF01503E8
:10E91400D6E7039A54F82C3C134444F82C3C54F89E
:10E92400283C9B1A44F8283C54F8243C134444F8EB
:10E93400243CC7E703AB304654F82C1C0AF01AFFFA
:10E9440003460028DCD1039D54F82C3C2B4444F8A6
:10E954002C3C54F8283C5B1B44F8283C54F8243CD9
:10E964002B4444F8243C002DA9D030460AF0C0FFC3
:10E97400B5FBF0F303FB1055002DA0D154F8283C4F
:10E98400002B9CD030460AF04BFF9BE744F8200C48
:10E99400A4F118000FF02EFF002DA3D042463946F3
:10E9A4003046A8479EE700BFC0B30020BF9A0300CB
:10E9B400E89003004B1E012B73B506460D4614D890
:10E9C400FFF756FF044690B9012D0ED101AB012289
:10E9D40030460DF103010AF0CDFE019B002BF5D169
:10E9E40001210C4A0C4812F083FE02B070BD19F0EC
:10E9F40057FA04F1340108B1012D05D1084602B0DB
:10EA0400BDE87040FFF74ABF044802B0BDE870405B
:10EA140019F0E8BBDC9A0300E8900300C0B30020BF
:10EA24002DE9F74F064617469846009112F03BFF32
:10EA34000446002870D14FF02003EFF3118283F3D2
:10EA44001288BFF36F8FDFF8D89001920022002361
:10EA540048460FF0F5FEA0B948226243DFF8C4A08F
:10EA64000AEB020BDBF8045015F1100F1ED1012143
:10EA740033462D4A2D4812F044FE48460FF0BAFEA4
:10EA84000BE00134042C09F14809DFD10121284AA3
:10EA9400264812F02DFE6FF00B05019B83F31188BD
:10EAA400BFF36F8F284603B0BDE8F08F0AF8026009
:10EAB4000C9A009BCBF814200D9ACBF81000CBF8DD
:10EAC40018206FF00F023046CBE90237CBF84480B0
:10EAD400CBF804200AF00CFF68B130460AF008FFB6
:10EAE400B7FBF0F202FB10772FB1DBF8442042F0C1
:10EAF4000402CBF8442018F0020F08D0482303FB8B
:10EB040004A10C48343119F06DFB0025C5E73046EB
:10EB14000AF086FE0546C0E76FF00F05C2E700BFA6
:10EB240060BD002044BD0020119B0300E890030059
:10EB3400F69A0300C0B3002010B54FF02003EFF3A2
:10EB4400118483F31288BFF36F8FFFF791FE50B1E6
:10EB54004368103307D16FF08B0300F13401436035
:10EB6400034819F03FFB84F31188BFF36F8F10BD86
:10EB7400C0B3002070B504250E4C4FF02003EFF312
:10EB8400118683F31288BFF36F8F6368103307D144
:10EB94006FF08B030848636004F1340119F022FB21
:10EBA40086F31188BFF36F8F013D04F14804E4D16B
:10EBB40070BD00BF44BD0020C0B3002070B5002567
:10EBC400094C0A4E3146204619F0DFFA0122A4F11D
:10EBD40018001146013519F055FA042D04F14804C2
:10EBE400F0D1002070BD00BF78BD0020A1E8010075
:10EBF400014608B5034812F040FE10B1012300F8A5
:10EC0400073C08BD64BE00200123016981F84B3034
:10EC14000B6833B191F849301BB10248083119F03F
:10EC2400E1BA7047C0B300200123016981F84A307A
:10EC34000B6833B191F848301BB10248083119F020
:10EC4400D1BA7047C0B30020012370B582F84830B0
:10EC540013680D4614463BB192F84A3023B10E486E
:10EC640002F1080119F0BEFAD4F890309A681B69D1
:10EC74009A4205D17DB904F1180140F6CD4204E071
:10EC840004F11801002DF8D00022BDE870400023E3
:10EC940001480FF04DBF70BDC0B3002038B5056901
:10ECA40095F89E0088B195F89F307BB985F8483077
:10ECB400D5F8900012F0BFF904460022002304485E
:10ECC40005F118010FF034FF204638BD0020FCE7A1
:10ECD400C0B30020F0B5D0F88C3004465B6885B032
:10ECE4001B6A1F7D384612F0DEFD0646F8B994F81B
:10ECF4008630E3B14FF48062A06F03A912F0BAF931
:10ED04000546A0B18306A4F1180384F8306001938A
:10ED1400084B08BF00F1FF35039900932A460223EC
:10ED24003846FFF77DFE2946A06F12F0BFF905B003
:10ED3400F0BD00BF4DEC010070B504460E460179EC
:10ED44001548154612F08CFD10B394F90020637831
:10ED5400002A16DB202B04D0222B0ED06FF0850066
:10ED64000AE02B681A6840F8102C9A8820F80C2CBA
:10ED74009B7900F80A3C002070BD638800F8093CC8
:10ED8400F9E7212BEAD10723103828603360F2E732
:10ED94006FF01200F0E700BF64BE002000210346BC
:10EDA4000C4AA0F84810106883F89C10C3F894002B
:10EDB40090889279A3F8980083F89A2083F89B109E
:10EDC4004022A3F89E1083F8A01003F14C0019F020
:10EDD4004DBE00BF00910300002310B50469C4F8C0
:10EDE400A8300C4BC4F8A400596804F1A80269B90E
:10EDF400C3E9002204F10800074919F0C6F904F137
:10EE04001800064919F0FFF9002010BD0A605A6085
:10EE1400F0E700BF64BE0020D5180300D9EC010060
:10EE240030B54FF400334268056942F2A10085B061
:10EE3400CDE90103002385F89D30106AADF80C106C
:10EE44000A22007901A912F0E8FC054C95F89D30DE
:10EE540023B9012018F06CFF013CF7D105B030BD97
:10EE6400A1860100002313B504698DF8071084F806
:10EE740048300122D4F890000DF1070112F0DBF8BC
:10EE840010B919F00DF840B12122002304F1180142
:10EE940006480FF04DFE02B010BD94F8A130002BCF
:10EEA400F2D00021212010F081F9E2E7C0B3002064
:10EEB40037B514460A1E054620DDD4F88C0004F14B
:10EEC4004C0112F0B8F8012384F8493023683BB1AF
:10EED40094F84B3023B1114804F1080119F082F978
:10EEE400D4F88C104B684A699A1ACB699B1A3F2B49
:10EEF40004D8012384F8A03003B030BD94F89E30C8
:10EF0400002BF9D0064B402200932846012301949C
:10EF140004F14C01FFF784FDEEE700BFC0B300200D
:10EF2400B5EE0100F7B50D4601461D4812F08DFC03
:10EF3400044610B3064656F8A439691E5F680529CD
:10EF44001BD8DFE801F01C1A031C222610F8061C4B
:10EF540099B9012300F8063C3B6A3246187BFFF757
:10EF6400A7FF14F85C2C42B93B6A1146187D0D4B7F
:10EF7400019600930223FFF753FD03B0F0BD304622
:10EF840003B0BDE8F040FFF709BF012304F8053CD6
:10EF9400F3E710F8053C002BEFD00023F6E700BFA1
:10EFA40064BE00204DEC010037B50024084D4FF03D
:10EFB400FF334FF480622846064900940FF080FD29
:10EFC4000549284618F072FF204603B030BD00BF43
:10EFD400C0B3002058DD0020629B03002DE9F047F8
:10EFE40080460C4600AF002936D0D1E90012E9462C
:10EFF4008AB06D46A3684FF0050A2E461A48C5E943
:10F004000723C5E9050146F810AF002332464FF443
:10F0140021511648FEF782FBD4E90312CD466369F9
:10F02400AD461348C5E90723C5E90501C5F810A095
:10F03400002332464FF421510C48FEF76FFBCD46B6
:10F04400E36901210B4A094812F05BFBA369012122
:10F05400094A064812F055FB214640460EF0B8FF17
:10F06400BD46BDE8F08700BF6B9B0300A090030082
:10F074009A9B0300C99B0300D89B030030BFFFF792
:10F08400FDBF00BF114B124A2DE9F041D518013DD7
:10F09400B5FBF3F5DFF83C805D430F4B074608EB07
:10F0A4000304013CB4FBF3F403FB04540E1B30468D
:10F0B4000A4919F0B4FC701942460021083E19F0BF
:10F0C400D5FC7E6704F10800BDE8F0810100000072
:10F0D400000000000800000004000000009103008C
:10F0E400044B99685869884203D003494FF0805211
:10F0F4000A6070475CD5002004ED00E070B52A4C2E
:10F1040006460D4629482A4912F0C7FCA36ADB06C5
:10F1140047D52648274912F0C0FC1120A36A1C07D2
:10F1240004D52248244912F0B8FC12201E4CA36ACC
:10F13400990712D521491D4812F0AFFC636BA26AEE
:10F14400120609D501211E4A184812F0DAFA1EB136
:10F15400A36A23F08003A3621320134CA36ADE077F
:10F1640004D51248174912F098FC1420A36A9C068F
:10F1740004D50E48144912F090FC15200A4B9A6AE3
:10F18400D10658BF9A6A9A6A920642BF5A6A22F412
:10F1940000525A629A6A42F0FF029A6200232B706C
:10F1A40070BD1020BAE700BF00ED00E0A09003009E
:10F1B400069C03001C9C03004F9C0300629C0300FC
:10F1C4007A9C0300909C0300AF9C030010B5244C70
:10F1D4002449254812F061FCA36A99013ED52248CE
:10F1E400224912F05AFC1E20A36ADA0104D51E48F3
:10F1F4001F4912F052FC1F20194CA36ADB0204D5EC
:10F2040019481C4912F049FC0220A36A1C0304D5C6
:10F214001548194912F041FC2120114CA36A5903E5
:10F2240004D51148154912F038FC2220A36A9A0328
:10F2340004D50D48124912F030FC2320084CA36A6F
:10F24400DB0304D508480F4912F027FC2420A36AE5
:10F254006FEA03436FEA1343A36210BD1D20C3E7A3
:10F2640000ED00E0DE9C0300A0900300F69C030088
:10F27400099D0300239D03004D9D03006B9D030026
:10F28400909D0300AA9D030070B5294C06460D46C7
:10F294002848294912F001FCA36AD9043CD5254821
:10F2A400264912F0FAFB1720A36A1A0504D521484F
:10F2B400234912F0F2FB18201D4CA36A9B0512D5BA
:10F2C4001C48204912F0E9FBA36BA26A100409D57B
:10F2D40001211D4A174812F014FA1EB1A36A23F43F
:10F2E4000043A3621920124CA36A590504D511489E
:10F2F400164912F0D2FB1A20A36ADA050ED50D487E
:10F30400134912F0CAFB1B20094A936A43F47F4352
:10F31400936200232B7070BD1620C5E7A36A9B047B
:10F32400F2D504480B4912F0B8FB1C20ECE700BFEF
:10F3340000ED00E0A0900300D59D0300EB9D0300C9
:10F344004F9C0300FC9D0300159E03002A9E0300AE
:10F35400459E0300AF9C03002DE9F0478AB0694B3A
:10F364000446D3F804A089461646002500AFCAF324
:10F37400080885F31188BFF36F8F02F07F43B3F160
:10F384007F4F1ED1D3071CD4500603D4110708D4D1
:10F39400012508E05C495D4812F07FFB16F0040685
:10F3A40000D04C4600250023FB71A8F10303092B70
:10F3B40000F28680DFE803F0077C7F79848484840C
:10F3C40084822C46EFE75249504812F066FB002332
:10F3D4004C4EFB71F36A9A0705D54E494B4812F01F
:10F3E4005CFB002329E0F36A002B01DA4A49F5E7C4
:10F3F400F36A5B00F5D54949444812F04EFB736942
:10F40400A26943F480737361BFF34F8FBFF36F8FAF
:10F41400736932F8022C23F480737361BFF34F8F46
:10F42400BFF36F8F4DF602739A4228D123680121EE
:10F434003B4A364812F065F92368FA79DAB907F1DC
:10F44400080604F1200C324620686168083403C2BF
:10F4540064451646F7D17A6A002D4ED0C2F30801EE
:10F4640021B96FEA52226FEA42227A62184607F102
:10F474000801FFF7B3FD2837BD46BDE8F087B36A3E
:10F48400DBB22BB10120F91DFFF738FE0346D4E7A8
:10F49400B36A13F47F4F04D00120F91DFFF7F4FE83
:10F4A400F4E7B36AB3F5803F9BD3FFF78FFEEDE734
:10F4B4000020F91DE8E70020F91DEFE719498DE761
:10F4C400194A6E461AF4F87F8AB0184B18BF1346CF
:10F4D4006A461749C2E90513A8F11003D3614FF432
:10F4E40000731384134B42F8103F00234FF411515F
:10F4F4000648FEF713F9B54673E722F4FF7222F0CB
:10F504000102B2E700ED00E08B9E0300A09003002F
:10F51400AE9E0300C59E0300E69E0300F49E030016
:10F52400139F03002F9F0300729E03005D9E030040
:10F53400539F030004000001044B5A6942F0100277
:10F544005A615A6942F480625A61704700ED00E0E2
:10F55400EFF30880EFF3098101B57246FFF7FCFE73
:10F5640001BD00BF002080F31488BFF36F8F00201B
:10F5740080F30A8880F30B8800F05AFD00200E49BE
:10F584000860BFF34F8F0D4880F3088800F03EF801
:10F59400202080F311880A484FF40061401880F35A
:10F5A4000988EFF314800221084380F31488BFF321
:10F5B4006F8F00F00DF9000094ED00E098FF00203B
:10F5C40058F20020BFF34F8F0549064BCA6802F476
:10F5D400E0621343CB60BFF34F8F00BFFDE700BF72
:10F5E40000ED00E00400FA05002318460649D1F8AE
:10F5F4009020C2F30722934200DB7047C1F8983091
:10F60400C1F8A0000133F6E700ED00E010B572B6D2
:10F61400002484F31388FFF7E7FF23464FF0FF30FD
:10F624000C4A03F120010133102B42F82100F8D1D8
:10F6340000234FF0FF30074A03F160010133102B20
:10F6440042F82100F8D162B6BFF34F8FBFF36F8F3A
:10F6540010BD00BF00E100E0084B9B6883420BD162
:10F66400EFF3058343B1064B5A6842F080525A6067
:10F674005A6A22F400425A6218F0FEBE5CD5002099
:10F6840000ED00E06FF00A01084A9368D967084961
:10F6940098674B6843F080534B60002383F31188D1
:10F6A400BFF36F8F9368D86F704700BF5CD500209D
:10F6B40000ED00E018498A6882F881E04FF03000DC
:10F6C4001044EFF3098C80E8F01F202080F31288A7
:10F6D400BFF36F8F114F4FF000664A698A603E6036
:10F6E4004FF07404141920680D4C206092F981E0E5
:10F6F400906F0023936780F3118802F1300090E843
:10F70400F01F8CF3098802F1000004B512F0CFF960
:10F71400BDE80440704700005CD5002004ED00E023
:10F724006CBE00201EF0040F0CBFEFF30880EFF353
:10F734000980816911F8021C0229FFD001B512F079
:10F74400A1F901BD40B2002807DB01234109034AA6
:10F7540000F01F00834042F82130704700E100E0D0
:10F7640040B200280CDB01220649430900F01F00C7
:10F774008240203341F82320BFF34F8FBFF36F8FB4
:10F78400704700BF00E100E0054B420953F8222016
:10F79400012300F01F0003FA00F01040704700BF7F
:10F7A40000E100E040B2002801F10101ACBF00F12A
:10F7B4006040064B4FEA4111C9B2ABBF00F561404E
:10F7C40000F00F0080F800131954704714ED00E0A6
:10F7D4000B4A08B50B4B22F07F029A60BFF34F8FA0
:10F7E400BFF36F8FD3F8882022F47002C3F8882007
:10F7F4000EF0A2FC0FF06AFD00F07CF80EF0E6FCBF
:10F8040000C0010000ED00E042F8203C009B0D49DF
:10F8140042F81C3C019B21F0010142F8183C029B78
:10F8240042F8081C42F8143C4FF0807342F8043C40
:10F83400002383674FF43C43203A0265C0F88030CC
:10F84400704700BFC9CE01000A4B446F98600A4B51
:10F854001C60436E83F30B88104681F309880021F2
:10F8640063B681F31188BFF36F8F00220023FDF785
:10F8740029FB00BF5CD500206CBE0020014910228A
:10F884000A60704710ED00E072B6404080F31188C2
:10F89400BFF36F8F01B500F0C7FA00280AD0BFF399
:10F8A4004F8F30BF00BF00BF00BF00BF00BF00BF0D
:10F8B40000BF00BFBDE8014062B6BFF36F8F704761
:10F8C40072B6494081F3118801B500F0ADFA002801
:10F8D4000AD0BFF34F8F20BF00BF00BF00BF00BFDF
:10F8E40000BF00BF00BF00BFBDE8014080F3118826
:10F8F40062B67047002320210348C2180133452B08
:10F9040082F80013F9D1704700E100E001B5EFF38C
:10F914000580A0F110004FEAC0000449014409C960
:10F924009847BDE80140024908470000F88D0300EC
:10F93400E5F001001FB5094C094A23460121094895
:10F9440000F00AF900230393074B0121E41A01A8EC
:10F954000193029400F00AF904B010BD00000720DE
:10F9640000A00020E4910300F8AE002010B50C7A4A
:10F974000B6804F01F0223F01F031A43CB686409C9
:10F9840023F01F03054943EA440343F00103C1F88C
:10F994009800C1F89C20C1F8A03010BD00ED00E033
:10F9A400072810B508D901210346054A054811F076
:10F9B400A8FE6FF0150010BDFFF7D8FFFBE700BFEE
:10F9C4006A9F0300809003002DE9F04F8946144696
:10F9D40006464FF00008514D85B0C84527DAD6F8E1
:10F9E40004A0BAF1000F44D0BAF11F0F17D91AF0CE
:10F9F4001F0F14D1D6F800B01BF01F0F0FD15846BB
:10FA040012F059F807460AEB0B00013812F053F8CC
:10FA1400874210D06FF01507414A3B4601E0434648
:10FA2400404A0121404811F06CFE6FF01504204655
:10FA340005B0BDE8F08F17F1160FEDD0BC42EBDD39
:10FA4400C5F89870D5F89C10C5F89870D5F8A03012
:10FA540021F01F0143F01F0BD6E900321A449942EA
:10FA640002F1FF3A1DD1D34507D13146F8B212F065
:10FA74002BF808F101080C36AFE73146C5F8987049
:10FA8400D5F89C3022F01F0203F01F031343C5F87E
:10FA94009C30E0B212F018F810F1160FC5D0441CD7
:10FAA400E7E7C5F89870D5F8A020013B23F01F03C1
:10FAB40002F01F021343D3453146E0B2C5F8A0302B
:10FAC400E8D012F001F810F1160FAED0C5F8987016
:10FAD400D5F89C209DF808300BF1FF3B62F304033A
:10FAE4008DF80830D5F8A0309DF808205B0863F342
:10FAF40047128DF80820D6E900321344009323F00E
:10FB04001F035B44A3EB0A03013023F01F03694680
:10FB1400C0B20393FFF744FFBEE700BF00ED00E06F
:10FB2400B39F0300909F0300809003000522044BC1
:10FB3400C3F89420BFF34F8FBFF36F8F704700BF9C
:10FB440000ED00E0BFF35F8F0022024BC3F8942066
:10FB5400704700BF00ED00E010B5034C2278FFF7BA
:10FB640033FF207010BD00BFAAD900202DE9F74F44
:10FB7400294D8A4606464FF00008AB46274FD0452C
:10FB84001BDAD6F80490B9F1000F3FD0316808466B
:10FB9400019111F090FF0199044609EB010001382D
:10FBA40011F089FF84424FF014021D4B08D002FB70
:10FBB40008F36FF015024BF8032003B0BDE8F08F93
:10FBC40014F1160F2C60F8D01978A142F5DD02FB70
:10FBD40008B0C7F89840C7F89840D7F89C4000F19F
:10FBE4000801007B64F304000871D7F8A0000C79C5
:10FBF400400860F347140C71D7F89C1021F01F01E2
:10FC04006960D7F8A01021F01F01296108F10108EB
:10FC140014350C36B3E700BF70BE002000ED00E0E1
:10FC2400AAD90020F0B53A4D87B02C68082C6CD8BE
:10FC34000020FFF787FF374B374AC3F8C0208442C0
:10FC44000DD1364D01A82C70FEF730F8002406467D
:10FC5400334FA6420AD1FFF769FF002053E06968D9
:10FC640001EB0011FFF782FE0130E8E70199200162
:10FC740001EB0413DA683A40B2F5001F22D0B2F562
:10FC8400800F2CD0B2F5801F36D15A689B68095872
:10FC9400013B22F01F0003440120844623F01F038C
:10FCA40040EA4C10CDE902218DF8100002A9287811
:10FCB4000593FFF775FE002823DB2B78013401330D
:10FCC4002B70C6E75A689B680958013B22F01F0055
:10FCD40003444FF0020C012023F01F03E0E75A68AD
:10FCE4009B680958013B22F01F0003444FF0000CAD
:10FCF400062023F01F03D3E701210A4A0A4811F022
:10FD0400F7FC6FF0150007B0F0BD4FF0FF30FAE7D5
:10FD1400F091030000ED00E0AAFF4400AAD90020FE
:10FD24000000F0FFD69F03008090030008B5024B4B
:10FD34001B689847002008BD84BE0020034B044A7A
:10FD44001860937843F002039370704784BE0020D8
:10FD540020A20020F0B587B007460E4614460021C5
:10FD6400102268461D4618F081FE02238DF80230E9
:10FD7400054B2A4621466846CDE90476019310F0E6
:10FD840063FA07B0F0BD00BFFF1A030008B50448CA
:10FD940010F012FD404080F311884FF0020002DFA2
:10FDA40007A0030008B50649064821F00701C1F180
:10FDB400005202F5E02210F061FF002008BD00BFF0
:10FDC400475A012088BE002007B50DF1070017F03F
:10FDD400D4FD114B98421CD14FF480620F4B104953
:10FDE400C3F8B8254FF40062C3F83C259DF807001A
:10FDF40017F0B6FD0B499DF8070017F0ACFD012084
:10FE04009DF8073098400CF0A1FA002003B05DF88B
:10FE140004FB6FF00B00F9E70000AD0B00A00240FB
:10FE24002CA0024028A10240052370B5144D154EA4
:10FE34002C780134B4FBF3F303EB8303E41A17F0D7
:10FE440022FD114A137823B156F82430C01A07282A
:10FE540013D90E4BD3F8141141B10021C3F8141176
:10FE6400D3F814312C700CB9012313702C7817F0CB
:10FE74000AFD46F82400012070BD0020FCE700BF05
:10FE8400ACD9002094BE0020ABD900200050004023
:10FE940048B1054B054A1B68B3FBF2F35843044BC6
:10FEA40043F001031847704738A9002040420F006F
:10FEB4001091030070B5049CC4F3072630460BF080
:10FEC40009FEE5B20146284617F04FFD0022012045
:10FED400074BA40B04F0FC041A51A8400CF03CFAA4
:10FEE40030460BF0ABFF2846BDE870400CF0DABB9F
:10FEF40080A0024073B501A80CF0CEFB264B9842BB
:10FF040047D10BF07DFF041E0ADA9DF804000CF0C3
:10FF1400C9FB01212346214A214811F0F2FB35E0B7
:10FF240040F607031F4D8DF80540AE68ADF8063066
:10FF34007468019B14B96FF05704EAE70821284656
:10FF4400194AA047041EE4DB3369002BF3D00122D5
:10FF5400082128469847041EDBDB01209DF8043065
:10FF640098400CF0F3F99DF805009DF804509DF8B5
:10FF7400076017F073FC0146284617F0F1FC0B4BA1
:10FF8400B60045F000459D51002CC2D1204602B078
:10FF940070BD6FF01204BCE70000AD0B29A0030094
:10FFA400C0900300808D0300B5FF010080A10240D2
:10FFB4002DE9F341144683681B690BB1002298476D
:10FFC400C4F3072630460BF08DFD0546304617F086
:10FFD40045FC4FF00008E7B20146384617F0C9FC6B
:10FFE400104B220E920043F8028030460BF072FD53
:0CFFF4000D4A4FEA943C0CF0FC0C47F066
:020000022000DC
:10000000004342F80C300146384617F0A6FC084B76
:1000100005F132020093304643460194520017F036
:1000200028FC02B0BDE8F08180A1024080A002401F
:10003000B9FE010017F08DBCF8B5144BD3F8302190
:10004000D3F83431072A1CD1023B032B02D8104AC3
:10005000D35CB3B1012600244FF050270D4D05208D
:10006000C7F81866C5F8144617F075FC3046C5F891
:10007000146617F070FCC5F81446C7F8184600203F
:10008000F8BD0022034BC3F81426F8E700F0072060
:100090005AA003000050004007B5042207480DEBAA
:1000A000020183681B689847002802DA17F0EDFB0D
:1000B0000190019803B05DF804FB00BF448D03007C
:1000C000F7B506460D460D488AB2836831461B686F
:1000D0009847002810DA00240CE02F1B042F28BFBB
:1000E000042717F0D2FB3A46019001A9301918F005
:1000F00098FC3C44A542F0D803B0F0BD448D030009
:1001000070B541690446867A0A4D59B1437ADB07D6
:1001100006D42C2303FB06535B6A1B689B68984735
:10012000002363612C20214606FB0050BDE870408F
:1001300017F089BFECAC00202C21827A054B01FB23
:1001400002339A6A1B7F801A1B3323F00303B0FB30
:10015000F3F07047ECAC002038B52C24827A094BC0
:1001600004FB02335B6A0C685B681A68944294BFB4
:100170000C600A60D3E90054FFF7DEFF05FB004086
:1001800038BD00BFECAC00202DE9F04385B005463A
:10019000684690461C46039118F0E4F9DDE90067D3
:1001A0004FF02003EFF3118983F31288BFF36F8FB1
:1001B0006B8B002B41D02A8B9A4225D90022002339
:1001C00028460EF0E5FA0446F0B189F31188BFF332
:1001D0006F8F039B002B41D032463B46684618F098
:1001E000E5F92C21A27A234B204601FB02335B6AFE
:1001F00003A91B681D68DDE90023A847606170BB87
:100200002046FFF77DFF24E0698B4B1E6B8389F34B
:100210001188BFF36F8F2B7F2A8BAC6A1B3323F0BF
:100220000303521A02FB0344124B134AEB1A9B10AE
:100230005343A3722B7FE372CBE789F31188BFF39B
:100240006F8F2346424628460EF0A2FA0446002845
:10025000BFD10024204605B0BDE8F08363610023D0
:100260000122636022812382039A63696282E360D0
:10027000F0E700BFECAC0020A38B2EBA70B52C25A4
:100280000B4C00B970BD037A4668013BDBB20372C8
:10029000002BF7D1C3604360837A05FB03431B6ADD
:1002A00013B198473046ECE7FFF72AFFFAE700BFA3
:1002B000ECAC0020F7B507460E461446FCF71EFED0
:1002C000051E18DB3CB97B1E012B04D8022E17D06B
:1002D000012E08BF0624F1B201ABA2B2B8B203F0FE
:1002E0002BFB061E0EDA2846FCF75EFE18F08AFC91
:1002F0000F4B76421E504FF0FF35284603B0F0BD3D
:100300001124E8E70023019843600367743017F075
:1003100063FE01988C3018F0F5F8062C02D1019894
:1003200013F0C5F82846034A0199FCF725FEE4E7D7
:100330000C0000002492030037B5069D0446E3B983
:100340000093002200230E4903F0DCFB04F174004B
:1003500017F042FE04F18C0018F0D4F8214605F1A4
:10036000740017F065FE204613F0A1F805F18C002B
:1003700003B0BDE830400EF067BF03B030BD00BF32
:10038000C11C03002DE9F04389B0DDE910980C464B
:1003900058EA090106464D46129F13D014F1690F21
:1003A00002D014F10B0F0DD1684618F0FFF8DDE90B
:1003B000002313430ED114F1690F0CBF6FF00B042F
:1003C0006FF0680418F01EFC364B64421C504FF06E
:1003D000FF305DE0B8F1FF3F08BFB9F1FF3F0DD03E
:1003E0004FF47A71A5FB013201FB0822DB0B43EAD3
:1003F00042433A689A4294BF3A603B60D6F8940010
:1004000008B111F059FC14F1690F0FD14FF40045F8
:1004100040F2E73000213C684FF47A720023E4FB9D
:100420000501FBF7E7FE0EF0C3FE27E00B3425D1F4
:10043000B6F89E40C4F38114012CE7D196F9A000D0
:1004400011F03CFC304616F03FFD0022034602212D
:1004500003A818F012FA4FF4004C40F2E7300021E4
:100460003D684FF47A720023E5FB0C01FBF7C2FEF6
:1004700002460B46214603A80FF054F93B685B0087
:10048000642B28BF64233B60D6F8940018B9002081
:1004900009B0BDE8F0834FF0FF324FF0FF3311F0A9
:1004A00009FCF4E70C000000F8B540F20313994290
:1004B000044600F08E80B1F5827F0ED2042923D04D
:1004C000B1F5817F2BD0032919D018F09BFB5F2257
:1004D0006D4B1A504FF0FF3015E045F21B43994227
:1004E00000F0C48045F22143994200F0BD8040F203
:1004F00005139942E9D11368C0F894300DE0006FFC
:10050000C0F340008003F8BD1268036F550423F068
:10051000020301D543F0020323670020F3E7D2E989
:1005200000158B889768D8071BD52B689F4202D18E
:100530006FF00B00E7E7042004F174021A612B68E6
:100540005A7B60F305025A732B689A7B6FF345124E
:100550009A732B68DA686FF39432DA602B6814337D
:100560002B608B885A072CD5B4F89E30C3F38113C7
:10057000012B02D06FF07700C5E794F9A00011F0CD
:100580009DFB2E68B742D3D0B4F89E302046C3F30B
:100590004103012B1AD116F09AFC022130612B681D
:1005A0005A7B61F305025A732B689A7B6FF34512ED
:1005B0009A732B68DA686FF39432DA602B6814331D
:1005C0002B60236F13F0050FA7D0D3E716F07CFC48
:1005D000E3E7D2E90056AB88DB070ED53368DB686A
:1005E00013F4FE1F02D1036FDF0703D5EB8843F03E
:1005F0000103EB80336814333360AB8858071ED592
:10060000B4F89E30C3F38113012B28D194F9A000D4
:1006100011F054FB3368DB6813F4FE1F0CD0236F1A
:10062000D90709D4B4F89E30C3F34103022B02BFAB
:10063000EB8843F00403EB80336814333360236F9B
:100640005A0742BFEB8843F00803EB80236FDB07B8
:100650007FF563AFEB8843F01003EB805DE7EB8839
:1006600043F00403EB80EAE7036F53E700231468C9
:1006700019461A4611F084FB6FF00043984294BF6C
:100680002060236049E700BF0C00000013B5002183
:10069000B0F89E300446C3F34103032B4FF0000231
:1006A0004FF00003009118D113F0EDFA04236360BA
:1006B000236F204643F00403236711F042FB2046DA
:1006C00003F0F8F9031E0BDA18F09CFA054A5B42B6
:1006D00013504FF0FF3002B010BD03F013FAE5E7FE
:1006E0000020F8E70C00000037B505460C4611BBAA
:1006F000B0F89E300022C3F34103032B00914FF06A
:1007000000030DD113F0BFFA031E0CDA18F07AFAC9
:100710000E4A5B4213504FF0FF34204603B030BD09
:1007200003F0F0F9F0E72B6F284643F001032B6745
:1007300011F007FBF1E74C1E18F064FA012C94BF8E
:1007400086221622014B1A50E5E700BF0C0000007C
:1007500013B5044612F0DEFE031E07DA18F052FA53
:100760000C4A5B4213504FF0FF3006E0B4F89E3065
:10077000C3F38113022B02D0002002B010BD6368C6
:100780000022009320460023034903F0BBF9031E17
:10079000F2DAE3E70C000000C11C03002DE9F0438E
:1007A000B0F89E309146C3F34102022A04468846BF
:1007B00085B03DD0012A056F13D16B0707D543687B
:1007C000002B35DD18F01EFA234A135004E018F010
:1007D00019FA7822204B1A504FF0FF3005B0BDE8CF
:1007E000F08315F00205C3F3811319BF002600271B
:1007F0004FF4C036002718BF184D012B426819D19D
:10080000002300921649002203F07CF9031E03DA4C
:1008100018F0F8F95B42D7E763684A46029341460D
:100820002B462046CDE9006713F05FF9031EEFDB8E
:100830000020D3E72B460292CDE900674A4613F029
:1008400054F9031EE4DB6368002200932046002372
:10085000034903F057F9E9E70C000000A31C03006B
:10086000C11C030013B5044612F048FF031E08DA4A
:1008700018F0C8F9084A5B4213504FF0FF3002B03D
:1008800010BD0023002220460449009413F0FBF918
:10089000031EEDDB0020F2E70C000000390302002C
:1008A0002DE9F04F16464FF0FF384FF0FF390A227E
:1008B0008FB05B0604460D46CDE90C89189F0B925C
:1008C00003D4036F13F002034BD000220023CDE9C1
:1008D0000C2308A817F046FEDDE90C23DDE90889A2
:1008E00008A817F03FFEDDE90823CDE90623636879
:1008F0000022009320460023284903F003F9031E39
:1009000037DB4FF0000A0DF12C0B6168DDE90C2399
:10091000002F38D0CDE90223199B04910093324671
:100920003B4629462046CDF804A013F036FA0028AD
:1009300026DADDE90C230146CDE9002320464246B4
:100940004B46CDF808B0FFF71DFD002818DBDDE9A8
:10095000062308A817F02AFEDDE90823CDE90C23B9
:10096000D3E70CAA052103F0C9F94FF4A022002314
:10097000AFE718F047F90A4A5B4213504FF0FF30D7
:100980000FB0BDE8F08FCDE9002302913B4632461F
:100990002946204613F0A8F9C9E700BFC11C03008F
:1009A0000C0000002DE9F341074688461646FCF787
:1009B000A5FA051E16DB3B6F980719D44FF0FF32DE
:1009C0004FF0FF3369463846CDE9002311F0C4FAF1
:1009D000041E0DDA2846FCF7E7FA18F013F9384B35
:1009E00064421C504FF0FF35284602B0BDE8F0814C
:1009F0000022002307F174000DF0CAFE044640B93E
:100A00002846FCF7D1FA18F0FDF80B222C4B1A50AF
:100A1000E8E7743017F034FBA8B190F83730990745
:100A200011D5236F284643F001032367FCF7BCFA76
:100A3000204611F086F9204603F03CF818F0E2F861
:100A400071221F4BE3E7B4F89E305A050ED518F01B
:100A5000D9F871221A4B1A502846FCF7A5FA2046FD
:100A600011F06FF9204603F025F8BBE723F400737B
:100A7000A4F89E30B8F1000F0ED06EB13268404637
:100A8000182A28BF182204F12C0117F0CAFFA38DE1
:100A9000012B07D10823336021462846094AFCF779
:100AA0006BFAA1E7022B01D11823F4E72846FCF7E3
:100AB0007BFA18F0A7F88622014B1A50CFE700BF47
:100AC0000C000000249203002DE9F04F91B0054680
:100AD0001E4614461A9F0191002A53D0B0F89E304A
:100AE000C3F38112022A40F010814FF0FF324FF021
:100AF000FF337106CDE9062303D4036F13F002031D
:100B00002FD000220023CDE90623DDE9068916F067
:100B1000020305F1740B009338D0102200210AA8BB
:100B200017F0A6FF0423CDF838B08DF83530012139
:100B30004B4642460AA80EF0F5FD00F10B010B29C9
:100B4000034618D8AB4A0A41D20714D4584617F0C6
:100B500093FA824600BB18F055F80B22A64B1A50A8
:100B60000EE0042106AA03F0C9F8284606A911F0F0
:100B7000F3F9031EC9DA18F045F85B429E4A135098
:100B80004FF0FF34204611B0BDE8F08F42464B468F
:100B900058460DF0FDFDDCE7D0E90398002F4BD05F
:100BA0001B9B002B48D0B5F89CB01D6813F033FB9D
:100BB0009AF83720C2F302123A809AF83720C2F32B
:100BC0000212012A51D100201422072DCDE90A0278
:100BD00073D950460AA913F0C3FD054610B96FF04A
:100BE00068026CE050460B9913F070FB0028F6D1B8
:100BF00050469AF83A1013F069FB0028EFD1EA68E2
:100C00007A605FFA8BFBBBF1110F07F1020565D12A
:100C100008AA0A9208220AA90B92504613F0A0FDD6
:100C20000028DCD002882A80CAE903983A88012A81
:100C300060D108221B9B1A60504613F086FC844248
:100C400028BF0446054622465046019913F013FC7E
:100C5000002858D1009B002B50D1504613F04BFA7E
:100C600016F0200F18BF2C468CE7022A3FD1002136
:100C70002822172DCDE90A121FD950460DEB02018B
:100C800013F06EFD05460028A9D050460B9913F0CD
:100C90001DFB0028A3D15046BAF83A1013F016FBFA
:100CA00000289CD105F10802391D183552F8040BB3
:100CB000AA4241F8040BF9D1A3E76FF01502CAE983
:100CC0000398524217F09EFF4B49009B0A50002B9D
:100CD0007FF456AF504613F00EFA51E7BBF1060F02
:100CE00005D10AAA0892142208A9099295E76FF083
:100CF0008502E4E7022A04D118229BE7CAE9039897
:100D0000AEE78622DEE76922DCE7012A6FD14FF0E9
:100D1000FF384FF0FF39DA07CDE9088907D5C3F36B
:100D20004103022B05D0802317F06CFF26E709232F
:100D3000FAE7770602D4036F990716D5002200233D
:100D4000CDE90823019B02A8CDE90534DDE908239C
:100D5000002406F4807BCDE90A2317F003FCDDE9CB
:100D60000289069B4BB923460DE013F00503E9D138
:100D7000042108AA02F0C2FFE4E72A6F12F004037C
:100D800007D06B685B42002B23EAE37427DA5B42EF
:100D9000CAE7D207F7D4DDE90AA75AEA070311D157
:100DA0003346284606AA05A910F0EAFF044420436A
:100DB0000FD0BBF1000FD6D042464B460AA817F021
:100DC000F5FBCEE728460AA911F0C6F8031EE7DABC
:100DD000D9E75AEA0707ECD16FF00A03D3E7B30764
:100DE0003FF5D0AE2146284612F0FCFFCAE60024AB
:100DF000C8E600BF7EF7FFFF0C00000070B50C4690
:100E0000062C11461A46049B30D004DCA4B3012CF6
:100E100005D06D2335E0292CFBD143292DE0042991
:100E200014D00CDC022918D00329F2D1B0F89E109E
:100E3000C1F381111B68042B22D111600BE00F2933
:100E400012D02629E5D1B0F89C10F3E71B68042BDB
:100E500016D143681360002070BD092102F04EFFD7
:100E60000028F8DA43420CE00A21F7E70129D0D143
:100E7000BDE8704016F008B80129CAD10821EDE795
:100E8000162317F0BFFE024A13504FF0FF30E3E77E
:100E90000C00000070B50D46062D114604461A469A
:100EA000049B4DD005DC002D50D0012D07D06D23C3
:100EB00031E0292DFBD11A2908D0432947E00F2919
:100EC0001FD005DC022915D00D29F0D1002070BDFE
:100ED0001929ECD1B0F89E10C1F3C20001380128E5
:100EE00038D813B1C2B3107868B921F40061A4F8FE
:100EF0009E10EBE7092102F0B3FE0028E6DA434238
:100F000009E00A21F7E7082B26D1104602F0C6F8BF
:100F1000031E07DA5B4217F075FE114A13504FF0BB
:100F2000FF30D4E700F0FAFEC0B1B4F89E3043F4CD
:100F30000063A4F89E3002F04FF884F8A000C5E7E3
:100F40000129B4D1BDE8704015F078BF0129AED1B8
:100F50000821D0E76A23DEE71623DCE71323DAE76C
:100F60000C000000F0B5034614460D4687B069B189
:100F700062B1B0F89E20D1050AD4802317F042FE5A
:100F8000224A13504FF0FF3007B0F0BD1623F5E7AB
:100F9000C2F38111012903D1C2F34102022AECD12B
:100FA0009A8D012A12D1ADF80020DA8D1B6BADF8B5
:100FB000022022686946082A28BF08222846019391
:100FC00017F02FFD082300202360DDE7022ADDD182
:100FD0000021ADF80020DA8D0591ADF8022001AFB7
:100FE00003F1300240333E4610685168083203C6B0
:100FF0009A423746F7D122686946182A28BF182234
:10100000284617F00EFD1823DDE700BF0C00000096
:10101000F0B5078C0446012F0E46154687B01FD148
:1010200000230193436A43B917F0ECFD16221E4BCF
:101030001A504FF0FF3007B0F0BD428C1B68ADF87E
:1010400002202A686946082A28BF082230460193F0
:10105000ADF8007017F0E5FC082300202B60EAE7EC
:10106000022FE1D118220021684617F001FD636AC2
:10107000002BD9D0628CADF80070ADF8022001AC25
:1010800003F11007224618685968083303C2BB42AF
:101090001446F7D12A686946182A28BF1822304614
:1010A00017F0BFFC1823D8E70C0000000048704779
:1010B00089A003002DE9F843036880461B680D46AC
:1010C000D3F80890B9F1000F00F0C68091F83730DE
:1010D000C3F30216012E40F08A808B688F69DC68AA
:1010E00002F0E0F9226903689A4202D12C460827EF
:1010F00023E0384604F1100101F096FD0028F5D1F7
:10110000AB68D9681031084610F057FF0246002836
:10111000ECD1284600F0BCF80446002800F08A8094
:101120008542E4D0284612F0E6FF94F8373066F3A3
:10113000061384F837304FF4C167E36A23B9484B8C
:10114000E362062384F8303040F6CD4200230E21BE
:10115000204602F033FE064600286BD0B7F5C16F7B
:10116000C16861D094F83730C3F30213012B4BD11F
:10117000A368DA681032104610F01FFF002853D021
:10118000104611F001F8636A06F10C001A68C1F804
:1011900006209B888F814B810E2110F04EFD314639
:1011A000204612F0C8FF204613F035F8D8F800208A
:1011B0002146D9F8183010689847064600283ED0D6
:1011C000A0684368A3600023436012F090FFB7F566
:1011D000C16F31D1284612F075FFA3684046D96827
:1011E000103100F081FA204612F085FF24E0022E33
:1011F00006D0012262F306130C4681F837309AE7D5
:101200000C464DF6865798E7022B0DD1A368DB6894
:101210001B7EFF2B08D1134B1B880B80A368DB6858
:101220005B6AC1F80230AEE7E36A1A680A609B881D
:101230008B80A8E76FF00B063046BDE8F883A06806
:1012400003462BB94268A260436012F050FFCAE720
:101250001A8A5B681644F4E76FF00106ECE700BFFA
:1012600089A003008FA0030008B5084B5A683AB163
:1012700000211B6823B19A4204D1044810F09BFF5F
:10128000104608BD19461B68F4E700BFBCBE00202D
:101290002DE9F04F89469046054685B020B90026D5
:1012A000304605B0BDE8F08F8368002BF7D05AB9FF
:1012B000806911F016FD38B9AB69DB6823B103F121
:1012C00048099B6C002BEAD04FF0FF324FF0FF3300
:1012D000664810F0A4FF0023654E039337684A4622
:1012E0003846A96903AB10F0B1FF044630BBDFF804
:1012F00084A10346DAF8000010F0A8FF0646002893
:101300003AD15D4804689CB32246314610F053FF41
:10131000D5F818B0B8F1000F3CD140F6CD4200230B
:101320001C21CDE9002358464346424602F0FEFD0B
:10133000064680BB4D4810F097FFB1E7B84207D092
:1013400002460399304610F036FF214610F02CFF7C
:10135000464810F089FFA36810341B682E461B69AD
:10136000EC626B62062385F8283085F8303097E709
:10137000FFF77AFF0446CBE7284612F0A3FE0146AA
:1013800006F1180016F069FE0028C1D0374810F0A9
:101390006BFF84E72E46B0681C210C3010F04DFC2A
:1013A000B368DF68002C52D0284612F08BFE01464D
:1013B00004F1180016F03CFEB369A360D9F80030C0
:1013C000E360A3681B681B69736200232360DAF87B
:1013D0000430C3BBCAE9004410F0FDFE606027483A
:1013E00017F0AAF8084305D14FF4803200232448AF
:1013F0000DF0F8FB4FF0060A86F828A0FFF756FE1E
:101400000821F06286F830A000230122B97004217F
:101410003B707A70FB7087F804A07971BB71FA7128
:10142000C7F81230FB82D9F80030BB61736A1A68C2
:10143000BA609B88BB817CB9AB68D8680C30036804
:10144000C7F80E3076E71C60CAF80440C4E7DBF842
:1014500000301B697362CDE7A3684146D86810F07D
:10146000E0FE0028EBD1C7F80E0063E7A8BE00201D
:10147000BCBE0020C4BE0020CCBE002078B400203A
:1014800068B400202DE9F74F044616465D484FF03A
:10149000FF3298464FF0FF330F469DF8309010F022
:1014A000BEFE0023DFF860A10193DAF800B03A46EF
:1014B0002146584601AB10F0C9FE054668BBBBF19A
:1014C000000F02D1514816F0AEFEB8F1000F0BD05C
:1014D0004F483A462146006801AB10F0B7FE18B1FC
:1014E00033680361B3888382B9F1000F0FD0002302
:1014F0004748214601933A46006801AB10F0A6FE2A
:101500000146002859D033680361B38883823D487F
:1015100003B0BDE8F04F10F0A7BE02460199504657
:1015200010F049FEDAF8003013B9384816F07BFEA7
:10153000336829462B61B3883548AB8210F034FEFE
:1015400005F118084FF00609AB69002BDFD04FF00A
:10155000FF334FF0FF3240460DF01AF9836880F8F0
:101560003090DB680646C362002C41D023680C3300
:10157000D3E8AF3F9A0407D44FF0FF324FF0FF3368
:1015800004F16C0010F04BFE2368002B37D05B6831
:10159000314620465B689847236807460C33D3E8FA
:1015A000AF3F9B0403D404F16C0010F05DFE002FEC
:1015B000CADA304612F09FFDC4E7164805688DB1BF
:1015C0002A4610F0F8FD10F006FEC5E901043B685C
:1015D000EB60336829462B61B3880D48AB8210F06D
:1015E000E3FD94E7FFF740FE05460028EBD18EE7C8
:1015F0004FF0FF324FF0FF336C2010F010FE00234D
:101600005B68FFDEA8BE0020C4BE002068B40020D6
:10161000BCBE0020CCBE00202DE9F843DFF8B4802A
:1016200005464FF0FF324FF0FF332B4810F0F7FD27
:10163000D8F8004024B100272668DFF8A09094B9BC
:10164000274F3C682CB14FF000082668DFF88C90DB
:1016500024BB3B6813B9234816F0E5FDBDE8F84309
:101660001D4810F001BE234615B1A268AA420DD153
:101670000021204610F0BCFD39464046224610F0BD
:101680009AFD2146484610F08FFD3B4626B1326850
:1016900034461F461646D2E73246F9E7234615B1CF
:1016A000A26895420DD10121204610F0A1FD4146CE
:1016B0003846224610F07FFD2146484610F074FD62
:1016C000434626B13268344698461646C0E732464D
:1016D000F9E700BFBCBE0020A8BE0020CCBE0020A1
:1016E000C4BE002068B4002008B50A460146074879
:1016F0000023006810F0AAFD20B1012110F078FD50
:10170000002008BD6FF00100FBE700BFC4BE002051
:10171000036804481BBA1B0C1B041B1A584258418F
:10172000704700BF0000FEA98388022B06D110235A
:10173000816900F10802064801F086BF012B05D13E
:10174000816900F1080210230248F5E7704700BFE5
:101750000A0060E0060004E010B5034611F004F84A
:10176000084A0C4682420BD11B6818688368DB6804
:101770000BB1984703461C420CBF0120002010BD4E
:101780000120FCE79CAD002038B54FF0FF324FF050
:10179000FF33044616480D4611F06AF8154A92F8D0
:1017A0002230D80708D5990706D59388AB4203D1D4
:1017B00074B193699C4218D092F8461011F001035D
:1017C00011D08B070FD5138DAB420CD144B9012436
:1017D000242303FB0424064811F067F8204638BD93
:1017E000D36B9C42F3D00024F5E70024F0E700BF60
:1017F00090AB002084C000202DE9F84F11F017F8BD
:101800004FF0FF3380464FF0FF32254811F030F89B
:10181000244B1C68002C3DD054F8145905B1143DDC
:101820004FF0FF364FF0020BDFF878A001E02C46B6
:101830001D4604F114094146484611F072FB074663
:1018400080B94946504684F82DB010F050FF3A4612
:101850003946484611F02CFB4DB16B69002BE6D0A0
:10186000143BE4E7864228BF0646AC42F4D1731C21
:1018700010D04FF4004440F2E73000214FF47A7268
:101880000023E6FB0401FAF7B5FC02460B460648C6
:101890000DF0A8F9BDE8F84F014811F006B800BFF7
:1018A00090AB002074C0002028B5002038B54FF060
:1018B000FF324FF0FF3305461D4810F0D9FF1D4B96
:1018C0001B687BB11A684FF0FF344FF47A705BB934
:1018D000631C1BD1184816F0A6FCBDE8384014481C
:1018E00010F0E3BF1A46EEE7D9691B8C491B00FBD9
:1018F0000313002B09DD9C4228BF1C461AB1116856
:1019000013460A46E3E71146FAE700244FF4004580
:1019100040F2E73000214FF47A720023E4FB050126
:10192000FAF768FC02460B4603480DF05BF9D4E772
:1019300090AB00207CC0002058B500202DE9F74F67
:101940008B46394DBDF83010814690469A464FF08F
:10195000FF324FF0FF333548019110F089FF95F8C1
:101960002260019916F0010604D095F84630DB0795
:1019700058D4012624277743EC1994F82230C4F870
:10198000189043F0010384F82230A4F804B079B32E
:10199000DBB223F0060343F0020384F822302184F3
:1019A00010F045FF2146E061214810F096FEE06905
:1019B000FFF77CFF0837BBF1020F05EB070221D1CF
:1019C0004346164608F1100735461868596808332B
:1019D00003C5BB422E46F7D110234946154801F0F6
:1019E00033FE124810F061FF204603B0BDE8F08FCF
:1019F00094F82230218423F0060343F0040384F892
:101A00002230D7E7D8F800304946EB51242303FBB6
:101A1000065595F8223008486AF3410385F82230CC
:101A20000423DCE70024DCE784C0002090AB002026
:101A30007CC00020090060E0050004E038B50546E0
:101A40004FF0FF324FF0FF330F4810F011FF95F8C1
:101A5000224014F0010412D02846FFF765FE294603
:101A60000A4810F044FE18B110F0E1FEFFF71EFF27
:101A7000012495F822306FF3000385F822300248E4
:101A800010F013FF204638BD90AB00207CC0002032
:101A900010B50C46002184F82D10024610F0F1FE1E
:101AA00058B30821104610F0ECFE30B30123214654
:101AB000104684F82E3014F0C0F8F0B910F0B7FEDC
:101AC0004FF0FF334FF0FF32A0620C4810F0D0FE11
